:020000040000fa
:080000000001040000000000f3
:020000040000fa
:10020000cf702100007f2100000188000000000065
:100210000c000700a0472500010020001100070086
:10022000000020000000e000020032000000020098
:1002300000000000ee520200000000000040da0062
:100240000000fe004440a900000020000000e00083
:100250000300320000002000a00188004440a800f4
:100260000000060091018800800078000000eb008b
:1002700015003700e280400032a0b4009101ba00be
:10028000e280400032a0b4009102ba00e280400057
:1002900032a0b4000002eb00472bde00f507b200ed
:1002a000602ce10004003a000059eb008301e900f2
:1002b000fdff3e00040037006128e100010032002c
:1002c0000082eb00040007001101ba000200e00008
:1002d000e8ff3a00000006003159ba008301e90046
:1002e0000c0032002159ba008301e90008003200f5
:1002f0000400e00003003a00e280400032a0b400b5
:10030000f5ff370011d9ba008301e900faff3a007e
:100310008100e800e180400032a0b4000000060047
:10032000839f68000100e00002003d0060001000b3
:10033000e08018000300e00002003d0060011100b1
:10034000e0811900fc0007004f00e00002003b00c4
:1003500060001000e080180000000600889fbe00ca
:100360008a9fbe00010578000100e000040035000e
:1003700008003c000000e0002000320005003700cb
:1003800060001000e080180002003b0001f02c002b
:100390001a0037000004be006011b8006b0920008d
:1003a0000982cf00020039000882cf000441b0006a
:1003b000694252000e00320008003b008281710049
:1003c000610164008904d1000884d3008b05e80032
:1003d0000442e800f9ff3a00050037000804440031
:1003e00089844c008b05e9000442e900fbff3a00d8
:1003f0005a0107000af0a70001f0a0004f05be0057
:100400004f04be0000000600889fbe008a9fbe0009
:100410008c1f78000004be00760107000478a3005a
:1004200026003a006120e1002500320009f8a3000f
:1004300025003a006420e10021003200f507b100f8
:100440000508a3000200320000004000818048003f
:100450006044b800031020000200200000004000ab
:10046000818048000805440089854c000a05410048
:100470008b8549000a0550008b8558000300330026
:100480000a00be0002047400838474008301d1005a
:100490000281d300830f7100f0ff3a008904d1007c
:1004a0000884d3006001490082017800c1adde00fc
:1004b000fb07b000290107006c0137000960a000ac
:1004c0000800be00690137001202200052b88800ff
:1004d000f0ff2f00f1ff2700640137000001be008c
:1004e000440107000470a70003f0a1006509b100f2
:1004f000160032000d0035006828e10006003500c6
:10050000f0ff2f00f1ff27000300e00013003b0085
:100510000100280000000500000040008180480024
:100520008502e900fcff3a0008003700f88f42001e
:1005300002003c008000eb00000005008100d100bb
:100540000080d3008502e800fcff3a000300e000d1
:1005500002003b0060001000e08018000000060070
:10056000889fbe008a9fbe008c1f7800460107004e
:100570003501330003866c006450e1002e00320028
:100580006420e100330032006150e1002f003200ae
:100590006120e1003100320085855500eb07b00095
:1005a000090020000804200005003700080444006a
:1005b00089844c000a0031000603430087834b0006
:1005c0000001530081815b00f8ff33000203be008d
:1005d0000800a0000804440089844c00f6ff39009c
:1005e000c639dd00830173000100320013002000d2
:1005f0008904d1000884d3000998a30005003200c3
:100600000800a7000300a0008904d1000884d300db
:100610008b05e8008904d1000884d3000001eb00b9
:100620000281d200cd00070001f0a1000cf0a7006c
:1006300001f0a0000d0137006420e1000f0132003d
:100640000801be000200be00f7ff37006120e10094
:100650000a0132006000b800f3ff370000002000fc
:1006600001f82700f0ff3700889fbe008a9fbe0078
:100670008c1f780004010700f300330003866c0030
:100680006450e100240032006420e10027003200c1
:100690006150e100220032006120e10021003200bf
:1006a0008b854200eb07b1000134b800003ab80076
:1006b0000804420089844a00013ab8000030b800ba
:1006c0008880400009014a00040033000000400017
:1006d00081804800020149008b05e900c909dd005d
:1006e000830170000100320013002000c814de00f6
:1006f0004814dd004709de001200b200c808de0021
:10070000088470009500070001f0a1000cf0a7001c
:1007100001f0a000d50037006120e100d7003200d1
:100720000801be000200be00f7ff37006150e10083
:10073000fcff3a00d10037006022b800060220001a
:100740000000d0008180d2000482d2008582d200d5
:100750000000a0000202520083825a000300310010
:100760000202420083824a000000a1000603e90061
:10077000f3ff3a000000060003f0a200889fbe00cd
:100780008a9fbe008c1f7800bf000700ae003300b8
:100790006450e1004f0032006420e100520032005a
:1007a00003826c0007003b000905d0000306d0005f
:1007b000820f54000c065d00020039000200320076
:1007c00089017800030678008582550004003d0009
:1007d0000003fd008103fd008502ea008b854200d5
:1007e000840f720002003b0060001000e0801800df
:1007f0006011b8000005eb007a28e1000a0039001a
:1008000006007800c75ddd00f707b200878075003d
:100810002d003700828171000a01780061056000b7
:100820008180d1000080d3008502e900f9ff3b0000
:10083000060440008784480002003b006004140066
:10084000e0841c000988a300070032008a8171003f
:1008500082817100610164008904d1000884d300a1
:100860008b05e800170037000978a30013003a0051
:100870000b00e000130034008b05e900080444007d
:1008800089844c000a4474000978a3000d003a00e2
:100890000b00e000070034008b05e9000804440069
:1008a00089844c0001003a000b0020000978a30065
:1008b000f7ff32000001eb00020037008281710077
:1008c0000a017800250007000cf0a70001f0a00045
:1008d000660037006420e10002003a00838f6c005c
:1008e000660033000801be000200be005f00370052
:1008f0000001be003f0007000470a70003f0a10044
:1009000003f8a30013003a006509b100100032009b
:10091000090035006928e1000200350001002800c7
:100920000000050000004000818048008502e900c9
:10093000fcff3a0000000600f88f42000500350079
:100940008100d1000080d3008502e800fcff3a005e
:10095000000006008000eb00000005008100200080
:10096000618055000b003d000b00200061fe2f0050
:100970000100e1001d00340082817100610164000a
:100980008904d1000884d3000000e800faff3a008f
:10099000710020006100640003007000020060002c
:1009a0000900320061044400e0844c000988a5007d
:1009b000050032008b05e8006808e10002003a00fb
:1009c0008904d1000884d300f20f20000258e1000e
:1009d00005003d00c75ddd00f907b20089807500a4
:1009e00008007800000006000bf827008b00780054
:1009f00000000500c70ade00f107b200f50fb200e3
:100a000008003200e1cf4200020032000170a00075
:100a100024000500810f7000010032000408050069
:100a200044000500810f700002003a001400050028
:100a30008502e9000000400081c04800fcff3b0047
:100a40000170a000240005000200be006450e10017
:100a5000050036006420e100020036000968a300aa
:100a600001003a000800be000160a0004f067800b7
:100a70004f05be004f04be0000000600f0ff2f002f
:100a8000f1ff2700f9ff37000004be00d9ff07007f
:100a90000003be000405be000200be00d5ff070033
:080aa000844f75000000060000
:020000040000fa
:0200000401f009
:04000000f6ff000007
:020000040000fa
:0200000401f009
:04000400ff7f00007a
:020000040000fa
:0200000401f009
:04000c00ffff0000f2
:020000040000fa
:0200000401f009
:04001000ffff0000ee
:020000040000fa
:0200000401f009
:04001400ffff0000ea
:020000040000fa
:1000080076550000765500007655000076550000bc
:1000180076550000765500007655000076550000ac
:10002800765500007655000076550000323e0000f7
:100038007655000076550000cc2600007655000065
:1000480076550000ba500000ba510000fe49000081
:10005800765500007655000076550000aa29000064
:10006800765500007655000076550000765500005c
:1000780076550000582900007825000076550000c4
:10008800de1500001e1700007655000076550000aa
:1000980076550000cc240000765500007655000007
:1000a800765500007655000076550000765500001c
:1000b800765500007655000076550000765500000c
:1000c80076550000765500007655000076550000fc
:1000d80076550000765500007655000076550000ec
:1000e80076550000765500007655000076550000dc
:0800f80076550000765500006a
:020000040000fa
:1001080076550000765500007655000076550000bb
:1001180076550000765500007655000076550000ab
:10012800765500007655000076550000323e0000f6
:100138007655000076550000cc2600007655000064
:1001480076550000ba500000ba510000fe49000080
:10015800765500007655000076550000aa29000063
:10016800765500007655000076550000765500005b
:1001780076550000582900007825000076550000c3
:10018800de1500001e1700007655000076550000a9
:1001980076550000cc240000765500007655000006
:1001a800765500007655000076550000765500001b
:1001b800765500007655000076550000765500000b
:1001c80076550000765500007655000076550000fb
:1001d80076550000765500007655000076550000eb
:1001e80076550000765500007655000076550000db
:0801f800765500007655000069
:020000040000fa
:100aa8000000fa00f0988000610060000000e0009b
:100ab8000800320040a180000000e80040a1880042
:100ac80040a18000ea0f5000020036000000eb0051
:100ad8000099880018c2bf00684060000004e00068
:100ae80008003a0018c2bf00624060000004e0003d
:100af80004003a0018c2bf00644060000004e0002f
:100b080001003200030807000080fa000000060018
:100b18000000fa00e0a580000000e800e0a58800d9
:100b2800e1a58000401f2000808f5000050036009e
:100b3800f80707000000eb00009988001e13a900c1
:100b48001fb3a800f0988000620060000000e00079
:100b580004003200020907001e33a9000000eb0060
:100b6800e0a58800f0988000680060000000e000c0
:100b780004003200a600070061000700a30907006f
:100b88001e73a900f0988000012020000100600079
:100b98000000e00004003200d800070069000700e8
:100ba8009a0907001f33a90020a680006100600091
:100bb8000000e000040032000b010700720007008b
:100bc80092090700c414a90020a6800070006000e4
:100bd8000000e00004003200440107007b00070029
:100be8008a090700c494a900f0988000700060008a
:100bf8000000e000040032007d0107001e93a900f8
:100c08000000eb00e0a58800f0988000014020007b
:100c1800010060000000e00004003200c901070084
:100c28001f53a9000000eb00e0a5880020a6800063
:100c3800620060000000e0000400320017020700b4
:100c4800c434a9000000eb00e0a5880020a68000bd
:100c580001022000010060000000e00004003200f2
:100c680065020700c4b4a9000000eb00e0a58800f5
:100c7800f098800001022000010060000000e00000
:100c880004003200b30207001eb3a9000000eb0005
:100c9800e0a58800f0988000018020000100600035
:100ca8000000e00004003200370307001f73a900aa
:100cb8000000eb00e0a58800f09880000100220009
:100cc800010060000000e000040032003505070064
:100cd8001fb3a9000000eb00e0a58800f098800091
:100ce80001042000010060000000e0000200320062
:100cf800470707001ed3a9000080fa00000006007d
:100d08000000fa00a00a200070a18800000220005c
:100d180080a188003008200090a188000000eb0026
:100d2800b0a18800b00b2000b0a588000000eb003f
:100d380060a18800e00f2000d01088000080fa0031
:100d4800000006000000fa00a00a200070a1880038
:100d58000002200080a188003007200090a18800b0
:100d68000000eb00b0a18800b00b2000b0a58800ff
:100d78000000eb0060a18800e00f2000d010880080
:100d88000080fa00000006000000fa00a00a200017
:100d980070a188000002200080a188003006200091
:100da80090a188000000eb00b0a18800b00b2000e3
:100db800b0a588000000eb0060a18800e00f2000cb
:100dc800d01088000080fa00000006000000fa0039
:100dd800a00a200070a188000002200080a18800dd
:100de8003005200090a188000000eb00b0a1880029
:100df800b00b2000b0a588000000eb0060a18800bf
:100e0800e00f2000d01088000080fa0000000600e3
:100e18000600fa000000eb0020079800900280000e
:100e280010079800ff3ffc00210420009140780043
:100e380000ceb30000c0700042e0b7001e00900072
:100e4800900288008d60a9000000eb002007980040
:100e58001a0037002e009000000040008000780043
:100e680000c02f0000804000707c8800707c8000eb
:100e780080007800f00720001200200051260700ab
:100e8800707c800000017800f007200000027800e4
:100e98002e0090000000400080007800003b2100f8
:100ea80000804000130020008400780069260700b5
:100eb8002e0090000000e800200798002e00900007
:100ec800ed0f5000e3ff360090028000000f78001d
:100ed800ff3ffc0042c0bf007f40600001c6b30076
:100ee8000140700042e0b7001e00780090028800c0
:100ef8008d60a8000080fa00000006000600fa00d5
:100f08000000eb002007980090028000100798006e
:100f1800ff3ffc00210420009140780000ceb30080
:100f280000c0700042e0b7001e00900090028800e8
:100f38008d60a9000000eb00200798001a00370018
:100f48002e009000000040008000780000c02f00b4
:100f580000804000707c8800707c800080007800f1
:100f6800f00720001200200016260700707c800081
:100f780000017800f0072000000278002e009000a1
:100f88000000400080007800003b21000080400005
:100f980013002000840078002e2607002e00900001
:100fa8000000e800200798002e009000fd0f500078
:100fb800e3ff360090028000000f7800ff3ffc003e
:100fc80042c0bf007f40600001c6b300014070000e
:100fd80042e0b7001e007800900288008d60a800eb
:100fe8000080fa00000006000800fa000000eb008c
:100ff800300798000000eb0020079800900280005e
:1010080010079800ff3ffc00210420009140780061
:1010180000ceb30000c0700042e0b7001e00900090
:10102800900288008d60a900000220003007980017
:101038001d0037003e00900000004000800078004e
:1010480000c02f0000804000707c8800707c800009
:1010580080007800f007200012002000d925070042
:10106800707c800000017800f00720000002780002
:101078002e0090000000400080007800003b210016
:10108800008040001300200084007800f12507004c
:101098002e0090000000e800200798003e00900015
:1010a8000000e80030079800be009000d003200040
:1010b800808f5000dfff360090028000000f78001c
:1010c800ff3ffc0042c0bf007f40600001c6b30084
:1010d8000140700042e0b7001e00780090028800ce
:1010e8008d60a8000080fa00000006000800fa00e1
:1010f8000000eb00300798000000eb002007980084
:101108009002800010079800ff3ffc002104200097
:101118009140780000ceb30000c0700042e0b700f4
:101128001e009000900288008d60a900e003200056
:10113800300798001d0037003e0090000000400076
:101148008000780000c02f0000804000707c88007c
:10115800707c800080007800f007200012002000da
:1011680098250700707c800000017800f0072000b7
:10117800000278002e0090000000400080007800f7
:10118800003b21000080400013002000840078000c
:10119800b02507002e0090000000e8002007980006
:1011a8003e0090000000e80030079800be00900064
:1011b800b0052000808f5000dfff360090028000cd
:1011c800000f7800ff3ffc0042c0bf007f40600076
:1011d80001c6b3000140700042e0b7001e0078006d
:1011e800900288008d60a8000080fa0000000600c8
:1011f8000400fa000000eb00100798000000eb0064
:10120800000f7800a00a200070a1880000012000cb
:1012180080a188002008200090a18800c00120003b
:10122800b0a188000000eb001007980014003700f8
:101238001e009000000040008000780000c02f00d1
:1012480000804000707c88001e0090000000400074
:1012580080007800a0f9200000804000000178009c
:10126800707c800080007800f007200013002000c8
:10127800472507001e0090000000e80010079800ae
:101288001e009000ef0f5000e9ff36000000eb0051
:1012980010079800200037001e0190001e007800fb
:1012a80080004000a0f92000008040001000780075
:1012b800c801de0002004100e111200080804000ea
:1012c8000032210000804000030878001e009000d2
:1012d8000000e800100798001e0190001e0078002a
:1012e80080004000a0f920000080400090017800b4
:1012f80002004100e11120008080400000322100fe
:1013080000804000030878001e0090000000e800fc
:10131800100798001e0fe8001e009000ff0f5000f5
:10132800ddff3600b00b2000b0a588000000eb0000
:1013380060a18800e00f2000d01088000080fa002b
:10134800000006000400fa000000eb0010079800f7
:101358000000eb00000f7800a00a200070a18800b0
:101368000001200080a188002007200090a18800ab
:10137800c0032000b0a188000000eb00100798000f
:10138800140037001e009000000040008000780024
:1013980000c02f0000804000707c88001e00900074
:1013a8000000400080007800a0f920000080400084
:1013b80000017800707c800080007800f007200031
:1013c80013002000f22407001e0090000000e8002f
:1013d800100798001e009000ff0f5000e9ff36002c
:1013e8000000eb0010079800200037001e01900055
:1013f8001e00780080004000a0f920000080400016
:1014080010007800c801de0002004100e111200050
:1014180080804000003221000080400003087800ee
:101428001e0090000000e800100798001e019000c0
:101438001e00780080004000a0f9200000804000d5
:101448009001780002004100e111200080804000f6
:101458000032210000804000030878001e00900040
:101468000000e800100798001e0fe8009e0090009a
:10147800f0032000808f5000dcff3600b00b200006
:10148800b0a588000000eb0060a18800e00f2000f4
:10149800d01088000080fa00000006000400fa005e
:1014a8000000eb001007980000022000000f7800f1
:1014b800a00a200070a188000001200080a18800f7
:1014c8002006200090a18800c0032000b0a1880059
:1014d8000002200010079800140037001e0090003a
:1014e800000040008000780000c02f00008040000d
:1014f800707c88001e00900000004000800078008a
:10150800a0f920000080400000017800707c800075
:1015180080007800f0072000130020009c240700ba
:101528001e0090000000e800100798009e00900040
:10153800d0032000808f5000e8ff36000000eb0049
:1015480010079800200037001e0190001e00780048
:1015580080004000a0f920000080400010007800c2
:10156800c801de0002004100e11120008080400037
:101578000032210000804000030878001e0090001f
:101588000000e800100798001e0190001e00780077
:1015980080004000a0f92000008040009001780001
:1015a80002004100e111200080804000003221004b
:1015b80000804000030878001e0090000000e8004a
:1015c800100798001e0fe8009e009000b00320004e
:1015d800808f5000dcff3600b00b2000b0a58800db
:1015e8000000eb0060a18800e00f2000d010880008
:1015f8000080fa00000006000400fa000000eb007a
:101608001007980000022000000f7800a00a2000b0
:1016180070a188000001200080a18800200520001a
:1016280090a18800c0032000b0a18800e00320003a
:1016380010079800140037001e00900000004000ba
:101648008000780000c02f0000804000707c880077
:101658001e0090000000400080007800a0f92000e3
:101668000080400000017800707c800080007800d5
:10167800f007200013002000452407001e009000fa
:101688000000e800100798009e009000b0052000b8
:10169800808f5000e8ff36000000eb00100798002c
:1016a800200037001e0190001e00780080004000d6
:1016b800a0f920000080400010007800c801de007a
:1016c80002004100e111200080804000003221002a
:1016d80000804000030878001e0090000000e80029
:1016e800100798001e0190001e007800800040003e
:1016f800a0f920000080400090017800020041001d
:10170800e11120008080400000322100008040006c
:10171800030878001e0090000000e80010079800f9
:101728001e0fe8009e009000b0032000808f50003c
:10173800dcff3600b00b2000b0a588000000eb00ed
:1017480060a18800e00f2000d01088000080fa0017
:10175800000006000000fa00a00a200070a188001e
:101768000001200080a188001008200090a18800b6
:1017780060012000b0a1880020b58000e30f500070
:101788000300320020b58000e40f500010003a003a
:10179800604380004800de00f0a1880060438000bc
:1017a80000a28800704380004800de0010a2880074
:1017b8007043800020a28800a08e80004800de00d0
:1017c80030a28800a08e800040a288000c0037005c
:1017d8000000eb00f0a188000000eb0000a28800e8
:1017e8000000eb0010a288000000eb0020a2880097
:1017f8000000eb0030a288000000eb0040a2880047
:10180800f08080004800de0050a28800f080800050
:1018180060a28800008180004800de0070a2880075
:101828000081800080a28800108180004800de00ce
:1018380090a2880010818000a0a2880050828000b9
:101848004800de00b0a2880050828000c0a2880054
:1018580020b580004800de00d0a2880020b58000b6
:10186800e0a28800e0a280000000e00009003a0041
:101878000000eb00e0a28800817c8000a0aa2a007a
:10188800808f500029003a0040002000e0a2880024
:1018980026003700e0a28000e10f500009003a005e
:1018a80010002000e0a28800817c8000a0aa2a0005
:1018b800808f50001d003a0040002000e0a2880000
:1018c8001a003700e0a28000e20f500003003a003f
:1018d80020002000e0a2880014003700e0a2800069
:1018e800e30f500003003a0020002000e0a2880027
:1018f8000e003700e0a28000e40f500003003a0019
:1019080030002000e0a2880008003700e0a2800034
:10191800e50f500003003a0050002000e0a28800c4
:10192800020037000000eb00e0a288006081800020
:101938004800de00f0a288006081800000a38800d3
:10194800907c80004800de0010a38800907c800016
:1019580020a38800508280004800de0030a3880061
:101968005082800040a38800b00b2000b0a58800fa
:101978000000eb0060a18800e00f2000d010880074
:101988000080fa00000006000000fa00a00a20000b
:1019980070a188000001200080a1880010072000a5
:1019a80090a18800a0022000b0a1880020b5800086
:1019b800e30f50000300320020b58000e40f500010
:1019c80010003a00604380004800de00f0a1880063
:1019d8006043800000a28800704380004800de0059
:1019e80010a288007043800020a2880080438000f5
:1019f8004800de0030a288008043800040a28800b2
:101a08000c0037000000eb00f0a188000000eb009c
:101a180000a288000000eb0010a288000000eb0084
:101a280020a288000000eb0030a288000000eb0034
:101a380040a28800f08080004800de0050a28800a4
:101a4800f080800060a28800412d2000914078003d
:101a580000c8b30000c060000004e00004003a00c1
:101a680000a680000000a00000a68800040037003f
:101a780000a68000e1ff2f000100600000a688009a
:101a8800e0c2bf00614060000004e00004003a00ca
:101a980000a680000010a00000a6880004003700ff
:101aa80000a68000d1ff2f000100600000a688007a
:101ab800e0c2bf00624060000004e00004003a0099
:101ac80000a680000020a00000a6880004003700bf
:101ad80000a68000b1ff2f000100600000a688006a
:101ae800e6c2bf00624060000004e00004003a0063
:101af80000a680000030a00000a68800040037007f
:101b080000a6800071ff2f000100600000a6880079
:101b1800e6c2bf00614060000004e00004003a0033
:101b280000a680000040a00000a68800040037003e
:101b380000a68000f1fe2f000100600000a68800ca
:101b4800cfc2bf000042b2000004e00005003a0026
:101b580000a68000010220000100700000a6880095
:101b68000400370000a68000f1fd2f00010060008e
:101b780000a68800cfc2bf000044b2000004e00005
:101b880005003a0000a68000010420000100700052
:101b980000a688000400370000a68000f1fb2f0093
:101ba8000100600000a68800c8c2bf006440600051
:101bb8000004e00005003a0000a6800001082000ab
:101bc8000100700000a688000400370000a680000d
:101bd800f1f72f000100600000a68800c8c2bf000e
:101be800684060000004e00005003a0000a680009c
:101bf800011020000100700000a6880004003700d2
:101c080000a68000f1ef2f000100600000a6880008
:101c1800c8c2bf00704060000004e00005003a0040
:101c280000a68000012020000100700000a68800a6
:101c38000400370000a68000f1df2f0001006000db
:101c480000a68800a07c8000011020000100600030
:101c58000000e0000500320000a680000100280016
:101c68000100700000a688000400370000a680006c
:101c7800f1ff27000100600000a68800e9c2bf004c
:101c88000044b2000004e0000400320010a6800006
:101c98000000a00010a688000400370010a68000ed
:101ca800e1ff2f000100600010a68800e9c2bf0014
:101cb800704060000004e0000400320010a68000bc
:101cc8000010a00010a688000400370010a68000ad
:101cd800d1ff2f000100600010a68800e9c2bf00f4
:101ce8000042b2000004e0000400320010a68000a8
:101cf8000020a00010a688000400370010a680006d
:101d0800b1ff2f000100600010a68800e9c2bf00e3
:101d180001c8b300014060000004e0000400320084
:101d280010a680000030a00010a68800040037002c
:101d380010a6800071ff2f000100600010a6880027
:101d4800d0c2bf00624060000004e000040032001e
:101d580010a680000040a00010a6880004003700ec
:101d680010a68000f1fe2f000100600010a6880078
:101d7800d0c2bf00644060000004e00005003200eb
:101d880010a68000010220000100700010a6880043
:101d98000400370010a68000f1fd2f00010060004c
:101da80010a68800e8c2bf0001c8b3000140600067
:101db8000004e0000500320010a6800001042000a5
:101dc8000100700010a688000400370010a68000eb
:101dd800f1fb2f000100600010a68800e9c2bf00d7
:101de800614060000004e0000500320010a6800099
:101df800010820000100700010a6880004003700c8
:101e080010a68000f1f72f000100600010a68800de
:101e1800e9c2bf00624060000004e0000500320033
:101e280010a68000011020000100700010a6880094
:101e38000400370010a68000f1ef2f0001006000b9
:101e480010a68800e8c2bf000044b2000004e00009
:101e58000500320010a6800001202000010070005b
:101e680010a688000400370010a68000f1df2f00bc
:101e78000100600010a6880000a680004800de006f
:101e880070a2880000a6800080a2880010a68000aa
:101e98004800de0090a2880010a68000a0a288005a
:101ea800e08880004800de00b0a28800e08880005a
:101eb800c0a2880020b580004800de00d0a28800bb
:101ec80020b58000e0a28800e0a280000000e000c9
:101ed80009003a000000eb00e0a28800817c800045
:101ee800a0aa2a00808f500029003a004000200054
:101ef800e0a2880026003700e0a28000e10f500031
:101f080009003a0010002000e0a28800817c8000cf
:101f1800a0aa2a00808f50001d003a00400020002f
:101f2800e0a288001a003700e0a28000e20f50000b
:101f380003003a0020002000e0a2880014003700c7
:101f4800e0a28000e30f500003003a0020002000c8
:101f5800e0a288000e003700e0a28000e40f5000e5
:101f680003003a0030002000e0a288000800370093
:101f7800e0a28000e50f500003003a005000200066
:101f8800e0a28800020037000000eb00e0a2880011
:101f9800608180004800de00f0a288006081800037
:101fa80000a38800907c80004800de0010a3880011
:101fb800907c800020a38800508280004800de00ca
:101fc80030a388005082800040a38800b081800040
:101fd8004800de0050a38800b081800060a388001c
:101fe8007000200070a38800c07d200080a38800b6
:101ff80080b180004800de0090a3880080b1800096
:10200800a0a3880070b18000e10f500004003a00de
:10201800f0a580000000a000f0a5880004003700ab
:10202800f0a58000e1ff2f0001006000f0a5880006
:1020380080ae8000640060000000e0000400320010
:10204800f0a580000010a000f0a58800040037006b
:10205800f0a58000d1ff2f0001006000f0a58800e6
:1020680010b38000e10f500004003a00f0a5800092
:102078000020a000f0a5880004003700f0a580002b
:10208800b1ff2f0001006000f0a588006181800089
:10209800c0888000808f500004003900a07c800038
:1020a800700060000000e00004003a00f0a5800025
:1020b8000030a000f0a5880004003700f0a58000db
:1020c80071ff2f0001006000f0a58800f0a58000d6
:1020d8004800de00b0a38800f0a58000c0a38800f7
:1020e800a17c800000002200008060000000e00069
:1020f80006003a00f0b780004800de00d0a3880050
:10210800f0b78000e0a38800050037005081800008
:102118004800de00d0a3880050818000e0a388003a
:10212800408380004800de00f0a3880040838000e0
:1021380000a48800b0b680004800de0010a4880023
:10214800b0b6800020a48800e08d80004880de00c2
:1021580030a48800e08d800040a4880000818000c1
:102168004800de0050a488000081800060a4880038
:10217800108180004800de0070a488001081800073
:1021880080a48800b00b2000b0a588000000eb00f8
:1021980060a18800e00f2000d01088000080fa00bd
:1021a800000006000000fa00a00a200070a18800c4
:1021b8000001200080a188005007200090a188001d
:1021c800c0032000b0a1880020b58000e30f5000b4
:1021d8000300320020b58000e40f500010003a00e0
:1021e800604380004800de00f0a188006043800062
:1021f80000a28800704380004800de0010a288001a
:102208007043800020a28800804380004800de00e0
:1022180030a288008043800040a288000c0037006c
:102228000000eb00f0a188000000eb0000a288008d
:102238000000eb0010a288000000eb0020a288003c
:102248000000eb0030a288000000eb0040a28800ec
:10225800f08080004800de0050a28800f0808000f6
:1022680060a28800412d20009140780000c8b3008a
:1022780000c060000004e00004003a0000a68000ee
:102288000000a00000a688000400370000a6800017
:10229800e1ff2f000100600000a68800e0c2bf0037
:1022a800614060000004e00004003a0000a68000dd
:1022b8000010a00000a688000400370000a68000d7
:1022c800d1ff2f000100600000a68800e0c2bf0017
:1022d800624060000004e00004003a0000a68000ac
:1022e8000020a00000a688000400370000a6800097
:1022f800b1ff2f000100600000a68800e6c2bf0001
:10230800624060000004e00004003a0000a680007b
:102318000030a00000a688000400370000a6800056
:1023280071ff2f000100600000a68800e6c2bf0010
:10233800614060000004e00004003a0000a680004c
:102348000040a00000a688000400370000a6800016
:10235800f1fe2f000100600000a68800cfc2bf0078
:102368000042b2000004e00005003a0000a6800028
:10237800010220000100700000a688000400370058
:1023880000a68000f1fd2f000100600000a6880073
:10239800cfc2bf000044b2000004e00005003a00cc
:1023a80000a68000010420000100700000a688003b
:1023b8000400370000a68000f1fb2f000100600038
:1023c80000a68800c8c2bf00644060000004e000a6
:1023d80005003a0000a680000108200001007000f6
:1023e80000a688000400370000a68000f1f72f003f
:1023f8000100600000a68800c8c2bf0068406000f5
:102408000004e00005003a0000a68000011020004a
:102418000100700000a688000400370000a68000b4
:10242800f1ef2f000100600000a68800c8c2bf00bd
:10243800704060000004e00005003a0000a680003b
:10244800012020000100700000a688000400370069
:1024580000a68000f1df2f000100600000a68800c0
:10246800a07c800001102000010060000000e00056
:102478000500320000a6800001002800010070005d
:1024880000a688000400370000a68000f1ff27009e
:102498000100600000a68800e9c2bf000044b20045
:1024a8000004e0000400320010a680000000a00034
:1024b80010a688000400370010a68000e1ff2f0056
:1024c8000100600010a68800e9c2bf0070406000eb
:1024d8000004e0000400320010a680000010a000f4
:1024e80010a688000400370010a68000d1ff2f0036
:1024f8000100600010a68800e9c2bf000042b200d7
:102508000004e0000400320010a680000020a000b3
:1025180010a688000400370010a68000b1ff2f0025
:102528000100600010a68800e9c2bf0001c8b3001e
:10253800014060000004e0000400320010a68000a2
:102548000030a00010a688000400370010a6800004
:1025580071ff2f000100600010a68800d0c2bf00e4
:10256800624060000004e0000400320010a6800011
:102578000040a00010a688000400370010a68000c4
:10258800f1fe2f000100600010a68800d0c2bf0035
:10259800644060000004e0000500320010a68000de
:1025a800010220000100700010a688000400370016
:1025b80010a68000f1fd2f000100600010a6880021
:1025c800e8c2bf0001c8b300014060000004e00099
:1025d8000500320010a680000104200001007000f0
:1025e80010a688000400370010a68000f1fb2f0019
:1025f8000100600010a68800e9c2bf0061406000c9
:102608000004e0000500320010a680000108200048
:102618000100700010a688000400370010a6800092
:10262800f1f72f000100600010a68800e9c2bf0082
:10263800624060000004e0000500320010a680003f
:10264800011020000100700010a688000400370067
:1026580010a68000f1ef2f000100600010a688008e
:10266800e8c2bf000044b2000004e00005003200e8
:1026780010a68000012020000100700010a688002c
:102688000400370010a68000f1df2f000100600071
:1026980010a6880000a680004800de0070a288000e
:1026a80000a6800080a2880010a680004800de00f6
:1026b80090a2880010a68000a0a28800e088800070
:1026c8004800de00b0a28800e0888000c0a2880030
:1026d80020b580004800de00d0a2880020b5800028
:1026e800e0a28800e0a280000000e00009003a00b3
:1026f8000000eb00e0a28800817c8000a0aa2a00ec
:10270800808f500029003a0040002000e0a2880095
:1027180026003700e0a28000e10f500009003a00cf
:1027280010002000e0a28800817c8000a0aa2a0076
:10273800808f50001d003a0040002000e0a2880071
:102748001a003700e0a28000e20f500003003a00b0
:1027580020002000e0a2880014003700e0a28000da
:10276800e30f500003003a0020002000e0a2880098
:102778000e003700e0a28000e40f500003003a008a
:1027880030002000e0a2880008003700e0a28000a6
:10279800e50f500003003a0050002000e0a2880036
:1027a800020037000000eb00e0a288006081800092
:1027b8004800de00f0a288006081800000a3880045
:1027c800907c80004800de0010a38800907c800088
:1027d80020a38800508280004800de0030a38800d3
:1027e8005082800040a38800b08180004800de004d
:1027f80050a38800b081800060a38800700020008a
:1028080070a38800c07d200080a3880080b180006c
:102818004800de0090a3880080b18000a0a3880053
:1028280070b18000e10f500004003a00f0a580006c
:102838000000a000f0a5880004003700f0a5800083
:10284800e1ff2f0001006000f0a5880080ae800045
:10285800640060000000e00004003200f0a5800081
:102868000010a000f0a5880004003700f0a5800043
:10287800d1ff2f0001006000f0a5880010b3800090
:10288800e10f500004003a00f0a580000020a000ed
:10289800f0a5880004003700f0a58000b1ff2f00e4
:1028a80001006000f0a5880061818000c088800078
:1028b800808f500004003900a07c80007000600008
:1028c8000000e00004003a00f0a580000030a000fd
:1028d800f0a5880004003700f0a5800071ff2f00e4
:1028e80001006000f0a58800f0a580004800de0027
:1028f800b0a38800f0a58000c0a38800a17c800058
:1029080000002200008060000000e00006003a009d
:10291800f0b780004800de00d0a38800f0b7800040
:10292800e0a3880005003700508180004800de00e1
:10293800d0a3880050818000e0a3880040838000f5
:102948004800de00f0a388004083800000a48800cf
:10295800b0b680004800de0010a48800b0b6800041
:1029680020a48800d08d80004880de0030a4880034
:10297800d08d800040a48800008180004800de00df
:1029880050a488000081800060a488001081800025
:102998004800de0070a488001081800080a48800b0
:1029a800b08d80004880de0090a48800b08d800043
:1029b800a0a48800408e80004800de00b0a48800f3
:1029c800408e8000c0a48800308e80004800de0061
:1029d800d0a48800308e8000e0a48800708e80002b
:1029e8004800de00f0a48800708e800000a58800f2
:1029f800b00b2000b0a588000000eb0060a18800a3
:102a0800e00f2000d01088000080fa0000000600c7
:102a18000200fa00a00a200070a18800000120002e
:102a280080a188004008200090a188004000200074
:102a3800b0a18800e0012000000f78001e00780097
:102a4800000040008000780000c02f000080400097
:102a5800707c88001e00780000004000800078002c
:102a6800a0f920000080400000017800707c800000
:102a780080007800f007200013002000441f0700a2
:102a8800f0012000000f78001e00780000004000d0
:102a98008000780000c02f0000804000707c880013
:102aa8001e0078000000400080007800a0f9200097
:102ab8000080400000017800707c80008000780071
:102ac800f007200013002000311f0700b07e8000af
:102ad8004800de00f0a18800b07e800000a28800d7
:102ae800c07e80004800de0010a28800c07e800002
:102af80020a28800b00b2000b0a588000000eb00e1
:102b080060a18800e00f2000d01088000080fa0043
:102b1800000006000000fa0030032000f0108800d2
:102b28000000eb00b010880017e2a80017a2a80068
:102b380016a2a900612120009140780090cfb3002f
:102b480000c0600016e2b7001602a9000000eb0002
:102b5800c01088001942a80019e2a90018c2bf00d5
:102b6800f043b20018e2b7008720a9008700a90047
:102b7800010a200091407800f0c8b30000c060004e
:102b880001c4b30001407000a0e0b700010a2000b2
:102b98009140780080cfb30000c060000024a000fe
:102ba800a0e0b7008f20a8008f00a8000080fa00de
:102bb80000000600809fbe00821f78003400f800e5
:102bc80000002000a00188000000fa000ec2bf002b
:102bd800624060000004e000010032000e22a900fb
:102be8001e13a8000000eb0040a18800f0988000a8
:102bf800620060000000e00086003a000ec2bf00dc
:102c0800644060000004e00084003a0000998000fd
:102c18000000e0000b003a00e010800010998800e6
:102c280011998000a00a2000808f50007b003a0094
:102c380010002000009988000000eb0060998800cf
:102c48007600370000998000e10f500005003a0037
:102c58002000200000998800e0108000209988005a
:102c68006e00370000998000e20f500005003a001e
:102c78003000200000998800e0108000309988001a
:102c88006600370000998000e30f500022003a00e8
:102c98004000200000998800e010800050998800ca
:102ca800509980004099880050998000fc0f50008e
:102cb80003003a007003200000998800570037008d
:102cc80051998000c0032000808f500003003a0013
:102cd8008003200000998800500037005099800038
:102ce800e10f500003003a004000200000998800de
:102cf8004a003700509980000000e00003003a00c5
:102d08004000200000998800440037000000eb00d4
:102d1800009988004100370000998000e40f5000b6
:102d28000b003a00e0108000509d8800519d800003
:102d3800b00b2000808f500002003a001e33a8001c
:102d48001e13a9000000eb0000998800330037002b
:102d58000199800070032000808f500013003a0012
:102d6800509980000000e90050998800609980001f
:102d7800e210800000004000f20040000032210014
:102d88000080400002087800609980000000e80098
:102d980060998800509980000000e0001f003a0008
:102da80040002000009988001c003700019980002d
:102db80080032000808f500013003a005099800053
:102dc8000000e9005099880060998000e2108000b6
:102dd80000004000f2004000003221000080400066
:102de80002087800609980000000e8006099880077
:102df800509980000000e00008003a0040002000e0
:102e080000998800050037000000eb000099880051
:102e180002003700e0108000109988008700a900a0
:102e28000080fa003400f9004f0178004f00be001e
:102e380000400600809fbe003400f800000020001b
:102e4800a00188000000fa0060a180000000e000f6
:102e580005003a0070a18000d01088001000200002
:102e680060a188003900370060a18000e10f5000a0
:102e780005003a002000200060a1880080a18000a1
:102e8800d01088003100370060a18000e20f5000a8
:102e980005003a003000200060a1880090a1800061
:102ea800d01088002900370060a18000e30f50008f
:102eb80007003a004000200060a18800b0a180000f
:102ec800d01088000000eb00c0a188001f00370068
:102ed80060a18000e40f50001a003a00b0a1800001
:102ee8000000e00006003a002004200060a18800ed
:102ef800b00b2000d01088001e53a8001300370024
:102f08004000200060a18800c0a1800000004000af
:102f1800e111200080804000003221000080400044
:102f280010007800d0108800c0a180000000e800e0
:102f3800c0a18800b0a180000000e900b0a188000d
:102f4800020037002004200060a188008720a90023
:102f58000080fa003400f9004f00be00004006006f
:102f68000000fa008700a9008f00a9000000eb000c
:102f7800709988000000eb00809988000000eb0041
:102f88008099880027003700409980000000e900f8
:102f980040998800409980000000e9004099880025
:102fa80071998000018040007201400000322100c8
:102fb8000000410010007800609d88000100e800d2
:102fc800709988007199800001804000720140006a
:102fd800003221000000410010007800709d880038
:102fe8000100e80070998800609d80004800dd00bd
:102ff800609d880082998000619d8000709d80009e
:1030080080814000020041000109200080804000ca
:103018000032210000804000030878000200e80028
:103028008099880040998000e10f5000d6ff3e004b
:1030380020998000f00f500057003a003199800025
:1030480010082000808f500002003a001eb3a8002c
:103058006b0037003199800010072000808f5000e6
:1030680002003a001f73a8006500370031998000fc
:1030780050072000808f500002003a001fb3a800bc
:103088005f0037003199800020082000808f5000b1
:1030980002003a001e93a8005900370031998000b9
:1030a80020072000808f500002003a001f53a8001c
:1030b800530037003199800020062000808f50008f
:1030c80002003a00c434a8004d003700319980004e
:1030d80020052000808f500002003a00c4b4a800e8
:1030e800470037003199800040082000808f500049
:1030f80002003a001ed3a800410037003199800031
:1031080050082000808f500006003a005099800037
:10311800e10f50003a003a001ef3a8001f13a9005f
:10312800370037003199800060082000808f5000f8
:1031380005003a0050998000e10f500030003a0035
:103148001f13a8002e003700319980007008200056
:10315800808f500005003a0050998000e10f500020
:1031680027003a00d015a8002500370031998000c3
:1031780080082000808f500005003a005099800098
:10318800e10f50001e003a00d035a8001c0037009f
:10319800000000001a00370021998000000220007a
:1031a800808f500015003a003199800030082000c7
:1031b800808f500001003a001e73a80031998000ea
:1031c80030072000808f500001003a001f33a8000c
:1031d8003199800030062000808f500001003a00ad
:1031e800c414a8003199800030052000808f500059
:1031f80003003a00c494a800010037000000000052
:103208008f00a8000080fa00000006004400fa00c1
:10321800889fbe000000eb00102798000000eb001c
:1032280010279800140037001e209000000040006e
:103238008000780000c02f0000804000707c88006b
:103248001e2090000000400080007800a0f92000b7
:103258000080400000017800707c800080007800c9
:10326800f007200013002000491d07001e209000d1
:103278000000e800102798009e209000d00320004e
:10328800808f5000e8ff3600d07f8000c08788001c
:10329800c08780000000e00002003a0050d0200003
:1032a800c0878800c0878000010020004a09dd002f
:1032b800c600de00810071004a00dd00d08788006a
:1032c800e1878800a07e800080007800000021004f
:1032d80000806000002798008e20900000002100e8
:1032e800808f500002003a00958fa8000100370037
:1032f800958fa900d17c800060042000808f500049
:103308000300360050012000d07c880007003700f9
:10331800d07c8000e90f500003003e0050012000df
:10332800d07c88000100370000000000d17c8000bc
:10333800400620000088b900d07c8800a17c80006d
:1033480000002100008060000000e0000f003a004b
:10335800d17c800000f42100010050000100200011
:10336800208288003182880020828000318280009b
:103378004a09dd00c600de00810071004a00dd0058
:1033880020828800318288000e003700d17c8000be
:10339800a0a0210001005000010020002082880028
:1033a8003182880020828000318280004a09dd0055
:1033b800c600de00810071004a00dd00208288001e
:1033c80031828800e17c800000052000808f500059
:1033d8000200360080022000e07c8800e17c80004a
:1033e800400620000088b9004082880022828000c0
:1033f80033828000d0878000e18780000000510080
:103408008180590002fa200003002000c8f4070058
:10341800508388002282800033828000d087800019
:10342800e18780000000510081805900027d200062
:1034380003002000bef4070060838800017d80003f
:10344800007d2000808f500003003600800c200093
:10345800007d88000100370000000000007d80002a
:1034680050888800f17c8000401f2000808f500029
:1034780003003600e0152000f07c880008003700c3
:10348800f17c800030062000808f500003003e0051
:10349800e0152000f07c88000100370000000000e3
:1034a800f07c8000a2002000110009000280d800f2
:1034b800f07c8800508880006104b800f07c8000af
:1034c8006102b8008800780004007800000bb8009a
:1034d80005c0b900070178000001410009a0b90042
:1034e8000001410082037800a200200003002000b0
:1034f8000600be0088f3070070828800107d8000f7
:10350800e30f5000030036000000eb00107d880038
:103518000100370000000000107d800060828800f4
:10352800207d8000a08b8800307d80005200200024
:10353800110009000280d800908b8800407d80002f
:1035480090828800517d8000c0032000808f500049
:103558000200360040012000507d8800517d800027
:10356800400620000088b900a0828800607d8000a5
:1035780090888800717d8000c0122000808f5000e4
:103588000300360020032000707d88000700370004
:10359800707d8000e90f500003003e0020032000ea
:1035a800707d88000100370000000000707d8000f9
:1035b800b0888800817d800060042000808f5000e2
:1035c8000200360030022000807d8800807d800067
:1035d800c0888800917d800060042000808f5000a2
:1035e8000300360080022000907d88000700370025
:1035f800907d8000fd0f500003003e0080022000f7
:10360800907d88000100370000000000917d800057
:10361800400620000088b90001002000b082880020
:10362800c1828800a17d800060042000808f500046
:1036380003003600c0032000a07d88000700370083
:10364800a07d8000fd0f500003003e00c003200055
:10365800a07d88000100370000000000a17d8000e7
:10366800400620000088b90001002000d0828800b0
:10367800e1828800d2828000e3828000b0828000ec
:10368800c1828000800f5100818f590009003600e7
:10369800d0828000e1828000b2828000c3828000f4
:1036a800020050008380580000838800118388003e
:1036b80008003700d0828000e1828000b28280005a
:1036c800c382800002005000838058000083880075
:1036d8001183880000838000118380004a09dd007f
:1036e800c600de00810071004a00dd00008388000a
:1036f800118388000483800015838000a0828000e5
:103708006101b8000400be0009f40700f0828800d7
:10371800b0828000c18280004a09dd00c600de0058
:10372800810071004a00dd00b0828800c1828800f3
:10373800d0828000e18280004a09dd00c600de00f8
:10374800810071004a00dd00d0828800e182880093
:10375800b07d800030848800c07d8000408488006f
:10376800d07d800050848800e07d800060848800df
:10377800f07d80007084880010b380000000e000b5
:1037880004003a00f07d8000e08888000000eb002b
:10379800d0888800007e800080848800107e8000a9
:1037a80010858800207e800020858800307e80007b
:1037b800b0848800407e8000c0848800507e8000ed
:1037c800d0848800607e8000e0848800707e80005d
:1037d800f0848800807e800000858800907e8000cc
:1037e80030858800a07e800061006000701f98000e
:1037f8007e189000e10f500002003a00940fa800d4
:1038080001003700940fa900a07e800062006000cc
:10381800601f98006e189000e20f500002003a00f6
:10382800942fa80001003700942fa900a07e8000e3
:1038380064006000501f98005e189000e40f50006c
:1038480002003a00944fa80001003700944fa900e5
:10385800a07e800068006000401f98004e1890000d
:10386800e80f500002003a00946fa80001003700ea
:10387800946fa900a07e800070006000301f98003f
:103888003e189000f00f500002003a00948fa800f4
:1038980001003700948fa900a07e80008000780086
:1038a8000002200000806000201f9800ae189000e1
:1038b80000022000808f500002003a0094afa80058
:1038c8000100370094afa900a07e80008000780036
:1038d8000004200000806000101f98009e189000cf
:1038e80000042000808f500002003a0094cfa80006
:1038f8000100370094cfa900a07e800080007800e6
:103908000008200000806000001f98008e189000ba
:1039180000082000808f500002003a0094efa800b1
:103928000100370094efa900a07e80008000780095
:10393800002020000080600070179800fe109000a2
:1039480000202000808f500002003a00952fa80028
:1039580001003700952fa900a07c800001202000dd
:10396800010060000000e0000a003a00a07e80002c
:103978008000780000102000008f600000102000f8
:103988009e0f100002003a00950fa80001003700b2
:10399800950fa900a07e80008000780000402000dc
:1039a8000080600060179800ee1090000040200032
:1039b800808f500002003a00954fa80001003700a0
:1039c800954fa900a07e800080007800008020002c
:1039d8000080600050179800de10900000802000e2
:1039e800808f500002003a00956fa8000100370050
:1039f800956fa900a07c80000100210001006000f3
:103a08000000e00005003a0040062000b08e880063
:103a180020032000c08e88000400370040052000e5
:103a2800b08e8800a0022000c08e8800a07e800092
:103a38008000780000002200008060004017980095
:103a4800ce10900000002200808f500002003a0043
:103a580095afa8000100370095afa900a07e8000af
:103a68008000780000002400008060003017980073
:103a7800be10900000002400808f500002003a0021
:103a880095cfa8000100370095cfa900a07e80003f
:103a9800800078000000280000806000201798004f
:103aa800ae10900000002800808f500002003a00fd
:103ab80095efa8000100370095efa900b07e8000bf
:103ac800d0808800c07e8000e0808800d07e8000a2
:103ad8006103b80086007800000029000009b800da
:103ae8006130b9000302780000024200000029009a
:103af80000b8b90000024200840178000200be004c
:103b08004085880051858800e07e80006103b80008
:103b180086007800000029000009b8006130b9006b
:103b280003027800000242000000290000b8b90032
:103b380000024200840178000200be00608588000f
:103b480071858800f07e80006103b80086007800e7
:103b5800000029000009b8006130b90003027800ac
:103b6800000242000000290000b8b900000242002b
:103b7800840178000200be00808588009185880055
:103b8800007f80006103b8008600780000002900eb
:103b98000009b8006130b900030278000002420051
:103ba8000000290000b8b900000242008401780032
:103bb8000200be00a0858800b1858800107f8000c3
:103bc8006103b80086007800000029000009b800e9
:103bd8006130b900030278000002420000002900a9
:103be80000b8b90000024200840178000200be005b
:103bf800c0858800d1858800207f800001002000d2
:103c0800e0858800f1858800317f8000400620002b
:103c18000088b90000868800407f8000a08788005f
:103c2800507f8000b0878800607f800060878800b0
:103c3800717f8000400620000088b9004086880017
:103c4800d17e8000400620000088b90080007800fe
:103c580000f4210001005000010020005086880077
:103c68006186880050868000618680004a09dd00f0
:103c7800c600de00810071004a00dd005086880021
:103c88006186880062858000738580004085800099
:103c980051858000800f5100818f59000f00390035
:103ca800008680000000e0000c0032006285800081
:103cb8007385800040858000518580000002510096
:103cc80081825900008680006101b8000400be00ae
:103cd80097f2070070868800020037000000eb00aa
:103ce80070868800828580009385800060858000ca
:103cf80071858000800f5100818f59000f003900b5
:103d0800108680000000e0000c00320082858000f0
:103d180093858000608580007185800000025100d5
:103d280081825900108680006101b8000400be003d
:103d38007ff2070080868800020037000000eb0051
:103d480080868800a2858000b385800080858000f9
:103d580091858000800f5100818f59000f00390034
:103d6800208680000000e0000c003200a285800060
:103d7800b385800080858000918580000002510015
:103d880081825900208680006101b8000400be00cd
:103d980067f2070090868800020037000000eb00f9
:103da80090868800c2858000d3858000a085800029
:103db800b1858000800f5100818f59000f003900b4
:103dc800308680000000e0000c003200c2858000d0
:103dd800d3858000a0858000b18580000002510055
:103de80081825900308680006101b8000400be005d
:103df8004ff20700a0868800020037000000eb00a1
:103e0800a0868800807f8000008788000087800067
:103e18000000e00002003a00a000200000878800af
:103e2800907f800010878800108780000000e000e5
:103e380002003a00c012200010878800a07f80008e
:103e4800c08b8800c08b80000000e00002003a00b0
:103e580020032000c08b8800b07f80002087880066
:103e6800208780000000e00002003a00401f200088
:103e780020878800c07f80003087880030878000d6
:103e88000000e00002003a00a0002000308788000f
:103e9800e07f800061006000101798001e109000fd
:103ea800e10f500002003a0097efa8000100370028
:103eb80097efa900e07f800062006000001798007b
:103ec8000e109000e20f500002003a00980fa80070
:103ed80001003700980fa900e07f800064006000af
:103ee800700f98007e089000e40f500002003a001e
:103ef800982fa80001003700982fa900e07f8000c4
:103f080068006000700f98007e089000e80f50006d
:103f180002003a00984fa80001003700984fa90006
:103f2800f07f800061006000700f98007e089000ac
:103f3800e10f500002003a00960fa8000100370078
:103f4800960fa900f07f800062006000600f980063
:103f58006e089000e20f500002003a00962fa80069
:103f680001003700962fa900f07f800064006000f0
:103f7800500f98005e089000e40f500002003a00cd
:103f8800964fa80001003700964fa900f07f8000e7
:103f980068006000400f98004e089000e80f50003d
:103fa80002003a00966fa80001003700966fa9003a
:103fb800f07f800070006000300f98003e0890008d
:103fc800f00f500002003a00968fa8000100370059
:103fd800968fa900f07f8000800078000002200002
:103fe80000806000200f9800ae08900000022000ba
:103ff800808f500002003a0096cfa80001003700d9
:1040080096cfa900f07f800080007800000420008f
:1040180000806000100f98009e08900000042000a7
:10402800808f500002003a0096afa80001003700c8
:1040380096afa900f07f800080007800000820007b
:1040480000806000000f98008e0890000008200093
:10405800808f500002003a0096efa8000100370058
:1040680096efa900f07f8000800078000010200003
:104078000080600070079800fe009000001020008b
:10408800808f500002003a00970fa8000100370007
:10409800970fa900f07f80008000780000202000a2
:1040a8000080600060079800ee009000002020006b
:1040b800808f500002003a00972fa80001003700b7
:1040c800972fa900f07f8000800078000040200032
:1040d8000080600050079800de009000004020003b
:1040e800808f500002003a00974fa8000100370067
:1040f800974fa900f07f80008000780000802000a2
:104108000080600040079800ce00900000802000ea
:10411800808f500002003a00976fa8000100370016
:10412800976fa900f07f80008000780000002100d0
:104138000080600030079800be0090000000210059
:10414800808f500002003a00978fa80001003700c6
:10415800978fa900f07f800080007800000022007f
:104168000080600020079800ae0090000000220048
:10417800808f500002003a0097afa8000100370076
:1041880097afa900f07f800080007800000024002d
:1041980000806000100798009e0090000000240036
:1041a800808f500002003a0097cfa8000100370026
:1041b80097cfa900008080006a00b9004087880076
:1041c800408780000000e00002003a0060092000fb
:1041d80040878800108080005087880050878000c2
:1041e8000000e00002003a00a0002000508788008c
:1041f8002080800070878800708780000000e000c1
:1042080002003a0040062000708788003080800055
:1042180080878800808780000000e00002003a0064
:1042280040062000808788004080800090878800b2
:10423800908780000000e00002003a00400620005d
:104248009087880050808000f08788006080800018
:104258000088880070808000108888008080800036
:10426800208888009080800030888800a0808000a6
:10427800408888005088800001002000a2002000ab
:104288000300200024f00700f08388005088800095
:104298000100200052002000030020001ef007004b
:1042a80010848800708280006103b800860078005e
:1042b800d0052000000ab8006030b9000501780078
:1042c80000014100d005200000b8b90000014100fc
:1042d8008202780042062000030020000400be008d
:1042e8000df0070060888800708280006103b800c4
:1042f8008600780020062000000ab8006030b90067
:1043080005017800000141002006200000b8b9002e
:1043180000014100820278004206200003002000cc
:104328000400be00fcef070070888800207d800034
:10433800a2002000110009000280d80080888800af
:1043480050888000a2002000110009000280d800d7
:10435800a088880051888000508880000100b8003b
:104368002089880031898800318880000005200074
:104378000100b80040898800518988004889800078
:104388005989800026898000378980008800780054
:1043980006007800000ab80007c0b90005017800d7
:1043a8000001410009b0b900000141008202780013
:1043b80044898800558988004188800000052000cc
:1043c8000100b800608988007189880068898000c8
:1043d80079898000268980003789800088007800e4
:1043e80006007800000ab80007c0b9000501780087
:1043f8000001410009b0b9000001410082027800c3
:1044080064898800758988004f04be000080fa001e
:10441800000006000000fa00d2e2a800de02a800b0
:10442800de22a800e422a800e402a800d362a800c3
:104438000000eb00801688000000eb0040178800a1
:104448000000eb00b0168800e5c2a900e582a900cb
:10445800e5a2a900e5e2a900cc22a900cc42a90066
:10446800e4c2a900e4e2a900e502a900e522a90046
:10447800d262a900d242a900d222a900e9c2a900a9
:10448800e982a900d042a9000000eb0030ae880004
:104498000000eb0040ae88000000eb0050ae880042
:1044a8000000eb0020b588000080fa00000006003c
:1044b8000000fa000000eb00200888000000eb0074
:1044c8000008880005a1a9000421a90041102000c6
:1044d80091407800f0ccb30000c0600004e1b70060
:1044e80005e1a80000f42100100888005109200007
:1044f80091407800f0c8b30000c0600001c5b30067
:104508000140700095e0b7008460a9008c60a800a5
:1045180042c0bf007f40600001c6b3000140700088
:1045280042e0b7000080fa00000006000000fa0030
:10453800d2c2a800d2a2a800d282a8000000eb0034
:10454800000688000000eb0010068800c1a0a80043
:10455800c1c0a800c1e0a8000000eb002006880048
:104568000000eb0030068800c5a0a900c5c0a9005e
:10457800c5e0a900b109200091407800f0c8b30057
:1045880000c0600001c5b300014070009be0b700a7
:1045980085e0a9008de0a8000080fa000000060070
:1045a8000600fa006000b80010079800210798007c
:1045b8000040eb00004f78000e0037001e80fb0023
:1045c80000004000e4004000801f210000804000ff
:1045d800100078006101b8001e009000ae00900045
:1045e80000004100818049001007980021079800c9
:1045f8001e4fe80030c0b3009e4f1000efff36009a
:104608001e009000ae0090004e09dd004200de0062
:1046180000007100c208de000080fa0000000600f9
:104628000800fa00100798009e009000b0bd240012
:10463800808f5000040036009e009000c03f250087
:10464800808f50000900360084d6bf000040e80083
:1046580084f6b70084d6bf00e24f50001900360038
:104668000000eb0030079800180037000040eb000e
:1046780084f6b700caff0700000f78009e0090007c
:104688001e00780000805000200798002e0090003f
:104698000000e00003003d002e0090000000ea004a
:1046a800200798002e0090009e007800c208de00c7
:1046b800810f5000030036000000eb00300798001f
:1046c8000200370010002000300798003e009000dc
:1046d8000080fa00000006000000fa001fe1a900af
:1046e8000000eb00a0088800d08f8000803eb0005a
:1046f800d00888001fe1a8000080fa00000006002a
:104708000000fa0010828000640060000000e000f1
:104718001c0032000000eb00c0088800a17c80006b
:1047280000002100008060000000e00003003a0063
:1047380030682000e008880002003700d0562000ca
:10474800e008880086c0a9008ec0a80021e1a80062
:1047580010002000e0b6880010c0b300daf6b700f9
:104768001000200070ae880087a0a900e114200086
:104778009140780080cfb30000c060004ee1b700e0
:104788008fa0a9000080fa00000006000000fa00cf
:104798000000eb0000b788000000eb00700a8800fa
:1047a8004ee1a900e114200091407800f0c9b3005f
:1047b80000c060004ee1b700e1142000914078008d
:1047c80080cfb30000c060003040b3004ee1b700b6
:1047d800210a20009140780000c7b30000c0700093
:1047e800a2e0b70087a0a9008fa0a8000080fa0067
:1047f800000006000000fa000000eb0080088800b6
:104808000000eb003008880011a1a90010c1a90020
:104818001021a9000111200091407800f0ccb300cc
:1048280000c060000044a00010e1b7001061a900ba
:1048380011e1a9000080eb006008880071092000e0
:104848009140780080cfb30000c060006040b300a2
:1048580097e0b70084c0a9008cc0a9000000eb0055
:10486800900888000000eb005008880013a1a900f8
:1048780012c1a9001221a90021112000914078003d
:10488800f0ccb30000c060000044a00012e1b70003
:1048980013e1a8000080eb0070088800710920006f
:1048a80091407800f0c8b30000c0600001c6b300b2
:1048b8000140700097e0b70084e0a9008ce0a900ef
:1048c8000000eb00f00888000000eb00a00888005a
:1048d80000e22400d00888001fa1a8001ec1a9007a
:1048e8001e21a900e111200091407800f0ccb3000e
:1048f80000c060000044a0001ee1b7001fe1a9004d
:104908001e61a900e109200091407800f0c8b300b9
:1049180000c0600001c6b300014070009ee0b7000f
:1049280086a0a9008ea0a8000000eb00000988005e
:104938000000eb00c008880021a1a80020c1a90040
:104948002021a9000112200091407800f0ccb3008a
:1049580000c060000044a00020e1b70021e1a900e8
:1049680020b88000e0088800f10920009140780014
:1049780080cfb30000c060006040b3009fe0b70084
:1049880086c0a9008ec0a9000080fa0000000600b9
:104998003600f800809fbe00829fbe00849fbe0044
:1049a800869fbe003400f80000002000a0018800a7
:1049b8000000fa004230a80087a0a900e1142000f6
:1049c8009140780080cfb30000c060003040b30051
:1049d8004ee1b7000000eb0030b48800600a8000a8
:1049e800f0b48800f1b4800020b78000808f5000b8
:1049f80005003900f0b4800021b7800001005000a4
:104a080000b5880005003700f1b4800020b78000a9
:104a1800008050000000e90000b5880001b5800062
:104a2800c0bd2400808f50001400360001b58000fe
:104a3800b03f2500808f500010003e0004d2bf0018
:104a48000080fb0002b5800000004000e400400048
:104a5800801f2100008040000208780004d2bf00b7
:104a68000080fb000000e80042002000110009005f
:104a78000200d8008000fd0004f2b700c8fe07005d
:104a8800c08f880000b58000e5fe070005f2b7007a
:104a980005d2bf000004e00005003200c08f80008e
:104aa800d08f88000cff070010c0b30090f6b70045
:104ab800f0b4800020b7880005d2bf000004e000f1
:104ac800010032000eff07000080fa003400f900f0
:104ad8004f03be004f02be004f01be004f00be0094
:104ae8003600f90000400600809fbe003400f80040
:104af80000002000a00188000000fa00e0b6800055
:104b0800e10f500015003a00d5c2bf0068406000b0
:104b18000004e00011003a0005d2bf000004e000e4
:104b28000e0032000000eb00e0b6880021e1a90089
:104b380086c0a9008ec0a90087a0a9008fa0a800e0
:104b4800e11420009140780080cfb30000c06000dd
:104b58003040b3004ee1b70020003700e0b68000d7
:104b6800e10f500011003a00d5c2bf006840600054
:104b78000004e0000d00320005d2bf000004e00090
:104b88000a00320020002000e0b6880087a0a900b3
:104b98008fa0a900e11420009140780080cfb300d5
:104ba80000c060004ee1b7000c003700e0b680009e
:104bb800e10f500009003a00d5c2bf00684060000c
:104bc8000004e00005003a0005d2bf000004e00040
:104bd80002003a0020002000e0b68800e0b680001d
:104be800e20f50001d003a000000eb00c0088800ea
:104bf80040838000e008880091d6bf00e14f500054
:104c080006003a000040eb0091f6b700e10880008a
:104c180080c12f0000804000e008880050b6800066
:104c280020b8880086c0a9008ec0a80021e1a8008d
:104c3800a17c800000102000008060000000e000df
:104c480003003a0030002000e0b688004c0037002e
:104c5800b0002000e0b6880049003700e0b68000c8
:104c6800e30f50000c003a0040002000e0b6880036
:104c78000000eb00c008880020b88000e008880029
:104c880086c0a9008ec0a80021e1a800d662a800ad
:104c9800d642a8003a003700e0b68000e40f500082
:104ca80013003a0050002000e0b6880030002000d1
:104cb800f0b688000000eb0030088800f1b78000eb
:104cc80020b88000008050006008880084c0a900d7
:104cd8008cc0a80011e1a800d662a900d642a9009c
:104ce800d622a90086c0a9008ec0a90024003700da
:104cf800e0b68000eb0f50000c003a00c000200026
:104d0800e0b688000000eb00c008880020b88000ea
:104d1800e008880086c0a9008ec0a80021e1a8008c
:104d2800d662a800d642a80015003700e0b6800079
:104d3800ec0f500012003a00d0002000e0b68800c6
:104d480050012000f0b688000000eb003008880011
:104d5800f1b7800020b8800000805000600888000b
:104d680084c0a9008cc0a80011e1a800d662a900df
:104d7800d642a900d622a90086c0a9008ec0a900e3
:104d88000080fa003400f9004f00be000040060021
:104d9800809fbe003400f80000002000a0018800b9
:104da8000000fa0084c0a900f0b68000e30f5000ac
:104db8000c003a0040002000f0b688000000eb002c
:104dc8003008880020b880006008880084c0a900e6
:104dd8008cc0a80011e1a800d662a800d622a800bd
:104de8008f003700f0b68000e40f50000f003a0043
:104df80050002000f0b688000000eb003008880062
:104e0800f1b7800020b8800000805000600888005a
:104e180084c0a9008cc0a80011e1a800d662a9002e
:104e2800d642a900d622a9007d003700f0b680003e
:104e3800e50f50000c003a0060002000f0b6880032
:104e48000000eb003008880020b880006008880067
:104e580084c0a9008cc0a80011e1a800d642a8000f
:104e6800d622a8006e003700f0b68000e60f50008a
:104e78000f003a0070002000f0b688000000eb0038
:104e880030088800f1b7800020b88000008050000a
:104e98006008880084c0a9008cc0a80011e1a8009f
:104ea800d662a900d642a900d622a9005c00370024
:104eb800f0b68000e70f50000c003a008000200098
:104ec800f0b688000000eb003008880020b88000a9
:104ed8006008880084c0a9008cc0a80011e1a8005f
:104ee800d642a800d662a8004d003700f0b6800070
:104ef800e80f50000f003a0090002000f0b688003c
:104f08000000eb0030088800f1b7800020b880006e
:104f1800008050006008880084c0a9008cc0a800e8
:104f280011e1a800d662a900d642a900d622a9009c
:104f38003b003700f0b68000e90f50000c003a0043
:104f4800a0002000f0b688000000eb0030088800c0
:104f580020b880006008880084c0a9008cc0a80020
:104f680011e1a800d622a800d662a8002c003700bc
:104f7800f0b68000ea0f50000f003a00b0002000a1
:104f8800f0b688000000eb0030088800f1b7800018
:104f980020b88000008050006008880084c0a90004
:104fa8008cc0a80011e1a800d662a900d642a900c9
:104fb800d622a9001a003700f0b68000eb0f500087
:104fc8000c003a00c0002000f0b688000000eb009a
:104fd8003008880020b880006008880084c0a900d4
:104fe8008cc0a80011e1a800d622a800d642a800cb
:104ff8000b003700f0b68000ec0f500008003a00b4
:10500800d0002000f0b68800d662a900d642a900d8
:10501800d622a90084c0a9008cc0a90011e1a9006a
:10502800f0b68000f50f50000c003a006001200037
:10503800f0b688000000eb003008880020b8800037
:105048006008880084c0a9008cc0a80011e1a800ed
:10505800d642a800d622a8008f003700f0b68000fc
:10506800f60f50000f003a0070012000f0b68800db
:105078000000eb0030088800f1b7800020b88000fd
:10508800008050006008880084c0a9008cc0a80077
:1050980011e1a800d662a900d642a900d622a9002b
:1050a8007d003700f0b68000f70f50000c003a0082
:1050b80080012000f0b688000000eb00300888006e
:1050c80020b880006008880084c0a9008cc0a800af
:1050d80011e1a800d662a800d622a8006e00370009
:1050e800f0b68000f80f50000f003a009001200041
:1050f800f0b688000000eb0030088800f1b78000a7
:1051080020b88000008050006008880084c0a90092
:105118008cc0a80011e1a800d662a900d642a90057
:10512800d622a9005c003700f0b68000f90f5000c5
:105138000c003a00a0012000f0b688000000eb0047
:105148003008880020b880006008880084c0a90062
:105158008cc0a80011e1a800d642a800d662a80019
:105168004d003700f0b68000fa0f50000f003a00eb
:10517800b0012000f0b688000000eb00300888007d
:10518800f1b7800020b880000080500060088800d7
:1051980084c0a9008cc0a80011e1a800d662a900ab
:1051a800d642a900d622a9003b003700f0b68000fd
:1051b800fb0f50000c003a00c0012000f0b6880038
:1051c8000000eb003008880020b8800060088800e4
:1051d80084c0a9008cc0a80011e1a800d622a800ac
:1051e800d642a8002c003700f0b68000fc0f500013
:1051f8000f003a00d0012000f0b688000000eb0054
:1052080030088800f1b7800020b880000080500086
:105218006008880084c0a9008cc0a80011e1a8001b
:10522800d662a900d642a900d622a9001a003700e2
:10523800f0b68000fd0f50000c003a00e00120009d
:10524800f0b688000000eb003008880020b8800025
:105258006008880084c0a9008cc0a80011e1a800db
:10526800d622a800d662a8000b003700f0b680004e
:10527800fe0f500008003a00f0012000f0b6880048
:10528800d662a900d642a900d622a90084c0a900e6
:105298008cc0a90011e1a9000080fa003400f900cf
:1052a8004f00be00004006003600f800809fbe0098
:1052b800829fbe00849fbe00869fbe003400f80017
:1052c80000002000a00188000000fa00d08f8000b4
:1052d800d00888000040eb0005f2b70005d2bf00f7
:1052e8000004e00001003a0005fd070090d6bf0069
:1052f8000004e000080032000040eb0090f6b70020
:1053080010c0b30091f6b700d18f800080c12f0084
:1053180000804000d00888000000eb00a00888004a
:1053280086a0a9008ea0a8001fe1a8000080fa00ae
:105338003400f9004f03be004f02be004f01be000b
:105348004f00be003600f90000400600809fbe00f6
:10535800821f78003400f80000002000a0018800b7
:105368000000fa0085e0a900d4c2bf000080fb005d
:105378004600de00e140600040b48000614060000b
:1053880080cf50000d003200d4c2bf000080fb0067
:105398004600de00614060000080fb0061016000a3
:1053a80041b48000e0ff2f00008060000200700020
:1053b80040b488000000eb0050b48800d4c2bf009d
:1053c8000080fb004500de00e140600040b4800042
:1053d8000000d1006140600080cf50000e00320014
:1053e800d4c2bf000080fb004500de0061406000c1
:1053f8000080fb00610060000001400041b48000b3
:10540800d0ff2f00008060000200700040b48800c8
:105418000000eb0060b48800d4c2bf000080fb002d
:105428004400de00e140600040b480004200de003d
:105438006140600080cf50000e003200d4c2bf002f
:105448000080fb004400de00614060000080fb003b
:10545800610060004201dd0041b48000b0ff2f0010
:10546800008060000200700040b488000000eb007b
:1054780070b4880020b58000e30f50006800320047
:1054880020b58000e40f500065003200f0808000f5
:10549800fb0f50006200360040b4800061006000dd
:1054a8000000e00006003a0000b780000000e000bd
:1054b80003003a001000200000b7880058003700a9
:1054c80040b48000610060000000e0000800320085
:1054d80000b78000e10f500005003a0020002000ce
:1054e80000b7880050088000e0b488004c003700fe
:1054f80040b48000620060000000e0004800320014
:1055080000b78000e20f500045003a000000eb00b1
:1055180000b7880050088000d0b48800d1b480005b
:10552800e0b48000808f500005003600d0b48000c1
:10553800e1b4800001005000c0b4880009003700c1
:10554800e0b48000800078000080eb00010050008b
:10555800c0b48800c1b48000d0b48000008040008e
:10556800c0b48800c1b4800070322200808f50001f
:1055780016003e0090b480000000e80090b4880057
:105588000000eb00a0b488000000eb00b0b4880075
:1055980090b48000e60f5000210036004350a90067
:1055a8005000200000b788000000eb0090b488008d
:1055b800a17c800000202000008060000000e00046
:1055c80017003200950fa90015003700a0b480001d
:1055d8000000e800a0b488000000eb0090b4880048
:1055e8000000eb00b0b48800a0b48000e60f5000c3
:1055f8000b0036004350a8005000200000b7880078
:105608000000eb00a0b48800a17c800000202000ee
:10561800008060000000e00001003200950fa80043
:105628000080fa003400f9004f0178004f00be00f6
:10563800004006000000fa0000b880000000e0000a
:1056480006003a00d4c2bf000044b2000004e000e3
:1056580002003a001000200000b8880000b880005e
:10566800e10f500008003a00d4c2bf000044b20065
:105678000004e000040032002000200000b8880088
:105688005008800090b3880000b88000e20f5000f6
:1056980006003a00d5c2bf00684060000004e00080
:1056a80002003a003000200000b8880000b88000ee
:1056b800e30f50001a003a00d5c2bf0068406000ee
:1056c8000004e000160032005008800080b3880013
:1056d80081b3800090b38000808f500005003600b1
:1056e80080b3800091b380000100500080b1880031
:1056f8000900370090b38000800078000080eb003c
:105708000100500080b1880081b1800080b3800022
:105718000080400080b188004000200000b8880068
:1057280000b88000e40f50001b003a00218580007b
:1057380080b18000808f50001100310011858000f9
:1057480080b18000808f50000d003600a0b380002b
:105758000000e800a0b38800a0b38000e30f500069
:10576800040036000000eb0070b188000000eb0078
:10577800a0b388000000eb0000b8880006003700de
:105788000000eb00a0b388001000200070b1880072
:105798000000eb0000b888000080fa000000060056
:1057a8000000fa0010828000620060000000e00043
:1057b8001a003200600a800030b3880031b38000dc
:1057c80040b38000808f50000500360030b3800061
:1057d80041b380000100500020b388000900370061
:1057e80040b38000800078000080eb00010050008a
:1057f80020b3880021b3800030b3800000804000cf
:1058080020b3880030b3800040b388000000eb006c
:10581800d0b188004230a90003003700d0b1800021
:105828000000e800d0b1880021b3800000e8230020
:10583800808f50000a00360021b38000f05e2500fa
:10584800808f500006003e000000eb00b0b18800d9
:10585800c0b180000000e800c0b188000500370032
:10586800b0b180000000e800b0b188000000eb0093
:10587800c0b18800c0b18000e30f500001003600bd
:105888004330a800b0b18000e30f5000010036009b
:105898004330a90020b380000000e000100032006f
:1058a80021b3800000e82300808f50000c003600f0
:1058b80021b38000701a2600808f500008003e0037
:1058c80022b380000068290081092000811f780028
:1058d800110009004288d800cf007800b081880004
:1058e80020b3800062002000110009000280d80067
:1058f80090b1880091b18000c0a82000808f50002e
:105908000b00360091b1800070d42000808f5000c9
:1059180007003e00a07c8000620060000000e000fc
:105928000300320090b18000f0b788000a00370009
:10593800a07c800001002100010060000000e00060
:1059480003003a0050d02000f0b78800020037006a
:1059580090ad2000f0b788000080fa000000060033
:105968000000fa00b0b68000e30f50002b003a00a8
:10597800b07c800001002100010060000000e00010
:105988002600320021818000208180000100b800bb
:105998000089880011898800c0898000d189800029
:1059a800e00f5000e08f58000e003500c0898000dd
:1059b800d18980000001be00008980001189800023
:1059c80002014000838148002089800031898000dd
:1059d8000000510081805900c0898800d189880061
:1059e800030037006000b800c0898800d1898800aa
:1059f800c0898000d1898000428980005389800055
:105a0800820f5000838f580004003400922fa800a2
:105a18006000b800c0898800d1898800b0b68000cd
:105a2800e40f50002b003a00b07c800001002200f7
:105a3800010060000000e0002600320021818000a3
:105a4800208180000100b800008988001189880041
:105a5800e0898000f1898000e00f5000e08f580055
