:020000040000fa
:080000000001040000000000f3
:020000040000fa
:100200008f6b2100007f21000001880000000000aa
:100210000c000700604125000100200011000700cc
:10022000000020000000e000020032000000020098
:10023000000000008a520200000000000040da00c6
:100240000000fe004440a900000020000000e00083
:100250000300320000002000a00188004440a800f4
:100260000000060091018800800078000000eb008b
:1002700015003700e280400032a0b4009101ba00be
:10028000e280400032a0b4009102ba00e280400057
:1002900032a0b4000002eb00472bde00f507b200ed
:1002a000602ce10004003a000059eb008301e900f2
:1002b000fdff3e00040037006128e100010032002c
:1002c0000082eb00040007001101ba000200e00008
:1002d000e8ff3a00000006003159ba008301e90046
:1002e0000c0032002159ba008301e90008003200f5
:1002f0000400e00003003a00e280400032a0b400b5
:10030000f5ff370011d9ba008301e900faff3a007e
:100310008100e800e180400032a0b4000000060047
:10032000839f68000100e00002003d0060001000b3
:10033000e08018000300e00002003d0060011100b1
:10034000e0811900fc0007004f00e00002003b00c4
:1003500060001000e080180000000600889fbe00ca
:100360008a9fbe00010578000100e000040035000e
:1003700008003c000000e0002000320005003700cb
:1003800060001000e080180002003b0001f02c002b
:100390001a0037000004be006011b8006b0920008d
:1003a0000982cf00020039000882cf000441b0006a
:1003b000694252000e00320008003b008281710049
:1003c000610164008904d1000884d3008b05e80032
:1003d0000442e800f9ff3a00050037000804440031
:1003e00089844c008b05e9000442e900fbff3a00d8
:1003f0005a0107000af0a70001f0a0004f05be0057
:100400004f04be0000000600889fbe008a9fbe0009
:100410008c1f78000004be00760107000478a3005a
:1004200026003a006120e1002500320009f8a3000f
:1004300025003a006420e10021003200f507b100f8
:100440000508a3000200320000004000818048003f
:100450006044b800031020000200200000004000ab
:10046000818048000805440089854c000a05410048
:100470008b8549000a0550008b8558000300330026
:100480000a00be0002047400838474008301d1005a
:100490000281d300830f7100f0ff3a008904d1007c
:1004a0000884d3006001490082017800c1adde00fc
:1004b000fb07b000290107006c0137000960a000ac
:1004c0000800be006901370012022000b2b58800a2
:1004d000f0ff2f00f1ff2700640137000001be008c
:1004e000440107000470a70003f0a1006509b100f2
:1004f000160032000d0035006828e10006003500c6
:10050000f0ff2f00f1ff27000300e00013003b0085
:100510000100280000000500000040008180480024
:100520008502e900fcff3a0008003700f88f42001e
:1005300002003c008000eb00000005008100d100bb
:100540000080d3008502e800fcff3a000300e000d1
:1005500002003b0060001000e08018000000060070
:10056000889fbe008a9fbe008c1f7800460107004e
:100570003501330003866c006450e1002e00320028
:100580006420e100330032006150e1002f003200ae
:100590006120e1003100320085855500eb07b00095
:1005a000090020000804200005003700080444006a
:1005b00089844c000a0031000603430087834b0006
:1005c0000001530081815b00f8ff33000203be008d
:1005d0000800a0000804440089844c00f6ff39009c
:1005e000c639dd00830173000100320013002000d2
:1005f0008904d1000884d3000998a30005003200c3
:100600000800a7000300a0008904d1000884d300db
:100610008b05e8008904d1000884d3000001eb00b9
:100620000281d200cd00070001f0a1000cf0a7006c
:1006300001f0a0000d0137006420e1000f0132003d
:100640000801be000200be00f7ff37006120e10094
:100650000a0132006000b800f3ff370000002000fc
:1006600001f82700f0ff3700889fbe008a9fbe0078
:100670008c1f780004010700f300330003866c0030
:100680006450e100240032006420e10027003200c1
:100690006150e100220032006120e10021003200bf
:1006a0008b854200eb07b1000134b800003ab80076
:1006b0000804420089844a00013ab8000030b800ba
:1006c0008880400009014a00040033000000400017
:1006d00081804800020149008b05e900c909dd005d
:1006e000830170000100320013002000c814de00f6
:1006f0004814dd004709de001200b200c808de0021
:10070000088470009500070001f0a1000cf0a7001c
:1007100001f0a000d50037006120e100d7003200d1
:100720000801be000200be00f7ff37006150e10083
:10073000fcff3a00d10037006022b800060220001a
:100740000000d0008180d2000482d2008582d200d5
:100750000000a0000202520083825a000300310010
:100760000202420083824a000000a1000603e90061
:10077000f3ff3a000000060003f0a200889fbe00cd
:100780008a9fbe008c1f7800bf000700ae003300b8
:100790006450e1004f0032006420e100520032005a
:1007a00003826c0007003b000905d0000306d0005f
:1007b000820f54000c065d00020039000200320076
:1007c00089017800030678008582550004003d0009
:1007d0000003fd008103fd008502ea008b854200d5
:1007e000840f720002003b0060001000e0801800df
:1007f0006011b8000005eb007a28e1000a0039001a
:1008000006007800c75ddd00f707b200878075003d
:100810002d003700828171000a01780061056000b7
:100820008180d1000080d3008502e900f9ff3b0000
:10083000060440008784480002003b006004140066
:10084000e0841c000988a300070032008a8171003f
:1008500082817100610164008904d1000884d300a1
:100860008b05e800170037000978a30013003a0051
:100870000b00e000130034008b05e900080444007d
:1008800089844c000a4474000978a3000d003a00e2
:100890000b00e000070034008b05e9000804440069
:1008a00089844c0001003a000b0020000978a30065
:1008b000f7ff32000001eb00020037008281710077
:1008c0000a017800250007000cf0a70001f0a00045
:1008d000660037006420e10002003a00838f6c005c
:1008e000660033000801be000200be005f00370052
:1008f0000001be003f0007000470a70003f0a10044
:1009000003f8a30013003a006509b100100032009b
:10091000090035006928e1000200350001002800c7
:100920000000050000004000818048008502e900c9
:10093000fcff3a0000000600f88f42000500350079
:100940008100d1000080d3008502e800fcff3a005e
:10095000000006008000eb00000005008100200080
:10096000618055000b003d000b00200061fe2f0050
:100970000100e1001d00340082817100610164000a
:100980008904d1000884d3000000e800faff3a008f
:10099000710020006100640003007000020060002c
:1009a0000900320061044400e0844c000988a5007d
:1009b000050032008b05e8006808e10002003a00fb
:1009c0008904d1000884d300f20f20000258e1000e
:1009d00005003d00c75ddd00f907b20089807500a4
:1009e00008007800000006000bf827008b00780054
:1009f00000000500c70ade00f107b200f50fb200e3
:100a000008003200e1cf4200020032000170a00075
:100a100024000500810f7000010032000408050069
:100a200044000500810f700002003a001400050028
:100a30008502e9000000400081c04800fcff3b0047
:100a40000170a000240005000200be006450e10017
:100a5000050036006420e100020036000968a300aa
:100a600001003a000800be000160a0004f067800b7
:100a70004f05be004f04be0000000600f0ff2f002f
:100a8000f1ff2700f9ff37000004be00d9ff07007f
:100a90000003be000405be000200be00d5ff070033
:080aa000844f75000000060000
:020000040000fa
:0200000401f009
:04000000f6ff000007
:020000040000fa
:0200000401f009
:04000400ff7f00007a
:020000040000fa
:0200000401f009
:04000c00ffff0000f2
:020000040000fa
:0200000401f009
:04001000ffff0000ee
:020000040000fa
:0200000401f009
:04001400ffff0000ea
:020000040000fa
:10000800125500001255000012550000125500004c
:10001800125500001255000012550000125500003c
:10002800125500001255000012550000323e000023
:100038001255000012550000cc2600001255000091
:1000480012550000ba50000056510000fe49000049
:10005800125500001255000012550000aa29000090
:1000680012550000125500001255000012550000ec
:10007800125500005829000078250000125500008c
:10008800de1500001e170000125500001255000072
:1000980012550000cc240000125500001255000033
:1000a80012550000125500001255000012550000ac
:1000b800125500001255000012550000125500009c
:1000c800125500001255000012550000125500008c
:1000d800125500001255000012550000125500007c
:1000e800125500001255000012550000125500006c
:0800f800125500001255000032
:020000040000fa
:10010800125500001255000012550000125500004b
:10011800125500001255000012550000125500003b
:10012800125500001255000012550000323e000022
:100138001255000012550000cc2600001255000090
:1001480012550000ba50000056510000fe49000048
:10015800125500001255000012550000aa2900008f
:1001680012550000125500001255000012550000eb
:10017800125500005829000078250000125500008b
:10018800de1500001e170000125500001255000071
:1001980012550000cc240000125500001255000032
:1001a80012550000125500001255000012550000ab
:1001b800125500001255000012550000125500009b
:1001c800125500001255000012550000125500008b
:1001d800125500001255000012550000125500007b
:1001e800125500001255000012550000125500006b
:0801f800125500001255000031
:020000040000fa
:100aa8000000fa0050968000610060000000e0003d
:100ab80008003200a09e80000000e800a09e880088
:100ac800a09e8000ea0f5000020036000000eb00f4
:100ad8006096880018c2bf00684060000004e0000b
:100ae80008003a0018c2bf00624060000004e0003d
:100af80004003a0018c2bf00644060000004e0002f
:100b080001003200030807000080fa000000060018
:100b18000000fa0040a380000000e80040a388001d
:100b280041a38000401f2000808f50000500360040
:100b3800f80707000000eb0060968800ca12a900b9
:100b4800cbb2a80050968000620060000000e00070
:100b58000400320002090700ca32a9000000eb00b5
:100b680040a3880050968000680060000000e00004
:100b780004003200a600070061000700a30907006f
:100b8800ca72a90050968000012020000100600070
:100b98000000e00004003200d800070069000700e8
:100ba8009a090700cb32a90080a380006100600089
:100bb8000000e000040032000b010700720007008b
:100bc800920907007014a90080a3800070006000db
:100bd8000000e00004003200440107007b00070029
:100be8008a0907007094a900509680007000600080
:100bf8000000e000040032007d010700ca92a9004d
:100c08000000eb0040a388005096800001402000bf
:100c1800010060000000e00004003200c901070084
:100c2800cb52a9000000eb0040a3880080a38000fd
:100c3800620060000000e0000400320017020700b4
:100c48007034a9000000eb0040a3880080a3800056
:100c580001022000010060000000e00004003200f2
:100c68006502070070b4a9000000eb0040a38800eb
:100c78005096800001022000010060000000e000a2
:100c880004003200b3020700cab2a9000000eb005a
:100c980040a3880050968000018020000100600079
:100ca8000000e0000400320037030700cb72a900ff
:100cb8000000eb0040a3880050968000010022004d
:100cc800010060000000e000040032003505070064
:100cd800cbb2a9000000eb0040a38800509680002a
:100ce80001042000010060000000e0000200320062
:100cf80047070700cad2a9000080fa0000000600d2
:100d08000000fa00a00a2000d09e880000022000ff
:100d1800e09e880030082000f09e88000000eb006c
:100d2800109f8800b00b200010a388000000eb0083
:100d3800c09e8800e00f2000d01088000080fa00d4
:100d4800000006000000fa00a00a2000d09e8800db
:100d580000022000e09e880030072000f09e8800f6
:100d68000000eb00109f8800b00b200010a3880043
:100d78000000eb00c09e8800e00f2000d010880023
:100d88000080fa00000006000000fa00a00a200017
:100d9800d09e880000022000e09e880030062000d7
:100da800f09e88000000eb00109f8800b00b200028
:100db80010a388000000eb00c09e8800e00f200010
:100dc800d01088000080fa00000006000000fa0039
:100dd800a00a2000d09e880000022000e09e880023
:100de80030052000f09e88000000eb00109f88006e
:100df800b00b200010a388000000eb00c09e880004
:100e0800e00f2000d01088000080fa0000000600e3
:100e18000600fa000000eb0020079800900280000e
:100e280010079800ff3ffc00210420009140780043
:100e380000ceb30000c0700042e0b7001e00900072
:100e4800900288008d60a9000000eb002007980040
:100e58001a0037002e009000000040008000780043
:100e680000c02f0000804000f0798800f0798000f1
:100e780080007800f0072000120020001f260700dd
:100e8800f079800000017800f00720000002780067
:100e98002e0090000000400080007800c03521003e
:100ea80000804000130020008400780037260700e7
:100eb8002e0090000000e800200798002e00900007
:100ec800ed0f5000e3ff360090028000000f78001d
:100ed800ff3ffc0042c0bf007f40600001c6b30076
:100ee8000140700042e0b7001e00780090028800c0
:100ef8008d60a8000080fa00000006000600fa00d5
:100f08000000eb002007980090028000100798006e
:100f1800ff3ffc00210420009140780000ceb30080
:100f280000c0700042e0b7001e00900090028800e8
:100f38008d60a9000000eb00200798001a00370018
:100f48002e009000000040008000780000c02f00b4
:100f580000804000f0798800f079800080007800f7
:100f6800f007200012002000e4250700f079800037
:100f780000017800f0072000000278002e009000a1
:100f88000000400080007800c0352100008040004b
:100f98001300200084007800fc2507002e00900034
:100fa8000000e800200798002e009000fd0f500078
:100fb800e3ff360090028000000f7800ff3ffc003e
:100fc80042c0bf007f40600001c6b300014070000e
:100fd80042e0b7001e007800900288008d60a800eb
:100fe8000080fa00000006000800fa000000eb008c
:100ff800300798000000eb0020079800900280005e
:1010080010079800ff3ffc00210420009140780061
:1010180000ceb30000c0700042e0b7001e00900090
:10102800900288008d60a900000220003007980017
:101038001d0037003e00900000004000800078004e
:1010480000c02f0000804000f0798800f07980000f
:1010580080007800f007200012002000a725070074
:10106800f079800000017800f00720000002780085
:101078002e0090000000400080007800c03521005c
:10108800008040001300200084007800bf2507007e
:101098002e0090000000e800200798003e00900015
:1010a8000000e80030079800be009000d003200040
:1010b800808f5000dfff360090028000000f78001c
:1010c800ff3ffc0042c0bf007f40600001c6b30084
:1010d8000140700042e0b7001e00780090028800ce
:1010e8008d60a8000080fa00000006000800fa00e1
:1010f8000000eb00300798000000eb002007980084
:101108009002800010079800ff3ffc002104200097
:101118009140780000ceb30000c0700042e0b700f4
:101128001e009000900288008d60a900e003200056
:10113800300798001d0037003e0090000000400076
:101148008000780000c02f0000804000f0798800ff
:10115800f079800080007800f0072000120020005d
:1011680066250700f079800000017800f00720006c
:10117800000278002e0090000000400080007800f7
:10118800c035210000804000130020008400780052
:101198007e2507002e0090000000e8002007980038
:1011a8003e0090000000e80030079800be00900064
:1011b800b0052000808f5000dfff360090028000cd
:1011c800000f7800ff3ffc0042c0bf007f40600076
:1011d80001c6b3000140700042e0b7001e0078006d
:1011e800900288008d60a8000080fa0000000600c8
:1011f8000400fa000000eb00100798000000eb0064
:10120800000f7800a00a2000d09e8800000120006e
:10121800e09e880020082000f09e8800c001200081
:10122800109f88000000eb0010079800140037009a
:101238001e009000000040008000780000c02f00d1
:1012480000804000f07988001e00900000004000f7
:1012580080007800a0f420000080400000017800a1
:10126800f079800080007800f0072000130020004b
:10127800152507001e0090000000e80010079800e0
:101288001e009000ef0f5000e9ff36000000eb0051
:1012980010079800200037001e0190001e007800fb
:1012a80080004000a0f4200000804000100078007a
:1012b800c801de0002004100e111200080804000ea
:1012c800c02c210000804000030878001e00900018
:1012d8000000e800100798001e0190001e0078002a
:1012e80080004000a0f420000080400090017800b9
:1012f80002004100e111200080804000c02c210044
:1013080000804000030878001e0090000000e800fc
:10131800100798001e0fe8001e009000ff0f5000f5
:10132800ddff3600b00b200010a388000000eb00a2
:10133800c09e8800e00f2000d01088000080fa00ce
:10134800000006000400fa000000eb0010079800f7
:101358000000eb00000f7800a00a2000d09e880053
:1013680000012000e09e880020072000f09e8800f1
:10137800c0032000109f88000000eb0010079800b1
:10138800140037001e009000000040008000780024
:1013980000c02f0000804000f07988001e009000f7
:1013a8000000400080007800a0f420000080400089
:1013b80000017800f079800080007800f0072000b4
:1013c80013002000c02407001e0090000000e80061
:1013d800100798001e009000ff0f5000e9ff36002c
:1013e8000000eb0010079800200037001e01900055
:1013f8001e00780080004000a0f42000008040001b
:1014080010007800c801de0002004100e111200050
:1014180080804000c02c2100008040000308780034
:101428001e0090000000e800100798001e019000c0
:101438001e00780080004000a0f4200000804000da
:101448009001780002004100e111200080804000f6
:10145800c02c210000804000030878001e00900086
:101468000000e800100798001e0fe8009e0090009a
:10147800f0032000808f5000dcff3600b00b200006
:1014880010a388000000eb00c09e8800e00f200039
:10149800d01088000080fa00000006000400fa005e
:1014a8000000eb001007980000022000000f7800f1
:1014b800a00a2000d09e880000012000e09e88003d
:1014c80020062000f09e8800c0032000109f88009e
:1014d8000002200010079800140037001e0090003a
:1014e800000040008000780000c02f00008040000d
:1014f800f07988001e00900000004000800078000d
:10150800a0f420000080400000017800f0798000fd
:1015180080007800f0072000130020006a240700ec
:101528001e0090000000e800100798009e00900040
:10153800d0032000808f5000e8ff36000000eb0049
:1015480010079800200037001e0190001e00780048
:1015580080004000a0f420000080400010007800c7
:10156800c801de0002004100e11120008080400037
:10157800c02c210000804000030878001e00900065
:101588000000e800100798001e0190001e00780077
:1015980080004000a0f42000008040009001780006
:1015a80002004100e111200080804000c02c210091
:1015b80000804000030878001e0090000000e8004a
:1015c800100798001e0fe8009e009000b00320004e
:1015d800808f5000dcff3600b00b200010a388007d
:1015e8000000eb00c09e8800e00f2000d0108800ab
:1015f8000080fa00000006000400fa000000eb007a
:101608001007980000022000000f7800a00a2000b0
:10161800d09e880000012000e09e88002005200060
:10162800f09e8800c0032000109f8800e00320007f
:1016380010079800140037001e00900000004000ba
:101648008000780000c02f0000804000f0798800fa
:101658001e0090000000400080007800a0f42000e8
:101668000080400000017800f07980008000780058
:10167800f007200013002000132407001e0090002c
:101688000000e800100798009e009000b0052000b8
:10169800808f5000e8ff36000000eb00100798002c
:1016a800200037001e0190001e00780080004000d6
:1016b800a0f420000080400010007800c801de007f
:1016c80002004100e111200080804000c02c210070
:1016d80000804000030878001e0090000000e80029
:1016e800100798001e0190001e007800800040003e
:1016f800a0f4200000804000900178000200410022
:10170800e111200080804000c02c210000804000b2
:10171800030878001e0090000000e80010079800f9
:101728001e0fe8009e009000b0032000808f50003c
:10173800dcff3600b00b200010a388000000eb008f
:10174800c09e8800e00f2000d01088000080fa00ba
:10175800000006000000fa00a00a2000d09e8800c1
:1017680000012000e09e880010082000f09e8800fc
:1017780060012000109f880080b28000e30f5000b5
:101788000300320080b28000e40f500010003a00dd
:10179800e04080004800de00509f8800e040800064
:1017a800609f8800f04080004800de00709f88003d
:1017b800f0408000809f8800208c80004800de0078
:1017c800909f8800208c8000a09f88000c00370024
:1017d8000000eb00509f88000000eb00609f88002d
:1017e8000000eb00709f88000000eb00809f8800dd
:1017f8000000eb00909f88000000eb00a09f88008d
:10180800707e80004800de00b09f8800707e8000f7
:10181800c09f8800807e80004800de00d09f88003e
:10182800807e8000e09f8800907e80004800de0077
:10183800f09f8800907e800000a08800d07f800004
:101848004800de0010a08800d07f800020a088001b
:1018580080b280004800de0030a0880080b280009e
:1018680040a0880040a080000000e00009003a0085
:101878000000eb0040a08800017a8000a0aa2a009e
:10188800808f500029003a004000200040a08800c6
:101898002600370040a08000e10f500009003a0000
:1018a8001000200040a08800017a8000a0aa2a0029
:1018b800808f50001d003a004000200040a08800a2
:1018c8001a00370040a08000e20f500003003a00e1
:1018d8002000200040a088001400370040a08000ad
:1018e800e30f500003003a002000200040a08800c9
:1018f8000e00370040a08000e40f500003003a00bb
:101908003000200040a088000800370040a0800078
:10191800e50f500003003a005000200040a0880066
:10192800020037000000eb0040a08800e07e800045
:101938004800de0050a08800e07e800060a088009b
:10194800107a80004800de0070a08800107a8000bd
:1019580080a08800d07f80004800de0090a088002a
:10196800d07f8000a0a08800b00b200010a38800c2
:101978000000eb00c09e8800e00f2000d010880017
:101988000080fa00000006000000fa00a00a20000b
:10199800d09e880000012000e09e880010072000eb
:1019a800f09e8800a0022000109f880080b280006e
:1019b800e30f50000300320080b28000e40f5000b3
:1019c80010003a00e04080004800de00509f880088
:1019d800e0408000609f8800f04080004800de0002
:1019e800709f8800f0408000809f88000041800040
:1019f8004800de00909f880000418000a09f88007a
:101a08000c0037000000eb00509f88000000eb003e
:101a1800609f88000000eb00709f88000000eb00ca
:101a2800809f88000000eb00909f88000000eb007a
:101a3800a09f8800707e80004800de00b09f88006c
:101a4800707e8000c09f8800412d20009140780062
:101a580000c8b30000c060000004e00004003a00c1
:101a680060a380000000a00060a388000400370085
:101a780060a38000e1ff2f000100600060a38800e0
:101a8800e0c2bf00614060000004e00004003a00ca
:101a980060a380000010a00060a388000400370045
:101aa80060a38000d1ff2f000100600060a38800c0
:101ab800e0c2bf00624060000004e00004003a0099
:101ac80060a380000020a00060a388000400370005
:101ad80060a38000b1ff2f000100600060a38800b0
:101ae800e6c2bf00624060000004e00004003a0063
:101af80060a380000030a00060a3880004003700c5
:101b080060a3800071ff2f000100600060a38800bf
:101b1800e6c2bf00614060000004e00004003a0033
:101b280060a380000040a00060a388000400370084
:101b380060a38000f1fe2f000100600060a3880010
:101b4800cfc2bf000042b2000004e00005003a0026
:101b580060a38000010220000100700060a38800db
:101b68000400370060a38000f1fd2f000100600031
:101b780060a38800cfc2bf000044b2000004e000a8
:101b880005003a0060a380000104200001007000f5
:101b980060a388000400370060a38000f1fb2f00d9
:101ba8000100600060a38800c8c2bf0064406000f4
:101bb8000004e00005003a0060a38000010820004e
:101bc8000100700060a388000400370060a3800053
:101bd800f1f72f000100600060a38800c8c2bf00b1
:101be800684060000004e00005003a0060a380003f
:101bf800011020000100700060a388000400370075
:101c080060a38000f1ef2f000100600060a388004e
:101c1800c8c2bf00704060000004e00005003a0040
:101c280060a38000012020000100700060a38800ec
:101c38000400370060a38000f1df2f00010060007e
:101c480060a38800207a8000011020000100600055
:101c58000000e0000500320060a3800001002800b9
:101c68000100700060a388000400370060a38000b2
:101c7800f1ff27000100600060a38800e9c2bf00ef
:101c88000044b2000004e0000400320070a38000a9
:101c98000000a00070a388000400370070a3800033
:101ca800e1ff2f000100600070a38800e9c2bf00b7
:101cb800704060000004e0000400320070a380005f
:101cc8000010a00070a388000400370070a38000f3
:101cd800d1ff2f000100600070a38800e9c2bf0097
:101ce8000042b2000004e0000400320070a380004b
:101cf8000020a00070a388000400370070a38000b3
:101d0800b1ff2f000100600070a38800e9c2bf0086
:101d180001c8b300014060000004e0000400320084
:101d280070a380000030a00070a388000400370072
:101d380070a3800071ff2f000100600070a388006d
:101d4800d0c2bf00624060000004e000040032001e
:101d580070a380000040a00070a388000400370032
:101d680070a38000f1fe2f000100600070a38800be
:101d7800d0c2bf00644060000004e00005003200eb
:101d880070a38000010220000100700070a3880089
:101d98000400370070a38000f1fd2f0001006000ef
:101da80070a38800e8c2bf0001c8b300014060000a
:101db8000004e0000500320070a380000104200048
:101dc8000100700070a388000400370070a3800031
:101dd800f1fb2f000100600070a38800e9c2bf007a
:101de800614060000004e0000500320070a380003c
:101df800010820000100700070a38800040037006b
:101e080070a38000f1f72f000100600070a3880024
:101e1800e9c2bf00624060000004e0000500320033
:101e280070a38000011020000100700070a38800da
:101e38000400370070a38000f1ef2f00010060005c
:101e480070a38800e8c2bf000044b2000004e000ac
:101e58000500320070a380000120200001007000fe
:101e680070a388000400370070a38000f1df2f0002
:101e78000100600070a3880060a380004800de00b5
:101e8800d09f880060a38000e09f880070a3800036
:101e98004800de00f09f880070a3800000a0880042
:101ea800608680004800de0010a088006086800000
:101eb80020a0880080b280004800de0030a08800a2
:101ec80080b2800040a0880040a080000000e000b0
:101ed80009003a000000eb0040a08800017a800069
:101ee800a0aa2a00808f500029003a004000200054
:101ef80040a088002600370040a08000e10f500075
:101f080009003a001000200040a08800017a8000f3
:101f1800a0aa2a00808f50001d003a00400020002f
:101f280040a088001a00370040a08000e20f50004f
:101f380003003a002000200040a088001400370069
:101f480040a08000e30f500003003a00200020006a
:101f580040a088000e00370040a08000e40f500029
:101f680003003a003000200040a088000800370035
:101f780040a08000e50f500003003a005000200008
:101f880040a08800020037000000eb0040a0880055
:101f9800e07e80004800de0050a08800e07e8000df
:101fa80060a08800107a80004800de0070a08800d9
:101fb800107a800080a08800d07f80004800de0072
:101fc80090a08800d07f8000a0a08800307f80008b
:101fd8004800de00b0a08800307f8000c0a08800e4
:101fe80070002000d0a08800c07d2000e0a08800fc
:101ff800e0ae80004800de00f0a08800e0ae80007f
:1020080000a18800d0ae8000e10f500004003a0023
:1020180050a380000000a00050a3880004003700ef
:1020280050a38000e1ff2f000100600050a388004a
:10203800e0ab8000640060000000e00004003200b3
:1020480050a380000010a00050a3880004003700af
:1020580050a38000d1ff2f000100600050a388002a
:1020680070b08000e10f500004003a0050a38000d7
:102078000020a00050a388000400370050a380006f
:10208800b1ff2f000100600050a38800e17e8000ae
:1020980040868000808f500004003900207a80003c
:1020a800700060000000e00004003a0050a38000c7
:1020b8000030a00050a388000400370050a380001f
:1020c80071ff2f000100600050a3880050a380001a
:1020d8004800de0010a1880050a3800020a18800dd
:1020e800217a800000002200008060000000e000eb
:1020f80006003a0050b580004800de0030a1880094
:1021080050b5800040a1880005003700d07e8000cf
:102118004800de0030a18800d07e800040a1880001
:10212800c08080004800de0050a18800c080800088
:1021380060a1880010b480004800de0070a188000b
:1021480010b4800080a18800608b80004880de0089
:1021580090a18800608b8000a0a18800807e80000c
:102168004800de00b0a18800807e8000c0a1880001
:10217800907e80004800de00d0a18800907e80001c
:10218800e0a18800b00b200010a388000000eb003d
:10219800c09e8800e00f2000d01088000080fa0060
:1021a800000006000000fa00a00a2000d09e880067
:1021b80000012000e09e880050072000f09e880063
:1021c800c0032000109f880080b28000e30f5000f9
:1021d8000300320080b28000e40f500010003a0083
:1021e800e04080004800de00509f8800e04080000a
:1021f800609f8800f04080004800de00709f8800e3
:10220800f0408000809f8800004180004800de0088
:10221800909f880000418000a09f88000c00370034
:102228000000eb00509f88000000eb00609f8800d2
:102238000000eb00709f88000000eb00809f880082
:102248000000eb00909f88000000eb00a09f880032
:10225800707e80004800de00b09f8800707e80009d
:10226800c09f8800412d20009140780000c8b3002d
:1022780000c060000004e00004003a0060a3800091
:102288000000a00060a388000400370060a380005d
:10229800e1ff2f000100600060a38800e0c2bf00da
:1022a800614060000004e00004003a0060a3800080
:1022b8000010a00060a388000400370060a380001d
:1022c800d1ff2f000100600060a38800e0c2bf00ba
:1022d800624060000004e00004003a0060a380004f
:1022e8000020a00060a388000400370060a38000dd
:1022f800b1ff2f000100600060a38800e6c2bf00a4
:10230800624060000004e00004003a0060a380001e
:102318000030a00060a388000400370060a380009c
:1023280071ff2f000100600060a38800e6c2bf00b3
:10233800614060000004e00004003a0060a38000ef
:102348000040a00060a388000400370060a380005c
:10235800f1fe2f000100600060a38800cfc2bf001b
:102368000042b2000004e00005003a0060a38000cb
:10237800010220000100700060a3880004003700fb
:1023880060a38000f1fd2f000100600060a38800b9
:10239800cfc2bf000044b2000004e00005003a00cc
:1023a80060a38000010420000100700060a3880081
:1023b8000400370060a38000f1fb2f0001006000db
:1023c80060a38800c8c2bf00644060000004e00049
:1023d80005003a0060a38000010820000100700099
:1023e80060a388000400370060a38000f1f72f0085
:1023f8000100600060a38800c8c2bf006840600098
:102408000004e00005003a0060a3800001102000ed
:102418000100700060a388000400370060a38000fa
:10242800f1ef2f000100600060a38800c8c2bf0060
:10243800704060000004e00005003a0060a38000de
:10244800012020000100700060a38800040037000c
:1024580060a38000f1df2f000100600060a3880006
:10246800207a800001102000010060000000e000d8
:102478000500320060a38000010028000100700000
:1024880060a388000400370060a38000f1ff2700e4
:102498000100600060a38800e9c2bf000044b200e8
:1024a8000004e0000400320070a380000000a000d7
:1024b80070a388000400370070a38000e1ff2f009c
:1024c8000100600070a38800e9c2bf00704060008e
:1024d8000004e0000400320070a380000010a00097
:1024e80070a388000400370070a38000d1ff2f007c
:1024f8000100600070a38800e9c2bf000042b2007a
:102508000004e0000400320070a380000020a00056
:1025180070a388000400370070a38000b1ff2f006b
:102528000100600070a38800e9c2bf0001c8b300c1
:10253800014060000004e0000400320070a3800045
:102548000030a00070a388000400370070a380004a
:1025580071ff2f000100600070a38800d0c2bf0087
:10256800624060000004e0000400320070a38000b4
:102578000040a00070a388000400370070a380000a
:10258800f1fe2f000100600070a38800d0c2bf00d8
:10259800644060000004e0000500320070a3800081
:1025a800010220000100700070a3880004003700b9
:1025b80070a38000f1fd2f000100600070a3880067
:1025c800e8c2bf0001c8b300014060000004e00099
:1025d8000500320070a38000010420000100700093
:1025e80070a388000400370070a38000f1fb2f005f
:1025f8000100600070a38800e9c2bf00614060006c
:102608000004e0000500320070a3800001082000eb
:102618000100700070a388000400370070a38000d8
:10262800f1f72f000100600070a38800e9c2bf0025
:10263800624060000004e0000500320070a38000e2
:10264800011020000100700070a38800040037000a
:1026580070a38000f1ef2f000100600070a38800d4
:10266800e8c2bf000044b2000004e00005003200e8
:1026780070a38000012020000100700070a3880072
:102688000400370070a38000f1df2f000100600014
:1026980070a3880060a380004800de00d09f8800f7
:1026a80060a38000e09f880070a380004800de00df
:1026b800f09f880070a3800000a0880060868000da
:1026c8004800de0010a088006086800020a08800f6
:1026d80080b280004800de0030a0880080b2800010
:1026e80040a0880040a080000000e00009003a00f7
:1026f8000000eb0040a08800017a8000a0aa2a0010
:10270800808f500029003a004000200040a0880037
:102718002600370040a08000e10f500009003a0071
:102728001000200040a08800017a8000a0aa2a009a
:10273800808f50001d003a004000200040a0880013
:102748001a00370040a08000e20f500003003a0052
:102758002000200040a088001400370040a080001e
:10276800e30f500003003a002000200040a088003a
:102778000e00370040a08000e40f500003003a002c
:102788003000200040a088000800370040a08000ea
:10279800e50f500003003a005000200040a08800d8
:1027a800020037000000eb0040a08800e07e8000b7
:1027b8004800de0050a08800e07e800060a088000d
:1027c800107a80004800de0070a08800107a80002f
:1027d80080a08800d07f80004800de0090a088009c
:1027e800d07f8000a0a08800307f80004800de00f5
:1027f800b0a08800307f8000c0a088007000200052
:10280800d0a08800c07d2000e0a08800e0ae800055
:102818004800de00f0a08800e0ae800000a188003b
:10282800d0ae8000e10f500004003a0050a38000b1
:102838000000a00050a388000400370050a38000c7
:10284800e1ff2f000100600050a38800e0ab80008a
:10285800640060000000e0000400320050a3800023
:102868000010a00050a388000400370050a3800087
:10287800d1ff2f000100600050a3880070b08000d5
:10288800e10f500004003a0050a380000020a0008f
:1028980050a388000400370050a38000b1ff2f0028
:1028a8000100600050a38800e17e8000408680001f
:1028b800808f500004003900207a8000700060008a
:1028c8000000e00004003a0050a380000030a0009f
:1028d80050a388000400370050a3800071ff2f0028
:1028e8000100600050a3880050a380004800de006b
:1028f80010a1880050a3800020a18800217a8000c0
:1029080000002200008060000000e00006003a009d
:1029180050b580004800de0030a1880050b5800026
:1029280040a1880005003700d07e80004800de0006
:1029380030a18800d07e800040a18800c08080003f
:102948004800de0050a18800c080800060a1880097
:1029580010b480004800de0070a1880010b4800028
:1029680080a18800508b80004880de0090a18800fc
:10297800508b8000a0a18800807e80004800de0087
:10298800b0a18800807e8000c0a18800907e800071
:102998004800de00d0a18800907e8000e0a1880079
:1029a800308b80004880de00f0a18800308b8000ea
:1029b80000a28800c08b80004800de0010a28800ba
:1029c800c08b800020a28800b08b80004800de0009
:1029d80030a28800b08b800040a28800f08b800075
:1029e8004800de0050a28800f08b800060a28800ba
:1029f800b00b200010a388000000eb00c09e8800e8
:102a0800e00f2000d01088000080fa0000000600c7
:102a18000200fa00a00a2000d09e880000012000d1
:102a2800e09e880040082000f09e880040002000ba
:102a3800109f8800e0012000000f78001e00780039
:102a4800000040008000780000c02f000080400097
:102a5800f07988001e0078000000400080007800af
:102a6800a0f420000080400000017800f079800088
:102a780080007800f007200013002000121f0700d4
:102a8800f0012000000f78001e00780000004000d0
:102a98008000780000c02f0000804000f079880096
:102aa8001e0078000000400080007800a0f420009c
:102ab8000080400000017800f079800080007800f4
:102ac800f007200013002000ff1e0700307c800064
:102ad8004800de00509f8800307c8000609f88009e
:102ae800407c80004800de00709f8800407c8000a9
:102af800809f8800b00b200010a388000000eb0026
:102b0800c09e8800e00f2000d01088000080fa00e6
:102b1800000006000000fa0030032000f0108800d2
:102b28000000eb00b010880017e2a80017a2a80068
:102b380016a2a900612120009140780090cfb3002f
:102b480000c0600016e2b7001602a9000000eb0002
:102b5800c01088001942a80019e2a90018c2bf00d5
:102b6800f043b20018e2b7008720a9008700a90047
:102b7800010a200091407800f0c8b30000c060004e
:102b880001c4b30001407000a0e0b700010a2000b2
:102b98009140780080cfb30000c060000024a000fe
:102ba800a0e0b7008f20a8008f00a8000080fa00de
:102bb80000000600809fbe00821f78003400f800e5
:102bc80000002000a00188000000fa000ec2bf002b
:102bd800624060000004e000010032000e22a900fb
:102be800ca12a8000000eb00a09e88005096800042
:102bf800620060000000e00086003a000ec2bf00dc
:102c0800644060000004e00084003a0060968000a0
:102c18000000e0000b003a00e01080007096880089
:102c280071968000a00a2000808f50007b003a0037
:102c380010002000609688000000eb00c096880015
:102c48007600370060968000e10f500005003a00da
:102c58002000200060968800e010800080968800a0
:102c68006e00370060968000e20f500005003a00c1
:102c78003000200060968800e01080009096880060
:102c88006600370060968000e30f500022003a008b
:102c98004000200060968800e0108000b096880010
:102ca800b0968000a0968800b0968000fc0f500077
:102cb80003003a0070032000609688005700370030
:102cc800b1968000c0032000808f500003003a00b6
:102cd800800320006096880050003700b09680007e
:102ce800e10f500003003a00400020006096880081
:102cf8004a003700b09680000000e00003003a0068
:102d08004000200060968800440037000000eb0077
:102d1800609688004100370060968000e40f5000fc
:102d28000b003a00e0108000b09a8800b19a800049
:102d3800b00b2000808f500002003a00ca32a80071
:102d4800ca12a9000000eb00609688003300370023
:102d58006196800070032000808f500013003a00b5
:102d6800b09680000000e900b0968800c096800008
:102d7800e210800000004000f2004000c02c21005a
:102d88000080400002087800c09680000000e8003b
:102d9800c0968800b09680000000e0001f003a004e
:102da80040002000609688001c0037006196800073
:102db80080032000808f500013003a00b0968000f6
:102dc8000000e900b0968800c0968000e2108000fc
:102dd80000004000f2004000c02c210000804000ac
:102de80002087800c09680000000e800c0968800bd
:102df800b09680000000e00008003a004000200083
:102e080060968800050037000000eb006096880097
:102e180002003700e0108000709688008700a90043
:102e28000080fa003400f9004f0178004f00be001e
:102e380000400600809fbe003400f800000020001b
:102e4800a00188000000fa00c09e80000000e00099
:102e580005003a00d09e8000d010880010002000a5
:102e6800c09e880039003700c09e8000e10f5000e6
:102e780005003a0020002000c09e8800e09e8000e7
:102e8800d010880031003700c09e8000e20f50004b
:102e980005003a0030002000c09e8800f09e8000a7
:102ea800d010880029003700c09e8000e30f500032
:102eb80007003a0040002000c09e8800109f800054
:102ec800d01088000000eb00209f88001f0037000a
:102ed800c09e8000e40f50001a003a00109f800046
:102ee8000000e00006003a0020042000c09e880090
:102ef800b00b2000d0108800ca52a8001300370079
:102f080040002000c09e8800209f800000004000f4
:102f1800e111200080804000c02c2100008040008a
:102f280010007800d0108800209f80000000e80082
:102f3800209f8800109f80000000e900109f8800f3
:102f48000200370020042000c09e88008720a900c6
:102f58000080fa003400f9004f00be00004006006f
:102f68000000fa008700a9008f00a9000000eb000c
:102f7800d09688000000eb00e09688000000eb0087
:102f8800e096880027003700a09680000000e9003e
:102f9800a0968800a09680000000e900a09688000e
:102fa800d19680000180400072014000c02c2100b1
:102fb8000000410010007800c09a88000100e80075
:102fc800d0968800d19680000180400072014000b0
:102fd800c02c21000000410010007800d09a880021
:102fe8000100e800d0968800c09a80004800dd0003
:102ff800c09a8800e2968000c19a8000d09a80002a
:1030080080814000020041000109200080804000ca
:10301800c02c210000804000030878000200e8006e
:10302800e0968800a0968000e10f5000d6ff3e0091
:1030380080968000f00f500057003a00919680006b
:1030480010082000808f500002003a00cab2a80081
:103058006b0037009196800010072000808f500089
:1030680002003a00cb72a8006500370091968000f4
:1030780050072000808f500002003a00cbb2a80011
:103088005f0037009196800020082000808f500054
:1030980002003a00ca92a8005900370091968000b1
:1030a80020072000808f500002003a00cb52a80071
:1030b800530037009196800020062000808f500032
:1030c80002003a007034a8004d0037009196800045
:1030d80020052000808f500002003a0070b4a8003c
:1030e800470037009196800040082000808f5000ec
:1030f80002003a00cad2a800410037009196800029
:1031080050082000808f500006003a00b0968000da
:10311800e10f50003a003a00caf2a800cb12a90009
:10312800370037009196800060082000808f50009b
:1031380005003a00b0968000e10f500030003a00d8
:10314800cb12a8002e00370091968000700820004e
:10315800808f500005003a00b0968000e10f5000c3
:1031680027003a007c15a8002500370091968000ba
:1031780080082000808f500005003a00b09680003b
:10318800e10f50001e003a007c35a8001c003700f3
:10319800000000001a00370081968000000220001d
:1031a800808f500015003a0091968000300820006a
:1031b800808f500001003a00ca72a80091968000e2
:1031c80030072000808f500001003a00cb32a80061
:1031d8009196800030062000808f500001003a0050
:1031e8007014a8009196800030052000808f500050
:1031f80003003a007094a8000100370000000000a6
:103208008f00a8000080fa00000006004400fa00c1
:10321800889fbe000000eb00102798000000eb001c
:1032280010279800140037001e209000000040006e
:103238008000780000c02f0000804000f0798800ee
:103248001e2090000000400080007800a0f42000bc
:103258000080400000017800f0798000800078004c
:10326800f007200013002000171d07001e20900003
:103278000000e800102798009e209000d00320004e
:10328800808f5000e8ff3600507d80004085880020
:10329800408580000000e00002003a0050d0200085
:1032a8004085880040858000010020004a09dd0033
:1032b800c600de00810071004a00dd0050858800ec
:1032c80061858800207c8000800078000000210053
:1032d80000806000002798008e20900000002100e8
:1032e800808f500002003a00458fa8000100370087
:1032f800458fa900517a800060042000808f50001b
:103308000300360050012000507a8800070037007b
:10331800507a8000e90f500003003e005001200061
:10332800507a88000100370000000000517a8000c0
:10333800400620000088b900507a8800217a800071
:1033480000002100008060000000e0000f003a004b
:10335800517a800000f42100010050000100200093
:10336800a07f8800b17f8800a07f8000b17f8000a7
:103378004a09dd00c600de00810071004a00dd0058
:10338800a07f8800b17f88000e003700517a800046
:10339800a0a021000100500001002000a07f8800ab
:1033a800b17f8800a07f8000b17f80004a09dd00de
:1033b800c600de00810071004a00dd00a07f8800a1
:1033c800b17f8800617a800000052000808f50005e
:1033d8000200360080022000607a8800617a80004e
:1033e800400620000088b900c07f8800a27f8000c6
:1033f800b37f800050858000618580000000510007
:103408008180590002fa200003002000c8f4070058
:10341800d0808800a27f8000b37f80005085800024
:10342800618580000000510081805900027d2000e4
:1034380003002000bef40700e0808800817a800045
:10344800007d2000808f500003003600800c200093
:10345800807a88000100370000000000807a800030
:10346800d0858800717a8000401f2000808f50002e
:1034780003003600e0152000707a88000800370045
:10348800717a800030062000808f500003003e00d3
:10349800e0152000707a8800010037000000000065
:1034a800707a8000a2002000110009000280d80074
:1034b800707a8800d08580006104b800707a800036
:1034c8006102b8008800780004007800000bb8009a
:1034d80005c0b900070178000001410009a0b90042
:1034e8000001410082037800a200200003002000b0
:1034f8000600be0088f30700f07f8800907a8000fd
:10350800e30f5000030036000000eb00907a8800bb
:103518000100370000000000907a8000e07f8800fa
:10352800a07a800020898800b07a800052002000ac
:10353800110009000280d80010898800c07a800034
:1035480010808800d17a8000c0032000808f50004e
:103558000200360040012000d07a8800d17a80002d
:10356800400620000088b90020808800e07a8000aa
:1035780010868800f17a8000c0122000808f5000e9
:103588000300360020032000f07a88000700370087
:10359800f07a8000e90f500003003e00200320006d
:1035a800f07a88000100370000000000f07a8000ff
:1035b80030868800017b800060042000808f5000e6
:1035c8000200360030022000007b8800007b80006b
:1035d80040868800117b800060042000808f5000a6
:1035e8000300360080022000107b880007003700a7
:1035f800107b8000fd0f500003003e008002200079
:10360800107b88000100370000000000117b80005b
:10361800400620000088b9000100200030808800a2
:1036280041808800217b800060042000808f50004a
:1036380003003600c0032000207b88000700370005
:10364800207b8000fd0f500003003e00c0032000d7
:10365800207b88000100370000000000217b8000eb
:10366800400620000088b900010020005080880032
:1036780061808800528080006380800030808000f4
:1036880041808000800f5100818f59000900360069
:1036980050808000618080003280800043808000fc
:1036a8000200500083805800808088009180880044
:1036b80008003700508080006180800032808000e0
:1036c800438080000200500083805800808088007a
:1036d8009180880080808000918080004a09dd0008
:1036e800c600de00810071004a00dd00808088008d
:1036f80091808800848080009580800020808000f0
:103708006101b8000400be0009f407007080880059
:1037180030808000418080004a09dd00c600de005c
:10372800810071004a00dd003080880041808800f7
:1037380050808000618080004a09dd00c600de00fc
:10374800810071004a00dd00508088006180880097
:10375800307b8000b0818800407b8000c081880079
:10376800507b8000d0818800607b8000e0818800e9
:10377800707b8000f081880070b080000000e0005d
:1037880004003a00707b8000608688000000eb002f
:1037980050868800807b800000828800907b8000b3
:1037a80090828800a07b8000a0828800b07b800087
:1037b80030828800c07b800040828800d07b8000f7
:1037c80050828800e07b800060828800f07b800067
:1037d80070828800007c800080828800107c8000d5
:1037e800b0828800207c800061006000701f980013
:1037f8007e189000e10f500002003a00440fa80024
:1038080001003700440fa900207c8000620060009e
:10381800601f98006e189000e20f500002003a00f6
:10382800442fa80001003700442fa900207c800005
:1038380064006000501f98005e189000e40f50006c
:1038480002003a00444fa80001003700444fa90085
:10385800207c800068006000401f98004e1890008f
:10386800e80f500002003a00446fa800010037003a
:10387800446fa900207c800070006000301f980011
:103888003e189000f00f500002003a00448fa80044
:1038980001003700448fa900207c80008000780058
:1038a8000002200000806000201f9800ae189000e1
:1038b80000022000808f500002003a0044afa800a8
:1038c8000100370044afa900207c80008000780008
:1038d8000004200000806000101f98009e189000cf
:1038e80000042000808f500002003a0044cfa80056
:1038f8000100370044cfa900207c800080007800b8
:103908000008200000806000001f98008e189000ba
:1039180000082000808f500002003a0044efa80001
:103928000100370044efa900207c80008000780067
:10393800002020000080600070179800fe109000a2
:1039480000202000808f500002003a00452fa80078
:1039580001003700452fa900207a800001202000af
:10396800010060000000e0000a003a00207c8000ae
:103978008000780000102000008f600000102000f8
:103988009e0f100002003a00450fa8000100370002
:10399800450fa900207c80008000780000402000ae
:1039a8000080600060179800ee1090000040200032
:1039b800808f500002003a00454fa80001003700f0
:1039c800454fa900207c80008000780000802000fe
:1039d8000080600050179800de10900000802000e2
:1039e800808f500002003a00456fa80001003700a0
:1039f800456fa900207a80000100210001006000c5
:103a08000000e00005003a0040062000308c8800e5
:103a180020032000408c8800040037004005200067
:103a2800308c8800a0022000408c8800207c800018
:103a38008000780000002200008060004017980095
:103a4800ce10900000002200808f500002003a0043
:103a580045afa8000100370045afa900207c8000d1
:103a68008000780000002400008060003017980073
:103a7800be10900000002400808f500002003a0021
:103a880045cfa8000100370045cfa900207c800061
:103a9800800078000000280000806000201798004f
:103aa800ae10900000002800808f500002003a00fd
:103ab80045efa8000100370045efa900307c8000e1
:103ac800507e8800407c8000607e8800507c8000aa
:103ad8006103b80086007800000029000009b800da
:103ae8006130b9000302780000024200000029009a
:103af80000b8b90000024200840178000200be004c
:103b0800c0828800d1828800607c80006103b80090
:103b180086007800000029000009b8006130b9006b
:103b280003027800000242000000290000b8b90032
:103b380000024200840178000200be00e082880092
:103b4800f1828800707c80006103b80086007800ec
:103b5800000029000009b8006130b90003027800ac
:103b6800000242000000290000b8b900000242002b
:103b7800840178000200be00008388001183880059
:103b8800807c80006103b80086007800000029006e
:103b98000009b8006130b900030278000002420051
:103ba8000000290000b8b900000242008401780032
:103bb8000200be002083880031838800907c80004a
:103bc8006103b80086007800000029000009b800e9
:103bd8006130b900030278000002420000002900a9
:103be80000b8b90000024200840178000200be005b
:103bf8004083880051838800a07c80000100200059
:103c08006083880071838800b17c800040062000b2
:103c18000088b90080838800c07c800020858800e7
:103c2800d07c800030858800e07c8000e0848800bb
:103c3800f17c8000400620000088b900c08388001d
:103c4800517c8000400620000088b9008000780080
:103c580000f421000100500001002000d0838800fa
:103c6800e1838800d0838000e18380004a09dd0079
:103c7800c600de00810071004a00dd00d0838800a4
:103c8800e1838800e2828000f3828000c0828000a5
:103c9800d1828000800f5100818f59000f003900b8
:103ca800808380000000e0000c003200e282800087
:103cb800f3828000c0828000d1828000000251001f
:103cc80081825900808380006101b8000400be0031
:103cd80097f20700f0838800020037000000eb002d
:103ce800f08388000283800013838000e0828000d4
:103cf800f1828000800f5100818f59000f00390038
:103d0800908380000000e0000c00320002838000f5
:103d180013838000e0828000f1828000000251005d
:103d280081825900908380006101b8000400be00c0
:103d38007ff2070000848800020037000000eb00d3
:103d48000084880022838000338380000083800001
:103d580011838000800f5100818f59000f003900b6
:103d6800a08380000000e0000c0032002283800065
:103d7800338380000083800011838000000251009b
:103d880081825900a08380006101b8000400be0050
:103d980067f2070010848800020037000000eb007b
:103da8001084880042838000538380002083800031
:103db80031838000800f5100818f59000f00390036
:103dc800b08380000000e0000c00320042838000d5
:103dd80053838000208380003183800000025100db
:103de80081825900b08380006101b8000400be00e0
:103df8004ff2070020848800020037000000eb0023
:103e080020848800007d8000808488008084800071
:103e18000000e00002003a00a00020008084880032
:103e2800107d800090848800908480000000e0006d
:103e380002003a00c012200090848800207d800093
:103e480040898800408980000000e00002003a00b4
:103e58002003200040898800307d8000a0848800ed
:103e6800a08480000000e00002003a00401f20000b
:103e7800a0848800407d8000b0848800b0848000e1
:103e88000000e00002003a00a0002000b084880092
:103e9800607d800061006000101798001e1090007f
:103ea800e10f500002003a0047efa8000100370078
:103eb80047efa900607d800062006000001798004d
:103ec8000e109000e20f500002003a00480fa800c0
:103ed80001003700480fa900607d80006400600081
:103ee800700f98007e089000e40f500002003a001e
:103ef800482fa80001003700482fa900607d8000e6
:103f080068006000700f98007e089000e80f50006d
:103f180002003a00484fa80001003700484fa900a6
:103f2800707d800061006000700f98007e0890002e
:103f3800e10f500002003a00460fa80001003700c8
:103f4800460fa900707d800062006000600f980035
:103f58006e089000e20f500002003a00462fa800b9
:103f680001003700462fa900707d800064006000c2
:103f7800500f98005e089000e40f500002003a00cd
:103f8800464fa80001003700464fa900707d800009
:103f980068006000400f98004e089000e80f50003d
:103fa80002003a00466fa80001003700466fa900da
:103fb800707d800070006000300f98003e0890000f
:103fc800f00f500002003a00468fa80001003700a9
:103fd800468fa900707d80008000780000022000d4
:103fe80000806000200f9800ae08900000022000ba
:103ff800808f500002003a0046cfa8000100370029
:1040080046cfa900707d8000800078000004200061
:1040180000806000100f98009e08900000042000a7
:10402800808f500002003a0046afa8000100370018
:1040380046afa900707d800080007800000820004d
:1040480000806000000f98008e0890000008200093
:10405800808f500002003a0046efa80001003700a8
:1040680046efa900707d80008000780000102000d5
:104078000080600070079800fe009000001020008b
:10408800808f500002003a00470fa8000100370057
:10409800470fa900707d8000800078000020200074
:1040a8000080600060079800ee009000002020006b
:1040b800808f500002003a00472fa8000100370007
:1040c800472fa900707d8000800078000040200004
:1040d8000080600050079800de009000004020003b
:1040e800808f500002003a00474fa80001003700b7
:1040f800474fa900707d8000800078000080200074
:104108000080600040079800ce00900000802000ea
:10411800808f500002003a00476fa8000100370066
:10412800476fa900707d80008000780000002100a2
:104138000080600030079800be0090000000210059
:10414800808f500002003a00478fa8000100370016
:10415800478fa900707d8000800078000000220051
:104168000080600020079800ae0090000000220048
:10417800808f500002003a0047afa80001003700c6
:1041880047afa900707d80008000780000002400ff
:1041980000806000100798009e0090000000240036
:1041a800808f500002003a0047cfa8000100370076
:1041b80047cfa900807d80006a00b900c0848800cc
:1041c800c08480000000e00002003a00600920007e
:1041d800c0848800907d8000d0848800d0848000ce
:1041e8000000e00002003a00a0002000d08488000f
:1041f800a07d8000f0848800f08480000000e0004a
:1042080002003a0040062000f0848800b07d80005b
:1042180000858800008580000000e00002003a0068
:104228004006200000858800c07d80001085880039
:10423800108580000000e00002003a0040062000df
:1042480010858800d07d800070858800e07d800022
:1042580080858800f07d800090858800007e800041
:10426800a0858800107e8000b0858800207e8000b0
:10427800c0858800d085800001002000a2002000b1
:104288000300200024f0070070818800d08580009a
:104298000100200052002000030020001ef007004b
:1042a80090818800f07f80006103b8008600780064
:1042b800d0052000000ab8006030b9000501780078
:1042c80000014100d005200000b8b90000014100fc
:1042d8008202780042062000030020000400be008d
:1042e8000df00700e0858800f07f80006103b800ca
:1042f8008600780020062000000ab8006030b90067
:1043080005017800000141002006200000b8b9002e
:1043180000014100820278004206200003002000cc
:104328000400be00fcef0700f0858800a07a80003a
:10433800a2002000110009000280d8000086880031
:10434800d0858000a2002000110009000280d8005a
:1043580020868800d1858000d08580000100b800c3
:10436800a0868800b1868800b185800000052000fd
:104378000100b800c0868800d1868800c886800001
:10438800d9868000a6868000b786800088007800dd
:1043980006007800000ab80007c0b90005017800d7
:1043a8000001410009b0b900000141008202780013
:1043b800c4868800d5868800c18580000005200055
:1043c8000100b800e0868800f1868800e886800051
:1043d800f9868000a6868000b7868000880078006d
:1043e80006007800000ab80007c0b9000501780087
:1043f8000001410009b0b9000001410082027800c3
:10440800e4868800f58688004f04be000080fa0024
:10441800000006000000fa00d2e2a800de02a800b0
:10442800de22a800e422a800e402a800d362a800c3
:104438000000eb00801688000000eb0040178800a1
:104448000000eb00b0168800e5c2a900e582a900cb
:10445800e5a2a900e5e2a900cc22a900cc42a90066
:10446800e4c2a900e4e2a900e502a900e522a90046
:10447800d262a900d242a900d222a900e9c2a900a9
:10448800e982a900d042a9000000eb0090ab8800a7
:104498000000eb00a0ab88000000eb00b0ab880088
:1044a8000000eb0080b288000080fa0000000600df
:1044b8000000fa000000eb00200888000000eb0074
:1044c8000008880005a1a9000421a90041102000c6
:1044d80091407800f0ccb30000c0600004e1b70060
:1044e80005e1a80000f42100100888005109200007
:1044f80091407800f0c8b30000c0600001c5b30067
:104508000140700095e0b7008460a9008c60a800a5
:1045180042c0bf007f40600001c6b3000140700088
:1045280042e0b7000080fa00000006000000fa0030
:10453800d2c2a800d2a2a800d282a8000000eb0034
:10454800000688000000eb0010068800c1a0a80043
:10455800c1c0a800c1e0a8000000eb002006880048
:104568000000eb0030068800c5a0a900c5c0a9005e
:10457800c5e0a900b109200091407800f0c8b30057
:1045880000c0600001c5b300014070009be0b700a7
:1045980085e0a9008de0a8000080fa000000060070
:1045a8000600fa006000b80010079800210798007c
:1045b8000040eb00004f78000e0037001e80fb0023
:1045c80000004000e4004000801a21000080400004
:1045d800100078006101b8001e009000ae00900045
:1045e80000004100818049001007980021079800c9
:1045f8001e4fe80030c0b3009e4f1000efff36009a
:104608001e009000ae0090004e09dd004200de0062
:1046180000007100c208de000080fa0000000600f9
:104628000800fa00100798009e009000b0bd240012
:10463800808f5000040036009e009000c03f250087
:10464800808f50000900360030d6bf000040e800d7
:1046580030f6b70030d6bf00e24f500019003600e0
:104668000000eb0030079800180037000040eb000e
:1046780030f6b700caff0700000f78009e009000d0
:104688001e00780000805000200798002e0090003f
:104698000000e00003003d002e0090000000ea004a
:1046a800200798002e0090009e007800c208de00c7
:1046b800810f5000030036000000eb00300798001f
:1046c8000200370010002000300798003e009000dc
:1046d8000080fa00000006000000fa001fe1a900af
:1046e8000000eb00a0088800508d8000803eb000dc
:1046f800d00888001fe1a8000080fa00000006002a
:104708000000fa00907f8000640060000000e00074
:104718001c0032000000eb00c0088800217a8000ed
:1047280000002100008060000000e00003003a0063
:1047380030682000e008880002003700d0562000ca
:10474800e008880086c0a9008ec0a80021e1a80062
:104758001000200040b4880010c0b30086f6b700ef
:1047680010002000d0ab880087a0a900e114200029
:104778009140780080cfb30000c060004ee1b700e0
:104788008fa0a9000080fa00000006000000fa00cf
:104798000000eb0060b488000000eb00700a88009d
:1047a8004ee1a900e114200091407800f0c9b3005f
:1047b80000c060004ee1b700e1142000914078008d
:1047c80080cfb30000c060003040b3004ee1b700b6
:1047d800210a20009140780000c7b30000c0700093
:1047e800a2e0b70087a0a9008fa0a8000080fa0067
:1047f800000006000000fa000000eb0080088800b6
:104808000000eb003008880011a1a90010c1a90020
:104818001021a9000111200091407800f0ccb300cc
:1048280000c060000044a00010e1b7001061a900ba
:1048380011e1a9000080eb006008880071092000e0
:104848009140780080cfb30000c060006040b300a2
:1048580097e0b70084c0a9008cc0a9000000eb0055
:10486800900888000000eb005008880013a1a900f8
:1048780012c1a9001221a90021112000914078003d
:10488800f0ccb30000c060000044a00012e1b70003
:1048980013e1a8000080eb0070088800710920006f
:1048a80091407800f0c8b30000c0600001c6b300b2
:1048b8000140700097e0b70084e0a9008ce0a900ef
:1048c8000000eb00f00888000000eb00a00888005a
:1048d80000e22400d00888001fa1a8001ec1a9007a
:1048e8001e21a900e111200091407800f0ccb3000e
:1048f80000c060000044a0001ee1b7001fe1a9004d
:104908001e61a900e109200091407800f0c8b300b9
:1049180000c0600001c6b300014070009ee0b7000f
:1049280086a0a9008ea0a8000000eb00000988005e
:104938000000eb00c008880021a1a80020c1a90040
:104948002021a9000112200091407800f0ccb3008a
:1049580000c060000044a00020e1b70021e1a900e8
:1049680080b58000e0088800f109200091407800b7
:1049780080cfb30000c060006040b3009fe0b70084
:1049880086c0a9008ec0a9000080fa0000000600b9
:104998003600f800809fbe00829fbe00849fbe0044
:1049a800869fbe003400f80000002000a0018800a7
:1049b8000000fa00f22fa80087a0a900e114200047
:1049c8009140780080cfb30000c060003040b30051
:1049d8004ee1b7000000eb0090b18800600a80004b
:1049e80050b2880051b2800080b48000808f50009f
:1049f8000500390050b2800081b4800001005000e9
:104a080060b288000500370051b2800080b4800091
:104a1800008050000000e90060b2880061b28000a8
:104a2800c0bd2400808f50001400360061b28000a1
:104a3800b03f2500808f500010003e00b4d1bf0069
:104a48000080fb0062b2800000004000e4004000eb
:104a5800801a21000080400002087800b4d1bf000d
:104a68000080fb000000e80042002000110009005f
:104a78000200d8008000fd00b4f1b700c8fe0700ae
:104a8800408d880060b28000e5fe0700b5f1b700f0
:104a9800b5d1bf000004e00005003200408d800061
:104aa800508d88000cff070010c0b3003cf6b7001b
:104ab80050b2800080b48800b5d1bf000004e00087
:104ac800010032000eff07000080fa003400f900f0
:104ad8004f03be004f02be004f01be004f00be0094
:104ae8003600f90000400600809fbe003400f80040
:104af80000002000a00188000000fa0040b48000f7
:104b0800e10f500015003a00d5c2bf0068406000b0
:104b18000004e00011003a00b5d1bf000004e00035
:104b28000e0032000000eb0040b4880021e1a9002b
:104b380086c0a9008ec0a90087a0a9008fa0a800e0
:104b4800e11420009140780080cfb30000c06000dd
:104b58003040b3004ee1b7002000370040b4800079
:104b6800e10f500011003a00d5c2bf006840600054
:104b78000004e0000d003200b5d1bf000004e000e1
:104b88000a0032002000200040b4880087a0a90055
:104b98008fa0a900e11420009140780080cfb300d5
:104ba80000c060004ee1b7000c00370040b4800040
:104bb800e10f500009003a00d5c2bf00684060000c
:104bc8000004e00005003a00b5d1bf000004e00091
:104bd80002003a002000200040b4880040b4800061
:104be800e20f50001d003a000000eb00c0088800ea
:104bf800c0808000e00888003dd6bf00e14f50002b
:104c080006003a000040eb003df6b700e1088000de
:104c180080c12f0000804000e0088800b0b3800009
:104c280080b5880086c0a9008ec0a80021e1a80030
:104c3800217a800000102000008060000000e00061
:104c480003003a003000200040b488004c003700d0
:104c5800b000200040b488004900370040b480000c
:104c6800e30f50000c003a004000200040b48800d8
:104c78000000eb00c008880080b58000e0088800cc
:104c880086c0a9008ec0a80021e1a800d662a800ad
:104c9800d642a8003a00370040b48000e40f500024
:104ca80013003a005000200040b488003000200073
:104cb80050b488000000eb003008880051b580002f
:104cc80080b58000008050006008880084c0a9007a
:104cd8008cc0a80011e1a800d662a900d642a9009c
:104ce800d622a90086c0a9008ec0a90024003700da
:104cf80040b48000eb0f50000c003a00c0002000c8
:104d080040b488000000eb00c008880080b580002f
:104d1800e008880086c0a9008ec0a80021e1a8008c
:104d2800d662a800d642a8001500370040b480001b
:104d3800ec0f500012003a00d000200040b4880068
:104d48005001200050b488000000eb0030088800b3
:104d580051b5800080b58000008050006008880050
:104d680084c0a9008cc0a80011e1a800d662a900df
:104d7800d642a900d622a90086c0a9008ec0a900e3
:104d88000080fa003400f9004f00be000040060021
:104d9800809fbe003400f80000002000a0018800b9
:104da8000000fa0084c0a90050b48000e30f50004e
:104db8000c003a004000200050b488000000eb00ce
:104dc8003008880080b580006008880084c0a90089
:104dd8008cc0a80011e1a800d662a800d622a800bd
:104de8008f00370050b48000e40f50000f003a00e5
:104df8005000200050b488000000eb003008880004
:104e080051b5800080b5800000805000600888009f
:104e180084c0a9008cc0a80011e1a800d662a9002e
:104e2800d642a900d622a9007d00370050b48000e0
:104e3800e50f50000c003a006000200050b48800d4
:104e48000000eb003008880080b58000600888000a
:104e580084c0a9008cc0a80011e1a800d642a8000f
:104e6800d622a8006e00370050b48000e60f50002c
:104e78000f003a007000200050b488000000eb00da
:104e88003008880051b5800080b58000008050004f
:104e98006008880084c0a9008cc0a80011e1a8009f
:104ea800d662a900d642a900d622a9005c00370024
:104eb80050b48000e70f50000c003a00800020003a
:104ec80050b488000000eb003008880080b58000ee
:104ed8006008880084c0a9008cc0a80011e1a8005f
:104ee800d642a800d662a8004d00370050b4800012
:104ef800e80f50000f003a009000200050b48800de
:104f08000000eb003008880051b5800080b58000b3
:104f1800008050006008880084c0a9008cc0a800e8
:104f280011e1a800d662a900d642a900d622a9009c
:104f38003b00370050b48000e90f50000c003a00e5
:104f4800a000200050b488000000eb003008880062
:104f580080b580006008880084c0a9008cc0a800c3
:104f680011e1a800d622a800d662a8002c003700bc
:104f780050b48000ea0f50000f003a00b000200043
:104f880050b488000000eb003008880051b580005c
:104f980080b58000008050006008880084c0a900a7
:104fa8008cc0a80011e1a800d662a900d642a900c9
:104fb800d622a9001a00370050b48000eb0f500029
:104fc8000c003a00c000200050b488000000eb003c
:104fd8003008880080b580006008880084c0a90077
:104fe8008cc0a80011e1a800d622a800d642a800cb
:104ff8000b00370050b48000ec0f500008003a0056
:10500800d000200050b48800d662a900d642a9007a
:10501800d622a90084c0a9008cc0a90011e1a9006a
:1050280050b48000f50f50000c003a0060012000d9
:1050380050b488000000eb003008880080b580007c
:105048006008880084c0a9008cc0a80011e1a800ed
:10505800d642a800d622a8008f00370050b480009e
:10506800f60f50000f003a007001200050b488007d
:105078000000eb003008880051b5800080b5800042
:10508800008050006008880084c0a9008cc0a80077
:1050980011e1a800d662a900d642a900d622a9002b
:1050a8007d00370050b48000f70f50000c003a0024
:1050b8008001200050b488000000eb003008880010
:1050c80080b580006008880084c0a9008cc0a80052
:1050d80011e1a800d662a800d622a8006e00370009
:1050e80050b48000f80f50000f003a0090012000e3
:1050f80050b488000000eb003008880051b58000eb
:1051080080b58000008050006008880084c0a90035
:105118008cc0a80011e1a800d662a900d642a90057
:10512800d622a9005c00370050b48000f90f500067
:105138000c003a00a001200050b488000000eb00e9
:105148003008880080b580006008880084c0a90005
:105158008cc0a80011e1a800d642a800d662a80019
:105168004d00370050b48000fa0f50000f003a008d
:10517800b001200050b488000000eb00300888001f
:1051880051b5800080b5800000805000600888001c
:1051980084c0a9008cc0a80011e1a800d662a900ab
:1051a800d642a900d622a9003b00370050b480009f
:1051b800fb0f50000c003a00c001200050b48800da
:1051c8000000eb003008880080b580006008880087
:1051d80084c0a9008cc0a80011e1a800d622a800ac
:1051e800d642a8002c00370050b48000fc0f5000b5
:1051f8000f003a00d001200050b488000000eb00f6
:105208003008880051b5800080b5800000805000cb
:105218006008880084c0a9008cc0a80011e1a8001b
:10522800d662a900d642a900d622a9001a003700e2
:1052380050b48000fd0f50000c003a00e00120003f
:1052480050b488000000eb003008880080b580006a
:105258006008880084c0a9008cc0a80011e1a800db
:10526800d622a800d662a8000b00370050b48000f0
:10527800fe0f500008003a00f001200050b48800ea
:10528800d662a900d642a900d622a90084c0a900e6
:105298008cc0a90011e1a9000080fa003400f900cf
:1052a8004f00be00004006003600f800809fbe0098
:1052b800829fbe00849fbe00869fbe003400f80017
:1052c80000002000a00188000000fa00508d800036
:1052d800d00888000040eb00b5f1b700b5d1bf0099
:1052e8000004e00001003a0005fd07003cd6bf00bd
:1052f8000004e000080032000040eb003cf6b70074
:1053080010c0b3003df6b700518d800080c12f005a
:1053180000804000d00888000000eb00a00888004a
:1053280086a0a9008ea0a8001fe1a8000080fa00ae
:105338003400f9004f03be004f02be004f01be000b
:105348004f00be003600f90000400600809fbe00f6
:10535800821f78003400f80000002000a0018800b7
:105368000000fa0085e0a900d4c2bf000080fb005d
:105378004600de00e1406000a0b1800061406000ae
:1053880080cf50000d003200d4c2bf000080fb0067
:105398004600de00614060000080fb0061016000a3
:1053a800a1b18000e0ff2f000080600002007000c3
:1053b800a0b188000000eb00b0b18800d4c2bf00e3
:1053c8000080fb004500de00e1406000a0b18000e5
:1053d8000000d1006140600080cf50000e00320014
:1053e800d4c2bf000080fb004500de0061406000c1
:1053f8000080fb006100600000014000a1b1800056
:10540800d0ff2f000080600002007000a0b188006b
:105418000000eb00c0b18800d4c2bf000080fb00d0
:105428004400de00e1406000a0b180004200de00e0
:105438006140600080cf50000e003200d4c2bf002f
:105448000080fb004400de00614060000080fb003b
:10545800610060004201dd00a1b18000b0ff2f00b3
:105468000080600002007000a0b188000000eb001e
:10547800d0b1880080b28000e30f5000680032008d
:1054880080b28000e40f500065003200707e80001a
:10549800fb0f500062003600a0b180006100600080
:1054a8000000e00006003a0060b480000000e00060
:1054b80003003a001000200060b48800580037004c
:1054c800a0b18000610060000000e0000800320028
:1054d80060b48000e10f500005003a002000200071
:1054e80060b488005008800040b288004c00370043
:1054f800a0b18000620060000000e00048003200b7
:1055080060b48000e20f500045003a000000eb0054
:1055180060b488005008800030b2880031b2800042
:1055280040b28000808f50000500360030b2800005
:1055380041b280000100500020b288000900370005
:1055480040b28000800078000080eb00010050002d
:1055580020b2880021b2800030b280000080400074
:1055680020b2880021b2800070322200808f500063
:1055780016003e00f0b180000000e800f0b188009d
:105588000000eb0000b288000000eb0010b28800b9
:10559800f0b18000e60f500021003600f34fa9005b
:1055a8005000200060b488000000eb00f0b18800d3
:1055b800217a800000202000008060000000e000c8
:1055c80017003200450fa9001500370000b280000f
:1055d8000000e80000b288000000eb00f0b188008d
:1055e8000000eb0010b2880000b28000e60f500007
:1055f8000b003600f34fa8005000200060b488006c
:105608000000eb0000b28800217a80000020200012
:10561800008060000000e00001003200450fa80093
:105628000080fa003400f9004f0178004f00be00f6
:10563800004006000000fa0060b580000000e000ad
:1056480006003a00d4c2bf000044b2000004e000e3
:1056580002003a001000200060b5880060b58000a4
:10566800e10f500008003a00d4c2bf000044b20065
:105678000004e000040032002000200060b588002b
:1056880050088000f0b0880060b58000e20f50003c
:1056980006003a00d5c2bf00684060000004e00080
:1056a80002003a003000200060b5880060b5800034
:1056b800e30f50001a003a00d5c2bf0068406000ee
:1056c8000004e0001600320050088000e0b08800b6
:1056d800e1b08000f0b08000808f500005003600f7
:1056e800e0b08000f1b0800001005000e0ae88001a
:1056f80009003700f0b08000800078000080eb00df
:1057080001005000e0ae8800e1ae8000e0b080000b
:1057180000804000e0ae88004000200060b58800ae
:1057280060b58000e40f50001b003a00a1828000a1
:10573800e0ae8000808f500011003100918280001f
:10574800e0ae8000808f50000d00360000b1800070
:105758000000e80000b1880000b18000e30f5000ad
:10576800040036000000eb00d0ae88000000eb001b
:1057780000b188000000eb0060b588000600370023
:105788000000eb0000b1880010002000d0ae8800b7
:105798000000eb0060b588000080fa0000000600f9
:1057a8000000fa00907f8000620060000000e000c6
:1057b8001a003200600a800090b0880091b0800022
:1057c800a0b08000808f50000500360090b08000a7
:1057d800a1b080000100500080b0880009003700a7
:1057e800a0b08000800078000080eb00010050002d
:1057f80080b0880081b0800090b0800000804000b8
:1058080080b0880090b08000a0b088000000eb0055
:1058180030af8800f22fa9000300370030af8000b6
:105828000000e80030af880081b0800000e8230065
:10583800808f50000a00360081b08000f05e25009d
:10584800808f500006003e000000eb0010af88007b
:1058580020af80000000e80020af88000500370076
:1058680010af80000000e80010af88000000eb00d7
:1058780020af880020af8000e30f50000100360001
:10588800f32fa80010af8000e30f5000010036008e
:10589800f32fa90080b080000000e0001000320063
:1058a80081b0800000e82300808f50000c00360093
:1058b80081b08000701a2600808f500008003e00da
:1058c80082b080000068290081092000811f7800cb
:1058d800110009004288d800cf007800307f880086
:1058e80080b0800062002000110009000280d8000a
:1058f800f0ae8800f1ae8000c0a82000808f500074
:105908000b003600f1ae800070d42000808f50006c
:1059180007003e00207a8000620060000000e0007e
:1059280003003200f0ae800050b588000a0037004e
:10593800207a800001002100010060000000e000e2
:1059480003003a0050d0200050b58800020037000c
:1059580090ad200050b588000080fa0000000600d5
:105968000000fa0010b48000e30f50002b003a004a
:10597800307a800001002100010060000000e00092
:1059880026003200a17e8000a07e80000100b800c1
:105998008086880091868800408780005187800033
:1059a800e00f5000e08f58000e003500408780005f
:1059b800518780000001be008086800091868000ab
:1059c8000201400083814800a0868000b1868000e3
:1059d8000000510081805900408788005187880065
:1059e800030037006000b8004087880051878800ae
:1059f8004087800051878000c2868000d38680005f
:105a0800820f5000838f580004003400422fa800f2
:105a18006000b800408788005187880010b4800073
:105a2800e40f50002b003a00307a80000100220079
:105a3800010060000000e00026003200a17e800026
:105a4800a07e80000100b8008086880091868800ca
:105a58006087800071878000e00f5000e08f580059
