:020000040000fa
:080000000001040000000000f3
:020000040000fa
:100200004f6c2100007f21000001880000000000e9
:100210000c00070020252500010020001100070028
:10022000000020000000e000020032000000020098
:1002300000000000c6500200000000000040da008c
:100240000000fe004440a900000020000000e00083
:100250000300320000002000a00188004440a800f4
:100260000000060091018800800078000000eb008b
:1002700015003700e280400032a0b4009101ba00be
:10028000e280400032a0b4009102ba00e280400057
:1002900032a0b4000002eb00472bde00f507b200ed
:1002a000602ce10004003a000059eb008301e900f2
:1002b000fdff3e00040037006128e100010032002c
:1002c0000082eb00040007001101ba000200e00008
:1002d000e8ff3a00000006003159ba008301e90046
:1002e0000c0032002159ba008301e90008003200f5
:1002f0000400e00003003a00e280400032a0b400b5
:10030000f5ff370011d9ba008301e900faff3a007e
:100310008100e800e180400032a0b4000000060047
:10032000839f68000100e00002003d0060001000b3
:10033000e08018000300e00002003d0060011100b1
:10034000e0811900fc0007004f00e00002003b00c4
:1003500060001000e080180000000600889fbe00ca
:100360008a9fbe00010578000100e000040035000e
:1003700008003c000000e0002000320005003700cb
:1003800060001000e080180002003b0001f02c002b
:100390001a0037000004be006011b8006b0920008d
:1003a0000982cf00020039000882cf000441b0006a
:1003b000694252000e00320008003b008281710049
:1003c000610164008904d1000884d3008b05e80032
:1003d0000442e800f9ff3a00050037000804440031
:1003e00089844c008b05e9000442e900fbff3a00d8
:1003f0005a0107000af0a70001f0a0004f05be0057
:100400004f04be0000000600889fbe008a9fbe0009
:100410008c1f78000004be00760107000478a3005a
:1004200026003a006120e1002500320009f8a3000f
:1004300025003a006420e10021003200f507b100f8
:100440000508a3000200320000004000818048003f
:100450006044b800031020000200200000004000ab
:10046000818048000805440089854c000a05410048
:100470008b8549000a0550008b8558000300330026
:100480000a00be0002047400838474008301d1005a
:100490000281d300830f7100f0ff3a008904d1007c
:1004a0000884d3006001490082017800c1adde00fc
:1004b000fb07b000290107006c0137000960a000ac
:1004c0000800be00690137001202200012b6880041
:1004d000f0ff2f00f1ff2700640137000001be008c
:1004e000440107000470a70003f0a1006509b100f2
:1004f000160032000d0035006828e10006003500c6
:10050000f0ff2f00f1ff27000300e00013003b0085
:100510000100280000000500000040008180480024
:100520008502e900fcff3a0008003700f88f42001e
:1005300002003c008000eb00000005008100d100bb
:100540000080d3008502e800fcff3a000300e000d1
:1005500002003b0060001000e08018000000060070
:10056000889fbe008a9fbe008c1f7800460107004e
:100570003501330003866c006450e1002e00320028
:100580006420e100330032006150e1002f003200ae
:100590006120e1003100320085855500eb07b00095
:1005a000090020000804200005003700080444006a
:1005b00089844c000a0031000603430087834b0006
:1005c0000001530081815b00f8ff33000203be008d
:1005d0000800a0000804440089844c00f6ff39009c
:1005e000c639dd00830173000100320013002000d2
:1005f0008904d1000884d3000998a30005003200c3
:100600000800a7000300a0008904d1000884d300db
:100610008b05e8008904d1000884d3000001eb00b9
:100620000281d200cd00070001f0a1000cf0a7006c
:1006300001f0a0000d0137006420e1000f0132003d
:100640000801be000200be00f7ff37006120e10094
:100650000a0132006000b800f3ff370000002000fc
:1006600001f82700f0ff3700889fbe008a9fbe0078
:100670008c1f780004010700f300330003866c0030
:100680006450e100240032006420e10027003200c1
:100690006150e100220032006120e10021003200bf
:1006a0008b854200eb07b1000134b800003ab80076
:1006b0000804420089844a00013ab8000030b800ba
:1006c0008880400009014a00040033000000400017
:1006d00081804800020149008b05e900c909dd005d
:1006e000830170000100320013002000c814de00f6
:1006f0004814dd004709de001200b200c808de0021
:10070000088470009500070001f0a1000cf0a7001c
:1007100001f0a000d50037006120e100d7003200d1
:100720000801be000200be00f7ff37006150e10083
:10073000fcff3a00d10037006022b800060220001a
:100740000000d0008180d2000482d2008582d200d5
:100750000000a0000202520083825a000300310010
:100760000202420083824a000000a1000603e90061
:10077000f3ff3a000000060003f0a200889fbe00cd
:100780008a9fbe008c1f7800bf000700ae003300b8
:100790006450e1004f0032006420e100520032005a
:1007a00003826c0007003b000905d0000306d0005f
:1007b000820f54000c065d00020039000200320076
:1007c00089017800030678008582550004003d0009
:1007d0000003fd008103fd008502ea008b854200d5
:1007e000840f720002003b0060001000e0801800df
:1007f0006011b8000005eb007a28e1000a0039001a
:1008000006007800c75ddd00f707b200878075003d
:100810002d003700828171000a01780061056000b7
:100820008180d1000080d3008502e900f9ff3b0000
:10083000060440008784480002003b006004140066
:10084000e0841c000988a300070032008a8171003f
:1008500082817100610164008904d1000884d300a1
:100860008b05e800170037000978a30013003a0051
:100870000b00e000130034008b05e900080444007d
:1008800089844c000a4474000978a3000d003a00e2
:100890000b00e000070034008b05e9000804440069
:1008a00089844c0001003a000b0020000978a30065
:1008b000f7ff32000001eb00020037008281710077
:1008c0000a017800250007000cf0a70001f0a00045
:1008d000660037006420e10002003a00838f6c005c
:1008e000660033000801be000200be005f00370052
:1008f0000001be003f0007000470a70003f0a10044
:1009000003f8a30013003a006509b100100032009b
:10091000090035006928e1000200350001002800c7
:100920000000050000004000818048008502e900c9
:10093000fcff3a0000000600f88f42000500350079
:100940008100d1000080d3008502e800fcff3a005e
:10095000000006008000eb00000005008100200080
:10096000618055000b003d000b00200061fe2f0050
:100970000100e1001d00340082817100610164000a
:100980008904d1000884d3000000e800faff3a008f
:10099000710020006100640003007000020060002c
:1009a0000900320061044400e0844c000988a5007d
:1009b000050032008b05e8006808e10002003a00fb
:1009c0008904d1000884d300f20f20000258e1000e
:1009d00005003d00c75ddd00f907b20089807500a4
:1009e00008007800000006000bf827008b00780054
:1009f00000000500c70ade00f107b200f50fb200e3
:100a000008003200e1cf4200020032000170a00075
:100a100024000500810f7000010032000408050069
:100a200044000500810f700002003a001400050028
:100a30008502e9000000400081c04800fcff3b0047
:100a40000170a000240005000200be006450e10017
:100a5000050036006420e100020036000968a300aa
:100a600001003a000800be000160a0004f067800b7
:100a70004f05be004f04be0000000600f0ff2f002f
:100a8000f1ff2700f9ff37000004be00d9ff07007f
:100a90000003be000405be000200be00d5ff070033
:080aa000844f75000000060000
:020000040000fa
:0200000401f009
:04000000f6ff000007
:020000040000fa
:0200000401f009
:04000400ff7f00007a
:020000040000fa
:0200000401f009
:04000c00ffff0000f2
:020000040000fa
:0200000401f009
:04001000ffff0000ee
:020000040000fa
:0200000401f009
:04001400ffff0000ea
:020000040000fa
:10000800505300005053000050530000505300005c
:10001800505300005053000050530000505300004c
:10002800505300005053000050530000343c00006f
:100038005053000050530000422500005053000068
:1000480050530000784e000022500000e2470000a4
:10005800505300005053000050530000e6270000a2
:1000680050530000505300005053000050530000fc
:1000780050530000d42700002424000050530000ef
:10008800de1500001e1700005053000050530000fa
:1000980050530000ba230000505300005053000092
:1000a80050530000505300005053000050530000bc
:1000b80050530000505300005053000050530000ac
:1000c800505300005053000050530000505300009c
:1000d800505300005053000050530000505300008c
:1000e800505300005053000050530000505300007c
:0800f8005053000050530000ba
:020000040000fa
:10010800505300005053000050530000505300005b
:10011800505300005053000050530000505300004b
:10012800505300005053000050530000343c00006e
:100138005053000050530000422500005053000067
:1001480050530000784e000022500000e2470000a3
:10015800505300005053000050530000e6270000a1
:1001680050530000505300005053000050530000fb
:1001780050530000d42700002424000050530000ee
:10018800de1500001e1700005053000050530000f9
:1001980050530000ba230000505300005053000091
:1001a80050530000505300005053000050530000bb
:1001b80050530000505300005053000050530000ab
:1001c800505300005053000050530000505300009b
:1001d800505300005053000050530000505300008b
:1001e800505300005053000050530000505300007b
:0801f8005053000050530000b9
:020000040000fa
:100aa8000000fa00e0798000610060000000e000ca
:100ab80008003200308780000000e8003087880096
:100ac80030878000ea0f5000020036000000eb007b
:100ad800f079880018c2bf00684060000004e00098
:100ae80008003a0018c2bf00624060000004e0003d
:100af80004003a0018c2bf00644060000004e0002f
:100b080001003200030807000080fa000000060018
:100b18000000fa00508e80000000e800508e880027
:100b2800518e8000401f2000808f50000500360045
:100b3800f80707000000eb00f07988003c0fa900d7
:100b48003dafa800e0798000620060000000e0008e
:100b580004003200020907003c2fa9000000eb0046
:100b6800508e8800e0798000680060000000e00096
:100b780004003200a600070061000700a30907006f
:100b88003c6fa900e079800001202000010060008e
:100b98000000e00004003200d800070069000700e8
:100ba8009a0907003d2fa900908e8000610060001f
:100bb8000000e000040032000b010700720007008b
:100bc80092090700d211a900908e80007000600081
:100bd8000000e00004003200440107007b00070029
:100be8008a090700d291a900e079800070006000ae
:100bf8000000e000040032007d0107003c8fa900de
:100c08000000eb00508e8800e07980000140200051
:100c1800010060000000e00004003200c901070084
:100c28003d4fa9000000eb00508e8800908e800098
:100c3800620060000000e0000400320017020700b4
:100c4800d231a9000000eb00508e8800908e800001
:100c580001022000010060000000e00004003200f2
:100c680065020700d2b1a9000000eb00508e880091
:100c7800e079800001022000010060000000e0002f
:100c880004003200b30207003cafa9000000eb00eb
:100c9800508e8800e079800001802000010060000b
:100ca8000000e00004003200370307003d6fa90090
:100cb8000000eb00508e8800e079800001002200df
:100cc800010060000000e000040032003505070064
:100cd8003dafa9000000eb00508e8800e07980004d
:100ce80001042000010060000000e0000200320062
:100cf800470707003ccfa9000080fa000000060063
:100d08000000fa00a00a2000608788000002200086
:100d18007087880030082000808788000000eb007a
:100d2800a0878800b00b2000208e88000000eb0010
:100d380050878800e00f2000d01088000080fa005b
:100d4800000006000000fa00a00a20006087880062
:100d58000002200070878800300720008087880004
:100d68000000eb00a0878800b00b2000208e8800d0
:100d78000000eb0050878800e00f2000d0108800aa
:100d88000080fa00000006000000fa00a00a200017
:100d980060878800000220007087880030062000e5
:100da800808788000000eb00a0878800b00b200037
:100db800208e88000000eb0050878800e00f20009c
:100dc800d01088000080fa00000006000000fa0039
:100dd800a00a200060878800000220007087880031
:100de80030052000808788000000eb00a08788007d
:100df800b00b2000208e88000000eb005087880090
:100e0800e00f2000d01088000080fa0000000600e3
:100e18000600fa000000eb0020079800900280000e
:100e280010079800ff3ffc00210420009140780043
:100e380000ceb30000c0700042e0b7001e00900072
:100e4800900288008d60a9000000eb002007980040
:100e58001a0037002e009000000040008000780043
:100e680000c02f0000804000a08e8800a08e800067
:100e780080007800f0072000120020003d250700c0
:100e8800a08e800000017800f007200000027800a2
:100e98002e0090000000400080007800e001210052
:100ea80000804000130020008400780055250700ca
:100eb8002e0090000000e800200798002e00900007
:100ec800ed0f5000e3ff360090028000000f78001d
:100ed800ff3ffc0042c0bf007f40600001c6b30076
:100ee8000140700042e0b7001e00780090028800c0
:100ef8008d60a8000080fa00000006000600fa00d5
:100f08000000eb002007980090028000100798006e
:100f1800ff3ffc00210420009140780000ceb30080
:100f280000c0700042e0b7001e00900090028800e8
:100f38008d60a9000000eb00200798001a00370018
:100f48002e009000000040008000780000c02f00b4
:100f580000804000a08e8800a08e8000800078006d
:100f6800f00720001200200002250700a08e800054
:100f780000017800f0072000000278002e009000a1
:100f88000000400080007800e0012100008040005f
:100f980013002000840078001a2507002e00900016
:100fa8000000e800200798002e009000fd0f500078
:100fb800e3ff360090028000000f7800ff3ffc003e
:100fc80042c0bf007f40600001c6b300014070000e
:100fd80042e0b7001e007800900288008d60a800eb
:100fe8000080fa00000006000800fa000000eb008c
:100ff800300798000000eb0020079800900280005e
:1010080010079800ff3ffc00210420009140780061
:1010180000ceb30000c0700042e0b7001e00900090
:10102800900288008d60a900000220003007980017
:101038001d0037003e00900000004000800078004e
:1010480000c02f0000804000a08e8800a08e800085
:1010580080007800f007200012002000c524070057
:10106800a08e800000017800f007200000027800c0
:101078002e0090000000400080007800e001210070
:10108800008040001300200084007800dd24070061
:101098002e0090000000e800200798003e00900015
:1010a8000000e80030079800be009000d003200040
:1010b800808f5000dfff360090028000000f78001c
:1010c800ff3ffc0042c0bf007f40600001c6b30084
:1010d8000140700042e0b7001e00780090028800ce
:1010e8008d60a8000080fa00000006000800fa00e1
:1010f8000000eb00300798000000eb002007980084
:101108009002800010079800ff3ffc002104200097
:101118009140780000ceb30000c0700042e0b700f4
:101128001e009000900288008d60a900e003200056
:10113800300798001d0037003e0090000000400076
:101148008000780000c02f0000804000a08e88003a
:10115800a08e800080007800f00720001200200098
:1011680084240700a08e800000017800f00720008a
:10117800000278002e0090000000400080007800f7
:10118800e001210000804000130020008400780066
:101198009c2407002e0090000000e800200798001b
:1011a8003e0090000000e80030079800be00900064
:1011b800b0052000808f5000dfff360090028000cd
:1011c800000f7800ff3ffc0042c0bf007f40600076
:1011d80001c6b3000140700042e0b7001e0078006d
:1011e800900288008d60a8000080fa0000000600c8
:1011f8000400fa000000eb00100798000000eb0064
:10120800000f7800a00a20006087880000012000f5
:10121800708788002008200080878800c00120008f
:10122800a08788000000eb00100798001400370022
:101238001e009000000040008000780000c02f00d1
:1012480000804000a08e88001e0090000000400032
:1012580080007800001e2100008040000001780016
:10126800a08e800080007800f00720001300200086
:10127800332407001e0090000000e80010079800c3
:101288001e009000ef0f5000e9ff36000000eb0051
:1012980010079800200037001e0190001e007800fb
:1012a80080004000001e21000080400010007800ef
:1012b800c801de0002004100e11b200080804000e0
:1012c800e0f3200000804000030878001e00900032
:1012d8000000e800100798001e0190001e0078002a
:1012e80080004000001e210000804000900178002e
:1012f80002004100e11b200080804000e0f3200054
:1013080000804000030878001e0090000000e800fc
:10131800100798001e0fe8001e009000ff0f5000f5
:10132800ddff3600b00b2000208e88000000eb00a7
:1013380050878800e00f2000d01088000080fa0055
:10134800000006000400fa000000eb0010079800f7
:101358000000eb00000f7800a00a200060878800da
:1013680000012000708788002007200080878800ff
:10137800c0032000a08788000000eb001007980039
:10138800140037001e009000000040008000780024
:1013980000c02f0000804000a08e88001e00900032
:1013a8000000400080007800001e210000804000fe
:1013b80000017800a08e800080007800f0072000ef
:1013c80013002000de2307001e0090000000e80044
:1013d800100798001e009000ff0f5000e9ff36002c
:1013e8000000eb0010079800200037001e01900055
:1013f8001e00780080004000001e21000080400090
:1014080010007800c801de0002004100e11b200046
:1014180080804000e0f3200000804000030878004e
:101428001e0090000000e800100798001e019000c0
:101438001e00780080004000001e2100008040004f
:101448009001780002004100e11b200080804000ec
:10145800e0f3200000804000030878001e009000a0
:101468000000e800100798001e0fe8009e0090009a
:10147800f0032000808f5000dcff3600b00b200006
:10148800208e88000000eb0050878800e00f2000c5
:10149800d01088000080fa00000006000400fa005e
:1014a8000000eb001007980000022000000f7800f1
:1014b800a00a20006087880000012000708788004b
:1014c8002006200080878800c0032000a0878800ad
:1014d8000002200010079800140037001e0090003a
:1014e800000040008000780000c02f00008040000d
:1014f800a08e88001e009000000040008000780048
:10150800001e21000080400000017800a08e8000ad
:1015180080007800f00720001300200088230700cf
:101528001e0090000000e800100798009e00900040
:10153800d0032000808f5000e8ff36000000eb0049
:1015480010079800200037001e0190001e00780048
:1015580080004000001e210000804000100078003c
:10156800c801de0002004100e11b2000808040002d
:10157800e0f3200000804000030878001e0090007f
:101588000000e800100798001e0190001e00780077
:1015980080004000001e210000804000900178007b
:1015a80002004100e11b200080804000e0f32000a1
:1015b80000804000030878001e0090000000e8004a
:1015c800100798001e0fe8009e009000b00320004e
:1015d800808f5000dcff3600b00b2000208e880082
:1015e8000000eb0050878800e00f2000d010880032
:1015f8000080fa00000006000400fa000000eb007a
:101608001007980000022000000f7800a00a2000b0
:10161800608788000001200070878800200520006e
:1016280080878800c0032000a0878800e00320008e
:1016380010079800140037001e00900000004000ba
:101648008000780000c02f0000804000a08e880035
:101658001e0090000000400080007800001e21005d
:101668000080400000017800a08e80008000780093
:10167800f007200013002000312307001e0090000f
:101688000000e800100798009e009000b0052000b8
:10169800808f5000e8ff36000000eb00100798002c
:1016a800200037001e0190001e00780080004000d6
:1016b800001e21000080400010007800c801de00f4
:1016c80002004100e11b200080804000e0f3200080
:1016d80000804000030878001e0090000000e80029
:1016e800100798001e0190001e007800800040003e
:1016f800001e210000804000900178000200410097
:10170800e11b200080804000e0f3200000804000c2
:10171800030878001e0090000000e80010079800f9
:101728001e0fe8009e009000b0032000808f50003c
:10173800dcff3600b00b2000208e88000000eb0094
:1017480050878800e00f2000d01088000080fa0041
:10175800000006000000fa00a00a20006087880048
:10176800000120007087880010082000808788000a
:1017780060012000a087880000b38000e30f5000bc
:101788000300320000b38000e40f500010003a005c
:10179800e04080004800de00e0878800e0408000ec
:1017a800f0878800f04080004800de00008888004c
:1017b800f040800010888800a0a080004800de006b
:1017c80020888800a0a08000308888000c0037009e
:1017d8000000eb00e08788000000eb00f08788003d
:1017e8000000eb00008888000000eb0010888800eb
:1017f8000000eb00208888000000eb00308888009b
:10180800209380004800de004088880020938000f4
:1018180050888800309380004800de006088880087
:101828003093800070888800409380004800de0074
:101838008088880040938000908888008094800089
:101848004800de00a088880080948000b088880066
:1018580000b380004800de00c088880000b3800024
:10186800d0888800d08880000000e00009003a0095
:101878000000eb00d0888800b18e8000a0aa2a0062
:10188800808f500029003a0040002000d08888004e
:1018980026003700d0888000e10f500009003a0088
:1018a80010002000d0888800b18e8000a0aa2a00ed
:1018b800808f50001d003a0040002000d08888002a
:1018c8001a003700d0888000e20f500003003a0069
:1018d80020002000d088880014003700d0888000bd
:1018e800e30f500003003a0020002000d088880051
:1018f8000e003700d0888000e40f500003003a0043
:1019080030002000d088880008003700d088800088
:10191800e50f500003003a0050002000d0888800ee
:10192800020037000000eb00d08888009093800008
:101938004800de00e088880090938000f0888800e6
:10194800c08e80004800de0000898800c08e8000bc
:1019580010898800809480004800de002089880073
:101968008094800030898800b00b2000208e880089
:101978000000eb0050878800e00f2000d01088009e
:101988000080fa00000006000000fa00a00a20000b
:1019980060878800000120007087880010072000f9
:1019a80080878800a0022000a087880000b38000fc
:1019b800e30f50000300320000b38000e40f500032
:1019c80010003a00e04080004800de00e087880010
:1019d800e0408000f0878800f04080004800de008a
:1019e80000888800f040800010888800004180004e
:1019f8004800de0020888800004180003088880088
:101a08000c0037000000eb00e08788000000eb00c6
:101a1800f08788000000eb00008888000000eb00d9
:101a2800108888000000eb00208888000000eb0088
:101a380030888800209380004800de0040888800b5
:101a48002093800050888800412d20009140780024
:101a580000c8b30000c060000004e00004003a00c1
:101a6800708e80000000a000708e8800040037008f
:101a7800708e8000e1ff2f0001006000708e8800ea
:101a8800e0c2bf00614060000004e00004003a00ca
:101a9800708e80000010a000708e8800040037004f
:101aa800708e8000d1ff2f0001006000708e8800ca
:101ab800e0c2bf00624060000004e00004003a0099
:101ac800708e80000020a000708e8800040037000f
:101ad800708e8000b1ff2f0001006000708e8800ba
:101ae800e6c2bf00624060000004e00004003a0063
:101af800708e80000030a000708e880004003700cf
:101b0800708e800071ff2f0001006000708e8800c9
:101b1800e6c2bf00614060000004e00004003a0033
:101b2800708e80000040a000708e8800040037008e
:101b3800708e8000f1fe2f0001006000708e88001a
:101b4800cfc2bf000042b2000004e00005003a0026
:101b5800708e80000102200001007000708e8800e5
:101b680004003700708e8000f1fd2f000100600036
:101b7800708e8800cfc2bf000044b2000004e000ad
:101b880005003a00708e80000104200001007000fa
:101b9800708e880004003700708e8000f1fb2f00e3
:101ba80001006000708e8800c8c2bf0064406000f9
:101bb8000004e00005003a00708e80000108200053
:101bc80001007000708e880004003700708e80005d
:101bd800f1f72f0001006000708e8800c8c2bf00b6
:101be800684060000004e00005003a00708e800044
:101bf8000110200001007000708e8800040037007a
:101c0800708e8000f1ef2f0001006000708e880058
:101c1800c8c2bf00704060000004e00005003a0040
:101c2800708e80000120200001007000708e8800f6
:101c380004003700708e8000f1df2f000100600083
:101c4800708e8800d08e8000011020000100600096
:101c58000000e00005003200708e800001002800be
:101c680001007000708e880004003700708e8000bc
:101c7800f1ff270001006000708e8800e9c2bf00f4
:101c88000044b2000004e00004003200808e8000ae
:101c98000000a000808e880004003700808e80003d
:101ca800e1ff2f0001006000808e8800e9c2bf00bc
:101cb800704060000004e00004003200808e800064
:101cc8000010a000808e880004003700808e8000fd
:101cd800d1ff2f0001006000808e8800e9c2bf009c
:101ce8000042b2000004e00004003200808e800050
:101cf8000020a000808e880004003700808e8000bd
:101d0800b1ff2f0001006000808e8800e9c2bf008b
:101d180001c8b300014060000004e0000400320084
:101d2800808e80000030a000808e8800040037007c
:101d3800808e800071ff2f0001006000808e880077
:101d4800d0c2bf00624060000004e000040032001e
:101d5800808e80000040a000808e8800040037003c
:101d6800808e8000f1fe2f0001006000808e8800c8
:101d7800d0c2bf00644060000004e00005003200eb
:101d8800808e80000102200001007000808e880093
:101d980004003700808e8000f1fd2f0001006000f4
:101da800808e8800e8c2bf0001c8b300014060000f
:101db8000004e00005003200808e8000010420004d
:101dc80001007000808e880004003700808e80003b
:101dd800f1fb2f0001006000808e8800e9c2bf007f
:101de800614060000004e00005003200808e800041
:101df8000108200001007000808e88000400370070
:101e0800808e8000f1f72f0001006000808e88002e
:101e1800e9c2bf00624060000004e0000500320033
:101e2800808e80000110200001007000808e8800e4
:101e380004003700808e8000f1ef2f000100600061
:101e4800808e8800e8c2bf000044b2000004e000b1
:101e580005003200808e8000012020000100700003
:101e6800808e880004003700808e8000f1df2f000c
:101e780001006000808e8800708e80004800de00bf
:101e880060888800708e800070888800808e80004e
:101e98004800de0080888800808e80009088880056
:101ea800e09a80004800de00a0888800e09a800060
:101eb800b088880000b380004800de00c088880031
:101ec80000b38000d0888800d08880000000e0003f
:101ed80009003a000000eb00d0888800b18e80002d
:101ee800a0aa2a00808f500029003a004000200054
:101ef800d088880026003700d0888000e10f500085
:101f080009003a0010002000d0888800b18e8000b7
:101f1800a0aa2a00808f50001d003a00400020002f
:101f2800d08888001a003700d0888000e20f50005f
:101f380003003a0020002000d088880014003700f1
:101f4800d0888000e30f500003003a0020002000f2
:101f5800d08888000e003700d0888000e40f500039
:101f680003003a0030002000d088880008003700bd
:101f7800d0888000e50f500003003a005000200090
:101f8800d0888800020037000000eb00d088880065
:101f9800909380004800de00e088880090938000dd
:101fa800f0888800c08e80004800de000089880024
:101fb800c08e800010898800809480004800de0070
:101fc800208988008094800030898800e093800010
:101fd8004800de0040898800e0938000508988002e
:101fe8007000200060898800807d2000708988004a
:101ff80020ab80004800de008089880020ab80008c
:102008009089880010ab8000e10f500004003a006e
:10201800608e80000000a000608e880004003700f9
:10202800608e8000e1ff2f0001006000608e880054
:10203800c0ae8000640060000000e00004003200d0
:10204800608e80000010a000608e880004003700b9
:10205800608e8000d1ff2f0001006000608e880034
:1020680070ad8000e10f500004003a00608e8000df
:102078000020a000608e880004003700608e800079
:10208800b1ff2f0001006000608e880091938000ee
:10209800c09a8000808f500004003900d08e8000e4
:1020a800700060000000e00004003a00608e8000cc
:1020b8000030a000608e880004003700608e800029
:1020c80071ff2f0001006000608e8800608e800024
:1020d8004800de00a0898800608e8000b0898800f2
:1020e800d18e800000002200008060000000e00027
:1020f80006003a00b0b580004800de00c0898800bc
:10210800b0b58000d0898800050037008093800032
:102118004800de00c089880080938000d08988004c
:10212800709580004800de00e08988007095800086
:10213800f089880080b480004800de00008a8800aa
:1021480080b48000108a8800e09f80004880de000c
:10215800208a8800e09f8000308a880030938000c1
:102168004800de00408a880030938000508a88004a
:10217800409380004800de00608a88004093800019
:10218800708a8800b00b2000208e88000000eb00c9
:1021980050878800e00f2000d01088000080fa00e7
:1021a800000006000000fa00a00a200060878800ee
:1021b8000001200070878800500720008087880071
:1021c800c0032000a087880000b38000e30f500000
:1021d8000300320000b38000e40f500010003a0002
:1021e800e04080004800de00e0878800e040800092
:1021f800f0878800f04080004800de0000888800f2
:10220800f040800010888800004180004800de000f
:102218002088880000418000308888000c00370042
:102228000000eb00e08788000000eb00f0878800e2
:102238000000eb00008888000000eb001088880090
:102248000000eb00208888000000eb003088880040
:10225800209380004800de0040888800209380009a
:1022680050888800412d20009140780000c8b300b4
:1022780000c060000004e00004003a00708e800096
:102288000000a000708e880004003700708e800067
:10229800e1ff2f0001006000708e8800e0c2bf00df
:1022a800614060000004e00004003a00708e800085
:1022b8000010a000708e880004003700708e800027
:1022c800d1ff2f0001006000708e8800e0c2bf00bf
:1022d800624060000004e00004003a00708e800054
:1022e8000020a000708e880004003700708e8000e7
:1022f800b1ff2f0001006000708e8800e6c2bf00a9
:10230800624060000004e00004003a00708e800023
:102318000030a000708e880004003700708e8000a6
:1023280071ff2f0001006000708e8800e6c2bf00b8
:10233800614060000004e00004003a00708e8000f4
:102348000040a000708e880004003700708e800066
:10235800f1fe2f0001006000708e8800cfc2bf0020
:102368000042b2000004e00005003a00708e8000d0
:102378000102200001007000708e88000400370000
:10238800708e8000f1fd2f0001006000708e8800c3
:10239800cfc2bf000044b2000004e00005003a00cc
:1023a800708e80000104200001007000708e88008b
:1023b80004003700708e8000f1fb2f0001006000e0
:1023c800708e8800c8c2bf00644060000004e0004e
:1023d80005003a00708e800001082000010070009e
:1023e800708e880004003700708e8000f1f72f008f
:1023f80001006000708e8800c8c2bf00684060009d
:102408000004e00005003a00708e800001102000f2
:1024180001007000708e880004003700708e800004
:10242800f1ef2f0001006000708e8800c8c2bf0065
:10243800704060000004e00005003a00708e8000e3
:102448000120200001007000708e88000400370011
:10245800708e8000f1df2f0001006000708e880010
:10246800d08e800001102000010060000000e00014
:1024780005003200708e8000010028000100700005
:10248800708e880004003700708e8000f1ff2700ee
:1024980001006000708e8800e9c2bf000044b200ed
:1024a8000004e00004003200808e80000000a000dc
:1024b800808e880004003700808e8000e1ff2f00a6
:1024c80001006000808e8800e9c2bf007040600093
:1024d8000004e00004003200808e80000010a0009c
:1024e800808e880004003700808e8000d1ff2f0086
:1024f80001006000808e8800e9c2bf000042b2007f
:102508000004e00004003200808e80000020a0005b
:10251800808e880004003700808e8000b1ff2f0075
:1025280001006000808e8800e9c2bf0001c8b300c6
:10253800014060000004e00004003200808e80004a
:102548000030a000808e880004003700808e800054
:1025580071ff2f0001006000808e8800d0c2bf008c
:10256800624060000004e00004003200808e8000b9
:102578000040a000808e880004003700808e800014
:10258800f1fe2f0001006000808e8800d0c2bf00dd
:10259800644060000004e00005003200808e800086
:1025a8000102200001007000808e880004003700be
:1025b800808e8000f1fd2f0001006000808e880071
:1025c800e8c2bf0001c8b300014060000004e00099
:1025d80005003200808e8000010420000100700098
:1025e800808e880004003700808e8000f1fb2f0069
:1025f80001006000808e8800e9c2bf006140600071
:102608000004e00005003200808e800001082000f0
:1026180001007000808e880004003700808e8000e2
:10262800f1f72f0001006000808e8800e9c2bf002a
:10263800624060000004e00005003200808e8000e7
:102648000110200001007000808e8800040037000f
:10265800808e8000f1ef2f0001006000808e8800de
:10266800e8c2bf000044b2000004e00005003200e8
:10267800808e80000120200001007000808e88007c
:1026880004003700808e8000f1df2f000100600019
:10269800808e8800708e80004800de006088880088
:1026a800708e800070888800808e80004800de0070
:1026b80080888800808e800090888800e09a80005a
:1026c8004800de00a0888800e09a8000b088880072
:1026d80000b380004800de00c088880000b3800096
:1026e800d0888800d08880000000e00009003a0007
:1026f8000000eb00d0888800b18e8000a0aa2a00d4
:10270800808f500029003a0040002000d0888800bf
:1027180026003700d0888000e10f500009003a00f9
:1027280010002000d0888800b18e8000a0aa2a005e
:10273800808f50001d003a0040002000d08888009b
:102748001a003700d0888000e20f500003003a00da
:1027580020002000d088880014003700d08880002e
:10276800e30f500003003a0020002000d0888800c2
:102778000e003700d0888000e40f500003003a00b4
:1027880030002000d088880008003700d0888000fa
:10279800e50f500003003a0050002000d088880060
:1027a800020037000000eb00d0888800909380007a
:1027b8004800de00e088880090938000f088880058
:1027c800c08e80004800de0000898800c08e80002e
:1027d80010898800809480004800de0020898800e5
:1027e8008094800030898800e09380004800de00f3
:1027f80040898800e093800050898800700020009c
:1028080060898800807d20007089880020ab800066
:102818004800de008089880020ab8000908988000d
:1028280010ab8000e10f500004003a00608e800079
:102838000000a000608e880004003700608e8000d1
:10284800e1ff2f0001006000608e8800c0ae8000ac
:10285800640060000000e00004003200608e800028
:102868000010a000608e880004003700608e800091
:10287800d1ff2f0001006000608e880070ad8000dd
:10288800e10f500004003a00608e80000020a00094
:10289800608e880004003700608e8000b1ff2f0032
:1028a80001006000608e880091938000c09a8000cb
:1028b800808f500004003900d08e800070006000c6
:1028c8000000e00004003a00608e80000030a000a4
:1028d800608e880004003700608e800071ff2f0032
:1028e80001006000608e8800608e80004800de0075
:1028f800a0898800608e8000b0898800d18e800011
:1029080000002200008060000000e00006003a009d
:10291800b0b580004800de00c0898800b0b58000ee
:10292800d089880005003700809380004800de00c9
:10293800c089880080938000d089880070958000c5
:102948004800de00e089880070958000f0898800e2
:1029580080b480004800de00008a880080b48000cf
:10296800108a8800d09f80004880de00208a880076
:10297800d09f8000308a8800309380004800de00b5
:10298800408a880030938000508a880040938000f5
:102998004800de00608a880040938000708a8800c2
:1029a800b09f80004880de00808a8800b09f800049
:1029b800908a880040a080004800de00a08a880035
:1029c80040a08000b08a880030a080004800de0067
:1029d800c08a880030a08000d08a880070a080005b
:1029e8004800de00e08a880070a08000f08a880035
:1029f800b00b2000208e88000000eb005087880074
:102a0800e00f2000d01088000080fa0000000600c7
:102a18000200fa00a00a2000608788000001200058
:102a280070878800400820008087880040002000c8
:102a3800a0878800e0012000000f78001e007800c1
:102a4800000040008000780000c02f000080400097
:102a5800a08e88001e0078000000400080007800ea
:102a6800001e21000080400000017800a08e800038
:102a780080007800f007200013002000301e0700b7
:102a8800f0012000000f78001e00780000004000d0
:102a98008000780000c02f0000804000a08e8800d1
:102aa8001e0078000000400080007800001e210011
:102ab8000080400000017800a08e8000800078002f
:102ac800f0072000130020001d1e0700e090800082
:102ad8004800de00e0878800e0908000f0878800ea
:102ae800f09080004800de0000888800f0908000a8
:102af80010888800b00b2000208e88000000eb00b2
:102b080050878800e00f2000d01088000080fa006d
:102b1800000006000000fa0030032000f0108800d2
:102b28000000eb00b010880017e2a80017a2a80068
:102b380016a2a900612120009140780090cfb3002f
:102b480000c0600016e2b7001602a9000000eb0002
:102b5800c01088001942a80019e2a90018c2bf00d5
:102b6800f043b20018e2b7008720a9008700a90047
:102b7800010a200091407800f0c8b30000c060004e
:102b880001c4b30001407000a0e0b700010a2000b2
:102b98009140780080cfb30000c060000024a000fe
:102ba800a0e0b7008f20a8008f00a8000080fa00de
:102bb80000000600809fbe00821f78003400f800e5
:102bc80000002000a00188000000fa000ec2bf002b
:102bd800624060000004e000010032000e22a900fb
:102be8003c0fa8000000eb0030878800e0798000e7
:102bf800620060000000e00086003a000ec2bf00dc
:102c0800644060000004e00084003a00f07980002d
:102c18000000e0000b003a00e0108000007a880015
:102c2800017a8000a00a2000808f50007b003a00c3
:102c380010002000f07988000000eb00507a88002e
:102c480076003700f0798000e10f500005003a0067
:102c580020002000f0798800e0108000107a8800b9
:102c68006e003700f0798000e20f500005003a004e
:102c780030002000f0798800e0108000207a880079
:102c880066003700f0798000e30f500022003a0018
:102c980040002000f0798800e0108000407a880029
:102ca800407a8000307a8800407a8000fc0f50001b
:102cb80003003a0070032000f079880057003700bd
:102cc800417a8000c0032000808f500003003a0042
:102cd80080032000f079880050003700407a800097
:102ce800e10f500003003a0040002000f07988000e
:102cf8004a003700407a80000000e00003003a00f4
:102d080040002000f0798800440037000000eb0004
:102d1800f079880041003700f0798000e40f500016
:102d28000b003a00e0108000c0808800c18080005d
:102d3800b00b2000808f500002003a003c2fa80002
:102d48003c0fa9000000eb00f07988003300370041
:102d5800f179800070032000808f500013003a0042
:102d6800407a80000000e900407a8800507a8000ac
:102d7800e210800000004000f2004000e0f3200074
:102d88000080400002087800507a80000000e800c7
:102d9800507a8800407a80000000e0001f003a0066
:102da80040002000f07988001c003700f17980008d
:102db80080032000808f500013003a00407a800082
:102dc8000000e900407a8800507a8000e210800014
:102dd80000004000f2004000e0f3200000804000c6
:102de80002087800507a80000000e800507a8800d5
:102df800407a80000000e00008003a00400020000f
:102e0800f0798800050037000000eb00f0798800b1
:102e180002003700e0108000007a88008700a900cf
:102e28000080fa003400f9004f0178004f00be001e
:102e380000400600809fbe003400f800000020001b
:102e4800a00188000000fa00508780000000e00020
:102e580005003a0060878000d0108800100020002c
:102e6800508788003900370050878000e10f5000f4
:102e780005003a00200020005087880070878000f5
:102e8800d01088003100370050878000e20f5000d2
:102e980005003a00300020005087880080878000b5
:102ea800d01088002900370050878000e30f5000b9
:102eb80007003a004000200050878800a087800063
:102ec800d01088000000eb00b08788001f00370092
:102ed80050878000e40f50001a003a00a087800055
:102ee8000000e00006003a00200420005087880017
:102ef800b00b2000d01088003c4fa800130037000a
:102f08004000200050878800b08780000000400003
:102f1800e11b200080804000e0f32000008040009a
:102f280010007800d0108800b08780000000e8000a
:102f3800b0878800a08780000000e900a08788008b
:102f48000200370020042000508788008720a9004d
:102f58000080fa003400f9004f00be00004006006f
:102f68000000fa008700a9008f00a9000000eb000c
:102f7800607a88000000eb00707a88000000eb009f
:102f8800707a880027003700307a80000000e90056
:102f9800307a8800307a80000000e900307a8800b2
:102fa800617a80000180400072014000e0f3200057
:102fb8000000410010007800d08088000100e8007f
:102fc800607a8800617a80000180400072014000c8
:102fd800e0f320000000410010007800e080880045
:102fe8000100e800607a8800d08080004800dd0099
:102ff800d0808800727a8000d1808000e0808000d4
:103008008081400002004100010e200080804000c5
:10301800e0f3200000804000030878000200e80088
:10302800707a8800307a8000e10f5000d6ff3e00a9
:10303800107a8000f00f500057003a00217a800083
:1030480010082000808f500002003a003cafa80012
:103058006b003700217a800010072000808f500015
:1030680002003a003d6fa80065003700217a800011
:1030780050072000808f500002003a003dafa800a2
:103088005f003700217a800020082000808f5000e0
:1030980002003a003c8fa80059003700217a8000ce
:1030a80020072000808f500002003a003d4fa80002
:1030b80053003700217a800020062000808f5000be
:1030c80002003a00d231a8004d003700217a800072
:1030d80020052000808f500002003a00d2b1a800dd
:1030e80047003700217a800040082000808f500078
:1030f80002003a003ccfa80041003700217a800046
:1031080050082000808f500006003a00407a800066
:10311800e10f50003a003a003cefa8003d0fa9002b
:1031280037003700217a800060082000808f500027
:1031380005003a00407a8000e10f500030003a0064
:103148003d0fa8002e003700217a8000700820006b
:10315800808f500005003a00407a8000e10f50004f
:1031680027003a00d815a80025003700217a8000ea
:1031780080082000808f500005003a00407a8000c7
:10318800e10f50001e003a00d835a8001c00370097
:10319800000000001a003700117a800000022000a9
:1031a800808f500015003a00217a800030082000f6
:1031b800808f500001003a003c6fa800217a8000ff
:1031c80030072000808f500001003a003d2fa800f2
:1031d800217a800030062000808f500001003a00dc
:1031e800d211a800217a800030052000808f50007d
:1031f80003003a00d291a800010037000000000047
:103208008f00a8000080fa00000006004400fa00c1
:10321800889fbe000000eb00102798000000eb001c
:1032280010279800140037001e209000000040006e
:103238008000780000c02f0000804000a08e880029
:103248001e2090000000400080007800001e210031
:103258000080400000017800a08e80008000780087
:10326800f007200013002000351c07001e209000e6
:103278000000e800102798009e209000d00320004e
:10328800808f5000e8ff360000928000c0998800c7
:10329800c09980000000e00002003a0050d02000f1
:1032a800c0998800c0998000010020004a09dd000b
:1032b800c600de00810071004a00dd00d099880058
:1032c800e1998800d09080008000780000002100fb
:1032d80000806000002798008e20900000002100e8
:1032e800808f500002003a00db91a80001003700ef
:1032f800db91a900018f800060042000808f5000be
:103308000300360050012000008f880007003700b6
:10331800008f8000e90f500003003e00500120009c
:10332800008f88000100370000000000018f800036
:10333800400620000088b900008f8800d18e8000e8
:1033480000002100008060000000e0000f003a004b
:10335800018f800000f421000100500001002000ce
:103368005094880061948800509480006194800093
:103378004a09dd00c600de00810071004a00dd0058
:1033880050948800619488000e003700018f8000f7
:10339800a0a02100010050000100200050948800e6
:1033a8006194880050948000619480004a09dd008f
:1033b800c600de00810071004a00dd0050948800dc
:1033c80061948800118f800000052000808f5000d4
:1033d8000200360080022000108f8800118f8000c4
:1033e800400620000088b90070948800529480003c
:1033f80063948000d0998000e19980000002510018
:1034080081825900709480006101b8000400be00f8
:10341800c7f4070080958800529480006394800068
:10342800d0998000e1998000000051008180590006
:10343800027d200003002000bdf40700909588005d
:10344800318f8000007d2000808f500003003600ff
:10345800800c2000308f8800010037000000000039
:10346800308f8000509a8800218f8000401f2000f4
:10347800808f500003003600e0152000208f880060
:1034880008003700218f800030062000808f500010
:1034980003003e00e0152000208f8800010037005f
:1034a80000000000208f8000a20020001100090009
:1034b8000280d800208f8800509a80006104b800ec
:1034c800208f80006102b80088007800040078002e
:1034d800000bb80005c0b9000701780000014100e1
:1034e80009a0b9000001410082037800a200200071
:1034f800030020000600be0087f30700a0948800a0
:10350800408f8000e30f5000030036000000eb00fe
:10351800408f88000100370000000000408f8000c5
:1035280090948800508f8000a09d8800608f800054
:1035380052002000110009000280d800909d8800e8
:10354800708f8000c0948800818f8000c0032000a5
:10355800808f50000200360040012000808f8800d4
:10356800818f8000400620000088b900d094880030
:10357800908f8000909a8800a18f8000c012200050
:10358800808f50000300360020032000a08f8800a1
:1035980007003700a08f8000e90f500003003e00ad
:1035a80020032000a08f88000100370000000000e1
:1035b800a08f8000b09a8800b18f8000600420003e
:1035c800808f50000200360030022000b08f880043
:1035d800b08f8000c09a8800c18f800060042000ee
:1035e800808f50000300360080022000c08f8800c2
:1035f80007003700c08f8000fd0f500003003e0019
:1036080080022000c08f8800010037000000000001
:10361800c18f8000400620000088b900010020000a
:10362800e0948800f1948800d18f80006004200025
:10363800808f500003003600c0032000d08f880020
:1036480007003700d08f8000fd0f500003003e00b8
:10365800c0032000d08f8800010037000000000060
:10366800d18f8000400620000088b90001002000aa
:1036780000958800119588000295800013958000b8
:10368800e0948000f1948000800f5100818f5900f0
:10369800090036000095800011958000e2948000b2
:1036a800f394800002005000838058003095880011
:1036b800419588000800370000958000119580002a
:1036c800e2948000f3948000020050008380580048
:1036d800309588004195880030958000419580009c
:1036e8004a09dd00c600de00810071004a00dd00e5
:1036f8003095880041958800349580004595800074
:10370800d09480006101b8000400be0008f40700ee
:1037180020958800e0948000f19480004a09dd003b
:10372800c600de00810071004a00dd00e0948800d8
:10373800f194880000958000119580004a09dd0009
:10374800c600de00810071004a00dd000095880097
:1037580011958800e08f800060968800f08f8000c7
:1037680070968800009080008096880010908000f5
:103778009096880020908000a096880070ad800008
:103788000000e00004003a0020908000e09a8800e1
:103798000000eb00d09a880030908000b096880036
:1037a8004090800040978800509080005097880093
:1037b80060908000e096880070908000f096880005
:1037c8008090800000978800909080001097880073
:1037d800a090800020978800b090800030978800e3
:1037e800c090800060978800d090800061006000e1
:1037f800701f98007e189000e10f500002003a00f8
:10380800da11a80001003700da11a900d090800071
:1038180062006000601f98006e189000e20f500070
:1038280002003a00da31a80001003700da31a900b5
:10383800d090800064006000501f98005e189000cf
:10384800e40f500002003a00da51a80001003700e6
:10385800da51a900d090800068006000401f9800ed
:103868004e189000e80f500002003a00da71a800e4
:1038780001003700da71a900d09080007000600064
:10388800301f98003e189000f00f500002003a00d8
:10389800da91a80001003700da91a900d0908000e1
:1038a800800078000002200000806000201f98003f
:1038b800ae18900000022000808f500002003a00ed
:1038c800dab1a80001003700dab1a900d090800071
:1038d800800078000004200000806000101f98001d
:1038e8009e18900000042000808f500002003a00cb
:1038f800dad1a80001003700dad1a900d090800001
:10390800800078000008200000806000001f9800f8
:103918008e18900000082000808f500002003a00a6
:10392800daf1a80001003700daf1a900d090800090
:103938008000780000202000008060007017980048
:10394800fe10900000202000808f500002003a00f6
:10395800db31a80001003700db31a900d08e8000e0
:1039680001202000010060000000e0000a003a0089
:10397800d09080008000780000102000008f600048
:10398800001020009e0f100002003a00db11a80072
:1039980001003700db11a900d0908000800078007a
:1039a800004020000080600060179800ee10900032
:1039b80000402000808f500002003a00db51a80030
:1039c80001003700db51a900d0908000800078000a
:1039d800008020000080600050179800de109000e2
:1039e80000802000808f500002003a00db71a800a0
:1039f80001003700db71a900d08e80000100210092
:103a0800010060000000e00005003a0040062000c8
:103a1800b0a0880020032000c0a088000400370060
:103a280040052000b0a08800a0022000c0a08800a7
:103a3800d0908000800078000000220000806000a4
:103a480040179800ce10900000002200808f500090
:103a580002003a00dbb1a80001003700dbb1a90081
:103a6800d090800080007800000024000080600072
:103a780030179800be10900000002400808f50007e
:103a880002003a00dbd1a80001003700dbd1a90011
:103a9800d09080008000780000002800008060003e
:103aa80020179800ae10900000002800808f50006a
:103ab80002003a00dbf1a80001003700dbf1a900a1
:103ac800e090800000938800f090800010938800b8
:103ad800009180006103b80086007800000029008a
:103ae8000009b8006130b900030278000002420002
:103af8000000290000b8b9000002420084017800e3
:103b08000200be007097880081978800109180009d
:103b18006103b80086007800000029000009b80099
:103b28006130b90003027800000242000000290059
:103b380000b8b90000024200840178000200be000b
:103b480090978800a1978800209180006103b800b1
:103b580086007800000029000009b8006130b9002b
:103b680003027800000242000000290000b8b900f2
:103b780000024200840178000200be00b09788006d
:103b8800c1978800309180006103b80086007800f2
:103b9800000029000009b8006130b900030278006c
:103ba800000242000000290000b8b90000024200eb
:103bb800840178000200be00d0978800e197880051
:103bc800409180006103b800860078000000290059
:103bd8000009b8006130b900030278000002420011
:103be8000000290000b8b9000002420084017800f2
:103bf8000200be00f097880001988800509180006c
:103c080001002000109888002198880061918000a8
:103c1800400620000088b900309888007191800023
:103c2800400620000088b9004098880081918000f3
:103c3800400620000088b9005098880091918000c3
:103c4800400620000088b90060988800a191800093
:103c5800400620000088b900709888000191800013
:103c6800400620000088b9008000780000f4210098
:103c78000100500001002000809888009198880079
:103c880080988000919880004a09dd00c600de0017
:103c9800810071004a00dd008098880091988800b2
:103ca80092978000a397800070978000819780008a
:103cb800800f5100818f59000f0039003098800023
:103cc8000000e0000c00320092978000a39780006b
:103cd800709780008197800000025100818259000e
:103ce800309880006101b8000400be0090f207001f
:103cf800a0988800020037000000eb00a098880018
:103d0800b2978000c397800090978000a1978000a9
:103d1800800f5100818f59000f00390040988000b2
:103d28000000e0000c003200b2978000c3978000ca
:103d380090978000a197800000025100818259006d
:103d4800409880006101b8000400be0078f20700c6
:103d5800b0988800020037000000eb00b098880097
:103d6800d2978000e3978000b0978000c1978000c9
:103d7800800f5100818f59000f0039005098800042
:103d88000000e0000c003200d2978000e39780002a
:103d9800b0978000c19780000002510081825900cd
:103da800509880006101b8000400be0060f207006e
:103db800c0988800020037000000eb00c098880017
:103dc800f297800003988000d0978000e1978000e8
:103dd800800f5100818f59000f00390060988000d2
:103de8000000e0000c003200f29780000398800089
:103df800d0978000e197800000025100818259002d
:103e0800609880006101b8000400be0048f2070015
:103e1800d0988800020037000000eb00d098880096
:103e2800b091800030998800309980000000e0004f
:103e380002003a00a000200030998800c09180005c
:103e480040998800409980000000e00002003a0094
:103e5800c012200040998800d0918000c09d880041
:103e6800c09d80000000e00002003a00200320000e
:103e7800c09d8800e091800050998800509980008a
:103e88000000e00002003a00401f2000509988001e
:103e9800f091800060998800609980000000e0003f
:103ea80002003a00a000200060998800109280006b
:103eb80061006000101798001e109000e10f50007c
:103ec80002003a00ddf1a80001003700ddf1a90089
:103ed8001092800062006000001798000e10900099
:103ee800e20f500002003a00de11a800010037007e
:103ef800de11a9002092800061006000700f980018
:103f08007e089000e10f500002003a00dc11a80082
:103f180001003700dc11a9002092800062006000d7
:103f2800600f98006e089000e20f500002003a00ff
:103f3800dc31a80001003700dc31a90020928000a4
:103f480064006000500f98005e089000e40f500075
:103f580002003a00dc51a80001003700dc51a9003a
:103f68002092800068006000400f98004e08900082
:103f7800e80f500002003a00dc71a8000100370089
:103f8800dc71a9002092800070006000300f98005a
:103f98003e089000f00f500002003a00dc91a800a3
:103fa80001003700dc91a900209280008000780091
:103fb8000002200000806000200f9800ae089000ea
:103fc80000022000808f500002003a00dcd1a800d7
:103fd80001003700dcd1a900209280008000780021
:103fe8000004200000806000100f98009e089000d8
:103ff80000042000808f500002003a00dcb1a800c5
:1040080001003700dcb1a900209280008000780010
:104018000008200000806000000f98008e089000c3
:1040280000082000808f500002003a00dcf1a80050
:1040380001003700dcf1a9002092800080007800a0
:10404800001020000080600070079800fe009000bb
:1040580000102000808f500002003a00dd11a800f7
:1040680001003700dd11a90020928000800078004f
:10407800002020000080600060079800ee0090009b
:1040880000202000808f500002003a00dd31a80097
:1040980001003700dd31a9002092800080007800ff
:1040a800004020000080600050079800de0090006b
:1040b80000402000808f500002003a00dd51a80027
:1040c80001003700dd51a9002092800080007800af
:1040d800008020000080600040079800ce0090001b
:1040e80000802000808f500002003a00dd71a80097
:1040f80001003700dd71a90020928000800078005f
:10410800000021000080600030079800be00900089
:1041180000002100808f500002003a00dd91a800c5
:1041280001003700dd91a90020928000800078000e
:10413800000022000080600020079800ae00900078
:1041480000002200808f500002003a00ddb1a80074
:1041580001003700ddb1a9002092800080007800be
:104168000000240000806000100798009e00900066
:1041780000002400808f500002003a00ddd1a80022
:1041880001003700ddd1a9003092800070998800c5
:10419800709980000000e00002003a00f000200062
:1041a80070998800409280008099880080998000ea
:1041b8000000e00002003a00a0002000809988007a
:1041c8005092800090998800909980000000e0004b
:1041d80002003a0040062000909988006092800012
:1041e800a0998800a09980000000e00002003a0031
:1041f80040062000a099880070928000b09988003d
:10420800b09980000000e00002003a00400620005b
:10421800b099880080928000f09988009092800080
:10422800009a8800a0928000109a8800b0928000be
:10423800209a8800c0928000309a8800d09280002e
:10424800409a8800509a800001002000a2002000b7
:104258000300200030f0070020968800509a800064
:104268000100200052002000030020002af007006f
:1042780040968800a09480006103b800860078000a
:10428800d0052000000ab8006030b90005017800a8
:1042980000014100d005200000b8b900000141002c
:1042a8008202780042062000030020000400be00bd
:1042b80019f00700609a8800a09480006103b80094
:1042c8008600780020062000000ab8006030b90097
:1042d80005017800000141002006200000b8b9005f
:1042e80000014100820278004206200003002000fd
:1042f8000400be0008f00700709a8800508f800004
:10430800a2002000110009000280d800809a8800cd
:10431800509a8000a2002000110009000280d800f5
:10432800a09a8800519a8000509a80000100b80035
:10433800209b8800319b8800319a8000000520006e
:104348000100b800409b8800519b8800489b800072
:10435800599b8000269b8000379b8000880078004e
:1043680006007800000ab80007c0b9000501780007
:104378000001410009b0b900000141008202780043
:10438800449b8800559b8800419a800000052000c6
:104398000100b800609b8800719b8800689b8000c2
:1043a800799b8000269b8000379b800088007800de
:1043b80006007800000ab80007c0b90005017800b7
:1043c8000001410009b0b9000001410082027800f3
:1043d800649b8800759b88004f04be000080fa002b
:1043e800000006000000fa00d2e2a800de02a800e1
:1043f800de22a800e422a800e402a800d362a800f4
:104408000000eb00801688000000eb0040178800d1
:104418000000eb00b0168800e5c2a900e582a900fb
:10442800e5a2a900e5e2a900cc22a900cc42a90096
:10443800e4c2a900e4e2a900e502a900e522a90076
:10444800d262a900d242a900d222a900e9c2a900d9
:10445800e982a900d042a9000000eb0080ae8800e4
:104468000000eb0090ae88000000eb00a0ae8800d2
:104478000000eb0000b388000080fa00000006008e
:104488000000fa000000eb00200888000000eb00a4
:104498000008880005a1a9000421a90041102000f6
:1044a80091407800f0ccb30000c0600004e1b70090
:1044b80005e1a80000f42100100888005109200037
:1044c80091407800f0c8b30000c0600001c5b30097
:1044d8000140700095e0b7008460a9008c60a800d6
:1044e80042c0bf007f40600001c6b30001407000b9
:1044f80042e0b7000080fa00000006000000fa0061
:10450800d2c2a800d2a2a800d282a8000000eb0064
:10451800000688000000eb0010068800c1a0a80073
:10452800c1c0a800c1e0a8000000eb002006880078
:104538000000eb0030068800c5a0a900c5c0a9008e
:10454800c5e0a900b109200091407800f0c8b30087
:1045580000c0600001c5b300014070009be0b700d7
:1045680085e0a9008de0a8000080fa0000000600a0
:104578000000fa000000eb0030b588000000eb00f6
:10458800700a88004ee1a900e114200091407800eb
:10459800f0c9b30000c060004ee1b700e11420008c
:1045a8009140780080cfb30000c060000014a000e4
:1045b8004ee1b700210a20009140780000c7b300ff
:1045c80000c07000a2e0b70087a0a9008fa0a800d3
:1045d8000080fa00000006000000fa000000eb006e
:1045e800800888000000eb003008880011a1a900ad
:1045f80010c1a9001021a9000111200091407800e4
:10460800f0ccb30000c060000044a00010e1b70087
:104618001061a90011e1a9000080eb006008880082
:10462800710920009140780080cfb30000c060007d
:104638006040b30097e0b70084c0a9008cc0a9000f
:104648000000eb00900888000000eb00500888008c
:1046580013a1a90012c1a9001221a900211120004b
:1046680091407800f0ccb30000c060000044a00086
:1046780012e1b70013e1a8000080eb007008880081
:104688007109200091407800f0c8b30000c06000b4
:1046980001c6b3000140700097e0b70084e0a900ac
:1046a8008ce0a9000000eb00f00888000000eb0097
:1046b800a00888001fa1a8001ec1a9001e21a900ea
:1046c800e111200091407800f0ccb30000c06000f8
:1046d8000044a0001ee1b7001fe1a9001e61a90067
:1046e800e109200091407800f0c8b30000c06000e4
:1046f80001c6b300014070009ee0b70086a0a90083
:104708008ea0a9000000eb00000988000000eb0063
:10471800c008880021a1a80020c1a9002021a90063
:104728000112200091407800f0ccb30000c0600076
:104738000044a00020e1b70021e1a900e0b5800015
:10474800e0088800f10920009140780080cfb3008c
:1047580000c060006040b3009fe0b70086c0a900b9
:104768008ec0a9000080fa0000000600809fbe00ed
:104778003400f80000002000a00188000000fa00c2
:104788008832a80087a0a900e11420009140780091
:1047980080cfb30000c060000014a0004ee1b70055
:1047a8000000eb00b0b18800409480006400600015
:1047b8000000e0001e0032001000200040b2880017
:1047c8000000eb00c0088800d18e800000002100a6
:1047d800008060000000e00003003a00306820001c
:1047e800e008880002003700d0562000e008880062
:1047f80086c0a9008ec0a80021e1a80010002000f2
:1048080060b288001000200010b5880010c0b30006
:10481800a0f6b70087a0a900e11420009140780015
:1048280080cfb30000c060004ee1b7008fa0a900a0
:104838000080fa003400f9004f00be000040060076
:10484800809fbe003400f80000002000a00188000e
:104858000000fa0010b58000e10f500015003a0082
:10486800d5c2bf00684060000004e00011003200bb
:104878000000eb0010b5880021e1a90086c0a9005e
:104888008ec0a90087a0a9008fa0a800e11420006d
:104898009140780080cfb30000c060000014a000f1
:1048a8004ee1b7001fe1a90086a0a9008ea0a900cb
:1048b8001000370010b58000e10f50000d003a00dd
:1048c800d5c2bf00684060000004e00009003a005b
:1048d8002000200010b5880087a0a9008fa0a9009b
:1048e800e11420009140780080cfb30000c0600040
:1048f8004ee1b70010b58000e20f500012003a00f8
:104908000000eb00c008880070958000e00888006f
:1049180086c0a9008ec0a80021e1a800d18e800021
:1049280000102000008060000000e00003003a0052
:104938003000200010b588004c003700b00020007f
:1049480010b588004900370010b58000e30f50000b
:104958000c003a004000200010b588000000eb0071
:10496800c0088800e0b58000e008880086c0a9007b
:104978008ec0a80021e1a800d662a800d642a800ef
:104988003a00370010b58000e40f500013003a00d9
:104998005000200010b588003000200020b58800a5
:1049a8000000eb0030088800b1b58000e0b5800059
:1049b800008050006008880084c0a9008cc0a8004e
:1049c80011e1a800d662a900d642a900d622a90002
:1049d80086c0a9008ec0a9002400370010b5800049
:1049e800eb0f50000c003a00c000200010b5880002
:1049f8000000eb00c0088800e0b58000e0088800ef
:104a080086c0a9008ec0a80021e1a800d662a8002f
:104a1800d642a8001500370010b58000ec0f5000f2
:104a280012003a00d000200010b588005001200084
:104a380020b588000000eb0030088800b1b5800080
:104a4800e0b58000008050006008880084c0a9009c
:104a58008cc0a80011e1a800d662a900d642a9001e
:104a6800d622a90086c0a9008ec0a9000080fa003d
:104a78003400f9004f00be0000400600809fbe00d1
:104a88003400f80000002000a00188000000fa00af
:104a980084c0a90030b280000000e80030b288006d
:104aa80020b58000e30f50000c003a0040002000c1
:104ab80020b588000000eb0030088800e0b58000d1
:104ac8006008880084c0a9008cc0a80011e1a80073
:104ad800d662a800d622a8008f00370020b5800033
:104ae800e40f50000f003a005000200020b5880065
:104af8000000eb0030088800b1b58000e0b5800008
:104b0800008050006008880084c0a9008cc0a800fc
:104b180011e1a800d662a900d642a900d622a900b0
:104b28007d00370020b58000e50f50000c003a00ea
:104b38006000200020b588000000eb0030088800e5
:104b4800e0b580006008880084c0a9008cc0a80077
:104b580011e1a800d642a800d622a8006e003700ae
:104b680020b58000e60f50000f003a0070002000ca
:104b780020b588000000eb0030088800b1b580003f
:104b8800e0b58000008050006008880084c0a9005b
:104b98008cc0a80011e1a800d662a900d642a900dd
:104ba800d622a9005c00370020b58000e70f50002e
:104bb8000c003a008000200020b588000000eb00bf
:104bc80030088800e0b580006008880084c0a9002b
:104bd8008cc0a80011e1a800d642a800d662a8009f
:104be8004d00370020b58000e80f50000f003a0054
:104bf8009000200020b588000000eb0030088800f5
:104c0800b1b58000e0b580000080500060088800e1
:104c180084c0a9008cc0a80011e1a800d662a90030
:104c2800d642a900d622a9003b00370020b5800053
:104c3800e90f50000c003a00a000200020b58800c1
:104c48000000eb0030088800e0b5800060088800ac
:104c580084c0a9008cc0a80011e1a800d622a80031
:104c6800d662a8002c00370020b58000ea0f50005b
:104c78000f003a00b000200020b588000000eb00cb
:104c880030088800b1b58000e0b580000080500091
:104c98006008880084c0a9008cc0a80011e1a800a1
:104ca800d662a900d642a900d622a9001a00370068
:104cb80020b58000eb0f50000c003a00c000200027
:104cc80020b588000000eb0030088800e0b58000bf
:104cd8006008880084c0a9008cc0a80011e1a80061
:104ce800d622a800d642a8000b00370020b58000c5
:104cf800ec0f500008003a00d000200020b58800d2
:104d0800d662a900d642a900d622a90084c0a9006b
:104d18008cc0a90011e1a90020b58000f50f500052
:104d28000c003a006001200020b588000000eb006c
:104d380030088800e0b580006008880084c0a900b9
:104d48008cc0a80011e1a800d642a800d622a8006d
:104d58008f00370020b58000f60f50000f003a0092
:104d68007001200020b588000000eb0030088800a2
:104d7800b1b58000e0b58000008050006008880070
:104d880084c0a9008cc0a80011e1a800d662a900bf
:104d9800d642a900d622a9007d00370020b58000a0
:104da800f70f50000c003a008001200020b5880061
:104db8000000eb0030088800e0b58000600888003b
:104dc80084c0a9008cc0a80011e1a800d662a80080
:104dd800d622a8006e00370020b58000f80f5000da
:104de8000f003a009001200020b588000000eb0079
:104df80030088800b1b58000e0b580000080500020
:104e08006008880084c0a9008cc0a80011e1a8002f
:104e1800d662a900d642a900d622a9005c003700b4
:104e280020b58000f90f50000c003a00a0012000c6
:104e380020b588000000eb0030088800e0b580004d
:104e48006008880084c0a9008cc0a80011e1a800ef
:104e5800d642a800d662a8004d00370020b58000d1
:104e6800fa0f50000f003a00b001200020b588006a
:104e78000000eb0030088800b1b58000e0b5800084
:104e8800008050006008880084c0a9008cc0a80079
:104e980011e1a800d662a900d642a900d622a9002d
:104ea8003b00370020b58000fb0f50000c003a0093
:104eb800c001200020b588000000eb003008880001
:104ec800e0b580006008880084c0a9008cc0a800f4
:104ed80011e1a800d622a800d642a8002c0037006d
:104ee80020b58000fc0f50000f003a00d0012000d0
:104ef80020b588000000eb0030088800b1b58000bc
:104f0800e0b58000008050006008880084c0a900d7
:104f18008cc0a80011e1a800d662a900d642a90059
:104f2800d622a9001a00370020b58000fd0f5000d6
:104f38000c003a00e001200020b588000000eb00da
:104f480030088800e0b580006008880084c0a900a7
:104f58008cc0a80011e1a800d622a800d662a8003b
:104f68000b00370020b58000fe0f500008003a0003
:104f7800f001200020b58800d662a900d642a90019
:104f8800d622a90084c0a9008cc0a90011e1a900fb
:104f98000080fa003400f9004f00be00004006000f
:104fa8003400f800881f780008002000a801880055
:104fb8004f0478000000fa000080fa003400f9007d
:104fc80000400600809fbe00821f78003400f80071
:104fd80000002000a00188000000fa0085e0a90078
:104fe800d4c2bf000080fb004600de00e140600044
:104ff800c0b180006140600080cf50000d003200d9
:10500800d4c2bf000080fb004600de0061406000a3
:105018000080fb0061016000c1b18000e0ff2f004b
:105028000080600002007000c0b188000000eb0042
:10503800d0b18800d4c2bf000080fb004500de006c
:10504800e1406000c0b180000000d1006140600014
:1050580080cf50000e003200d4c2bf000080fb0099
:105068004500de00614060000080fb0061006000d8
:1050780000014000c1b18000d0ff2f000080600017
:1050880002007000c0b188000000eb00e0b18800a9
:10509800d4c2bf000080fb004400de00e140600095
:1050a800c0b180004200de006140600080cf500047
:1050b8000e003200d4c2bf000080fb004400de00b6
:1050c800614060000080fb00610060004201dd007b
:1050d800c1b18000b0ff2f000080600002007000a6
:1050e800c0b188000000eb00f0b1880000b3800078
:1050f800e30f50006800320000b38000e40f500056
:105108006500320020938000fb0f500062003600db
:10511800c0b18000610060000000e00006003a00b5
:1051280030b580000000e00003003a0010002000c5
:1051380030b5880058003700c0b1800061006000b9
:105148000000e0000800320030b58000e10f500098
:1051580005003a002000200030b588005008800083
:10516800e0b288004c003700c0b1800062006000e7
:105178000000e0004800320030b58000e20f500027
:1051880045003a000000eb0030b588005008800068
:10519800d0b28800d1b28000e0b28000808f500089
:1051a80005003600d0b28000e1b280000100500056
:1051b800c0b2880009003700e0b2800080007800a3
:1051c8000080eb0001005000c0b28800c1b280002e
:1051d800d0b2800000804000c0b28800c1b2800018
:1051e80070322200808f500016003e0090b280007e
:1051f8000000e80090b288000000eb00a0b2880030
:105208000000eb00b0b2880090b28000e60f5000ba
:10521800210036008952a9005000200030b58800ce
:105228000000eb0090b28800d18e800000202000a2
:10523800008060000000e00017003200db11a900c8
:1052480015003700a0b280000000e800a0b2880076
:105258000000eb0090b288000000eb00b0b28800bc
:10526800a0b28000e60f50000b0036008952a8005b
:105278005000200030b588000000eb00a0b2880084
:10528800d18e800000202000008060000000e00037
:1052980001003200db11a8000080fa003400f90098
:1052a8004f0178004f00be00004006000000fa00e1
:1052b80080252000e0b588000000eb0020b48800bd
:1052c8008852a9008912a90088d2a9008812a900c9
:1052d8008872a9008892a90088b2a9000000eb0092
:1052e800b09488000000eb0060b4880090948000bf
:1052f800e20f500005003e00509480006194800049
:1053080050958800619588000700370090948000c8
:10531800e30f500004003a008098800091988000c4
:1053280050958800619588000000eb0000b6880061
:105338000000eb00b09488006000b800a0958800d9
:10534800b19588000000eb00809488000000eb0015
:10535800509688000000eb0000968800d911a9003b
:10536800d931a9005e76a9005e16a9005e36a900ab
:105378000000eb0000a188000000eb0010a18800ed
:105388000000eb0030a188000000eb0020a188009d
:105398000000eb0040a188000000eb0050a188004d
:1053a8000000eb0070a188000000eb0060a18800fd
:1053b8000000eb0080a188000000eb0090a18800ad
:1053c8000000eb00b0a188000000eb00a0a188005d
:1053d8000080fa00000006000000fa008852a900c8
:1053e8008912a9003d0fa900e982a900e9a2a90034
:1053f80087a0a900e11420009140780080cfb30075
:1054080000c060000014a0004ee1b7008fa0a80003
:10541800d662a900d642a900d622a9006efc0700d0
:105428000000eb0010b588000000eb0020b58800f4
:105438000080fa00000006000000fa00f0b28000c8
:10544800610060000000e00022003a005e36a9001a
:10545800d022a900e9e2a80060b480000000e800ba
:1054680060b4880061b48000401f2000808f500025
:1054780018003600e9e2a9000000eb0060b48800db
:105488005e16a8008812a900d3ff0700ac02070027
:105498000000eb0080948800c0ae800068006000c7
:1054a8000000e0000b003a00d08e800001042000cc
:1054b800010060000000e00006003200e08e80007d
:1054c80001002800010060000000e0000100320037
:1054d800d811a8000080fa00000006000000fa00b9
:1054e8006000b800a0958800b19588000000eb0026
:1054f80000b688005eb6a8005e96a900e9e2a90099
:105508008812a900b4ff0700d022a800d08e80001e
:10551800640060000000e00002003200100020007b
:10552800a0ae880090b380000000e80090b3880027
:1055380091b38000c0122000808f500019003600ff
:105548000000eb0090b38800d022a9000000eb0017
:10555800a0ae88005e36a800c0ae8000680060007b
:105568000000e0000b003200d08e80000104200013
:10557800010060000000e00006003200e08e8000bc
:1055880001002800010060000000e0000100320076
:10559800d811a8000000eb0000b388000000eb0061
:1055a80080b488000080fa00000006000000fa00bd
:1055b80080b480000000e00026003a00c0ae800001
:1055c800640060000000e00022003200f09a8000d1
:1055d8000000e0001f003a0070ad8000e10f5000ad
:1055e8001c003a00d08e80000100280001006000f5
:1055f8000000e00017003a0091938000c09a8000f4
:10560800808f500004003900d08e80007000600048
:105618000000e00045013a001000200000b38800b7
:105628001000200080b48800e9c2a8001000200003
:1056380080ae8800d042a9000000eb00a0ae880030
:105648000000eb0090ae88000000eb00009c880092
:105658003601370080b48000e10f50005a003a004c
:10566800c0ae8000640060000000e00007003a005f
:105678000000eb0000b388000000eb0080b4880055
:10568800e9c2a9000000eb0080ae88009193800079
:10569800c09a8000808f50000b003600d08e8000aa
:1056a800700060000000e000070032000000eb001e
:1056b80000b388000000eb0080b48800e9c2a900ac
:1056c8000000eb0080ae8800d08e8000010028002a
:1056d800010060000000e000070032000000eb005d
:1056e80000b388000000eb0080b48800e9c2a9007c
:1056f8000000eb0080ae8800c0ae80006100600052
:105708000000e00009013200d08e80000100240072
:10571800010060000000e000010032005e96a80071
:105728002000200000b388000000eb00d0b1880002
:105738000000eb00e0b188000000eb00f0b1880049
:105748002000200080b488000000eb0020b388000f
:10575800e982a800e9a2a800e9c2a9000000eb00bc
:1057680080ae8800a9f60700d0fe0700e19a800005
:10577800a0968000808f500001003600d9d1a80083
:105788000000eb00d09a88006000b800c09b880039
:10579800d19b880000a0800010a08800f09f8000a6
:1057a80000a08800b09f8000f09f88000000eb00f8
:1057b800b09f88000000eb0040a088000000eb00cc
:1057c80030a08800d900370080b48000e20f500074
:1057d80022003a0020b380000000e80020b38800cf
:1057e80021b3800040062000808f5000cf00360093
:1057f80010ab8000e10f50000a003a00b18e800023
:10580800a0aa2a00808f500006003200d08e8000a7
:10581800610060000000e00002003200d9f1a80039
:10582800c20037002093800050a08800d9f1a90059
:105838003000200000b388000000eb0020b388008f
:105848000000eb0030b388003000200080b48800ee
:1058580010002000b0b18800b400370080b4800088
:10586800ef0f50000b003a00d08e8000014020005e
:10587800010060000000e00003003200800020000a
:1058880080b48800a90037003000200080b4880068
:10589800a600370080b48000e30f500009003a00ea
:1058a8008852a8008912a90020908000e09a8800f8
:1058b8000000eb00d09a88000000eb0070ad880073
:1058c8009a00370080b48000e50f500002003a00cb
:1058d80002ff07009500370080b48000e70f5000f2
:1058e80014003a00e07980000108200001006000ff
:1058f8000000e0008d0032000000eb00f09a880004
:105908005eb6a8000000eb00c08e88003cefa9003e
:10591800d042a9000000eb00a0ae88000000eb0018
:1059280090ae8800d022a9000000eb0080b4880067
:105938007e00370080b48000e80f50002f003a0046
:105948008852a8008912a90020908000e09a880057
:105958000000eb00d09a88000000eb0070ad8800d2
:10596800018f800000f42100010150008196800021
:1059780040062000010050000090b90042062000b7
:10598800110009000280d8006101b800d099800098
:10599800e19980000200400083804800509588000b
:1059a8006195880050958000619580004609dd006a
:1059b8004a00de0000007100ca08de007095880009
:1059c800a2958000b3958000909680006a00b90087
:1059d80001002000800f5100818f590053003600cc
:1059e8003000200080b488005094800061948000ca
:1059f80050958800619588004c00370080b480007d
:105a0800ea0f500018003a00e982a800e9a2a800ad
:105a180040b380000000e80040b3880041b3800034
:105a2800800c2000808f500040003600f7f50700fa
:105a38007003200010b38800e0948000f194800087
:105a480050958800619588006000b800a09588008e
:105a5800b19588005000200000b38800b0002000f5
