:020000040000fa
:080000000001040000000000f3
:020000040000fa
:100200004f5d2100007f21000001880000000000f8
:100210000c00070020462500010020001100070007
:10022000000020000000e000020032000000020098
:1002300000000000d6520200000000000040da007a
:100240000000fe004440a900000020000000e00083
:100250000300320000002000a00188004440a800f4
:100260000000060091018800800078000000eb008b
:1002700015003700e280400032a0b4009101ba00be
:10028000e280400032a0b4009102ba00e280400057
:1002900032a0b4000002eb00472bde00f507b200ed
:1002a000602ce10004003a000059eb008301e900f2
:1002b000fdff3e00040037006128e100010032002c
:1002c0000082eb00040007001101ba000200e00008
:1002d000e8ff3a00000006003159ba008301e90046
:1002e0000c0032002159ba008301e90008003200f5
:1002f0000400e00003003a00e280400032a0b400b5
:10030000f5ff370011d9ba008301e900faff3a007e
:100310008100e800e180400032a0b4000000060047
:10032000839f68000100e00002003d0060001000b3
:10033000e08018000300e00002003d0060011100b1
:10034000e0811900fc0007004f00e00002003b00c4
:1003500060001000e080180000000600889fbe00ca
:100360008a9fbe00010578000100e000040035000e
:1003700008003c000000e0002000320005003700cb
:1003800060001000e080180002003b0001f02c002b
:100390001a0037000004be006011b8006b0920008d
:1003a0000982cf00020039000882cf000441b0006a
:1003b000694252000e00320008003b008281710049
:1003c000610164008904d1000884d3008b05e80032
:1003d0000442e800f9ff3a00050037000804440031
:1003e00089844c008b05e9000442e900fbff3a00d8
:1003f0005a0107000af0a70001f0a0004f05be0057
:100400004f04be0000000600889fbe008a9fbe0009
:100410008c1f78000004be00760107000478a3005a
:1004200026003a006120e1002500320009f8a3000f
:1004300025003a006420e10021003200f507b100f8
:100440000508a3000200320000004000818048003f
:100450006044b800031020000200200000004000ab
:10046000818048000805440089854c000a05410048
:100470008b8549000a0550008b8558000300330026
:100480000a00be0002047400838474008301d1005a
:100490000281d300830f7100f0ff3a008904d1007c
:1004a0000884d3006001490082017800c1adde00fc
:1004b000fb07b000290107006c0137000960a000ac
:1004c0000800be00690137001202200092ae8800c9
:1004d000f0ff2f00f1ff2700640137000001be008c
:1004e000440107000470a70003f0a1006509b100f2
:1004f000160032000d0035006828e10006003500c6
:10050000f0ff2f00f1ff27000300e00013003b0085
:100510000100280000000500000040008180480024
:100520008502e900fcff3a0008003700f88f42001e
:1005300002003c008000eb00000005008100d100bb
:100540000080d3008502e800fcff3a000300e000d1
:1005500002003b0060001000e08018000000060070
:10056000889fbe008a9fbe008c1f7800460107004e
:100570003501330003866c006450e1002e00320028
:100580006420e100330032006150e1002f003200ae
:100590006120e1003100320085855500eb07b00095
:1005a000090020000804200005003700080444006a
:1005b00089844c000a0031000603430087834b0006
:1005c0000001530081815b00f8ff33000203be008d
:1005d0000800a0000804440089844c00f6ff39009c
:1005e000c639dd00830173000100320013002000d2
:1005f0008904d1000884d3000998a30005003200c3
:100600000800a7000300a0008904d1000884d300db
:100610008b05e8008904d1000884d3000001eb00b9
:100620000281d200cd00070001f0a1000cf0a7006c
:1006300001f0a0000d0137006420e1000f0132003d
:100640000801be000200be00f7ff37006120e10094
:100650000a0132006000b800f3ff370000002000fc
:1006600001f82700f0ff3700889fbe008a9fbe0078
:100670008c1f780004010700f300330003866c0030
:100680006450e100240032006420e10027003200c1
:100690006150e100220032006120e10021003200bf
:1006a0008b854200eb07b1000134b800003ab80076
:1006b0000804420089844a00013ab8000030b800ba
:1006c0008880400009014a00040033000000400017
:1006d00081804800020149008b05e900c909dd005d
:1006e000830170000100320013002000c814de00f6
:1006f0004814dd004709de001200b200c808de0021
:10070000088470009500070001f0a1000cf0a7001c
:1007100001f0a000d50037006120e100d7003200d1
:100720000801be000200be00f7ff37006150e10083
:10073000fcff3a00d10037006022b800060220001a
:100740000000d0008180d2000482d2008582d200d5
:100750000000a0000202520083825a000300310010
:100760000202420083824a000000a1000603e90061
:10077000f3ff3a000000060003f0a200889fbe00cd
:100780008a9fbe008c1f7800bf000700ae003300b8
:100790006450e1004f0032006420e100520032005a
:1007a00003826c0007003b000905d0000306d0005f
:1007b000820f54000c065d00020039000200320076
:1007c00089017800030678008582550004003d0009
:1007d0000003fd008103fd008502ea008b854200d5
:1007e000840f720002003b0060001000e0801800df
:1007f0006011b8000005eb007a28e1000a0039001a
:1008000006007800c75ddd00f707b200878075003d
:100810002d003700828171000a01780061056000b7
:100820008180d1000080d3008502e900f9ff3b0000
:10083000060440008784480002003b006004140066
:10084000e0841c000988a300070032008a8171003f
:1008500082817100610164008904d1000884d300a1
:100860008b05e800170037000978a30013003a0051
:100870000b00e000130034008b05e900080444007d
:1008800089844c000a4474000978a3000d003a00e2
:100890000b00e000070034008b05e9000804440069
:1008a00089844c0001003a000b0020000978a30065
:1008b000f7ff32000001eb00020037008281710077
:1008c0000a017800250007000cf0a70001f0a00045
:1008d000660037006420e10002003a00838f6c005c
:1008e000660033000801be000200be005f00370052
:1008f0000001be003f0007000470a70003f0a10044
:1009000003f8a30013003a006509b100100032009b
:10091000090035006928e1000200350001002800c7
:100920000000050000004000818048008502e900c9
:10093000fcff3a0000000600f88f42000500350079
:100940008100d1000080d3008502e800fcff3a005e
:10095000000006008000eb00000005008100200080
:10096000618055000b003d000b00200061fe2f0050
:100970000100e1001d00340082817100610164000a
:100980008904d1000884d3000000e800faff3a008f
:10099000710020006100640003007000020060002c
:1009a0000900320061044400e0844c000988a5007d
:1009b000050032008b05e8006808e10002003a00fb
:1009c0008904d1000884d300f20f20000258e1000e
:1009d00005003d00c75ddd00f907b20089807500a4
:1009e00008007800000006000bf827008b00780054
:1009f00000000500c70ade00f107b200f50fb200e3
:100a000008003200e1cf4200020032000170a00075
:100a100024000500810f7000010032000408050069
:100a200044000500810f700002003a001400050028
:100a30008502e9000000400081c04800fcff3b0047
:100a40000170a000240005000200be006450e10017
:100a5000050036006420e100020036000968a300aa
:100a600001003a000800be000160a0004f067800b7
:100a70004f05be004f04be0000000600f0ff2f002f
:100a8000f1ff2700f9ff37000004be00d9ff07007f
:100a90000003be000405be000200be00d5ff070033
:080aa000844f75000000060000
:020000040000fa
:0200000401f009
:04000000f6ff000007
:020000040000fa
:0200000401f009
:04000400ff7f00007a
:020000040000fa
:0200000401f009
:04000c00ffff0000f2
:020000040000fa
:0200000401f009
:04001000ffff0000ee
:020000040000fa
:0200000401f009
:04001400ffff0000ea
:020000040000fa
:100008006055000060550000605500006055000014
:100018006055000060550000605500006055000004
:10002800605500006055000060550000323e000039
:100038006055000060550000cc26000060550000a7
:100048006055000032500000dc510000a64400005a
:10005800605500006055000060550000aa290000a6
:1000680060550000605500006055000060550000b4
:1000780060550000582900007825000060550000f0
:10008800de1500001e1700006055000060550000d6
:1000980060550000cc240000605500006055000049
:1000a8006055000060550000605500006055000074
:1000b8006055000060550000605500006055000064
:1000c8006055000060550000605500006055000054
:1000d8006055000060550000605500006055000044
:1000e8006055000060550000605500006055000034
:0800f800605500006055000096
:020000040000fa
:100108006055000060550000605500006055000013
:100118006055000060550000605500006055000003
:10012800605500006055000060550000323e000038
:100138006055000060550000cc26000060550000a6
:100148006055000032500000dc510000a644000059
:10015800605500006055000060550000aa290000a5
:1001680060550000605500006055000060550000b3
:1001780060550000582900007825000060550000ef
:10018800de1500001e1700006055000060550000d5
:1001980060550000cc240000605500006055000048
:1001a8006055000060550000605500006055000073
:1001b8006055000060550000605500006055000063
:1001c8006055000060550000605500006055000053
:1001d8006055000060550000605500006055000043
:1001e8006055000060550000605500006055000033
:0801f800605500006055000095
:020000040000fa
:100aa8000000fa00208e8000610060000000e00075
:100ab80008003200709680000000e80070968800f8
:100ac80070968000ea0f5000020036000000eb002c
:100ad800308e880018c2bf00684060000004e00043
:100ae80008003a0018c2bf00624060000004e0003d
:100af80004003a0018c2bf00644060000004e0002f
:100b080001003200030807000080fa000000060018
:100b18000000fa00109b80000000e800109b88008d
:100b2800119b8000401f2000808f50000500360078
:100b3800f80707000000eb00308e8800c411a900f8
:100b4800c5b1a800208e8000620060000000e000af
:100b58000400320002090700c431a9000000eb00bc
:100b6800109b8800208e8000680060000000e00074
:100b780004003200a600070061000700a30907006f
:100b8800c471a900208e80000120200001006000af
:100b98000000e00004003200d800070069000700e8
:100ba8009a090700c531a900509b800061006000c8
:100bb8000000e000040032000b010700720007008b
:100bc800920907006a13a900509b8000700060001a
:100bd8000000e00004003200440107007b00070029
:100be8008a0907006a93a900208e800070006000bf
:100bf8000000e000040032007d010700c491a90054
:100c08000000eb00109b8800208e8000014020002f
:100c1800010060000000e00004003200c901070084
:100c2800c551a9000000eb00109b8800509b800074
:100c3800620060000000e0000400320017020700b4
:100c48006a33a9000000eb00109b8800509b8000cd
:100c580001022000010060000000e00004003200f2
:100c6800650207006ab3a9000000eb00109b88002a
:100c7800208e800001022000010060000000e000da
:100c880004003200b3020700c4b1a9000000eb0061
:100c9800109b8800208e80000180200001006000e9
:100ca8000000e0000400320037030700c571a90006
:100cb8000000eb00109b8800208e800001002200bd
:100cc800010060000000e000040032003505070064
:100cd800c5b1a9000000eb00109b8800208e8000a1
:100ce80001042000010060000000e0000200320062
:100cf80047070700c4d1a9000080fa0000000600d9
:100d08000000fa00a00a2000a09688000002200037
:100d1800b096880030082000c09688000000eb00dc
:100d2800e0968800b00b2000e09a88000000eb00f5
:100d380090968800e00f2000d01088000080fa000c
:100d4800000006000000fa00a00a2000a096880013
:100d580000022000b096880030072000c096880066
:100d68000000eb00e0968800b00b2000e09a8800b5
:100d78000000eb0090968800e00f2000d01088005b
:100d88000080fa00000006000000fa00a00a200017
:100d9800a096880000022000b09688003006200047
:100da800c09688000000eb00e0968800b00b200099
:100db800e09a88000000eb0090968800e00f200081
:100dc800d01088000080fa00000006000000fa0039
:100dd800a00a2000a096880000022000b096880093
:100de80030052000c09688000000eb00e0968800df
:100df800b00b2000e09a88000000eb009096880075
:100e0800e00f2000d01088000080fa0000000600e3
:100e18000600fa000000eb0020079800900280000e
:100e280010079800ff3ffc00210420009140780043
:100e380000ceb30000c0700042e0b7001e00900072
:100e4800900288008d60a9000000eb002007980040
:100e58001a0037002e009000000040008000780043
:100e680000c02f0000804000f0798800f0798000f1
:100e780080007800f00720001200200045260700b7
:100e8800f079800000017800f00720000002780067
:100e98002e009000000040008000780060252100ae
:100ea8000080400013002000840078005d260700c1
:100eb8002e0090000000e800200798002e00900007
:100ec800ed0f5000e3ff360090028000000f78001d
:100ed800ff3ffc0042c0bf007f40600001c6b30076
:100ee8000140700042e0b7001e00780090028800c0
:100ef8008d60a8000080fa00000006000600fa00d5
:100f08000000eb002007980090028000100798006e
:100f1800ff3ffc00210420009140780000ceb30080
:100f280000c0700042e0b7001e00900090028800e8
:100f38008d60a9000000eb00200798001a00370018
:100f48002e009000000040008000780000c02f00b4
:100f580000804000f0798800f079800080007800f7
:100f6800f0072000120020000a260700f079800010
:100f780000017800f0072000000278002e009000a1
:100f880000004000800078006025210000804000bb
:100f98001300200084007800222607002e0090000d
:100fa8000000e800200798002e009000fd0f500078
:100fb800e3ff360090028000000f7800ff3ffc003e
:100fc80042c0bf007f40600001c6b300014070000e
:100fd80042e0b7001e007800900288008d60a800eb
:100fe8000080fa00000006000800fa000000eb008c
:100ff800300798000000eb0020079800900280005e
:1010080010079800ff3ffc00210420009140780061
:1010180000ceb30000c0700042e0b7001e00900090
:10102800900288008d60a900000220003007980017
:101038001d0037003e00900000004000800078004e
:1010480000c02f0000804000f0798800f07980000f
:1010580080007800f007200012002000cd2507004e
:10106800f079800000017800f00720000002780085
:101078002e009000000040008000780060252100cc
:10108800008040001300200084007800e525070058
:101098002e0090000000e800200798003e00900015
:1010a8000000e80030079800be009000d003200040
:1010b800808f5000dfff360090028000000f78001c
:1010c800ff3ffc0042c0bf007f40600001c6b30084
:1010d8000140700042e0b7001e00780090028800ce
:1010e8008d60a8000080fa00000006000800fa00e1
:1010f8000000eb00300798000000eb002007980084
:101108009002800010079800ff3ffc002104200097
:101118009140780000ceb30000c0700042e0b700f4
:101128001e009000900288008d60a900e003200056
:10113800300798001d0037003e0090000000400076
:101148008000780000c02f0000804000f0798800ff
:10115800f079800080007800f0072000120020005d
:101168008c250700f079800000017800f007200046
:10117800000278002e0090000000400080007800f7
:1011880060252100008040001300200084007800c2
:10119800a42507002e0090000000e8002007980012
:1011a8003e0090000000e80030079800be00900064
:1011b800b0052000808f5000dfff360090028000cd
:1011c800000f7800ff3ffc0042c0bf007f40600076
:1011d80001c6b3000140700042e0b7001e0078006d
:1011e800900288008d60a8000080fa0000000600c8
:1011f8000400fa000000eb00100798000000eb0064
:10120800000f7800a00a2000a096880000012000a6
:10121800b096880020082000c0968800c0012000f1
:10122800e09688000000eb001007980014003700d3
:101238001e009000000040008000780000c02f00d1
:1012480000804000f07988001e00900000004000f7
:1012580080007800a0f420000080400000017800a1
:10126800f079800080007800f0072000130020004b
:101278003b2507001e0090000000e80010079800ba
:101288001e009000ef0f5000e9ff36000000eb0051
:1012980010079800200037001e0190001e007800fb
:1012a80080004000a0f4200000804000100078007a
:1012b800c801de0002004100e111200080804000ea
:1012c800601c210000804000030878001e00900088
:1012d8000000e800100798001e0190001e0078002a
:1012e80080004000a0f420000080400090017800b9
:1012f80002004100e111200080804000601c2100b4
:1013080000804000030878001e0090000000e800fc
:10131800100798001e0fe8001e009000ff0f5000f5
:10132800ddff3600b00b2000e09a88000000eb00db
:1013380090968800e00f2000d01088000080fa0006
:10134800000006000400fa000000eb0010079800f7
:101358000000eb00000f7800a00a2000a09688008b
:1013680000012000b096880020072000c096880061
:10137800c0032000e09688000000eb0010079800ea
:10138800140037001e009000000040008000780024
:1013980000c02f0000804000f07988001e009000f7
:1013a8000000400080007800a0f420000080400089
:1013b80000017800f079800080007800f0072000b4
:1013c80013002000e62407001e0090000000e8003b
:1013d800100798001e009000ff0f5000e9ff36002c
:1013e8000000eb0010079800200037001e01900055
:1013f8001e00780080004000a0f42000008040001b
:1014080010007800c801de0002004100e111200050
:1014180080804000601c21000080400003087800a4
:101428001e0090000000e800100798001e019000c0
:101438001e00780080004000a0f4200000804000da
:101448009001780002004100e111200080804000f6
:10145800601c210000804000030878001e009000f6
:101468000000e800100798001e0fe8009e0090009a
:10147800f0032000808f5000dcff3600b00b200006
:10148800e09a88000000eb0090968800e00f2000aa
:10149800d01088000080fa00000006000400fa005e
:1014a8000000eb001007980000022000000f7800f1
:1014b800a00a2000a096880000012000b0968800ad
:1014c80020062000c0968800c0032000e09688000f
:1014d8000002200010079800140037001e0090003a
:1014e800000040008000780000c02f00008040000d
:1014f800f07988001e00900000004000800078000d
:10150800a0f420000080400000017800f0798000fd
:1015180080007800f00720001300200090240700c6
:101528001e0090000000e800100798009e00900040
:10153800d0032000808f5000e8ff36000000eb0049
:1015480010079800200037001e0190001e00780048
:1015580080004000a0f420000080400010007800c7
:10156800c801de0002004100e11120008080400037
:10157800601c210000804000030878001e009000d5
:101588000000e800100798001e0190001e00780077
:1015980080004000a0f42000008040009001780006
:1015a80002004100e111200080804000601c210001
:1015b80000804000030878001e0090000000e8004a
:1015c800100798001e0fe8009e009000b00320004e
:1015d800808f5000dcff3600b00b2000e09a8800b6
:1015e8000000eb0090968800e00f2000d0108800e3
:1015f8000080fa00000006000400fa000000eb007a
:101608001007980000022000000f7800a00a2000b0
:10161800a096880000012000b096880020052000d0
:10162800c0968800c0032000e0968800e0032000f0
:1016380010079800140037001e00900000004000ba
:101648008000780000c02f0000804000f0798800fa
:101658001e0090000000400080007800a0f42000e8
:101668000080400000017800f07980008000780058
:10167800f007200013002000392407001e00900006
:101688000000e800100798009e009000b0052000b8
:10169800808f5000e8ff36000000eb00100798002c
:1016a800200037001e0190001e00780080004000d6
:1016b800a0f420000080400010007800c801de007f
:1016c80002004100e111200080804000601c2100e0
:1016d80000804000030878001e0090000000e80029
:1016e800100798001e0190001e007800800040003e
:1016f800a0f4200000804000900178000200410022
:10170800e111200080804000601c21000080400022
:10171800030878001e0090000000e80010079800f9
:101728001e0fe8009e009000b0032000808f50003c
:10173800dcff3600b00b2000e09a88000000eb00c8
:1017480090968800e00f2000d01088000080fa00f2
:10175800000006000000fa00a00a2000a0968800f9
:1017680000012000b096880010082000c09688006c
:1017780060012000e096880060ab8000e30f500015
:101788000300320060ab8000e40f500010003a0004
:10179800e04080004800de0020978800e04080009c
:1017a80030978800f04080004800de0040978800ad
:1017b800f040800050978800208c80004800de00b0
:1017c80060978800208c8000709788000c00370094
:1017d8000000eb00209788000000eb00309788009d
:1017e8000000eb00409788000000eb00509788004d
:1017f8000000eb00609788000000eb0070978800fd
:10180800707e80004800de0080978800707e80002f
:1018180090978800807e80004800de00a0978800ae
:10182800807e8000b0978800907e80004800de00af
:10183800c0978800907e8000d0978800d07f800075
:101848004800de00e0978800d07f8000f09788008d
:1018580060ab80004800de000098880060ab800024
:1018680010988800109880000000e00009003a00f5
:101878000000eb0010988800017a8000a0aa2a00d6
:10188800808f500029003a004000200010988800fe
:101898002600370010988000e10f500009003a0038
:1018a8001000200010988800017a8000a0aa2a0061
:1018b800808f50001d003a004000200010988800da
:1018c8001a00370010988000e20f500003003a0019
:1018d800200020001098880014003700109880001d
:1018e800e30f500003003a00200020001098880001
:1018f8000e00370010988000e40f500003003a00f3
:1019080030002000109888000800370010988000e8
:10191800e50f500003003a0050002000109888009e
:10192800020037000000eb0010988800e07e80007d
:101938004800de0020988800e07e8000309888000b
:10194800107a80004800de0040988800107a8000f5
:1019580050988800d07f80004800de00609888009a
:10196800d07f800070988800b00b2000e09a880033
:101978000000eb0090968800e00f2000d01088004f
:101988000080fa00000006000000fa00a00a20000b
:10199800a096880000012000b0968800100720005b
:1019a800c0968800a0022000e096880060ab800006
:1019b800e30f50000300320060ab8000e40f5000da
:1019c80010003a00e04080004800de0020978800c0
:1019d800e040800030978800f04080004800de003a
:1019e80040978800f04080005097880000418000b0
:1019f8004800de00609788000041800070978800ea
:101a08000c0037000000eb00209788000000eb0076
:101a1800309788000000eb00409788000000eb003a
:101a2800509788000000eb00609788000000eb00ea
:101a380070978800707e80004800de0080978800dc
:101a4800707e800090978800412d2000914078009a
:101a580000c8b30000c060000004e00004003a00c1
:101a6800309b80000000a000309b880004003700f5
:101a7800309b8000e1ff2f0001006000309b880050
:101a8800e0c2bf00614060000004e00004003a00ca
:101a9800309b80000010a000309b880004003700b5
:101aa800309b8000d1ff2f0001006000309b880030
:101ab800e0c2bf00624060000004e00004003a0099
:101ac800309b80000020a000309b88000400370075
:101ad800309b8000b1ff2f0001006000309b880020
:101ae800e6c2bf00624060000004e00004003a0063
:101af800309b80000030a000309b88000400370035
:101b0800309b800071ff2f0001006000309b88002f
:101b1800e6c2bf00614060000004e00004003a0033
:101b2800309b80000040a000309b880004003700f4
:101b3800309b8000f1fe2f0001006000309b880080
:101b4800cfc2bf000042b2000004e00005003a0026
:101b5800309b80000102200001007000309b88004b
:101b680004003700309b8000f1fd2f000100600069
:101b7800309b8800cfc2bf000044b2000004e000e0
:101b880005003a00309b800001042000010070002d
:101b9800309b880004003700309b8000f1fb2f0049
:101ba80001006000309b8800c8c2bf00644060002c
:101bb8000004e00005003a00309b80000108200086
:101bc80001007000309b880004003700309b8000c3
:101bd800f1f72f0001006000309b8800c8c2bf00e9
:101be800684060000004e00005003a00309b800077
:101bf8000110200001007000309b880004003700ad
:101c0800309b8000f1ef2f0001006000309b8800be
:101c1800c8c2bf00704060000004e00005003a0040
:101c2800309b80000120200001007000309b88005c
:101c380004003700309b8000f1df2f0001006000b6
:101c4800309b8800207a800001102000010060008d
:101c58000000e00005003200309b800001002800f1
:101c680001007000309b880004003700309b800022
:101c7800f1ff270001006000309b8800e9c2bf0027
:101c88000044b2000004e00004003200409b8000e1
:101c98000000a000409b880004003700409b8000a3
:101ca800e1ff2f0001006000409b8800e9c2bf00ef
:101cb800704060000004e00004003200409b800097
:101cc8000010a000409b880004003700409b800063
:101cd800d1ff2f0001006000409b8800e9c2bf00cf
:101ce8000042b2000004e00004003200409b800083
:101cf8000020a000409b880004003700409b800023
:101d0800b1ff2f0001006000409b8800e9c2bf00be
:101d180001c8b300014060000004e0000400320084
:101d2800409b80000030a000409b880004003700e2
:101d3800409b800071ff2f0001006000409b8800dd
:101d4800d0c2bf00624060000004e000040032001e
:101d5800409b80000040a000409b880004003700a2
:101d6800409b8000f1fe2f0001006000409b88002e
:101d7800d0c2bf00644060000004e00005003200eb
:101d8800409b80000102200001007000409b8800f9
:101d980004003700409b8000f1fd2f000100600027
:101da800409b8800e8c2bf0001c8b3000140600042
:101db8000004e00005003200409b80000104200080
:101dc80001007000409b880004003700409b8000a1
:101dd800f1fb2f0001006000409b8800e9c2bf00b2
:101de800614060000004e00005003200409b800074
:101df8000108200001007000409b880004003700a3
:101e0800409b8000f1f72f0001006000409b880094
:101e1800e9c2bf00624060000004e0000500320033
:101e2800409b80000110200001007000409b88004a
:101e380004003700409b8000f1ef2f000100600094
:101e4800409b8800e8c2bf000044b2000004e000e4
:101e580005003200409b8000012020000100700036
:101e6800409b880004003700409b8000f1df2f0072
:101e780001006000409b8800309b80004800de0025
:101e8800a0978800309b8000b0978800409b800016
:101e98004800de00c0978800409b8000d0978800eb
:101ea800608680004800de00e09788006086800039
:101eb800f097880060ab80004800de00009888003a
:101ec80060ab800010988800109880000000e00047
:101ed80009003a000000eb0010988800017a8000a1
:101ee800a0aa2a00808f500029003a004000200054
:101ef800109888002600370010988000e10f5000e5
:101f080009003a001000200010988800017a80002b
:101f1800a0aa2a00808f50001d003a00400020002f
:101f2800109888001a00370010988000e20f5000bf
:101f380003003a00200020001098880014003700a1
:101f480010988000e30f500003003a0020002000a2
:101f5800109888000e00370010988000e40f500099
:101f680003003a003000200010988800080037006d
:101f780010988000e50f500003003a005000200040
:101f880010988800020037000000eb0010988800c5
:101f9800e07e80004800de0020988800e07e800017
:101fa80030988800107a80004800de004098880049
:101fb800107a800050988800d07f80004800de00aa
:101fc80060988800d07f800070988800307f8000fb
:101fd8004800de0080988800307f80009098880054
:101fe80070002000a0988800c07d2000b09888006c
:101ff800c0a780004800de00c0988800c0a7800005
:10200800d0988800b0a78000e10f500004003a0083
:10201800209b80000000a000209b8800040037005f
:10202800209b8000e1ff2f0001006000209b8800ba
:10203800c0a48000640060000000e00004003200da
:10204800209b80000010a000209b8800040037001f
:10205800209b8000d1ff2f0001006000209b88009a
:1020680050a98000e10f500004003a00209b800036
:102078000020a000209b880004003700209b8000df
:10208800b1ff2f0001006000209b8800e17e8000e6
:1020980040868000808f500004003900207a80003c
:1020a800700060000000e00004003a00209b8000ff
:1020b8000030a000209b880004003700209b80008f
:1020c80071ff2f0001006000209b8800209b80008a
:1020d8004800de00e0988800209b8000f098880087
:1020e800217a800000002200008060000000e000eb
:1020f80006003a0030ae80004800de0000998800f3
:1021080030ae80001099880005003700d07e80002e
:102118004800de0000998800d07e80001099880071
:10212800c08080004800de0020998800c0808000c0
:1021380030998800f0ac80004800de0040998800a3
:10214800f0ac800050998800608b80004880de00e9
:1021580060998800608b800070998800807e80007c
:102168004800de0080998800807e80009099880071
:10217800907e80004800de00a0998800907e800054
:10218800b0998800b00b2000e09a88000000eb00ae
:1021980090968800e00f2000d01088000080fa0098
:1021a800000006000000fa00a00a2000a09688009f
:1021b80000012000b096880050072000c0968800d3
:1021c800c0032000e096880060ab8000e30f500059
:1021d8000300320060ab8000e40f500010003a00aa
:1021e800e04080004800de0020978800e040800042
:1021f80030978800f04080004800de004097880053
:10220800f040800050978800004180004800de00c0
:102218006097880000418000709788000c003700a4
:102228000000eb00209788000000eb003097880042
:102238000000eb00409788000000eb0050978800f2
:102248000000eb00609788000000eb0070978800a2
:10225800707e80004800de0080978800707e8000d5
:1022680090978800412d20009140780000c8b30065
:1022780000c060000004e00004003a00309b8000c9
:102288000000a000309b880004003700309b8000cd
:10229800e1ff2f0001006000309b8800e0c2bf0012
:1022a800614060000004e00004003a00309b8000b8
:1022b8000010a000309b880004003700309b80008d
:1022c800d1ff2f0001006000309b8800e0c2bf00f2
:1022d800624060000004e00004003a00309b800087
:1022e8000020a000309b880004003700309b80004d
:1022f800b1ff2f0001006000309b8800e6c2bf00dc
:10230800624060000004e00004003a00309b800056
:102318000030a000309b880004003700309b80000c
:1023280071ff2f0001006000309b8800e6c2bf00eb
:10233800614060000004e00004003a00309b800027
:102348000040a000309b880004003700309b8000cc
:10235800f1fe2f0001006000309b8800cfc2bf0053
:102368000042b2000004e00005003a00309b800003
:102378000102200001007000309b88000400370033
:10238800309b8000f1fd2f0001006000309b880029
:10239800cfc2bf000044b2000004e00005003a00cc
:1023a800309b80000104200001007000309b8800f1
:1023b80004003700309b8000f1fb2f000100600013
:1023c800309b8800c8c2bf00644060000004e00081
:1023d80005003a00309b80000108200001007000d1
:1023e800309b880004003700309b8000f1f72f00f5
:1023f80001006000309b8800c8c2bf0068406000d0
:102408000004e00005003a00309b80000110200025
:1024180001007000309b880004003700309b80006a
:10242800f1ef2f0001006000309b8800c8c2bf0098
:10243800704060000004e00005003a00309b800016
:102448000120200001007000309b88000400370044
:10245800309b8000f1df2f0001006000309b880076
:10246800207a800001102000010060000000e000d8
:1024780005003200309b8000010028000100700038
:10248800309b880004003700309b8000f1ff270054
:1024980001006000309b8800e9c2bf000044b20020
:1024a8000004e00004003200409b80000000a0000f
:1024b800409b880004003700409b8000e1ff2f000c
:1024c80001006000409b8800e9c2bf0070406000c6
:1024d8000004e00004003200409b80000010a000cf
:1024e800409b880004003700409b8000d1ff2f00ec
:1024f80001006000409b8800e9c2bf000042b200b2
:102508000004e00004003200409b80000020a0008e
:10251800409b880004003700409b8000b1ff2f00db
:1025280001006000409b8800e9c2bf0001c8b300f9
:10253800014060000004e00004003200409b80007d
:102548000030a000409b880004003700409b8000ba
:1025580071ff2f0001006000409b8800d0c2bf00bf
:10256800624060000004e00004003200409b8000ec
:102578000040a000409b880004003700409b80007a
:10258800f1fe2f0001006000409b8800d0c2bf0010
:10259800644060000004e00005003200409b8000b9
:1025a8000102200001007000409b880004003700f1
:1025b800409b8000f1fd2f0001006000409b8800d7
:1025c800e8c2bf0001c8b300014060000004e00099
:1025d80005003200409b80000104200001007000cb
:1025e800409b880004003700409b8000f1fb2f00cf
:1025f80001006000409b8800e9c2bf0061406000a4
:102608000004e00005003200409b80000108200023
:1026180001007000409b880004003700409b800048
:10262800f1f72f0001006000409b8800e9c2bf005d
:10263800624060000004e00005003200409b80001a
:102648000110200001007000409b88000400370042
:10265800409b8000f1ef2f0001006000409b880044
:10266800e8c2bf000044b2000004e00005003200e8
:10267800409b80000120200001007000409b8800e2
:1026880004003700409b8000f1df2f00010060004c
:10269800409b8800309b80004800de00a09788009f
:1026a800309b8000b0978800409b80004800de0087
:1026b800c0978800409b8000d09788006086800083
:1026c8004800de00e097880060868000f097880068
:1026d80060ab80004800de000098880060ab800096
:1026e80010988800109880000000e00009003a0067
:1026f8000000eb0010988800017a8000a0aa2a0048
:10270800808f500029003a0040002000109888006f
:102718002600370010988000e10f500009003a00a9
:102728001000200010988800017a8000a0aa2a00d2
:10273800808f50001d003a0040002000109888004b
:102748001a00370010988000e20f500003003a008a
:10275800200020001098880014003700109880008e
:10276800e30f500003003a00200020001098880072
:102778000e00370010988000e40f500003003a0064
:10278800300020001098880008003700109880005a
:10279800e50f500003003a00500020001098880010
:1027a800020037000000eb0010988800e07e8000ef
:1027b8004800de0020988800e07e8000309888007d
:1027c800107a80004800de0040988800107a800067
:1027d80050988800d07f80004800de00609888000c
:1027e800d07f800070988800307f80004800de002d
:1027f80080988800307f80009098880070002000c2
:10280800a0988800c07d2000b0988800c0a78000ec
:102818004800de00c0988800c0a78000d0988800d3
:10282800b0a78000e10f500004003a00209b800010
:102838000000a000209b880004003700209b800037
:10284800e1ff2f0001006000209b8800c0a48000e9
:10285800640060000000e00004003200209b80005b
:102868000010a000209b880004003700209b8000f7
:10287800d1ff2f0001006000209b880050a9800034
:10288800e10f500004003a00209b80000020a000c7
:10289800209b880004003700209b8000b1ff2f0098
:1028a80001006000209b8800e17e80004086800057
:1028b800808f500004003900207a8000700060008a
:1028c8000000e00004003a00209b80000030a000d7
:1028d800209b880004003700209b800071ff2f0098
:1028e80001006000209b8800209b80004800de00db
:1028f800e0988800209b8000f0988800217a80006a
:1029080000002200008060000000e00006003a009d
:1029180030ae80004800de000099880030ae8000ac
:102928001099880005003700d07e80004800de003e
:1029380000998800d07e800010998800c0808000af
:102948004800de0020998800c08080003099880007
:10295800f0ac80004800de0040998800f0ac8000b0
:1029680050998800508b80004880de00609988006c
:10297800508b800070998800807e80004800de00bf
:1029880080998800807e800090998800907e8000e1
:102998004800de00a0998800907e8000b0998800e9
:1029a800308b80004880de00c0998800308b800022
:1029b800d0998800c08b80004800de00e09988002c
:1029c800c08b8000f0998800b08b80004800de0042
:1029d800009a8800b08b8000109a8800f08b8000e5
:1029e8004800de00209a8800f08b8000309a88002a
:1029f800b00b2000e09a88000000eb009096880059
:102a0800e00f2000d01088000080fa0000000600c7
:102a18000200fa00a00a2000a09688000001200009
:102a2800b096880040082000c0968800400020002a
:102a3800e0968800e0012000000f78001e00780072
:102a4800000040008000780000c02f000080400097
:102a5800f07988001e0078000000400080007800af
:102a6800a0f420000080400000017800f079800088
:102a780080007800f007200013002000381f0700ae
:102a8800f0012000000f78001e00780000004000d0
:102a98008000780000c02f0000804000f079880096
:102aa8001e0078000000400080007800a0f420009c
:102ab8000080400000017800f079800080007800f4
:102ac800f007200013002000251f0700307c80003d
:102ad8004800de0020978800307c8000309788000e
:102ae800407c80004800de0040978800407c8000e1
:102af80050978800b00b2000e09a88000000eb0097
:102b080090968800e00f2000d01088000080fa001e
:102b1800000006000000fa0030032000f0108800d2
:102b28000000eb00b010880017e2a80017a2a80068
:102b380016a2a900612120009140780090cfb3002f
:102b480000c0600016e2b7001602a9000000eb0002
:102b5800c01088001942a80019e2a90018c2bf00d5
:102b6800f043b20018e2b7008720a9008700a90047
:102b7800010a200091407800f0c8b30000c060004e
:102b880001c4b30001407000a0e0b700010a2000b2
:102b98009140780080cfb30000c060000024a000fe
:102ba800a0e0b7008f20a8008f00a8000080fa00de
:102bb80000000600809fbe00821f78003400f800e5
:102bc80000002000a00188000000fa000ec2bf002b
:102bd800624060000004e000010032000e22a900fb
:102be800c411a8000000eb0070968800208e8000b9
:102bf800620060000000e00086003a000ec2bf00dc
:102c0800644060000004e00084003a00308e8000d8
:102c18000000e0000b003a00e0108000408e8800c1
:102c2800418e8000a00a2000808f50007b003a006f
:102c380010002000308e88000000eb00908e880085
:102c480076003700308e8000e10f500005003a0012
:102c580020002000308e8800e0108000508e880010
:102c68006e003700308e8000e20f500005003a00f9
:102c780030002000308e8800e0108000608e8800d0
:102c880066003700308e8000e30f500022003a00c3
:102c980040002000308e8800e0108000808e880080
:102ca800808e8000708e8800808e8000fc0f50001f
:102cb80003003a0070032000308e88005700370068
:102cc800818e8000c0032000808f500003003a00ee
:102cd80080032000308e880050003700808e8000ee
:102ce800e10f500003003a0040002000308e8800b9
:102cf8004a003700808e80000000e00003003a00a0
:102d080040002000308e8800440037000000eb00af
:102d1800308e880041003700308e8000e40f50006c
:102d28000b003a00e01080008092880081928000b9
:102d3800b00b2000808f500002003a00c431a80078
:102d4800c411a9000000eb00308e88003300370062
:102d5800318e800070032000808f500013003a00ed
:102d6800808e80000000e900808e8800908e8000b0
:102d7800e210800000004000f2004000601c2100ca
:102d88000080400002087800908e80000000e80073
:102d9800908e8800808e80000000e0001f003a00be
:102da80040002000308e88001c003700318e8000e3
:102db80080032000808f500013003a00808e80002e
:102dc8000000e900808e8800908e8000e21080006c
:102dd80000004000f2004000601c2100008040001c
:102de80002087800908e80000000e800908e88002d
:102df800808e80000000e00008003a0040002000bb
:102e0800308e8800050037000000eb00308e880007
:102e180002003700e0108000408e88008700a9007b
:102e28000080fa003400f9004f0178004f00be001e
:102e380000400600809fbe003400f800000020001b
:102e4800a00188000000fa00909680000000e000d1
:102e580005003a00a0968000d010880010002000dd
:102e6800909688003900370090968000e10f500056
:102e780005003a002000200090968800b096800057
:102e8800d01088003100370090968000e20f500083
:102e980005003a003000200090968800c096800017
:102ea800d01088002900370090968000e30f50006a
:102eb80007003a004000200090968800e0968000c5
:102ec800d01088000000eb00f09688001f00370043
:102ed80090968000e40f50001a003a00e0968000b7
:102ee8000000e00006003a002004200090968800c8
:102ef800b00b2000d0108800c451a8001300370080
:102f08004000200090968800f09680000000400065
:102f1800e111200080804000601c210000804000fa
:102f280010007800d0108800f09680000000e800bb
:102f3800f0968800e09680000000e900e09688009e
:102f48000200370020042000909688008720a900fe
:102f58000080fa003400f9004f00be00004006006f
:102f68000000fa008700a9008f00a9000000eb000c
:102f7800a08e88000000eb00b08e88000000eb00f7
:102f8800b08e880027003700708e80000000e900ae
:102f9800708e8800708e80000000e900708e8800b6
:102fa800a18e80000180400072014000601c210059
:102fb8000000410010007800909288000100e800ad
:102fc800a08e8800a18e8000018040007201400020
:102fd800601c21000000410010007800a0928800c9
:102fe8000100e800a08e8800909280004800dd0073
:102ff80090928800b28e800091928000a09280000a
:1030080080814000020041000109200080804000ca
:10301800601c210000804000030878000200e800de
:10302800b08e8800708e8000e10f5000d6ff3e0001
:10303800508e8000f00f500057003a00618e8000db
:1030480010082000808f500002003a00c4b1a80088
:103058006b003700618e800010072000808f5000c1
:1030680002003a00c571a80065003700618e800033
:1030780050072000808f500002003a00c5b1a80018
:103088005f003700618e800020082000808f50008c
:1030980002003a00c491a80059003700618e8000f0
:1030a80020072000808f500002003a00c551a80078
:1030b80053003700618e800020062000808f50006a
:1030c80002003a006a33a8004d003700618e800084
:1030d80020052000808f500002003a006ab3a80043
:1030e80047003700618e800040082000808f500024
:1030f80002003a00c4d1a80041003700618e800068
:1031080050082000808f500006003a00808e800012
:10311800e10f50003a003a00c4f1a800c511a90017
:1031280037003700618e800060082000808f5000d3
:1031380005003a00808e8000e10f500030003a0010
:10314800c511a8002e003700618e8000700820008d
:10315800808f500005003a00808e8000e10f5000fb
:1031680027003a009814a80025003700618e8000d7
:1031780080082000808f500005003a00808e800073
:10318800e10f50001e003a009834a8001c003700d8
:10319800000000001a003700518e80000002200055
:1031a800808f500015003a00618e800030082000a2
:1031b800808f500001003a00c471a800618e800021
:1031c80030072000808f500001003a00c531a80068
:1031d800618e800030062000808f500001003a0088
:1031e8006a13a800618e800030052000808f50008f
:1031f80003003a006a93a8000100370000000000ad
:103208008f00a8000080fa00000006004400fa00c1
:10321800889fbe000000eb00102798000000eb001c
:1032280010279800140037001e209000000040006e
:103238008000780000c02f0000804000f0798800ee
:103248001e2090000000400080007800a0f42000bc
:103258000080400000017800f0798000800078004c
:10326800f0072000130020003d1d07001e209000dd
:103278000000e800102798009e209000d00320004e
:10328800808f5000e8ff3600507d80004085880020
:10329800408580000000e00002003a0050d0200085
:1032a8004085880040858000010020004a09dd0033
:1032b800c600de00810071004a00dd0050858800ec
:1032c80061858800207c8000800078000000210053
:1032d80000806000002798008e20900000002100e8
:1032e800808f500002003a00458fa8000100370087
:1032f800458fa900517a800060042000808f50001b
:103308000300360050012000507a8800070037007b
:10331800507a8000e90f500003003e005001200061
:10332800507a88000100370000000000517a8000c0
:10333800400620000088b900507a8800217a800071
:1033480000002100008060000000e0000f003a004b
:10335800517a800000f42100010050000100200093
:10336800a07f8800b17f8800a07f8000b17f8000a7
:103378004a09dd00c600de00810071004a00dd0058
:10338800a07f8800b17f88000e003700517a800046
:10339800a0a021000100500001002000a07f8800ab
:1033a800b17f8800a07f8000b17f80004a09dd00de
:1033b800c600de00810071004a00dd00a07f8800a1
:1033c800b17f8800617a800000052000808f50005e
:1033d8000200360080022000607a8800617a80004e
:1033e800400620000088b900c07f8800a27f8000c6
:1033f800b37f800050858000618580000000510007
:103408008180590002fa200003002000c8f4070058
:10341800d0808800a27f8000b37f80005085800024
:10342800618580000000510081805900027d2000e4
:1034380003002000bef40700e0808800817a800045
:10344800007d2000808f500003003600800c200093
:10345800807a88000100370000000000807a800030
:10346800d0858800717a8000401f2000808f50002e
:1034780003003600e0152000707a88000800370045
:10348800717a800030062000808f500003003e00d3
:10349800e0152000707a8800010037000000000065
:1034a800707a8000a2002000110009000280d80074
:1034b800707a8800d08580006104b800707a800036
:1034c8006102b8008800780004007800000bb8009a
:1034d80005c0b900070178000001410009a0b90042
:1034e8000001410082037800a200200003002000b0
:1034f8000600be0088f30700f07f8800907a8000fd
:10350800e30f5000030036000000eb00907a8800bb
:103518000100370000000000907a8000e07f8800fa
:10352800a07a800020898800b07a800052002000ac
:10353800110009000280d80010898800c07a800034
:1035480010808800d17a8000c0032000808f50004e
:103558000200360040012000d07a8800d17a80002d
:10356800400620000088b90020808800e07a8000aa
:1035780010868800f17a8000c0122000808f5000e9
:103588000300360020032000f07a88000700370087
:10359800f07a8000e90f500003003e00200320006d
:1035a800f07a88000100370000000000f07a8000ff
:1035b80030868800017b800060042000808f5000e6
:1035c8000200360030022000007b8800007b80006b
:1035d80040868800117b800060042000808f5000a6
:1035e8000300360080022000107b880007003700a7
:1035f800107b8000fd0f500003003e008002200079
:10360800107b88000100370000000000117b80005b
:10361800400620000088b9000100200030808800a2
:1036280041808800217b800060042000808f50004a
:1036380003003600c0032000207b88000700370005
:10364800207b8000fd0f500003003e00c0032000d7
:10365800207b88000100370000000000217b8000eb
:10366800400620000088b900010020005080880032
:1036780061808800528080006380800030808000f4
:1036880041808000800f5100818f59000900360069
:1036980050808000618080003280800043808000fc
:1036a8000200500083805800808088009180880044
:1036b80008003700508080006180800032808000e0
:1036c800438080000200500083805800808088007a
:1036d8009180880080808000918080004a09dd0008
:1036e800c600de00810071004a00dd00808088008d
:1036f80091808800848080009580800020808000f0
:103708006101b8000400be0009f407007080880059
:1037180030808000418080004a09dd00c600de005c
:10372800810071004a00dd003080880041808800f7
:1037380050808000618080004a09dd00c600de00fc
:10374800810071004a00dd00508088006180880097
:10375800307b8000b0818800407b8000c081880079
:10376800507b8000d0818800607b8000e0818800e9
:10377800707b8000f081880050a980000000e00084
:1037880004003a00707b8000608688000000eb002f
:1037980050868800807b800000828800907b8000b3
:1037a80090828800a07b8000a0828800b07b800087
:1037b80030828800c07b800040828800d07b8000f7
:1037c80050828800e07b800060828800f07b800067
:1037d80070828800007c800080828800107c8000d5
:1037e800b0828800207c800061006000701f980013
:1037f8007e189000e10f500002003a00440fa80024
:1038080001003700440fa900207c8000620060009e
:10381800601f98006e189000e20f500002003a00f6
:10382800442fa80001003700442fa900207c800005
:1038380064006000501f98005e189000e40f50006c
:1038480002003a00444fa80001003700444fa90085
:10385800207c800068006000401f98004e1890008f
:10386800e80f500002003a00446fa800010037003a
:10387800446fa900207c800070006000301f980011
:103888003e189000f00f500002003a00448fa80044
:1038980001003700448fa900207c80008000780058
:1038a8000002200000806000201f9800ae189000e1
:1038b80000022000808f500002003a0044afa800a8
:1038c8000100370044afa900207c80008000780008
:1038d8000004200000806000101f98009e189000cf
:1038e80000042000808f500002003a0044cfa80056
:1038f8000100370044cfa900207c800080007800b8
:103908000008200000806000001f98008e189000ba
:1039180000082000808f500002003a0044efa80001
:103928000100370044efa900207c80008000780067
:10393800002020000080600070179800fe109000a2
:1039480000202000808f500002003a00452fa80078
:1039580001003700452fa900207a800001202000af
:10396800010060000000e0000a003a00207c8000ae
:103978008000780000102000008f600000102000f8
:103988009e0f100002003a00450fa8000100370002
:10399800450fa900207c80008000780000402000ae
:1039a8000080600060179800ee1090000040200032
:1039b800808f500002003a00454fa80001003700f0
:1039c800454fa900207c80008000780000802000fe
:1039d8000080600050179800de10900000802000e2
:1039e800808f500002003a00456fa80001003700a0
:1039f800456fa900207a80000100210001006000c5
:103a08000000e00005003a0040062000308c8800e5
:103a180020032000408c8800040037004005200067
:103a2800308c8800a0022000408c8800207c800018
:103a38008000780000002200008060004017980095
:103a4800ce10900000002200808f500002003a0043
:103a580045afa8000100370045afa900207c8000d1
:103a68008000780000002400008060003017980073
:103a7800be10900000002400808f500002003a0021
:103a880045cfa8000100370045cfa900207c800061
:103a9800800078000000280000806000201798004f
:103aa800ae10900000002800808f500002003a00fd
:103ab80045efa8000100370045efa900307c8000e1
:103ac800507e8800407c8000607e8800507c8000aa
:103ad8006103b80086007800000029000009b800da
:103ae8006130b9000302780000024200000029009a
:103af80000b8b90000024200840178000200be004c
:103b0800c0828800d1828800607c80006103b80090
:103b180086007800000029000009b8006130b9006b
:103b280003027800000242000000290000b8b90032
:103b380000024200840178000200be00e082880092
:103b4800f1828800707c80006103b80086007800ec
:103b5800000029000009b8006130b90003027800ac
:103b6800000242000000290000b8b900000242002b
:103b7800840178000200be00008388001183880059
:103b8800807c80006103b80086007800000029006e
:103b98000009b8006130b900030278000002420051
:103ba8000000290000b8b900000242008401780032
:103bb8000200be002083880031838800907c80004a
:103bc8006103b80086007800000029000009b800e9
:103bd8006130b900030278000002420000002900a9
:103be80000b8b90000024200840178000200be005b
:103bf8004083880051838800a07c80000100200059
:103c08006083880071838800b17c800040062000b2
:103c18000088b90080838800c07c800020858800e7
:103c2800d07c800030858800e07c8000e0848800bb
:103c3800f17c8000400620000088b900c08388001d
:103c4800517c8000400620000088b9008000780080
:103c580000f421000100500001002000d0838800fa
:103c6800e1838800d0838000e18380004a09dd0079
:103c7800c600de00810071004a00dd00d0838800a4
:103c8800e1838800e2828000f3828000c0828000a5
:103c9800d1828000800f5100818f59000f003900b8
:103ca800808380000000e0000c003200e282800087
:103cb800f3828000c0828000d1828000000251001f
:103cc80081825900808380006101b8000400be0031
:103cd80097f20700f0838800020037000000eb002d
:103ce800f08388000283800013838000e0828000d4
:103cf800f1828000800f5100818f59000f00390038
:103d0800908380000000e0000c00320002838000f5
:103d180013838000e0828000f1828000000251005d
:103d280081825900908380006101b8000400be00c0
:103d38007ff2070000848800020037000000eb00d3
:103d48000084880022838000338380000083800001
:103d580011838000800f5100818f59000f003900b6
:103d6800a08380000000e0000c0032002283800065
:103d7800338380000083800011838000000251009b
:103d880081825900a08380006101b8000400be0050
:103d980067f2070010848800020037000000eb007b
:103da8001084880042838000538380002083800031
:103db80031838000800f5100818f59000f00390036
:103dc800b08380000000e0000c00320042838000d5
:103dd80053838000208380003183800000025100db
:103de80081825900b08380006101b8000400be00e0
:103df8004ff2070020848800020037000000eb0023
:103e080020848800007d8000808488008084800071
:103e18000000e00002003a00a00020008084880032
:103e2800107d800090848800908480000000e0006d
:103e380002003a00c012200090848800207d800093
:103e480040898800408980000000e00002003a00b4
:103e58002003200040898800307d8000a0848800ed
:103e6800a08480000000e00002003a00401f20000b
:103e7800a0848800407d8000b0848800b0848000e1
:103e88000000e00002003a00a0002000b084880092
:103e9800607d800061006000101798001e1090007f
:103ea800e10f500002003a0047efa8000100370078
:103eb80047efa900607d800062006000001798004d
:103ec8000e109000e20f500002003a00480fa800c0
:103ed80001003700480fa900607d80006400600081
:103ee800700f98007e089000e40f500002003a001e
:103ef800482fa80001003700482fa900607d8000e6
:103f080068006000700f98007e089000e80f50006d
:103f180002003a00484fa80001003700484fa900a6
:103f2800707d800061006000700f98007e0890002e
:103f3800e10f500002003a00460fa80001003700c8
:103f4800460fa900707d800062006000600f980035
:103f58006e089000e20f500002003a00462fa800b9
:103f680001003700462fa900707d800064006000c2
:103f7800500f98005e089000e40f500002003a00cd
:103f8800464fa80001003700464fa900707d800009
:103f980068006000400f98004e089000e80f50003d
:103fa80002003a00466fa80001003700466fa900da
:103fb800707d800070006000300f98003e0890000f
:103fc800f00f500002003a00468fa80001003700a9
:103fd800468fa900707d80008000780000022000d4
:103fe80000806000200f9800ae08900000022000ba
:103ff800808f500002003a0046cfa8000100370029
:1040080046cfa900707d8000800078000004200061
:1040180000806000100f98009e08900000042000a7
:10402800808f500002003a0046afa8000100370018
:1040380046afa900707d800080007800000820004d
:1040480000806000000f98008e0890000008200093
:10405800808f500002003a0046efa80001003700a8
:1040680046efa900707d80008000780000102000d5
:104078000080600070079800fe009000001020008b
:10408800808f500002003a00470fa8000100370057
:10409800470fa900707d8000800078000020200074
:1040a8000080600060079800ee009000002020006b
:1040b800808f500002003a00472fa8000100370007
:1040c800472fa900707d8000800078000040200004
:1040d8000080600050079800de009000004020003b
:1040e800808f500002003a00474fa80001003700b7
:1040f800474fa900707d8000800078000080200074
:104108000080600040079800ce00900000802000ea
:10411800808f500002003a00476fa8000100370066
:10412800476fa900707d80008000780000002100a2
:104138000080600030079800be0090000000210059
:10414800808f500002003a00478fa8000100370016
:10415800478fa900707d8000800078000000220051
:104168000080600020079800ae0090000000220048
:10417800808f500002003a0047afa80001003700c6
:1041880047afa900707d80008000780000002400ff
:1041980000806000100798009e0090000000240036
:1041a800808f500002003a0047cfa8000100370076
:1041b80047cfa900807d80006a00b900c0848800cc
:1041c800c08480000000e00002003a00600920007e
:1041d800c0848800907d8000d0848800d0848000ce
:1041e8000000e00002003a00a0002000d08488000f
:1041f800a07d8000f0848800f08480000000e0004a
:1042080002003a0040062000f0848800b07d80005b
:1042180000858800008580000000e00002003a0068
:104228004006200000858800c07d80001085880039
:10423800108580000000e00002003a0040062000df
:1042480010858800d07d800070858800e07d800022
:1042580080858800f07d800090858800007e800041
:10426800a0858800107e8000b0858800207e8000b0
:10427800c0858800d085800001002000a2002000b1
:104288000300200024f0070070818800d08580009a
:104298000100200052002000030020001ef007004b
:1042a80090818800f07f80006103b8008600780064
:1042b800d0052000000ab8006030b9000501780078
:1042c80000014100d005200000b8b90000014100fc
:1042d8008202780042062000030020000400be008d
:1042e8000df00700e0858800f07f80006103b800ca
:1042f8008600780020062000000ab8006030b90067
:1043080005017800000141002006200000b8b9002e
:1043180000014100820278004206200003002000cc
:104328000400be00fcef0700f0858800a07a80003a
:10433800a2002000110009000280d8000086880031
:10434800d0858000a2002000110009000280d8005a
:1043580020868800d1858000d08580000100b800c3
:10436800a0868800b1868800b185800000052000fd
:104378000100b800c0868800d1868800c886800001
:10438800d9868000a6868000b786800088007800dd
:1043980006007800000ab80007c0b90005017800d7
:1043a8000001410009b0b900000141008202780013
:1043b800c4868800d5868800c18580000005200055
:1043c8000100b800e0868800f1868800e886800051
:1043d800f9868000a6868000b7868000880078006d
:1043e80006007800000ab80007c0b9000501780087
:1043f8000001410009b0b9000001410082027800c3
:10440800e4868800f58688004f04be000080fa0024
:10441800000006000000fa00d2e2a800de02a800b0
:10442800de22a800e422a800e402a800d362a800c3
:104438000000eb00801688000000eb0040178800a1
:104448000000eb00b0168800e5c2a900e582a900cb
:10445800e5a2a900e5e2a900cc22a900cc42a90066
:10446800e4c2a900e4e2a900e502a900e522a90046
:10447800d262a900d242a900d222a900e9c2a900a9
:10448800e982a900d042a9000000eb0070a48800ce
:104498000000eb0080a488000000eb0090a48800d6
:1044a8000000eb0060ab88000080fa000000060006
:1044b8000000fa000000eb00200888000000eb0074
:1044c8000008880005a1a9000421a90041102000c6
:1044d80091407800f0ccb30000c0600004e1b70060
:1044e80005e1a80000f42100100888005109200007
:1044f80091407800f0c8b30000c0600001c5b30067
:104508000140700095e0b7008460a9008c60a800a5
:1045180042c0bf007f40600001c6b3000140700088
:1045280042e0b7000080fa00000006000000fa0030
:10453800d2c2a800d2a2a800d282a8000000eb0034
:10454800000688000000eb0010068800c1a0a80043
:10455800c1c0a800c1e0a8000000eb002006880048
:104568000000eb0030068800c5a0a900c5c0a9005e
:10457800c5e0a900b109200091407800f0c8b30057
:1045880000c0600001c5b300014070009be0b700a7
:1045980085e0a9008de0a8000080fa000000060070
:1045a8000600fa006000b80010079800210798007c
:1045b8000040eb00004f78000e0037001e80fb0023
:1045c80000004000e4004000801a21000080400004
:1045d800100078006101b8001e009000ae00900045
:1045e80000004100818049001007980021079800c9
:1045f8001e4fe80030c0b3009e4f1000efff36009a
:104608001e009000ae0090004e09dd004200de0062
:1046180000007100c208de000080fa0000000600f9
:104628000800fa00100798009e009000b0bd240012
:10463800808f5000040036009e009000c03f250087
:10464800808f5000090036004cd5bf000040e800bc
:104658004cf5b7004cd5bf00e24f500019003600aa
:104668000000eb0030079800180037000040eb000e
:104678004cf5b700caff0700000f78009e009000b5
:104688001e00780000805000200798002e0090003f
:104698000000e00003003d002e0090000000ea004a
:1046a800200798002e0090009e007800c208de00c7
:1046b800810f5000030036000000eb00300798001f
:1046c8000200370010002000300798003e009000dc
:1046d8000080fa00000006000000fa001fe1a900af
:1046e8000000eb00a0088800508d8000803eb000dc
:1046f800d00888001fe1a8000080fa00000006002a
:104708000000fa00907f8000640060000000e00074
:104718001c0032000000eb00c0088800217a8000ed
:1047280000002100008060000000e00003003a0063
:1047380030682000e008880002003700d0562000ca
:10474800e008880086c0a9008ec0a80021e1a80062
:104758001000200020ad880010c0b300a2f5b700fb
:1047680010002000b0a4880087a0a900e114200050
:104778009140780080cfb30000c060004ee1b700e0
:104788008fa0a9000080fa00000006000000fa00cf
:104798000000eb0040ad88000000eb00700a8800c4
:1047a8004ee1a900e114200091407800f0c9b3005f
:1047b80000c060004ee1b700e1142000914078008d
:1047c80080cfb30000c060003040b3004ee1b700b6
:1047d800210a20009140780000c7b30000c0700093
:1047e800a2e0b70087a0a9008fa0a8000080fa0067
:1047f800000006000000fa000000eb0080088800b6
:104808000000eb003008880011a1a90010c1a90020
:104818001021a9000111200091407800f0ccb300cc
:1048280000c060000044a00010e1b7001061a900ba
:1048380011e1a9000080eb006008880071092000e0
:104848009140780080cfb30000c060006040b300a2
:1048580097e0b70084c0a9008cc0a9000000eb0055
:10486800900888000000eb005008880013a1a900f8
:1048780012c1a9001221a90021112000914078003d
:10488800f0ccb30000c060000044a00012e1b70003
:1048980013e1a8000080eb0070088800710920006f
:1048a80091407800f0c8b30000c0600001c6b300b2
:1048b8000140700097e0b70084e0a9008ce0a900ef
:1048c8000000eb00f00888000000eb00a00888005a
:1048d80000e22400d00888001fa1a8001ec1a9007a
:1048e8001e21a900e111200091407800f0ccb3000e
:1048f80000c060000044a0001ee1b7001fe1a9004d
:104908001e61a900e109200091407800f0c8b300b9
:1049180000c0600001c6b300014070009ee0b7000f
:1049280086a0a9008ea0a8000000eb00000988005e
:104938000000eb00c008880021a1a80020c1a90040
:104948002021a9000112200091407800f0ccb3008a
:1049580000c060000044a00020e1b70021e1a900e8
:1049680060ae8000e0088800f109200091407800de
:1049780080cfb30000c060006040b3009fe0b70084
:1049880086c0a9008ec0a9000080fa0000000600b9
:104998003600f800809fbe00829fbe00849fbe0044
:1049a800869fbe003400f80000002000a0018800a7
:1049b8000000fa00f22fa80087a0a900e114200047
:1049c8009140780080cfb30000c060003040b30051
:1049d8004ee1b7000000eb0070aa8800600a800072
:1049e80030ab880031ab800060ad8000808f500014
:1049f8000500390030ab800061ad80000100500037
:104a080040ab88000500370031ab800060ad800006
:104a1800008050000000e90040ab880041ab8000f6
:104a2800c0bd2400808f50001400360041ab8000c8
:104a3800b03f2500808f500010003e00b4d1bf0069
:104a48000080fb0042ab800000004000e400400012
:104a5800801a21000080400002087800b4d1bf000d
:104a68000080fb000000e80042002000110009005f
:104a78000200d8008000fd00b4f1b700c8fe0700ae
:104a8800408d880040ab8000e5fe0700b5f1b70017
:104a9800b5d1bf000004e00005003200408d800061
:104aa800508d88000cff070010c0b30058f5b70000
:104ab80030ab800060ad8800b5d1bf000004e000d5
:104ac800010032000eff07000080fa003400f900f0
:104ad8004f03be004f02be004f01be004f00be0094
:104ae8003600f90000400600809fbe003400f80040
:104af80000002000a00188000000fa0020ad80001e
:104b0800e10f500015003a00d5c2bf0068406000b0
:104b18000004e00011003a00b5d1bf000004e00035
:104b28000e0032000000eb0020ad880021e1a90052
:104b380086c0a9008ec0a90087a0a9008fa0a800e0
:104b4800e11420009140780080cfb30000c06000dd
:104b58003040b3004ee1b7002000370020ad8000a0
:104b6800e10f500011003a00d5c2bf006840600054
:104b78000004e0000d003200b5d1bf000004e000e1
:104b88000a0032002000200020ad880087a0a9007c
:104b98008fa0a900e11420009140780080cfb300d5
:104ba80000c060004ee1b7000c00370020ad800067
:104bb800e10f500009003a00d5c2bf00684060000c
:104bc8000004e00005003a00b5d1bf000004e00091
:104bd80002003a002000200020ad880020ad8000af
:104be800e20f50001d003a000000eb00c0088800ea
:104bf800c0808000e008880059d5bf00e14f500010
:104c080006003a000040eb0059f5b700e1088000c3
:104c180080c12f0000804000e008880090ac800030
:104c280060ae880086c0a9008ec0a80021e1a80057
:104c3800217a800000102000008060000000e00061
:104c480003003a003000200020ad88004c003700f7
:104c5800b000200020ad88004900370020ad80005a
:104c6800e30f50000c003a004000200020ad8800ff
:104c78000000eb00c008880060ae8000e0088800f3
:104c880086c0a9008ec0a80021e1a800d662a800ad
:104c9800d642a8003a00370020ad8000e40f50004b
:104ca80013003a005000200020ad8800300020009a
:104cb80030ad88000000eb003008880031ae80007d
:104cc80060ae8000008050006008880084c0a900a1
:104cd8008cc0a80011e1a800d662a900d642a9009c
:104ce800d622a90086c0a9008ec0a90024003700da
:104cf80020ad8000eb0f50000c003a00c0002000ef
:104d080020ad88000000eb00c008880060ae80007d
:104d1800e008880086c0a9008ec0a80021e1a8008c
:104d2800d662a800d642a8001500370020ad800042
:104d3800ec0f500012003a00d000200020ad88008f
:104d48005001200030ad88000000eb0030088800da
:104d580031ae800060ae800000805000600888009e
:104d680084c0a9008cc0a80011e1a800d662a900df
:104d7800d642a900d622a90086c0a9008ec0a900e3
:104d88000080fa003400f9004f00be000040060021
:104d9800809fbe003400f80000002000a0018800b9
:104da8000000fa0084c0a90030ad8000e30f500075
:104db8000c003a004000200030ad88000000eb00f5
:104dc8003008880060ae80006008880084c0a900b0
:104dd8008cc0a80011e1a800d662a800d622a800bd
:104de8008f00370030ad8000e40f50000f003a000c
:104df8005000200030ad88000000eb00300888002b
:104e080031ae800060ae80000080500060088800ed
:104e180084c0a9008cc0a80011e1a800d662a9002e
:104e2800d642a900d622a9007d00370030ad800007
:104e3800e50f50000c003a006000200030ad8800fb
:104e48000000eb003008880060ae80006008880031
:104e580084c0a9008cc0a80011e1a800d642a8000f
:104e6800d622a8006e00370030ad8000e60f500053
:104e78000f003a007000200030ad88000000eb0001
:104e88003008880031ae800060ae8000008050009d
:104e98006008880084c0a9008cc0a80011e1a8009f
:104ea800d662a900d642a900d622a9005c00370024
:104eb80030ad8000e70f50000c003a008000200061
:104ec80030ad88000000eb003008880060ae80003c
:104ed8006008880084c0a9008cc0a80011e1a8005f
:104ee800d642a800d662a8004d00370030ad800039
:104ef800e80f50000f003a009000200030ad880005
:104f08000000eb003008880031ae800060ae800001
:104f1800008050006008880084c0a9008cc0a800e8
:104f280011e1a800d662a900d642a900d622a9009c
:104f38003b00370030ad8000e90f50000c003a000c
:104f4800a000200030ad88000000eb003008880089
:104f580060ae80006008880084c0a9008cc0a800ea
:104f680011e1a800d622a800d662a8002c003700bc
:104f780030ad8000ea0f50000f003a00b00020006a
:104f880030ad88000000eb003008880031ae8000aa
:104f980060ae8000008050006008880084c0a900ce
:104fa8008cc0a80011e1a800d662a900d642a900c9
:104fb800d622a9001a00370030ad8000eb0f500050
:104fc8000c003a00c000200030ad88000000eb0063
:104fd8003008880060ae80006008880084c0a9009e
:104fe8008cc0a80011e1a800d622a800d642a800cb
:104ff8000b00370030ad8000ec0f500008003a007d
:10500800d000200030ad8800d662a900d642a900a1
:10501800d622a90084c0a9008cc0a90011e1a9006a
:1050280030ad8000f50f50000c003a006001200000
:1050380030ad88000000eb003008880060ae8000ca
:105048006008880084c0a9008cc0a80011e1a800ed
:10505800d642a800d622a8008f00370030ad8000c5
:10506800f60f50000f003a007001200030ad8800a4
:105078000000eb003008880031ae800060ae800090
:10508800008050006008880084c0a9008cc0a80077
:1050980011e1a800d662a900d642a900d622a9002b
:1050a8007d00370030ad8000f70f50000c003a004b
:1050b8008001200030ad88000000eb003008880037
:1050c80060ae80006008880084c0a9008cc0a80079
:1050d80011e1a800d662a800d622a8006e00370009
:1050e80030ad8000f80f50000f003a00900120000a
:1050f80030ad88000000eb003008880031ae800039
:1051080060ae8000008050006008880084c0a9005c
:105118008cc0a80011e1a800d662a900d642a90057
:10512800d622a9005c00370030ad8000f90f50008e
:105138000c003a00a001200030ad88000000eb0010
:105148003008880060ae80006008880084c0a9002c
:105158008cc0a80011e1a800d642a800d662a80019
:105168004d00370030ad8000fa0f50000f003a00b4
:10517800b001200030ad88000000eb003008880046
:1051880031ae800060ae800000805000600888006a
:1051980084c0a9008cc0a80011e1a800d662a900ab
:1051a800d642a900d622a9003b00370030ad8000c6
:1051b800fb0f50000c003a00c001200030ad880001
:1051c8000000eb003008880060ae800060088800ae
:1051d80084c0a9008cc0a80011e1a800d622a800ac
:1051e800d642a8002c00370030ad8000fc0f5000dc
:1051f8000f003a00d001200030ad88000000eb001d
:105208003008880031ae800060ae80000080500019
:105218006008880084c0a9008cc0a80011e1a8001b
:10522800d662a900d642a900d622a9001a003700e2
:1052380030ad8000fd0f50000c003a00e001200066
:1052480030ad88000000eb003008880060ae8000b8
:105258006008880084c0a9008cc0a80011e1a800db
:10526800d622a800d662a8000b00370030ad800017
:10527800fe0f500008003a00f001200030ad880011
:10528800d662a900d642a900d622a90084c0a900e6
:105298008cc0a90011e1a9000080fa003400f900cf
:1052a8004f00be00004006003600f800809fbe0098
:1052b800829fbe00849fbe00869fbe003400f80017
:1052c80000002000a00188000000fa00508d800036
:1052d800d00888000040eb00b5f1b700b5d1bf0099
:1052e8000004e00001003a0005fd070058d5bf00a2
:1052f8000004e000080032000040eb0058f5b70059
:1053080010c0b30059f5b700518d800080c12f003f
:1053180000804000d00888000000eb00a00888004a
:1053280086a0a9008ea0a8001fe1a8000080fa00ae
:105338003400f9004f03be004f02be004f01be000b
:105348004f00be003600f90000400600809fbe00f6
:10535800821f78003400f80000002000a0018800b7
:105368000000fa0085e0a900d4c2bf000080fb005d
:105378004600de00e140600080aa800061406000d5
:1053880080cf50000d003200d4c2bf000080fb0067
:105398004600de00614060000080fb0061016000a3
:1053a80081aa8000e0ff2f000080600002007000ea
:1053b80080aa88000000eb0090aa8800d4c2bf0031
:1053c8000080fb004500de00e140600080aa80000c
:1053d8000000d1006140600080cf50000e00320014
:1053e800d4c2bf000080fb004500de0061406000c1
:1053f8000080fb00610060000001400081aa80007d
:10540800d0ff2f00008060000200700080aa880092
:105418000000eb00a0aa8800d4c2bf000080fb00f7
:105428004400de00e140600080aa80004200de0007
:105438006140600080cf50000e003200d4c2bf002f
:105448000080fb004400de00614060000080fb003b
:10545800610060004201dd0081aa8000b0ff2f00da
:10546800008060000200700080aa88000000eb0045
:10547800b0aa880060ab8000e30f500068003200db
:1054880060ab8000e40f500065003200707e800041
:10549800fb0f50006200360080aa800061006000a7
:1054a8000000e00006003a0040ad80000000e00087
:1054b80003003a001000200040ad88005800370073
:1054c80080aa8000610060000000e000080032004f
:1054d80040ad8000e10f500005003a002000200098
:1054e80040ad88005008800020ab88004c00370091
:1054f80080aa8000620060000000e00048003200de
:1055080040ad8000e20f500045003a000000eb007b
:1055180040ad88005008800010ab880011ab8000b7
:1055280020ab8000808f50000500360010ab800053
:1055380021ab80000100500000ab88000900370053
:1055480020ab8000800078000080eb000100500054
:1055580000ab880001ab800010ab800000804000e9
:1055680000ab880001ab800070322200808f5000b1
:1055780016003e00d0aa80000000e800d0aa8800eb
:105588000000eb00e0aa88000000eb00f0aa880009
:10559800d0aa8000e60f500021003600f34fa90082
:1055a8005000200040ad88000000eb00d0aa880021
:1055b800217a800000202000008060000000e000c8
:1055c80017003200450fa90015003700e0aa800037
:1055d8000000e800e0aa88000000eb00d0aa8800dc
:1055e8000000eb00f0aa8800e0aa8000e60f500057
:1055f8000b003600f34fa8005000200040ad880093
:105608000000eb00e0aa8800217a8000002020003a
:10561800008060000000e00001003200450fa80093
:105628000080fa003400f9004f0178004f00be00f6
:10563800004006000000fa0040ae80000000e000d4
:1056480006003a00d4c2bf000044b2000004e000e3
:1056580002003a001000200040ae880040ae8000f2
:10566800e10f500008003a00d4c2bf000044b20065
:105678000004e000040032002000200040ae880052
:1056880050088000d0a9880040ae8000e20f50008a
:1056980006003a00d5c2bf00684060000004e00080
:1056a80002003a003000200040ae880040ae800082
:1056b800e30f50001a003a00d5c2bf0068406000ee
:1056c8000004e0001600320050088000c0a98800dd
:1056d800c1a98000d0a98000808f50000500360045
:1056e800c0a98000d1a9800001005000c0a788008f
:1056f80009003700d0a98000800078000080eb0006
:1057080001005000c0a78800c1a78000c0a9800080
:1057180000804000c0a788004000200040ae8800fc
:1057280040ae8000e40f50001b003a00a1828000c8
:10573800c0a78000808f5000110031009182800046
:10574800c0a78000808f50000d003600e0a98000bf
:105758000000e800e0a98800e0a98000e30f5000fd
:10576800040036000000eb00b0a788000000eb0042
:10577800e0a988000000eb0040ae88000600370072
:105788000000eb00e0a9880010002000b0a7880006
:105798000000eb0040ae88000080fa000000060020
:1057a8000000fa00907f8000620060000000e000c6
:1057b8001a003200600a800070a9880071a9800070
:1057c80080a98000808f50000500360070a98000f5
:1057d80081a980000100500060a9880009003700f5
:1057e80080a98000800078000080eb000100500054
:1057f80060a9880061a9800070a98000008040002d
:1058080060a9880070a9800080a988000000eb00ca
:1058180010a88800f22fa9000300370010a8800004
:105828000000e80010a8880061a9800000e82300b3
:10583800808f50000a00360061a98000f05e2500c4
:10584800808f500006003e000000eb00f0a78800a3
:1058580000a880000000e80000a8880005003700c4
:10586800f0a780000000e800f0a788000000eb0027
:1058780000a8880000a88000e30f5000010036004f
:10588800f32fa800f0a78000e30f500001003600b6
:10589800f32fa90060a980000000e000100032008a
:1058a80061a9800000e82300808f50000c003600ba
:1058b80061a98000701a2600808f500008003e0001
:1058c80062a980000068290081092000811f7800f2
:1058d800110009004288d800cf007800307f880086
:1058e80060a9800062002000110009000280d80031
:1058f800d0a78800d1a78000c0a82000808f5000c2
:105908000b003600d1a7800070d42000808f500093
:1059180007003e00207a8000620060000000e0007e
:1059280003003200d0a7800030ae88000a0037009c
:10593800207a800001002100010060000000e000e2
:1059480003003a0050d0200030ae88000200370033
:1059580090ad200030ae88000080fa0000000600fc
:105968000000fa00f0ac8000e30f50002b003a0072
:10597800307a800001002100010060000000e00092
:1059880026003200a17e8000a07e80000100b800c1
:105998008086880091868800408780005187800033
:1059a800e00f5000e08f58000e003500408780005f
:1059b800518780000001be008086800091868000ab
:1059c8000201400083814800a0868000b1868000e3
:1059d8000000510081805900408788005187880065
:1059e800030037006000b8004087880051878800ae
:1059f8004087800051878000c2868000d38680005f
:105a0800820f5000838f580004003400422fa800f2
:105a18006000b8004087880051878800f0ac80009b
:105a2800e40f50002b003a00307a80000100220079
:105a3800010060000000e00026003200a17e800026
:105a4800a07e80000100b8008086880091868800ca
:105a58006087800071878000e00f5000e08f580059
