:020000040000fa
:080000000001040000000000f3
:020000040000fa
:10020000cf5c2100007f2100000188000000000079
:100210000c000700c0442500010020001100070069
:10022000000020000000e000020032000000020098
:1002300000000000c0520200000000000040da0090
:100240000000fe004440a900000020000000e00083
:100250000300320000002000a00188004440a800f4
:100260000000060091018800800078000000eb008b
:1002700015003700e280400032a0b4009101ba00be
:10028000e280400032a0b4009102ba00e280400057
:1002900032a0b4000002eb00472bde00f507b200ed
:1002a000602ce10004003a000059eb008301e900f2
:1002b000fdff3e00040037006128e100010032002c
:1002c0000082eb00040007001101ba000200e00008
:1002d000e8ff3a00000006003159ba008301e90046
:1002e0000c0032002159ba008301e90008003200f5
:1002f0000400e00003003a00e280400032a0b400b5
:10030000f5ff370011d9ba008301e900faff3a007e
:100310008100e800e180400032a0b4000000060047
:10032000839f68000100e00002003d0060001000b3
:10033000e08018000300e00002003d0060011100b1
:10034000e0811900fc0007004f00e00002003b00c4
:1003500060001000e080180000000600889fbe00ca
:100360008a9fbe00010578000100e000040035000e
:1003700008003c000000e0002000320005003700cb
:1003800060001000e080180002003b0001f02c002b
:100390001a0037000004be006011b8006b0920008d
:1003a0000982cf00020039000882cf000441b0006a
:1003b000694252000e00320008003b008281710049
:1003c000610164008904d1000884d3008b05e80032
:1003d0000442e800f9ff3a00050037000804440031
:1003e00089844c008b05e9000442e900fbff3a00d8
:1003f0005a0107000af0a70001f0a0004f05be0057
:100400004f04be0000000600889fbe008a9fbe0009
:100410008c1f78000004be00760107000478a3005a
:1004200026003a006120e1002500320009f8a3000f
:1004300025003a006420e10021003200f507b100f8
:100440000508a3000200320000004000818048003f
:100450006044b800031020000200200000004000ab
:10046000818048000805440089854c000a05410048
:100470008b8549000a0550008b8558000300330026
:100480000a00be0002047400838474008301d1005a
:100490000281d300830f7100f0ff3a008904d1007c
:1004a0000884d3006001490082017800c1adde00fc
:1004b000fb07b000290107006c0137000960a000ac
:1004c0000800be00690137001202200052ae880009
:1004d000f0ff2f00f1ff2700640137000001be008c
:1004e000440107000470a70003f0a1006509b100f2
:1004f000160032000d0035006828e10006003500c6
:10050000f0ff2f00f1ff27000300e00013003b0085
:100510000100280000000500000040008180480024
:100520008502e900fcff3a0008003700f88f42001e
:1005300002003c008000eb00000005008100d100bb
:100540000080d3008502e800fcff3a000300e000d1
:1005500002003b0060001000e08018000000060070
:10056000889fbe008a9fbe008c1f7800460107004e
:100570003501330003866c006450e1002e00320028
:100580006420e100330032006150e1002f003200ae
:100590006120e1003100320085855500eb07b00095
:1005a000090020000804200005003700080444006a
:1005b00089844c000a0031000603430087834b0006
:1005c0000001530081815b00f8ff33000203be008d
:1005d0000800a0000804440089844c00f6ff39009c
:1005e000c639dd00830173000100320013002000d2
:1005f0008904d1000884d3000998a30005003200c3
:100600000800a7000300a0008904d1000884d300db
:100610008b05e8008904d1000884d3000001eb00b9
:100620000281d200cd00070001f0a1000cf0a7006c
:1006300001f0a0000d0137006420e1000f0132003d
:100640000801be000200be00f7ff37006120e10094
:100650000a0132006000b800f3ff370000002000fc
:1006600001f82700f0ff3700889fbe008a9fbe0078
:100670008c1f780004010700f300330003866c0030
:100680006450e100240032006420e10027003200c1
:100690006150e100220032006120e10021003200bf
:1006a0008b854200eb07b1000134b800003ab80076
:1006b0000804420089844a00013ab8000030b800ba
:1006c0008880400009014a00040033000000400017
:1006d00081804800020149008b05e900c909dd005d
:1006e000830170000100320013002000c814de00f6
:1006f0004814dd004709de001200b200c808de0021
:10070000088470009500070001f0a1000cf0a7001c
:1007100001f0a000d50037006120e100d7003200d1
:100720000801be000200be00f7ff37006150e10083
:10073000fcff3a00d10037006022b800060220001a
:100740000000d0008180d2000482d2008582d200d5
:100750000000a0000202520083825a000300310010
:100760000202420083824a000000a1000603e90061
:10077000f3ff3a000000060003f0a200889fbe00cd
:100780008a9fbe008c1f7800bf000700ae003300b8
:100790006450e1004f0032006420e100520032005a
:1007a00003826c0007003b000905d0000306d0005f
:1007b000820f54000c065d00020039000200320076
:1007c00089017800030678008582550004003d0009
:1007d0000003fd008103fd008502ea008b854200d5
:1007e000840f720002003b0060001000e0801800df
:1007f0006011b8000005eb007a28e1000a0039001a
:1008000006007800c75ddd00f707b200878075003d
:100810002d003700828171000a01780061056000b7
:100820008180d1000080d3008502e900f9ff3b0000
:10083000060440008784480002003b006004140066
:10084000e0841c000988a300070032008a8171003f
:1008500082817100610164008904d1000884d300a1
:100860008b05e800170037000978a30013003a0051
:100870000b00e000130034008b05e900080444007d
:1008800089844c000a4474000978a3000d003a00e2
:100890000b00e000070034008b05e9000804440069
:1008a00089844c0001003a000b0020000978a30065
:1008b000f7ff32000001eb00020037008281710077
:1008c0000a017800250007000cf0a70001f0a00045
:1008d000660037006420e10002003a00838f6c005c
:1008e000660033000801be000200be005f00370052
:1008f0000001be003f0007000470a70003f0a10044
:1009000003f8a30013003a006509b100100032009b
:10091000090035006928e1000200350001002800c7
:100920000000050000004000818048008502e900c9
:10093000fcff3a0000000600f88f42000500350079
:100940008100d1000080d3008502e800fcff3a005e
:10095000000006008000eb00000005008100200080
:10096000618055000b003d000b00200061fe2f0050
:100970000100e1001d00340082817100610164000a
:100980008904d1000884d3000000e800faff3a008f
:10099000710020006100640003007000020060002c
:1009a0000900320061044400e0844c000988a5007d
:1009b000050032008b05e8006808e10002003a00fb
:1009c0008904d1000884d300f20f20000258e1000e
:1009d00005003d00c75ddd00f907b20089807500a4
:1009e00008007800000006000bf827008b00780054
:1009f00000000500c70ade00f107b200f50fb200e3
:100a000008003200e1cf4200020032000170a00075
:100a100024000500810f7000010032000408050069
:100a200044000500810f700002003a001400050028
:100a30008502e9000000400081c04800fcff3b0047
:100a40000170a000240005000200be006450e10017
:100a5000050036006420e100020036000968a300aa
:100a600001003a000800be000160a0004f067800b7
:100a70004f05be004f04be0000000600f0ff2f002f
:100a8000f1ff2700f9ff37000004be00d9ff07007f
:100a90000003be000405be000200be00d5ff070033
:080aa000844f75000000060000
:020000040000fa
:0200000401f009
:04000000f6ff000007
:020000040000fa
:0200000401f009
:04000400ff7f00007a
:020000040000fa
:0200000401f009
:04000c00ffff0000f2
:020000040000fa
:0200000401f009
:04001000ffff0000ee
:020000040000fa
:0200000401f009
:04001400ffff0000ea
:020000040000fa
:100008004a5500004a5500004a5500004a5500006c
:100018004a5500004a5500004a5500004a5500005c
:100028004a5500004a5500004a550000e43d0000ca
:100038004a5500004a550000b62600004a550000ff
:100048004a5500001c500000c651000086490000b7
:100058004a5500004a5500004a55000094290000fe
:100068004a5500004a5500004a5500004a5500000c
:100078004a55000042290000622500004a55000048
:10008800de1500001e1700004a5500004a55000002
:100098004a550000b62400004a5500004a550000a1
:1000a8004a5500004a5500004a5500004a550000cc
:1000b8004a5500004a5500004a5500004a550000bc
:1000c8004a5500004a5500004a5500004a550000ac
:1000d8004a5500004a5500004a5500004a5500009c
:1000e8004a5500004a5500004a5500004a5500008c
:0800f8004a5500004a550000c2
:020000040000fa
:100108004a5500004a5500004a5500004a5500006b
:100118004a5500004a5500004a5500004a5500005b
:100128004a5500004a5500004a550000e43d0000c9
:100138004a5500004a550000b62600004a550000fe
:100148004a5500001c500000c651000086490000b6
:100158004a5500004a5500004a55000094290000fd
:100168004a5500004a5500004a5500004a5500000b
:100178004a55000042290000622500004a55000047
:10018800de1500001e1700004a5500004a55000001
:100198004a550000b62400004a5500004a550000a0
:1001a8004a5500004a5500004a5500004a550000cb
:1001b8004a5500004a5500004a5500004a550000bb
:1001c8004a5500004a5500004a5500004a550000ab
:1001d8004a5500004a5500004a5500004a5500009b
:1001e8004a5500004a5500004a5500004a5500008b
:0801f8004a5500004a550000c1
:020000040000fa
:100aa8000000fa00f08d8000610060000000e000a6
:100ab80008003200409680000000e8004096880058
:100ac80040968000ea0f5000020036000000eb005c
:100ad800008e880018c2bf00684060000004e00073
:100ae80008003a0018c2bf00624060000004e0003d
:100af80004003a0018c2bf00644060000004e0002f
:100b080001003200030807000080fa000000060018
:100b18000000fa00e09a80000000e800e09a8800ef
:100b2800e19a8000401f2000808f500005003600a9
:100b3800f80707000000eb00008e8800be11a9002e
:100b4800bfb1a800f08d8000620060000000e000e6
:100b58000400320002090700be31a9000000eb00c2
:100b6800e09a8800f08d8000680060000000e000d6
:100b780004003200a600070061000700a30907006f
:100b8800be71a900f08d80000120200001006000e6
:100b98000000e00004003200d800070069000700e8
:100ba8009a090700bf31a900209b800061006000fe
:100bb8000000e000040032000b010700720007008b
:100bc800920907006413a900209b80007000600050
:100bd8000000e00004003200440107007b00070029
:100be8008a0907006493a900f08d800070006000f6
:100bf8000000e000040032007d010700be91a9005a
:100c08000000eb00e09a8800f08d80000140200091
:100c1800010060000000e00004003200c901070084
:100c2800bf51a9000000eb00e09a8800209b8000db
:100c3800620060000000e0000400320017020700b4
:100c48006433a9000000eb00e09a8800209b800034
:100c580001022000010060000000e00004003200f2
:100c68006502070064b3a9000000eb00e09a880061
:100c7800f08d800001022000010060000000e0000b
:100c880004003200b3020700beb1a9000000eb0067
:100c9800e09a8800f08d800001802000010060004b
:100ca8000000e0000400320037030700bf71a9000c
:100cb8000000eb00e09a8800f08d8000010022001f
:100cc800010060000000e000040032003505070064
:100cd800bfb1a9000000eb00e09a8800f08d800009
:100ce80001042000010060000000e0000200320062
:100cf80047070700bed1a9000080fa0000000600df
:100d08000000fa00a00a2000709688000002200067
:100d18008096880030082000909688000000eb003c
:100d2800b0968800b00b2000b09a88000000eb0055
:100d380060968800e00f2000d01088000080fa003c
:100d4800000006000000fa00a00a20007096880043
:100d580000022000809688003007200090968800c6
:100d68000000eb00b0968800b00b2000b09a880015
:100d78000000eb0060968800e00f2000d01088008b
:100d88000080fa00000006000000fa00a00a200017
:100d980070968800000220008096880030062000a7
:100da800909688000000eb00b0968800b00b2000f9
:100db800b09a88000000eb0060968800e00f2000e1
:100dc800d01088000080fa00000006000000fa0039
:100dd800a00a2000709688000002200080968800f3
:100de80030052000909688000000eb00b09688003f
:100df800b00b2000b09a88000000eb0060968800d5
:100e0800e00f2000d01088000080fa0000000600e3
:100e18000600fa000000eb0020079800900280000e
:100e280010079800ff3ffc00210420009140780043
:100e380000ceb30000c0700042e0b7001e00900072
:100e4800900288008d60a9000000eb002007980040
:100e58001a0037002e009000000040008000780043
:100e680000c02f0000804000f0798800f0798000f1
:100e780080007800f0072000120020003a260700c2
:100e8800f079800000017800f00720000002780067
:100e98002e0090000000400080007800002521000e
:100ea80000804000130020008400780052260700cc
:100eb8002e0090000000e800200798002e00900007
:100ec800ed0f5000e3ff360090028000000f78001d
:100ed800ff3ffc0042c0bf007f40600001c6b30076
:100ee8000140700042e0b7001e00780090028800c0
:100ef8008d60a8000080fa00000006000600fa00d5
:100f08000000eb002007980090028000100798006e
:100f1800ff3ffc00210420009140780000ceb30080
:100f280000c0700042e0b7001e00900090028800e8
:100f38008d60a9000000eb00200798001a00370018
:100f48002e009000000040008000780000c02f00b4
:100f580000804000f0798800f079800080007800f7
:100f6800f007200012002000ff250700f07980001c
:100f780000017800f0072000000278002e009000a1
:100f8800000040008000780000252100008040001b
:100f98001300200084007800172607002e00900018
:100fa8000000e800200798002e009000fd0f500078
:100fb800e3ff360090028000000f7800ff3ffc003e
:100fc80042c0bf007f40600001c6b300014070000e
:100fd80042e0b7001e007800900288008d60a800eb
:100fe8000080fa00000006000800fa000000eb008c
:100ff800300798000000eb0020079800900280005e
:1010080010079800ff3ffc00210420009140780061
:1010180000ceb30000c0700042e0b7001e00900090
:10102800900288008d60a900000220003007980017
:101038001d0037003e00900000004000800078004e
:1010480000c02f0000804000f0798800f07980000f
:1010580080007800f007200012002000c225070059
:10106800f079800000017800f00720000002780085
:101078002e0090000000400080007800002521002c
:10108800008040001300200084007800da25070063
:101098002e0090000000e800200798003e00900015
:1010a8000000e80030079800be009000d003200040
:1010b800808f5000dfff360090028000000f78001c
:1010c800ff3ffc0042c0bf007f40600001c6b30084
:1010d8000140700042e0b7001e00780090028800ce
:1010e8008d60a8000080fa00000006000800fa00e1
:1010f8000000eb00300798000000eb002007980084
:101108009002800010079800ff3ffc002104200097
:101118009140780000ceb30000c0700042e0b700f4
:101128001e009000900288008d60a900e003200056
:10113800300798001d0037003e0090000000400076
:101148008000780000c02f0000804000f0798800ff
:10115800f079800080007800f0072000120020005d
:1011680081250700f079800000017800f007200051
:10117800000278002e0090000000400080007800f7
:101188000025210000804000130020008400780022
:10119800992507002e0090000000e800200798001d
:1011a8003e0090000000e80030079800be00900064
:1011b800b0052000808f5000dfff360090028000cd
:1011c800000f7800ff3ffc0042c0bf007f40600076
:1011d80001c6b3000140700042e0b7001e0078006d
:1011e800900288008d60a8000080fa0000000600c8
:1011f8000400fa000000eb00100798000000eb0064
:10120800000f7800a00a20007096880000012000d6
:10121800809688002008200090968800c001200051
:10122800b09688000000eb00100798001400370003
:101238001e009000000040008000780000c02f00d1
:1012480000804000f07988001e00900000004000f7
:1012580080007800a0f420000080400000017800a1
:10126800f079800080007800f0072000130020004b
:10127800302507001e0090000000e80010079800c5
:101288001e009000ef0f5000e9ff36000000eb0051
:1012980010079800200037001e0190001e007800fb
:1012a80080004000a0f4200000804000100078007a
:1012b800c801de0002004100e111200080804000ea
:1012c800001c210000804000030878001e009000e8
:1012d8000000e800100798001e0190001e0078002a
:1012e80080004000a0f420000080400090017800b9
:1012f80002004100e111200080804000001c210014
:1013080000804000030878001e0090000000e800fc
:10131800100798001e0fe8001e009000ff0f5000f5
:10132800ddff3600b00b2000b09a88000000eb000b
:1013380060968800e00f2000d01088000080fa0036
:10134800000006000400fa000000eb0010079800f7
:101358000000eb00000f7800a00a200070968800bb
:1013680000012000809688002007200090968800c1
:10137800c0032000b09688000000eb00100798001a
:10138800140037001e009000000040008000780024
:1013980000c02f0000804000f07988001e009000f7
:1013a8000000400080007800a0f420000080400089
:1013b80000017800f079800080007800f0072000b4
:1013c80013002000db2407001e0090000000e80046
:1013d800100798001e009000ff0f5000e9ff36002c
:1013e8000000eb0010079800200037001e01900055
:1013f8001e00780080004000a0f42000008040001b
:1014080010007800c801de0002004100e111200050
:1014180080804000001c2100008040000308780004
:101428001e0090000000e800100798001e019000c0
:101438001e00780080004000a0f4200000804000da
:101448009001780002004100e111200080804000f6
:10145800001c210000804000030878001e00900056
:101468000000e800100798001e0fe8009e0090009a
:10147800f0032000808f5000dcff3600b00b200006
:10148800b09a88000000eb0060968800e00f20000a
:10149800d01088000080fa00000006000400fa005e
:1014a8000000eb001007980000022000000f7800f1
:1014b800a00a20007096880000012000809688000d
:1014c8002006200090968800c0032000b09688006f
:1014d8000002200010079800140037001e0090003a
:1014e800000040008000780000c02f00008040000d
:1014f800f07988001e00900000004000800078000d
:10150800a0f420000080400000017800f0798000fd
:1015180080007800f00720001300200085240700d1
:101528001e0090000000e800100798009e00900040
:10153800d0032000808f5000e8ff36000000eb0049
:1015480010079800200037001e0190001e00780048
:1015580080004000a0f420000080400010007800c7
:10156800c801de0002004100e11120008080400037
:10157800001c210000804000030878001e00900035
:101588000000e800100798001e0190001e00780077
:1015980080004000a0f42000008040009001780006
:1015a80002004100e111200080804000001c210061
:1015b80000804000030878001e0090000000e8004a
:1015c800100798001e0fe8009e009000b00320004e
:1015d800808f5000dcff3600b00b2000b09a8800e6
:1015e8000000eb0060968800e00f2000d010880013
:1015f8000080fa00000006000400fa000000eb007a
:101608001007980000022000000f7800a00a2000b0
:101618007096880000012000809688002005200030
:1016280090968800c0032000b0968800e003200050
:1016380010079800140037001e00900000004000ba
:101648008000780000c02f0000804000f0798800fa
:101658001e0090000000400080007800a0f42000e8
:101668000080400000017800f07980008000780058
:10167800f0072000130020002e2407001e00900011
:101688000000e800100798009e009000b0052000b8
:10169800808f5000e8ff36000000eb00100798002c
:1016a800200037001e0190001e00780080004000d6
:1016b800a0f420000080400010007800c801de007f
:1016c80002004100e111200080804000001c210040
:1016d80000804000030878001e0090000000e80029
:1016e800100798001e0190001e007800800040003e
:1016f800a0f4200000804000900178000200410022
:10170800e111200080804000001c21000080400082
:10171800030878001e0090000000e80010079800f9
:101728001e0fe8009e009000b0032000808f50003c
:10173800dcff3600b00b2000b09a88000000eb00f8
:1017480060968800e00f2000d01088000080fa0022
:10175800000006000000fa00a00a20007096880029
:1017680000012000809688001008200090968800cc
:1017780060012000b096880020ab8000e30f500085
:101788000300320020ab8000e40f500010003a0044
:10179800e04080004800de00f0968800e0408000cd
:1017a80000978800f04080004800de00109788000d
:1017b800f040800020978800f08b80004800de0011
:1017c80030978800f08b8000409788000c00370025
:1017d8000000eb00f09688000000eb0000978800fe
:1017e8000000eb00109788000000eb0020978800ad
:1017f8000000eb00309788000000eb00409788005d
:10180800707e80004800de0050978800707e80005f
:1018180060978800807e80004800de00709788000e
:10182800807e800080978800907e80004800de00df
:1018380090978800907e8000a0978800d07f8000d5
:101848004800de00b0978800d07f8000c0978800ed
:1018580020ab80004800de00d097880020ab8000d5
:10186800e0978800e09780000000e00009003a0057
:101878000000eb00e0978800017a8000a0aa2a0007
:10188800808f500029003a0040002000e09788002f
:1018980026003700e0978000e10f500009003a0069
:1018a80010002000e0978800017a8000a0aa2a0092
:1018b800808f50001d003a0040002000e09788000b
:1018c8001a003700e0978000e20f500003003a004a
:1018d80020002000e097880014003700e09780007f
:1018e800e30f500003003a0020002000e097880032
:1018f8000e003700e0978000e40f500003003a0024
:1019080030002000e097880008003700e09780004a
:10191800e50f500003003a0050002000e0978800cf
:10192800020037000000eb00e0978800e07e8000ae
:101938004800de00f0978800e07e8000009888006c
:10194800107a80004800de0010988800107a800025
:1019580020988800d07f80004800de0030988800fa
:10196800d07f800040988800b00b2000b09a880093
:101978000000eb0060968800e00f2000d01088007f
:101988000080fa00000006000000fa00a00a20000b
:1019980070968800000120008096880010072000bb
:1019a80090968800a0022000b096880020ab8000a6
:1019b800e30f50000300320020ab8000e40f50001a
:1019c80010003a00e04080004800de00f0968800f1
:1019d800e040800000978800f04080004800de006a
:1019e80010978800f0408000209788000041800010
:1019f8004800de003097880000418000409788004a
:101a08000c0037000000eb00f09688000000eb00a7
:101a1800009788000000eb00109788000000eb009a
:101a2800209788000000eb00309788000000eb004a
:101a380040978800707e80004800de00509788003c
:101a4800707e800060978800412d200091407800ca
:101a580000c8b30000c060000004e00004003a00c1
:101a6800009b80000000a000009b88000400370055
:101a7800009b8000e1ff2f0001006000009b8800b0
:101a8800e0c2bf00614060000004e00004003a00ca
:101a9800009b80000010a000009b88000400370015
:101aa800009b8000d1ff2f0001006000009b880090
:101ab800e0c2bf00624060000004e00004003a0099
:101ac800009b80000020a000009b880004003700d5
:101ad800009b8000b1ff2f0001006000009b880080
:101ae800e6c2bf00624060000004e00004003a0063
:101af800009b80000030a000009b88000400370095
:101b0800009b800071ff2f0001006000009b88008f
:101b1800e6c2bf00614060000004e00004003a0033
:101b2800009b80000040a000009b88000400370054
:101b3800009b8000f1fe2f0001006000009b8800e0
:101b4800cfc2bf000042b2000004e00005003a0026
:101b5800009b80000102200001007000009b8800ab
:101b680004003700009b8000f1fd2f000100600099
:101b7800009b8800cfc2bf000044b2000004e00010
:101b880005003a00009b800001042000010070005d
:101b9800009b880004003700009b8000f1fb2f00a9
:101ba80001006000009b8800c8c2bf00644060005c
:101bb8000004e00005003a00009b800001082000b6
:101bc80001007000009b880004003700009b800023
:101bd800f1f72f0001006000009b8800c8c2bf0019
:101be800684060000004e00005003a00009b8000a7
:101bf8000110200001007000009b880004003700dd
:101c0800009b8000f1ef2f0001006000009b88001e
:101c1800c8c2bf00704060000004e00005003a0040
:101c2800009b80000120200001007000009b8800bc
:101c380004003700009b8000f1df2f0001006000e6
:101c4800009b8800207a80000110200001006000bd
:101c58000000e00005003200009b80000100280021
:101c680001007000009b880004003700009b800082
:101c7800f1ff270001006000009b8800e9c2bf0057
:101c88000044b2000004e00004003200109b800011
:101c98000000a000109b880004003700109b800003
:101ca800e1ff2f0001006000109b8800e9c2bf001f
:101cb800704060000004e00004003200109b8000c7
:101cc8000010a000109b880004003700109b8000c3
:101cd800d1ff2f0001006000109b8800e9c2bf00ff
:101ce8000042b2000004e00004003200109b8000b3
:101cf8000020a000109b880004003700109b800083
:101d0800b1ff2f0001006000109b8800e9c2bf00ee
:101d180001c8b300014060000004e0000400320084
:101d2800109b80000030a000109b88000400370042
:101d3800109b800071ff2f0001006000109b88003d
:101d4800d0c2bf00624060000004e000040032001e
:101d5800109b80000040a000109b88000400370002
:101d6800109b8000f1fe2f0001006000109b88008e
:101d7800d0c2bf00644060000004e00005003200eb
:101d8800109b80000102200001007000109b880059
:101d980004003700109b8000f1fd2f000100600057
:101da800109b8800e8c2bf0001c8b3000140600072
:101db8000004e00005003200109b800001042000b0
:101dc80001007000109b880004003700109b800001
:101dd800f1fb2f0001006000109b8800e9c2bf00e2
:101de800614060000004e00005003200109b8000a4
:101df8000108200001007000109b880004003700d3
:101e0800109b8000f1f72f0001006000109b8800f4
:101e1800e9c2bf00624060000004e0000500320033
:101e2800109b80000110200001007000109b8800aa
:101e380004003700109b8000f1ef2f0001006000c4
:101e4800109b8800e8c2bf000044b2000004e00014
:101e580005003200109b8000012020000100700066
:101e6800109b880004003700109b8000f1df2f00d2
:101e780001006000109b8800009b80004800de0085
:101e880070978800009b800080978800109b8000d6
:101e98004800de0090978800109b8000a09788007b
:101ea800308680004800de00b097880030868000c9
:101eb800c097880020ab80004800de00d0978800db
:101ec80020ab8000e0978800e09780000000e000e9
:101ed80009003a000000eb00e0978800017a8000d2
:101ee800a0aa2a00808f500029003a004000200054
:101ef800e097880026003700e0978000e10f500047
:101f080009003a0010002000e0978800017a80005c
:101f1800a0aa2a00808f50001d003a00400020002f
:101f2800e09788001a003700e0978000e20f500021
:101f380003003a0020002000e097880014003700d2
:101f4800e0978000e30f500003003a0020002000d3
:101f5800e09788000e003700e0978000e40f5000fb
:101f680003003a0030002000e0978800080037009e
:101f7800e0978000e50f500003003a005000200071
:101f8800e0978800020037000000eb00e097880027
:101f9800e07e80004800de00f0978800e07e800048
:101fa80000988800107a80004800de0010988800a9
:101fb800107a800020988800d07f80004800de00da
:101fc80030988800d07f800040988800307f80005b
:101fd8004800de0050988800307f800060988800b4
:101fe8007000200070988800c07d200080988800cc
:101ff80090a780004800de009098880090a7800095
:10200800a098880080a78000e10f500004003a00e3
:10201800f09a80000000a000f09a880004003700c1
:10202800f09a8000e1ff2f0001006000f09a88001c
:1020380090a48000640060000000e000040032000a
:10204800f09a80000010a000f09a88000400370081
:10205800f09a8000d1ff2f0001006000f09a8800fc
:1020680010a98000e10f500004003a00f09a8000a7
:102078000020a000f09a880004003700f09a800041
:10208800b1ff2f0001006000f09a8800e17e800017
:1020980010868000808f500004003900207a80006c
:1020a800700060000000e00004003a00f09a800030
:1020b8000030a000f09a880004003700f09a8000f1
:1020c80071ff2f0001006000f09a8800f09a8000ec
:1020d8004800de00b0988800f09a8000c098880018
:1020e800217a800000002200008060000000e000eb
:1020f80006003a00f0ad80004800de00d098880065
:10210800f0ad8000e098880005003700d07e8000a0
:102118004800de00d0988800d07e8000e0988800d3
:10212800c08080004800de00f0988800c0808000f1
:1021380000998800b0ac80004800de001099880043
:10214800b0ac800020998800308b80004880de0089
:1021580030998800308b800040998800807e80000c
:102168004800de0050998800807e800060998800d1
:10217800907e80004800de0070998800907e800084
:1021880080998800b00b2000b09a88000000eb000e
:1021980060968800e00f2000d01088000080fa00c8
:1021a800000006000000fa00a00a200070968800cf
:1021b8000001200080968800500720009096880033
:1021c800c0032000b096880020ab8000e30f5000c9
:1021d8000300320020ab8000e40f500010003a00ea
:1021e800e04080004800de00f0968800e040800073
:1021f80000978800f04080004800de0010978800b3
:10220800f040800020978800004180004800de00f0
:102218003097880000418000409788000c00370004
:102228000000eb00f09688000000eb0000978800a3
:102238000000eb00109788000000eb002097880052
:102248000000eb00309788000000eb004097880002
:10225800707e80004800de0050978800707e800005
:1022680060978800412d20009140780000c8b30095
:1022780000c060000004e00004003a00009b8000f9
:102288000000a000009b880004003700009b80002d
:10229800e1ff2f0001006000009b8800e0c2bf0042
:1022a800614060000004e00004003a00009b8000e8
:1022b8000010a000009b880004003700009b8000ed
:1022c800d1ff2f0001006000009b8800e0c2bf0022
:1022d800624060000004e00004003a00009b8000b7
:1022e8000020a000009b880004003700009b8000ad
:1022f800b1ff2f0001006000009b8800e6c2bf000c
:10230800624060000004e00004003a00009b800086
:102318000030a000009b880004003700009b80006c
:1023280071ff2f0001006000009b8800e6c2bf001b
:10233800614060000004e00004003a00009b800057
:102348000040a000009b880004003700009b80002c
:10235800f1fe2f0001006000009b8800cfc2bf0083
:102368000042b2000004e00005003a00009b800033
:102378000102200001007000009b88000400370063
:10238800009b8000f1fd2f0001006000009b880089
:10239800cfc2bf000044b2000004e00005003a00cc
:1023a800009b80000104200001007000009b880051
:1023b80004003700009b8000f1fb2f000100600043
:1023c800009b8800c8c2bf00644060000004e000b1
:1023d80005003a00009b8000010820000100700001
:1023e800009b880004003700009b8000f1f72f0055
:1023f80001006000009b8800c8c2bf006840600000
:102408000004e00005003a00009b80000110200055
:1024180001007000009b880004003700009b8000ca
:10242800f1ef2f0001006000009b8800c8c2bf00c8
:10243800704060000004e00005003a00009b800046
:102448000120200001007000009b88000400370074
:10245800009b8000f1df2f0001006000009b8800d6
:10246800207a800001102000010060000000e000d8
:1024780005003200009b8000010028000100700068
:10248800009b880004003700009b8000f1ff2700b4
:1024980001006000009b8800e9c2bf000044b20050
:1024a8000004e00004003200109b80000000a0003f
:1024b800109b880004003700109b8000e1ff2f006c
:1024c80001006000109b8800e9c2bf0070406000f6
:1024d8000004e00004003200109b80000010a000ff
:1024e800109b880004003700109b8000d1ff2f004c
:1024f80001006000109b8800e9c2bf000042b200e2
:102508000004e00004003200109b80000020a000be
:10251800109b880004003700109b8000b1ff2f003b
:1025280001006000109b8800e9c2bf0001c8b30029
:10253800014060000004e00004003200109b8000ad
:102548000030a000109b880004003700109b80001a
:1025580071ff2f0001006000109b8800d0c2bf00ef
:10256800624060000004e00004003200109b80001c
:102578000040a000109b880004003700109b8000da
:10258800f1fe2f0001006000109b8800d0c2bf0040
:10259800644060000004e00005003200109b8000e9
:1025a8000102200001007000109b88000400370021
:1025b800109b8000f1fd2f0001006000109b880037
:1025c800e8c2bf0001c8b300014060000004e00099
:1025d80005003200109b80000104200001007000fb
:1025e800109b880004003700109b8000f1fb2f002f
:1025f80001006000109b8800e9c2bf0061406000d4
:102608000004e00005003200109b80000108200053
:1026180001007000109b880004003700109b8000a8
:10262800f1f72f0001006000109b8800e9c2bf008d
:10263800624060000004e00005003200109b80004a
:102648000110200001007000109b88000400370072
:10265800109b8000f1ef2f0001006000109b8800a4
:10266800e8c2bf000044b2000004e00005003200e8
:10267800109b80000120200001007000109b880042
:1026880004003700109b8000f1df2f00010060007c
:10269800109b8800009b80004800de00709788002f
:1026a800009b800080978800109b80004800de0017
:1026b80090978800109b8000a09788003086800043
:1026c8004800de00b097880030868000c0978800f8
:1026d80020ab80004800de00d097880020ab800047
:1026e800e0978800e09780000000e00009003a00c9
:1026f8000000eb00e0978800017a8000a0aa2a0079
:10270800808f500029003a0040002000e0978800a0
:1027180026003700e0978000e10f500009003a00da
:1027280010002000e0978800017a8000a0aa2a0003
:10273800808f50001d003a0040002000e09788007c
:102748001a003700e0978000e20f500003003a00bb
:1027580020002000e097880014003700e0978000f0
:10276800e30f500003003a0020002000e0978800a3
:102778000e003700e0978000e40f500003003a0095
:1027880030002000e097880008003700e0978000bc
:10279800e50f500003003a0050002000e097880041
:1027a800020037000000eb00e0978800e07e800020
:1027b8004800de00f0978800e07e800000988800de
:1027c800107a80004800de0010988800107a800097
:1027d80020988800d07f80004800de00309888006c
:1027e800d07f800040988800307f80004800de005d
:1027f80050988800307f8000609888007000200022
:1028080070988800c07d20008098880090a780007c
:102818004800de009098880090a78000a098880063
:1028280080a78000e10f500004003a00f09a800071
:102838000000a000f09a880004003700f09a800099
:10284800e1ff2f0001006000f09a880090a480004a
:10285800640060000000e00004003200f09a80008c
:102868000010a000f09a880004003700f09a800059
:10287800d1ff2f0001006000f09a880010a98000a5
:10288800e10f500004003a00f09a80000020a000f8
:10289800f09a880004003700f09a8000b1ff2f00fa
:1028a80001006000f09a8800e17e800010868000b8
:1028b800808f500004003900207a8000700060008a
:1028c8000000e00004003a00f09a80000030a00008
:1028d800f09a880004003700f09a800071ff2f00fa
:1028e80001006000f09a8800f09a80004800de003d
:1028f800b0988800f09a8000c0988800217a8000fb
:1029080000002200008060000000e00006003a009d
:10291800f0ad80004800de00d0988800f0ad80005f
:10292800e098880005003700d07e80004800de006f
:10293800d0988800d07e8000e0988800c080800011
:102948004800de00f0988800c08080000099880068
:10295800b0ac80004800de0010998800b0ac800060
:1029680020998800208b80004880de0030998800fc
:10297800208b800040998800807e80004800de001f
:1029880050998800807e800060998800907e800041
:102998004800de0070998800907e80008099880049
:1029a800008b80004880de0090998800008b8000b2
:1029b800a0998800908b80004800de00b0998800bc
:1029c800908b8000c0998800808b80004800de00d2
:1029d800d0998800808b8000e0998800c08b8000a7
:1029e8004800de00f0998800c08b8000009a8800bb
:1029f800b00b2000b09a88000000eb0060968800b9
:102a0800e00f2000d01088000080fa0000000600c7
:102a18000200fa00a00a2000709688000001200039
:102a2800809688004008200090968800400020008a
:102a3800b0968800e0012000000f78001e007800a2
:102a4800000040008000780000c02f000080400097
:102a5800f07988001e0078000000400080007800af
:102a6800a0f420000080400000017800f079800088
:102a780080007800f0072000130020002d1f0700b9
:102a8800f0012000000f78001e00780000004000d0
:102a98008000780000c02f0000804000f079880096
:102aa8001e0078000000400080007800a0f420009c
:102ab8000080400000017800f079800080007800f4
:102ac800f0072000130020001a1f0700307c800048
:102ad8004800de00f0968800307c8000009788006f
:102ae800407c80004800de0010978800407c800011
:102af80020978800b00b2000b09a88000000eb00f7
:102b080060968800e00f2000d01088000080fa004e
:102b1800000006000000fa0030032000f0108800d2
:102b28000000eb00b010880017e2a80017a2a80068
:102b380016a2a900612120009140780090cfb3002f
:102b480000c0600016e2b7001602a9000000eb0002
:102b5800c01088001942a80019e2a90018c2bf00d5
:102b6800f043b20018e2b7008720a9008700a90047
:102b7800010a200091407800f0c8b30000c060004e
:102b880001c4b30001407000a0e0b700010a2000b2
:102b98009140780080cfb30000c060000024a000fe
:102ba800a0e0b7008f20a8008f00a8000080fa00de
:102bb80000000600809fbe00821f78003400f800e5
:102bc80000002000a00188000000fa000ec2bf002b
:102bd800624060000004e000010032000e22a900fb
:102be800be11a8000000eb0040968800f08d800020
:102bf800620060000000e00086003a000ec2bf00dc
:102c0800644060000004e00084003a00008e800008
:102c18000000e0000b003a00e0108000108e8800f1
:102c2800118e8000a00a2000808f50007b003a009f
:102c380010002000008e88000000eb00608e8800e5
:102c480076003700008e8000e10f500005003a0042
:102c580020002000008e8800e0108000208e880070
:102c68006e003700008e8000e20f500005003a0029
:102c780030002000008e8800e0108000308e880030
:102c880066003700008e8000e30f500022003a00f3
:102c980040002000008e8800e0108000508e8800e0
:102ca800508e8000408e8800508e8000fc0f5000af
:102cb80003003a0070032000008e88005700370098
:102cc800518e8000c0032000808f500003003a001e
:102cd80080032000008e880050003700508e80004e
:102ce800e10f500003003a0040002000008e8800e9
:102cf8004a003700508e80000000e00003003a00d0
:102d080040002000008e8800440037000000eb00df
:102d1800008e880041003700008e8000e40f5000cc
:102d28000b003a00e0108000509288005192800019
:102d3800b00b2000808f500002003a00be31a8007e
:102d4800be11a9000000eb00008e88003300370098
:102d5800018e800070032000808f500013003a001d
:102d6800508e80000000e900508e8800608e800040
:102d7800e210800000004000f2004000001c21002a
:102d88000080400002087800608e80000000e800a3
:102d9800608e8800508e80000000e0001f003a001e
:102da80040002000008e88001c003700018e800043
:102db80080032000808f500013003a00508e80005e
:102dc8000000e900508e8800608e8000e2108000cc
:102dd80000004000f2004000001c2100008040007c
:102de80002087800608e80000000e800608e88008d
:102df800508e80000000e00008003a0040002000eb
:102e0800008e8800050037000000eb00008e880067
:102e180002003700e0108000108e88008700a900ab
:102e28000080fa003400f9004f0178004f00be001e
:102e380000400600809fbe003400f800000020001b
:102e4800a00188000000fa00609680000000e00001
:102e580005003a0070968000d0108800100020000d
:102e6800609688003900370060968000e10f5000b6
:102e780005003a00200020006096880080968000b7
:102e8800d01088003100370060968000e20f5000b3
:102e980005003a0030002000609688009096800077
:102ea800d01088002900370060968000e30f50009a
:102eb80007003a004000200060968800b096800025
:102ec800d01088000000eb00c09688001f00370073
:102ed80060968000e40f50001a003a00b096800017
:102ee8000000e00006003a002004200060968800f8
:102ef800b00b2000d0108800be51a8001300370086
:102f08004000200060968800c096800000004000c5
:102f1800e111200080804000001c2100008040005a
:102f280010007800d0108800c09680000000e800eb
:102f3800c0968800b09680000000e900b09688002e
:102f48000200370020042000609688008720a9002e
:102f58000080fa003400f9004f00be00004006006f
:102f68000000fa008700a9008f00a9000000eb000c
:102f7800708e88000000eb00808e88000000eb0057
:102f8800808e880027003700408e80000000e9000e
:102f9800408e8800408e80000000e900408e880046
:102fa800718e80000180400072014000001c2100e9
:102fb8000000410010007800609288000100e800dd
:102fc800708e8800718e8000018040007201400080
:102fd800001c210000004100100078007092880059
:102fe8000100e800708e8800609280004800dd00d3
:102ff80060928800828e80006192800070928000ca
:1030080080814000020041000109200080804000ca
:10301800001c210000804000030878000200e8003e
:10302800808e8800408e8000e10f5000d6ff3e0061
:10303800208e8000f00f500057003a00318e80003b
:1030480010082000808f500002003a00beb1a8008e
:103058006b003700318e800010072000808f5000f1
:1030680002003a00bf71a80065003700318e800069
:1030780050072000808f500002003a00bfb1a8001e
:103088005f003700318e800020082000808f5000bc
:1030980002003a00be91a80059003700318e800026
:1030a80020072000808f500002003a00bf51a8007e
:1030b80053003700318e800020062000808f50009a
:1030c80002003a006433a8004d003700318e8000ba
:1030d80020052000808f500002003a0064b3a80049
:1030e80047003700318e800040082000808f500054
:1030f80002003a00bed1a80041003700318e80009e
:1031080050082000808f500006003a00508e800042
:10311800e10f50003a003a00bef1a800bf11a90023
:1031280037003700318e800060082000808f500003
:1031380005003a00508e8000e10f500030003a0040
:10314800bf11a8002e003700318e800070082000c3
:10315800808f500005003a00508e8000e10f50002b
:1031680027003a009214a80025003700318e80000d
:1031780080082000808f500005003a00508e8000a3
:10318800e10f50001e003a009234a8001c003700de
:10319800000000001a003700218e80000002200085
:1031a800808f500015003a00318e800030082000d2
:1031b800808f500001003a00be71a800318e800057
:1031c80030072000808f500001003a00bf31a8006e
:1031d800318e800030062000808f500001003a00b8
:1031e8006413a800318e800030052000808f5000c5
:1031f80003003a006493a8000100370000000000b3
:103208008f00a8000080fa00000006004400fa00c1
:10321800889fbe000000eb00102798000000eb001c
:1032280010279800140037001e209000000040006e
:103238008000780000c02f0000804000f0798800ee
:103248001e2090000000400080007800a0f42000bc
:103258000080400000017800f0798000800078004c
:10326800f007200013002000321d07001e209000e8
:103278000000e800102798009e209000d00320004e
:10328800808f5000e8ff3600507d80001085880050
:10329800108580000000e00002003a0050d02000b5
:1032a8001085880010858000010020004a09dd0093
:1032b800c600de00810071004a00dd00208588001c
:1032c80031858800207c8000800078000000210083
:1032d80000806000002798008e20900000002100e8
:1032e800808f500002003a00458fa8000100370087
:1032f800458fa900517a800060042000808f50001b
:103308000300360050012000507a8800070037007b
:10331800507a8000e90f500003003e005001200061
:10332800507a88000100370000000000517a8000c0
:10333800400620000088b900507a8800217a800071
:1033480000002100008060000000e0000f003a004b
:10335800517a800000f42100010050000100200093
:10336800a07f8800b17f8800a07f8000b17f8000a7
:103378004a09dd00c600de00810071004a00dd0058
:10338800a07f8800b17f88000e003700517a800046
:10339800a0a021000100500001002000a07f8800ab
:1033a800b17f8800a07f8000b17f80004a09dd00de
:1033b800c600de00810071004a00dd00a07f8800a1
:1033c800b17f8800617a800000052000808f50005e
:1033d8000200360080022000607a8800617a80004e
:1033e800400620000088b900c07f8800a27f8000c6
:1033f800b37f800020858000318580000002510065
:1034080081825900c07f80006101b8000400be00bd
:10341800c7f40700d0808800a27f8000b37f8000b7
:10342800208580003185800000005100818059008e
:10343800027d200003002000bdf40700e080880022
:10344800817a8000007d2000808f500003003600c4
:10345800800c2000807a88000100370000000000fe
:10346800807a8000a0858800717a8000401f200043
:10347800808f500003003600e0152000707a880025
:1034880008003700717a800030062000808f5000d5
:1034980003003e00e0152000707a88000100370024
:1034a80000000000707a8000a200200011000900ce
:1034b8000280d800707a8800a08580006104b80076
:1034c800707a80006102b8008800780004007800f3
:1034d800000bb80005c0b9000701780000014100e1
:1034e80009a0b9000001410082037800a200200071
:1034f800030020000600be0087f30700f07f880065
:10350800907a8000e30f5000030036000000eb00c3
:10351800907a88000100370000000000907a80004f
:10352800e07f8800a07a8000f0888800b07a800068
:1035380052002000110009000280d800e0888800ad
:10354800c07a800010808800d17a8000c0032000f3
:10355800808f50000200360040012000d07a880099
:10356800d17a8000400620000088b90020808800b9
:10357800e07a8000e0858800f17a8000c01220009f
:10358800808f50000300360020032000f07a880066
:1035980007003700f07a8000e90f500003003e0072
:1035a80020032000f07a88000100370000000000a6
:1035b800f07a800000868800017b8000600420008b
:1035c800808f50000200360030022000007b880007
:1035d800007b800010868800117b8000600420003a
:1035e800808f50000300360080022000107b880086
:1035f80007003700107b8000fd0f500003003e00dd
:1036080080022000107b88000100370000000000c5
:10361800117b8000400620000088b90001002000ce
:103628003080880041808800217b80006004200071
:10363800808f500003003600c0032000207b8800e4
:1036480007003700207b8000fd0f500003003e007c
:10365800c0032000207b8800010037000000000024
:10366800217b8000400620000088b900010020006e
:1036780050808800618088005280800063808000cc
:103688003080800041808000800f5100818f590078
:103698000900360050808000618080003280800000
:1036a800438080000200500083805800808088009a
:1036b8009180880008003700508080006180800079
:1036c80032808000438080000200500083805800d0
:1036d80080808800918088008080800091808000b0
:1036e8004a09dd00c600de00810071004a00dd00e5
:1036f8008080880091808800848080009580800088
:10370800208080006101b8000400be0008f40700b2
:103718007080880030808000418080004a09dd0088
:10372800c600de00810071004a00dd00308088009c
:103738004180880050808000618080004a09dd0057
:10374800c600de00810071004a00dd00508088005c
:1037580061808800307b8000b0818800407b8000d9
:10376800c0818800507b8000d0818800607b800009
:10377800e0818800707b8000f081880010a98000bb
:103788000000e00004003a00707b8000308688006a
:103798000000eb0020868800807b80000082880083
:1037a800907b800090828800a07b8000a0828800a7
:1037b800b07b800030828800c07b80004082880017
:1037c800d07b800050828800e07b80006082880087
:1037d800f07b800070828800007c800080828800f6
:1037e800107c8000b0828800207c8000610060002e
:1037f800701f98007e189000e10f500002003a00f8
:10380800440fa80001003700440fa900207c800065
:1038180062006000601f98006e189000e20f500070
:1038280002003a00442fa80001003700442fa900e5
:10383800207c800064006000501f98005e18900093
:10384800e40f500002003a00444fa800010037007e
:10385800444fa900207c800068006000401f980049
:103868004e189000e80f500002003a00446fa8007c
:1038780001003700446fa900207c800070006000c0
:10388800301f98003e189000f00f500002003a00d8
:10389800448fa80001003700448fa900207c8000d5
:1038a800800078000002200000806000201f98003f
:1038b800ae18900000022000808f500002003a00ed
:1038c80044afa8000100370044afa900207c800065
:1038d800800078000004200000806000101f98001d
:1038e8009e18900000042000808f500002003a00cb
:1038f80044cfa8000100370044cfa900207c8000f5
:10390800800078000008200000806000001f9800f8
:103918008e18900000082000808f500002003a00a6
:1039280044efa8000100370044efa900207c800084
:103938008000780000202000008060007017980048
:10394800fe10900000202000808f500002003a00f6
:10395800452fa80001003700452fa900207a8000d4
:1039680001202000010060000000e0000a003a0089
:10397800207c80008000780000102000008f60000c
:10398800001020009e0f100002003a00450fa8000a
:1039980001003700450fa900207c800080007800d6
:1039a800004020000080600060179800ee10900032
:1039b80000402000808f500002003a00454fa800c8
:1039c80001003700454fa900207c80008000780066
:1039d800008020000080600050179800de109000e2
:1039e80000802000808f500002003a00456fa80038
:1039f80001003700456fa900207a800001002100ee
:103a0800010060000000e00005003a0040062000c8
:103a1800008c880020032000108c880004003700e8
:103a280040052000008c8800a0022000108c88002f
:103a3800207c800080007800000022000080600068
:103a480040179800ce10900000002200808f500090
:103a580002003a0045afa8000100370045afa900b1
:103a6800207c800080007800000024000080600036
:103a780030179800be10900000002400808f50007e
:103a880002003a0045cfa8000100370045cfa90041
:103a9800207c800080007800000028000080600002
:103aa80020179800ae10900000002800808f50006a
:103ab80002003a0045efa8000100370045efa900d1
:103ac800307c8000507e8800407c8000607e8800ca
:103ad800507c80006103b80086007800000029004f
:103ae8000009b8006130b900030278000002420002
:103af8000000290000b8b9000002420084017800e3
:103b08000200be00c0828800d1828800607c8000ec
:103b18006103b80086007800000029000009b80099
:103b28006130b90003027800000242000000290059
:103b380000b8b90000024200840178000200be000b
:103b4800e0828800f1828800707c80006103b80000
:103b580086007800000029000009b8006130b9002b
:103b680003027800000242000000290000b8b900f2
:103b780000024200840178000200be000083880031
:103b880011838800807c80006103b800860078007b
:103b9800000029000009b8006130b900030278006c
:103ba800000242000000290000b8b90000024200eb
:103bb800840178000200be002083880031838800d9
:103bc800907c80006103b80086007800000029001e
:103bd8000009b8006130b900030278000002420011
:103be8000000290000b8b9000002420084017800f2
:103bf8000200be004083880051838800a07c8000ba
:103c0800010020006083880071838800b17c8000f7
:103c1800400620000088b90080838800c17c8000ad
:103c2800400620000088b90090838800d17c80007d
:103c3800400620000088b900a0838800e17c80004d
:103c4800400620000088b900b0838800f17c80001d
:103c5800400620000088b900c0838800517c80009d
:103c6800400620000088b9008000780000f4210098
:103c78000100500001002000d0838800e183880003
:103c8800d0838000e18380004a09dd00c600de00a1
:103c9800810071004a00dd00d0838800e18388003c
:103ca800e2828000f3828000c0828000d18280009e
:103cb800800f5100818f59000f00390080838000e8
:103cc8000000e0000c003200e2828000f3828000f5
:103cd800c0828000d1828000000251008182590098
:103ce800808380006101b8000400be0090f20700e4
:103cf800f0838800020037000000eb00f0838800a2
:103d08000283800013838000e0828000f1828000bb
:103d1800800f5100818f59000f0039009083800077
:103d28000000e0000c003200028380001383800052
:103d3800e0828000f18280000002510081825900f7
:103d4800908380006101b8000400be0078f207008b
:103d580000848800020037000000eb00008488001f
:103d680022838000338380000083800011838000d9
:103d7800800f5100818f59000f003900a083800007
:103d88000000e0000c0032002283800033838000b2
:103d98000083800011838000000251008182590055
:103da800a08380006101b8000400be0060f2070033
:103db80010848800020037000000eb00108488009f
:103dc80042838000538380002083800031838000f9
:103dd800800f5100818f59000f003900b083800097
:103de8000000e0000c003200428380005383800012
:103df80020838000318380000002510081825900b5
:103e0800b08380006101b8000400be0048f20700da
:103e180020848800020037000000eb00208488001e
:103e2800007d800080848800808480000000e0009d
:103e380002003a00a000200080848800107d8000e5
:103e480090848800908480000000e00002003a001e
:103e5800c012200090848800207d8000108988008e
:103e6800108980000000e00002003a0020032000d2
:103e780010898800307d8000a0848800a08480009c
:103e88000000e00002003a00401f2000a0848800e3
:103e9800407d8000b0848800b08480000000e0008d
:103ea80002003a00a0002000b0848800607d8000f5
:103eb80061006000101798001e109000e10f50007c
:103ec80002003a0047efa8000100370047efa900b9
:103ed800607d800062006000001798000e1090005e
:103ee800e20f500002003a00480fa8000100370016
:103ef800480fa900707d800061006000700f980075
:103f08007e089000e10f500002003a00460fa8001a
:103f180001003700460fa900707d80006200600034
:103f2800600f98006e089000e20f500002003a00ff
:103f3800462fa80001003700462fa900707d800099
:103f480064006000500f98005e089000e40f500075
:103f580002003a00464fa80001003700464fa9006a
:103f6800707d800068006000400f98004e08900047
:103f7800e80f500002003a00466fa8000100370021
:103f8800466fa900707d800070006000300f9800b7
:103f98003e089000f00f500002003a00468fa8003b
:103fa80001003700468fa900707d800080007800ee
:103fb8000002200000806000200f9800ae089000ea
:103fc80000022000808f500002003a0046cfa8006f
:103fd8000100370046cfa900707d8000800078007e
:103fe8000004200000806000100f98009e089000d8
:103ff80000042000808f500002003a0046afa8005d
:104008000100370046afa900707d8000800078006d
:104018000008200000806000000f98008e089000c3
:1040280000082000808f500002003a0046efa800e8
:104038000100370046efa900707d800080007800fd
:10404800001020000080600070079800fe009000bb
:1040580000102000808f500002003a00470fa8008f
:1040680001003700470fa900707d800080007800ac
:10407800002020000080600060079800ee0090009b
:1040880000202000808f500002003a00472fa8002f
:1040980001003700472fa900707d8000800078005c
:1040a800004020000080600050079800de0090006b
:1040b80000402000808f500002003a00474fa800bf
:1040c80001003700474fa900707d8000800078000c
:1040d800008020000080600040079800ce0090001b
:1040e80000802000808f500002003a00476fa8002f
:1040f80001003700476fa900707d800080007800bc
:10410800000021000080600030079800be00900089
:1041180000002100808f500002003a00478fa8005d
:1041280001003700478fa900707d8000800078006b
:10413800000022000080600020079800ae00900078
:1041480000002200808f500002003a0047afa8000c
:104158000100370047afa900707d8000800078001b
:104168000000240000806000100798009e00900066
:1041780000002400808f500002003a0047cfa800ba
:104188000100370047cfa900807d8000c0848800e7
:10419800c08480000000e00002003a00f000200027
:1041a800c0848800907d8000d0848800d0848000fe
:1041b8000000e00002003a00a0002000d08488003f
:1041c800a07d8000e0848800e08480000000e0009a
:1041d80002003a0040062000e0848800b07d80009c
:1041e800f0848800f08480000000e00002003a00bb
:1041f80040062000f0848800c07d8000008588008b
:10420800008580000000e00002003a00400620001f
:1042180000858800d07d800040858800e07d800092
:1042280050858800f07d800060858800007e8000d1
:1042380070858800107e800080858800207e800040
:1042480090858800a085800001002000a200200041
:104258000300200030f0070070818800a0858000ee
:104268000100200052002000030020002af007006f
:1042780090818800f07f80006103b8008600780094
:10428800d0052000000ab8006030b90005017800a8
:1042980000014100d005200000b8b900000141002c
:1042a8008202780042062000030020000400be00bd
:1042b80019f00700b0858800f07f80006103b8001e
:1042c8008600780020062000000ab8006030b90097
:1042d80005017800000141002006200000b8b9005f
:1042e80000014100820278004206200003002000fd
:1042f8000400be0008f00700c0858800a07a80008e
:10430800a2002000110009000280d800d085880092
:10431800a0858000a2002000110009000280d800ba
:10432800f0858800a1858000a08580000100b80084
:1043380070868800818688008185800000052000bd
:104348000100b80090868800a186880098868000c1
:10435800a98680007686800087868000880078009d
:1043680006007800000ab80007c0b9000501780007
:104378000001410009b0b900000141008202780043
:1043880094868800a5868800918580000005200015
:104398000100b800b0868800c1868800b886800011
:1043a800c98680007686800087868000880078002d
:1043b80006007800000ab80007c0b90005017800b7
:1043c8000001410009b0b9000001410082027800f3
:1043d800b4868800c58688004f04be000080fa00b5
:1043e800000006000000fa00d2e2a800de02a800e1
:1043f800de22a800e422a800e402a800d362a800f4
:104408000000eb00801688000000eb0040178800d1
:104418000000eb00b0168800e5c2a900e582a900fb
:10442800e5a2a900e5e2a900cc22a900cc42a90096
:10443800e4c2a900e4e2a900e502a900e522a90076
:10444800d262a900d242a900d222a900e9c2a900d9
:10445800e982a900d042a9000000eb0040a488002e
:104468000000eb0050a488000000eb0060a4880066
:104478000000eb0020ab88000080fa000000060076
:104488000000fa000000eb00200888000000eb00a4
:104498000008880005a1a9000421a90041102000f6
:1044a80091407800f0ccb30000c0600004e1b70090
:1044b80005e1a80000f42100100888005109200037
:1044c80091407800f0c8b30000c0600001c5b30097
:1044d8000140700095e0b7008460a9008c60a800d6
:1044e80042c0bf007f40600001c6b30001407000b9
:1044f80042e0b7000080fa00000006000000fa0061
:10450800d2c2a800d2a2a800d282a8000000eb0064
:10451800000688000000eb0010068800c1a0a80073
:10452800c1c0a800c1e0a8000000eb002006880078
:104538000000eb0030068800c5a0a900c5c0a9008e
:10454800c5e0a900b109200091407800f0c8b30087
:1045580000c0600001c5b300014070009be0b700d7
:1045680085e0a9008de0a8000080fa0000000600a0
:104578000600fa006000b8001007980021079800ac
:104588000040eb00004f78000e0037001e80fb0053
:1045980000004000e4004000201a21000080400094
:1045a800100078006101b8001e009000ae00900075
:1045b80000004100818049001007980021079800f9
:1045c8001e4fe80030c0b3009e4f1000efff3600ca
:1045d8001e009000ae0090004e09dd004200de0093
:1045e80000007100c208de000080fa00000006002a
:1045f8000800fa00100798009e009000b0bd240043
:10460800808f5000040036009e009000c03f2500b7
:10461800808f50000900360044d5bf000040e800f4
:1046280044f5b70044d5bf00e24f500019003600ea
:104638000000eb0030079800180037000040eb003e
:1046480044f5b700caff0700000f78009e009000ed
:104658001e00780000805000200798002e0090006f
:104668000000e00003003d002e0090000000ea007a
:10467800200798002e0090009e007800c208de00f7
:10468800810f5000030036000000eb00300798004f
:104698000200370010002000300798003e0090000c
:1046a8000080fa00000006000000fa001fe1a900df
:1046b8000000eb00a0088800208d8000803eb0003c
:1046c800d00888001fe1a8000080fa00000006005a
:1046d8000000fa00907f8000640060000000e000a5
:1046e8001d0032000000eb00c0088800217a80001d
:1046f80000002100008060000000e00003003a0094
:1047080030682000e008880002003700d0562000fa
:10471800e008880086c0a9008ec0a80021e1a80092
:1047280010002000e0ac880010c0b3009af5b70074
:10473800e9a2a8001000200080a4880087a0a90092
:10474800e11420009140780080cfb30000c06000e1
:104758004ee1b7008fa0a9000080fa000000060013
:104768000000fa000000eb0000ad88000000eb003c
:10477800700a88004ee1a900e114200091407800f9
:10478800f0c9b30000c060004ee1b700e11420009a
:104798009140780080cfb30000c060003040b30083
:1047a8004ee1b700210a20009140780000c7b3000d
:1047b80000c07000a2e0b70087a0a9008fa0a800e1
:1047c8000080fa00000006000000fa000000eb007c
:1047d800800888000000eb003008880011a1a900bb
:1047e80010c1a9001021a9000111200091407800f2
:1047f800f0ccb30000c060000044a00010e1b70096
:104808001061a90011e1a9000080eb006008880090
:10481800710920009140780080cfb30000c060008b
:104828006040b30097e0b70084c0a9008cc0a9001d
:104838000000eb00900888000000eb00500888009a
:1048480013a1a90012c1a9001221a9002111200059
:1048580091407800f0ccb30000c060000044a00094
:1048680012e1b70013e1a8000080eb00700888008f
:104878007109200091407800f0c8b30000c06000c2
:1048880001c6b3000140700097e0b70084e0a900ba
:104898008ce0a9000000eb00f00888000000eb00a5
:1048a800a008880000e22400d00888001fa1a80002
:1048b8001ec1a9001e21a900e11120009140780025
:1048c800f0ccb30000c060000044a0001ee1b700b7
:1048d8001fe1a9001e61a900e109200091407800ac
:1048e800f0c8b30000c0600001c6b300014070000a
:1048f8009ee0b70086a0a9008ea0a8000000eb00eb
:10490800000988000000eb00c008880021a1a80069
:1049180020c1a9002021a90001122000914078009f
:10492800f0ccb30000c060000044a00020e1b70054
:1049380021e1a90020ae8000e0088800f1092000ec
:104948009140780080cfb30000c060006040b300a1
:104958009fe0b70086c0a9008ec0a9000080fa00b9
:10496800000006003600f800809fbe00829fbe004f
:10497800849fbe00869fbe003400f800000020001f
:10498800a00188000000fa00f22fa80087a0a90063
:10499800e11420009140780080cfb30000c060008f
:1049a8003040b3004ee1b7000000eb0030aa8800a9
:1049b800600a8000f0aa8800f1aa800020ad80007b
:1049c800808f500005003900f0aa800021ad8000da
:1049d8000100500000ab880005003700f1aa8000f4
:1049e80020ad8000008050000000e90000ab880086
:1049f80001ab8000c0bd2400808f50001400360039
:104a080001ab8000b03f2500808f500010003e00b1
:104a1800aed1bf000080fb0002ab80000000400068
:104a2800e4004000201a21000080400002087800bd
:104a3800aed1bf000080fb000000e800420020006b
:104a4800110009000200d8008000fd00aef1b70097
:104a5800c7fe0700108d880000ab8000e4fe070049
:104a6800aff1b700afd1bf000004e000050032008d
:104a7800108d8000208d88000bff070010c0b30048
:104a880050f5b700f0aa800020ad8800afd1bf0074
:104a98000004e000010032000dff07000080fa006a
:104aa8003400f9004f03be004f02be004f01be00a4
:104ab8004f00be003600f90000400600809fbe008f
:104ac8003400f80000002000a00188000000fa006f
:104ad800e0ac8000e10f500015003a00d5c2bf00dd
:104ae800684060000004e00011003a00afd1bf0048
:104af8000004e0000e0032000000eb00e0ac88008b
:104b080021e1a90086c0a9008ec0a90087a0a9003c
:104b18008fa0a800e11420009140780080cfb30056
:104b280000c060003040b3004ee1b70020003700fd
:104b3800e0ac8000e10f500011003a00d5c2bf0080
:104b4800684060000004e0000d003200afd1bf00f3
:104b58000004e0000a00320020002000e0ac8800d9
:104b680087a0a9008fa0a900e11420009140780037
:104b780080cfb30000c060004ee1b7000c003700e2
:104b8800e0ac8000e10f500009003a00d5c2bf0038
:104b9800684060000004e00005003a00afd1bf00a3
:104ba8000004e00002003a0020002000e0ac880089
:104bb800e0ac8000e20f50001d003a000000eb005e
:104bc800c0088800c0808000e008880051d5bf0078
:104bd800e14f500006003a000040eb0051f5b700e5
:104be800e108800080c12f0000804000e0088800b4
:104bf80050ac800020ae880086c0a9008ec0a800f6
:104c080021e1a800217a80000010200000806000c7
:104c18000000e00003003a0030002000e0ac88000b
:104c28004c003700b0002000e0ac88004900370095
:104c3800e0ac8000e30f50000c003a004000200078
:104c4800e0ac88000000eb00c008880020ae8000bf
:104c5800e008880086c0a9008ec0a80021e1a8004d
:104c6800d662a800d642a8003a003700e0ac80001f
:104c7800e40f500013003a0050002000e0ac880018
:104c880030002000f0ac88000000eb0030088800fd
:104c9800f1ad800020ae80000080500060088800e0
:104ca80084c0a9008cc0a80011e1a800d662a900a0
:104cb800d642a900d622a90086c0a9008ec0a900a4
:104cc80024003700e0ac8000eb0f50000c003a00e5
:104cd800c0002000e0ac88000000eb00c00888009d
:104ce80020ae8000e008880086c0a9008ec0a80019
:104cf80021e1a800d662a800d642a8001500370016
:104d0800e0ac8000ec0f500012003a00d000200008
:104d1800e0ac880050012000f0ac88000000eb00f7
:104d280030088800f1ad800020ae8000008050007f
:104d38006008880084c0a9008cc0a80011e1a80000
:104d4800d662a900d642a900d622a90086c0a90029
:104d58008ec0a9000080fa003400f9004f00be00a0
:104d680000400600809fbe003400f80000002000cc
:104d7800a00188000000fa0084c0a900f0ac8000ff
:104d8800e30f50000c003a0040002000f0ac88000f
:104d98000000eb003008880020ae80006008880022
:104da80084c0a9008cc0a80011e1a800d662a800a0
:104db800d622a8008f003700f0ac8000e40f500026
:104dc8000f003a0050002000f0ac88000000eb0013
:104dd80030088800f1ad800020ae800000805000cf
:104de8006008880084c0a9008cc0a80011e1a80050
:104df800d662a900d642a900d622a9007d003700b4
:104e0800f0ac8000e50f50000c003a006000200074
:104e1800f0ac88000000eb003008880020ae80006d
:104e28006008880084c0a9008cc0a80011e1a8000f
:104e3800d642a800d622a8006e003700f0ac800049
:104e4800e60f50000f003a0070002000f0ac880018
:104e58000000eb0030088800f1ad800020ae800033
:104e6800008050006008880084c0a9008cc0a80099
:104e780011e1a800d662a900d642a900d622a9004d
:104e88005c003700f0ac8000e70f50000c003a00df
:104e980080002000f0ac88000000eb00300888009b
:104ea80020ae80006008880084c0a9008cc0a800db
:104eb80011e1a800d642a800d662a8004d0037002c
:104ec800f0ac8000e80f50000f003a00900020007e
:104ed800f0ac88000000eb0030088800f1ad8000dd
:104ee80020ae8000008050006008880084c0a900bf
:104ef8008cc0a80011e1a800d662a900d642a9007a
:104f0800d622a9003b003700f0ac8000e90f500022
:104f18000c003a00a0002000f0ac88000000eb0074
:104f28003008880020ae80006008880084c0a9008e
:104f38008cc0a80011e1a800d622a800d662a8005b
:104f48002c003700f0ac8000ea0f50000f003a0048
:104f5800b0002000f0ac88000000eb0030088800aa
:104f6800f1ad800020ae800000805000600888000d
:104f780084c0a9008cc0a80011e1a800d662a900cd
:104f8800d642a900d622a9001a003700f0ac80004a
:104f9800eb0f50000c003a00c0002000f0ac880075
:104fa8000000eb003008880020ae80006008880010
:104fb80084c0a9008cc0a80011e1a800d622a800ce
:104fc800d642a8000b003700f0ac8000ec0f500070
:104fd80008003a00d0002000f0ac8800d662a90092
:104fe800d642a900d622a90084c0a9008cc0a90075
:104ff80011e1a900f0ac8000f50f50000c003a0058
:1050080060012000f0ac88000000eb003008880048
:1050180020ae80006008880084c0a9008cc0a80069
:1050280011e1a800d642a800d622a8008f003700b8
:10503800f0ac8000f60f50000f003a00700120001d
:10504800f0ac88000000eb0030088800f1ad80006b
:1050580020ae8000008050006008880084c0a9004d
:105068008cc0a80011e1a800d662a900d642a90008
:10507800d622a9007d003700f0ac8000f70f500061
:105088000c003a0080012000f0ac88000000eb0022
:105098003008880020ae80006008880084c0a9001d
:1050a8008cc0a80011e1a800d662a800d622a800ea
:1050b8006e003700f0ac8000f80f50000f003a0087
:1050c80090012000f0ac88000000eb003008880058
:1050d800f1ad800020ae800000805000600888009c
:1050e80084c0a9008cc0a80011e1a800d662a9005c
:1050f800d642a900d622a9005c003700f0ac800097
:10510800f90f50000c003a00a0012000f0ac880014
:105118000000eb003008880020ae8000600888009e
:1051280084c0a9008cc0a80011e1a800d642a8003c
:10513800d662a8004d003700f0ac8000fa0f50008e
:105148000f003a00b0012000f0ac88000000eb002e
:1051580030088800f1ad800020ae8000008050004b
:105168006008880084c0a9008cc0a80011e1a800cc
:10517800d662a900d642a900d622a9003b00370072
:10518800f0ac8000fb0f50000c003a00c00120007a
:10519800f0ac88000000eb003008880020ae8000ea
:1051a8006008880084c0a9008cc0a80011e1a8008c
:1051b800d622a800d642a8002c003700f0ac800008
:1051c800fc0f50000f003a00d0012000f0ac88001e
:1051d8000000eb0030088800f1ad800020ae8000b0
:1051e800008050006008880084c0a9008cc0a80016
:1051f80011e1a800d662a900d642a900d622a900ca
:105208001a003700f0ac8000fd0f50000c003a0087
:10521800e0012000f0ac88000000eb0030088800b6
:1052280020ae80006008880084c0a9008cc0a80057
:1052380011e1a800d622a800d662a8000b0037000a
:10524800f0ac8000fe0f500008003a00f00120008a
:10525800f0ac8800d662a900d642a900d622a900df
:1052680084c0a9008cc0a90011e1a9000080fa003f
:105278003400f9004f00be00004006003600f80078
:10528800809fbe00829fbe00849fbe00869fbe0096
:105298003400f80000002000a00188000000fa0097
:1052a800208d8000d00888000040eb00aff1b700e7
:1052b800afd1bf000004e00001003a0004fd070080
:1052c80050d5bf000004e000080032000040eb00a9
:1052d80050f5b70010c0b30051f5b700218d80001c
:1052e80080c12f0000804000d00888000000eb003b
:1052f800a008880086a0a9008ea0a8001fe1a80029
:105308000080fa003400f9004f03be004f02be00cf
:105318004f01be004f00be003600f90000400600f5
:10532800809fbe00821f78003400f8000000200033
:10533800a00188000000fa0085e0a900d4c2bf00df
:105348000080fb004600de00e140600040aa8000cb
:105358006140600080cf50000d003200d4c2bf0011
:105368000080fb004600de00614060000080fb001a
:105378006101600041aa8000e0ff2f00008060000a
:105388000200700040aa88000000eb0050aa8800c4
:10539800d4c2bf000080fb004500de00e140600091
:1053a80040aa80000000d1006140600080cf50001a
:1053b8000e003200d4c2bf000080fb004500de00b2
:1053c800614060000080fb00610060000001400057
:1053d80041aa8000d0ff2f0000806000020070000a
:1053e80040aa88000000eb0060aa8800d4c2bf0071
:1053f8000080fb004400de00e140600040aa80001d
:105408004200de006140600080cf50000e00320094
:10541800d4c2bf000080fb004400de006140600091
:105428000080fb00610060004201dd0041aa8000ad
:10543800b0ff2f00008060000200700040aa8800c2
:105448000000eb0070aa880020ab8000e30f50003a
:105458006800320020ab8000e40f50006500320085
:10546800707e8000fb0f50006200360040aa80006a
:10547800610060000000e00006003a0000ad800016
:105488000000e00003003a001000200000ad880092
:105498005800370040aa8000610060000000e0006a
:1054a8000800320000ad8000e10f500005003a000e
:1054b8002000200000ad880050088000e0aa880085
:1054c8004c00370040aa8000620060000000e00045
:1054d8004800320000ad8000e20f500045003a005d
:1054e8000000eb0000ad880050088000d0aa8800ba
:1054f800d1aa8000e0aa8000808f50000500360005
:10550800d0aa8000e1aa800001005000c0aa88004b
:1055180009003700e0aa8000800078000080eb00d6
:1055280001005000c0aa8800c1aa8000d0aa80004b
:1055380000804000c0aa8800c1aa80007032220002
:10554800808f500016003e0090aa80000000e800fe
:1055580090aa88000000eb00a0aa88000000eb00d9
:10556800b0aa880090aa8000e60f500021003600fb
:10557800f34fa9005000200000ad88000000eb00a8
:1055880090aa8800217a8000002020000080600016
:105598000000e00017003200450fa9001500370091
:1055a800a0aa80000000e800a0aa88000000eb0084
:1055b80090aa88000000eb00b0aa8800a0aa80008a
:1055c800e60f50000b003600f34fa80050002000f3
:1055d80000ad88000000eb00a0aa8800217a8000b6
:1055e80000202000008060000000e0000100320080
:1055f800450fa8000080fa003400f9004f01780038
:105608004f00be00004006000000fa008025200080
:1056180050ac88000000eb0040ac8800f24fa900b5
:10562800f30fa900f2cfa900f20fa900f26fa900a9
:10563800f28fa900f2afa9000000eb0000808800fb
:105648000000eb0090ac8800e07f8000e20f500083
:1056580005003e00a07f8000b17f8000a080880008
:10566800b180880007003700e07f8000e30f50001a
:1056780004003a00d0838000e1838000a080880085
:10568800b18088000000eb0040ae88000000eb000d
:10569800008088006000b800f080880001818800e0
:1056a8000000eb00d07f88000000eb00a08188009c
:1056b8000000eb0050818800430fa900432fa90088
:1056c8006275a9006215a9006235a9000000eb0007
:1056d800508c88000000eb00608c88000000eb0014
:1056e800808c88000000eb00708c88000000eb00c4
:1056f800908c88000000eb00a08c88000000eb0074
:10570800c08c88000000eb00b08c88000000eb0023
:10571800d08c88000000eb00e08c88000000eb00d3
:10572800008d88000000eb00f08c88000080fa00f3
:10573800000006000000fa00f24fa900f30fa900cc
:10574800bf11a900e982a90087a0a900e1142000df
:105758009140780080cfb30000c060003040b300b3
:105768004ee1b7008fa0a800d662a900d642a900d2
:10577800d622a90014fc07000000eb00e0ac88006a
:105788000000eb00f0ac88000080fa000000060082
:105798000000fa0010ab8000610060000000e0002b
:1057a80028003a006235a900e0c2bf0061406000ed
:1057b8000004e00003003200d022a900e9e2a800ba
:1057c80001003700e9e2a90090ac80000000e80081
:1057d80090ac880091ac8000401f2000808f500062
:1057e80018003600e9e2a9000000eb0090ac880040
:1057f8006215a800f20fa900ceff0700a802070053
:105808000000eb00d07f880090a480006800600052
:105818000000e0000b003a00207a8000010420001c
:10582800010060000000e00006003200307a8000cd
:1058380001002800010060000000e00001003200c3
:10584800420fa8000080fa00000006000000fa00dd
:105858006000b800f0808800018188000000eb003b
:1058680040ae880062b5a8006295a900e9e2a900e7
:10587800f20fa900afff0700d022a800207a80000d
:10588800640060000000e000020032001000200008
:1058980060a48800b0ab80000000e800b0ab8800ce
:1058a800b1ab8000c0122000808f50001900360074
:1058b8000000eb00b0ab8800d022a9000000eb008c
:1058c80060a488006235a80090a480006800600089
:1058d8000000e0000b003200207a80000104200064
:1058e800010060000000e00006003200307a80000d
:1058f80001002800010060000000e0000100320003
:10590800420fa8000000eb0020ab88000000eb006d
:10591800b0ac88000080fa00000006000000fa0021
:10592800b0ac80000000e00026003a0090a480009f
:10593800640060000000e000220032004086800021
:105948000000e0001f003a0010a98000e10f50009d
:105958001c003a00207a8000010028000100600045
:105968000000e00017003a00e17e80001086800009
:10597800808f500004003900207a80007000600099
:105988000000e00042013a001000200020ab88002f
:1059980010002000b0ac8800e9c2a8001000200068
:1059a80040a48800d042a9000000eb0060a4880051
:1059b8000000eb0050a488000000eb00508788002e
:1059c80033013700b0ac8000e10f500059003a00b5
:1059d80090a48000640060000000e00007003a0026
:1059e8000000eb0020ab88000000eb00b0ac8800a2
:1059f800e9c2a9000000eb0040a48800e17e800015
:105a080010868000808f50000b003600207a8000be
:105a1800700060000000e000070032000000eb00aa
:105a280020ab88000000eb00b0ac8800e9c2a900f8
:105a38000000eb0040a48800207a800001002800c4
:105a4800010060000000e000070032000000eb00e9
:105a580020ab88000000eb00b0ac8800e9c2a900c8
