:020000040000fa
:080000000001040000000000f3
:020000040000fa
:10020000af612100007f2100000188000000000094
:100210000c000700c041250001002000110007006c
:10022000000020000000e000020032000000020098
:10023000000000008e520200000000000040da00c2
:100240000000fe004440a900000020000000e00083
:100250000300320000002000a00188004440a800f4
:100260000000060091018800800078000000eb008b
:1002700015003700e280400032a0b4009101ba00be
:10028000e280400032a0b4009102ba00e280400057
:1002900032a0b4000002eb00472bde00f507b200ed
:1002a000602ce10004003a000059eb008301e900f2
:1002b000fdff3e00040037006128e100010032002c
:1002c0000082eb00040007001101ba000200e00008
:1002d000e8ff3a00000006003159ba008301e90046
:1002e0000c0032002159ba008301e90008003200f5
:1002f0000400e00003003a00e280400032a0b400b5
:10030000f5ff370011d9ba008301e900faff3a007e
:100310008100e800e180400032a0b4000000060047
:10032000839f68000100e00002003d0060001000b3
:10033000e08018000300e00002003d0060011100b1
:10034000e0811900fc0007004f00e00002003b00c4
:1003500060001000e080180000000600889fbe00ca
:100360008a9fbe00010578000100e000040035000e
:1003700008003c000000e0002000320005003700cb
:1003800060001000e080180002003b0001f02c002b
:100390001a0037000004be006011b8006b0920008d
:1003a0000982cf00020039000882cf000441b0006a
:1003b000694252000e00320008003b008281710049
:1003c000610164008904d1000884d3008b05e80032
:1003d0000442e800f9ff3a00050037000804440031
:1003e00089844c008b05e9000442e900fbff3a00d8
:1003f0005a0107000af0a70001f0a0004f05be0057
:100400004f04be0000000600889fbe008a9fbe0009
:100410008c1f78000004be00760107000478a3005a
:1004200026003a006120e1002500320009f8a3000f
:1004300025003a006420e10021003200f507b100f8
:100440000508a3000200320000004000818048003f
:100450006044b800031020000200200000004000ab
:10046000818048000805440089854c000a05410048
:100470008b8549000a0550008b8558000300330026
:100480000a00be0002047400838474008301d1005a
:100490000281d300830f7100f0ff3a008904d1007c
:1004a0000884d3006001490082017800c1adde00fc
:1004b000fb07b000290107006c0137000960a000ac
:1004c0000800be006901370012022000c2b0880097
:1004d000f0ff2f00f1ff2700640137000001be008c
:1004e000440107000470a70003f0a1006509b100f2
:1004f000160032000d0035006828e10006003500c6
:10050000f0ff2f00f1ff27000300e00013003b0085
:100510000100280000000500000040008180480024
:100520008502e900fcff3a0008003700f88f42001e
:1005300002003c008000eb00000005008100d100bb
:100540000080d3008502e800fcff3a000300e000d1
:1005500002003b0060001000e08018000000060070
:10056000889fbe008a9fbe008c1f7800460107004e
:100570003501330003866c006450e1002e00320028
:100580006420e100330032006150e1002f003200ae
:100590006120e1003100320085855500eb07b00095
:1005a000090020000804200005003700080444006a
:1005b00089844c000a0031000603430087834b0006
:1005c0000001530081815b00f8ff33000203be008d
:1005d0000800a0000804440089844c00f6ff39009c
:1005e000c639dd00830173000100320013002000d2
:1005f0008904d1000884d3000998a30005003200c3
:100600000800a7000300a0008904d1000884d300db
:100610008b05e8008904d1000884d3000001eb00b9
:100620000281d200cd00070001f0a1000cf0a7006c
:1006300001f0a0000d0137006420e1000f0132003d
:100640000801be000200be00f7ff37006120e10094
:100650000a0132006000b800f3ff370000002000fc
:1006600001f82700f0ff3700889fbe008a9fbe0078
:100670008c1f780004010700f300330003866c0030
:100680006450e100240032006420e10027003200c1
:100690006150e100220032006120e10021003200bf
:1006a0008b854200eb07b1000134b800003ab80076
:1006b0000804420089844a00013ab8000030b800ba
:1006c0008880400009014a00040033000000400017
:1006d00081804800020149008b05e900c909dd005d
:1006e000830170000100320013002000c814de00f6
:1006f0004814dd004709de001200b200c808de0021
:10070000088470009500070001f0a1000cf0a7001c
:1007100001f0a000d50037006120e100d7003200d1
:100720000801be000200be00f7ff37006150e10083
:10073000fcff3a00d10037006022b800060220001a
:100740000000d0008180d2000482d2008582d200d5
:100750000000a0000202520083825a000300310010
:100760000202420083824a000000a1000603e90061
:10077000f3ff3a000000060003f0a200889fbe00cd
:100780008a9fbe008c1f7800bf000700ae003300b8
:100790006450e1004f0032006420e100520032005a
:1007a00003826c0007003b000905d0000306d0005f
:1007b000820f54000c065d00020039000200320076
:1007c00089017800030678008582550004003d0009
:1007d0000003fd008103fd008502ea008b854200d5
:1007e000840f720002003b0060001000e0801800df
:1007f0006011b8000005eb007a28e1000a0039001a
:1008000006007800c75ddd00f707b200878075003d
:100810002d003700828171000a01780061056000b7
:100820008180d1000080d3008502e900f9ff3b0000
:10083000060440008784480002003b006004140066
:10084000e0841c000988a300070032008a8171003f
:1008500082817100610164008904d1000884d300a1
:100860008b05e800170037000978a30013003a0051
:100870000b00e000130034008b05e900080444007d
:1008800089844c000a4474000978a3000d003a00e2
:100890000b00e000070034008b05e9000804440069
:1008a00089844c0001003a000b0020000978a30065
:1008b000f7ff32000001eb00020037008281710077
:1008c0000a017800250007000cf0a70001f0a00045
:1008d000660037006420e10002003a00838f6c005c
:1008e000660033000801be000200be005f00370052
:1008f0000001be003f0007000470a70003f0a10044
:1009000003f8a30013003a006509b100100032009b
:10091000090035006928e1000200350001002800c7
:100920000000050000004000818048008502e900c9
:10093000fcff3a0000000600f88f42000500350079
:100940008100d1000080d3008502e800fcff3a005e
:10095000000006008000eb00000005008100200080
:10096000618055000b003d000b00200061fe2f0050
:100970000100e1001d00340082817100610164000a
:100980008904d1000884d3000000e800faff3a008f
:10099000710020006100640003007000020060002c
:1009a0000900320061044400e0844c000988a5007d
:1009b000050032008b05e8006808e10002003a00fb
:1009c0008904d1000884d300f20f20000258e1000e
:1009d00005003d00c75ddd00f907b20089807500a4
:1009e00008007800000006000bf827008b00780054
:1009f00000000500c70ade00f107b200f50fb200e3
:100a000008003200e1cf4200020032000170a00075
:100a100024000500810f7000010032000408050069
:100a200044000500810f700002003a001400050028
:100a30008502e9000000400081c04800fcff3b0047
:100a40000170a000240005000200be006450e10017
:100a5000050036006420e100020036000968a300aa
:100a600001003a000800be000160a0004f067800b7
:100a70004f05be004f04be0000000600f0ff2f002f
:100a8000f1ff2700f9ff37000004be00d9ff07007f
:100a90000003be000405be000200be00d5ff070033
:080aa000844f75000000060000
:020000040000fa
:0200000401f009
:04000000f6ff000007
:020000040000fa
:0200000401f009
:04000400ff7f00007a
:020000040000fa
:0200000401f009
:04000c00ffff0000f2
:020000040000fa
:0200000401f009
:04001000ffff0000ee
:020000040000fa
:0200000401f009
:04001400ffff0000ea
:020000040000fa
:100008001a5500001a5500001a5500001a5500002c
:100018001a5500001a5500001a5500001a5500001c
:100028001a5500001a5500001a550000b63d000088
:100038001a5500001a5500008a2600001a550000bb
:100048001a550000ea4f000094510000544900007e
:100058001a5500001a5500001a55000066290000bc
:100068001a5500001a5500001a5500001a550000cc
:100078001a55000016290000682500001a550000ce
:10008800de1500001e1700001a5500001a55000062
:100098001a550000c02400001a5500001a55000027
:1000a8001a5500001a5500001a5500001a5500008c
:1000b8001a5500001a5500001a5500001a5500007c
:1000c8001a5500001a5500001a5500001a5500006c
:1000d8001a5500001a5500001a5500001a5500005c
:1000e8001a5500001a5500001a5500001a5500004c
:0800f8001a5500001a55000022
:020000040000fa
:100108001a5500001a5500001a5500001a5500002b
:100118001a5500001a5500001a5500001a5500001b
:100128001a5500001a5500001a550000b63d000087
:100138001a5500001a5500008a2600001a550000ba
:100148001a550000ea4f000094510000544900007d
:100158001a5500001a5500001a55000066290000bb
:100168001a5500001a5500001a5500001a550000cb
:100178001a55000016290000682500001a550000cd
:10018800de1500001e1700001a5500001a55000061
:100198001a550000c02400001a5500001a55000026
:1001a8001a5500001a5500001a5500001a5500008b
:1001b8001a5500001a5500001a5500001a5500007b
:1001c8001a5500001a5500001a5500001a5500006b
:1001d8001a5500001a5500001a5500001a5500005b
:1001e8001a5500001a5500001a5500001a5500004b
:0801f8001a5500001a55000021
:020000040000fa
:100aa8000000fa0070908000610060000000e00023
:100ab80008003200c09880000000e800c098880054
:100ac800c0988000ea0f5000020036000000eb00da
:100ad8008090880018c2bf00684060000004e000f1
:100ae80008003a0018c2bf00624060000004e0003d
:100af80004003a0018c2bf00644060000004e0002f
:100b080001003200030807000080fa000000060018
:100b18000000fa00609d80000000e800609d8800e9
:100b2800619d8000401f2000808f50000500360026
:100b3800f80707000000eb00809088000e12a9005b
:100b48000fb2a80070908000620060000000e00012
:100b580004003200020907000e32a9000000eb0071
:100b6800609d880070908000680060000000e000d0
:100b780004003200a600070061000700a30907006f
:100b88000e72a90070908000012020000100600012
:100b98000000e00004003200d800070069000700e8
:100ba8009a0907000f32a900a09d8000610060002b
:100bb8000000e000040032000b010700720007008b
:100bc80092090700b413a900a09d8000700060007e
:100bd8000000e00004003200440107007b00070029
:100be8008a090700b493a900709080007000600023
:100bf8000000e000040032007d0107000e92a90009
:100c08000000eb00609d880070908000014020008b
:100c1800010060000000e00004003200c901070084
:100c28000f52a9000000eb00609d8800a09d800085
:100c3800620060000000e0000400320017020700b4
:100c4800b433a9000000eb00609d8800a09d8000df
:100c580001022000010060000000e00004003200f2
:100c680065020700b4b3a9000000eb00609d88008e
:100c78007090800001022000010060000000e00088
:100c880004003200b30207000eb2a9000000eb0016
:100c9800609d880070908000018020000100600045
:100ca8000000e00004003200370307000f72a900bb
:100cb8000000eb00609d8800709080000100220019
:100cc800010060000000e000040032003505070064
:100cd8000fb2a9000000eb00609d880070908000b2
:100ce80001042000010060000000e0000200320062
:100cf800470707000ed2a9000080fa00000006008e
:100d08000000fa00a00a2000f098880000022000e5
:100d18000099880030082000109988000000eb0036
:100d280030998800b00b2000309d88000000eb004f
:100d3800e0988800e00f2000d01088000080fa00ba
:100d4800000006000000fa00a00a2000f0988800c1
:100d580000022000009988003007200010998800c0
:100d68000000eb0030998800b00b2000309d88000f
:100d78000000eb00e0988800e00f2000d010880009
:100d88000080fa00000006000000fa00a00a200017
:100d9800f0988800000220000099880030062000a2
:100da800109988000000eb0030998800b00b2000f3
:100db800309d88000000eb00e0988800e00f2000dc
:100dc800d01088000080fa00000006000000fa0039
:100dd800a00a2000f09888000002200000998800ee
:100de80030052000109988000000eb003099880039
:100df800b00b2000309d88000000eb00e0988800d0
:100e0800e00f2000d01088000080fa0000000600e3
:100e18000600fa000000eb0020079800900280000e
:100e280010079800ff3ffc00210420009140780043
:100e380000ceb30000c0700042e0b7001e00900072
:100e4800900288008d60a9000000eb002007980040
:100e58001a0037002e009000000040008000780043
:100e680000c02f0000804000707c8800707c8000eb
:100e780080007800f00720001200200022260700da
:100e8800707c800000017800f007200000027800e4
:100e98002e0090000000400080007800002a210009
:100ea8000080400013002000840078003a260700e4
:100eb8002e0090000000e800200798002e00900007
:100ec800ed0f5000e3ff360090028000000f78001d
:100ed800ff3ffc0042c0bf007f40600001c6b30076
:100ee8000140700042e0b7001e00780090028800c0
:100ef8008d60a8000080fa00000006000600fa00d5
:100f08000000eb002007980090028000100798006e
:100f1800ff3ffc00210420009140780000ceb30080
:100f280000c0700042e0b7001e00900090028800e8
:100f38008d60a9000000eb00200798001a00370018
:100f48002e009000000040008000780000c02f00b4
:100f580000804000707c8800707c800080007800f1
:100f6800f007200012002000e7250700707c8000b1
:100f780000017800f0072000000278002e009000a1
:100f88000000400080007800002a21000080400016
:100f98001300200084007800ff2507002e00900031
:100fa8000000e800200798002e009000fd0f500078
:100fb800e3ff360090028000000f7800ff3ffc003e
:100fc80042c0bf007f40600001c6b300014070000e
:100fd80042e0b7001e007800900288008d60a800eb
:100fe8000080fa00000006000800fa000000eb008c
:100ff800300798000000eb0020079800900280005e
:1010080010079800ff3ffc00210420009140780061
:1010180000ceb30000c0700042e0b7001e00900090
:10102800900288008d60a900000220003007980017
:101038001d0037003e00900000004000800078004e
:1010480000c02f0000804000707c8800707c800009
:1010580080007800f007200012002000aa25070071
:10106800707c800000017800f00720000002780002
:101078002e0090000000400080007800002a210027
:10108800008040001300200084007800c22507007b
:101098002e0090000000e800200798003e00900015
:1010a8000000e80030079800be009000d003200040
:1010b800808f5000dfff360090028000000f78001c
:1010c800ff3ffc0042c0bf007f40600001c6b30084
:1010d8000140700042e0b7001e00780090028800ce
:1010e8008d60a8000080fa00000006000800fa00e1
:1010f8000000eb00300798000000eb002007980084
:101108009002800010079800ff3ffc002104200097
:101118009140780000ceb30000c0700042e0b700f4
:101128001e009000900288008d60a900e003200056
:10113800300798001d0037003e0090000000400076
:101148008000780000c02f0000804000707c88007c
:10115800707c800080007800f007200012002000da
:1011680069250700707c800000017800f0072000e6
:10117800000278002e0090000000400080007800f7
:10118800002a21000080400013002000840078001d
:10119800812507002e0090000000e8002007980035
:1011a8003e0090000000e80030079800be00900064
:1011b800b0052000808f5000dfff360090028000cd
:1011c800000f7800ff3ffc0042c0bf007f40600076
:1011d80001c6b3000140700042e0b7001e0078006d
:1011e800900288008d60a8000080fa0000000600c8
:1011f8000400fa000000eb00100798000000eb0064
:10120800000f7800a00a2000f09888000001200054
:10121800009988002008200010998800c00120004b
:10122800309988000000eb00100798001400370080
:101238001e009000000040008000780000c02f00d1
:1012480000804000707c88001e0090000000400074
:1012580080007800a0f9200000804000000178009c
:10126800707c800080007800f007200013002000c8
:10127800182507001e0090000000e80010079800dd
:101288001e009000ef0f5000e9ff36000000eb0051
:1012980010079800200037001e0190001e007800fb
:1012a80080004000a0f92000008040001000780075
:1012b800c801de0002004100e111200080804000ea
:1012c8000021210000804000030878001e009000e3
:1012d8000000e800100798001e0190001e0078002a
:1012e80080004000a0f920000080400090017800b4
:1012f80002004100e111200080804000002121000f
:1013080000804000030878001e0090000000e800fc
:10131800100798001e0fe8001e009000ff0f5000f5
:10132800ddff3600b00b2000309d88000000eb0088
:10133800e0988800e00f2000d01088000080fa00b4
:10134800000006000400fa000000eb0010079800f7
:101358000000eb00000f7800a00a2000f098880039
:1013680000012000009988002007200010998800bb
:10137800c0032000309988000000eb001007980097
:10138800140037001e009000000040008000780024
:1013980000c02f0000804000707c88001e00900074
:1013a8000000400080007800a0f920000080400084
:1013b80000017800707c800080007800f007200031
:1013c80013002000c32407001e0090000000e8005e
:1013d800100798001e009000ff0f5000e9ff36002c
:1013e8000000eb0010079800200037001e01900055
:1013f8001e00780080004000a0f920000080400016
:1014080010007800c801de0002004100e111200050
:1014180080804000002121000080400003087800ff
:101428001e0090000000e800100798001e019000c0
:101438001e00780080004000a0f9200000804000d5
:101448009001780002004100e111200080804000f6
:101458000021210000804000030878001e00900051
:101468000000e800100798001e0fe8009e0090009a
:10147800f0032000808f5000dcff3600b00b200006
:10148800309d88000000eb00e0988800e00f200005
:10149800d01088000080fa00000006000400fa005e
:1014a8000000eb001007980000022000000f7800f1
:1014b800a00a2000f0988800000120000099880008
:1014c8002006200010998800c00320003099880069
:1014d8000002200010079800140037001e0090003a
:1014e800000040008000780000c02f00008040000d
:1014f800707c88001e00900000004000800078008a
:10150800a0f920000080400000017800707c800075
:1015180080007800f0072000130020006d240700e9
:101528001e0090000000e800100798009e00900040
:10153800d0032000808f5000e8ff36000000eb0049
:1015480010079800200037001e0190001e00780048
:1015580080004000a0f920000080400010007800c2
:10156800c801de0002004100e11120008080400037
:101578000021210000804000030878001e00900030
:101588000000e800100798001e0190001e00780077
:1015980080004000a0f92000008040009001780001
:1015a80002004100e111200080804000002121005c
:1015b80000804000030878001e0090000000e8004a
:1015c800100798001e0fe8009e009000b00320004e
:1015d800808f5000dcff3600b00b2000309d880063
:1015e8000000eb00e0988800e00f2000d010880091
:1015f8000080fa00000006000400fa000000eb007a
:101608001007980000022000000f7800a00a2000b0
:10161800f09888000001200000998800200520002b
:1016280010998800c003200030998800e00320004a
:1016380010079800140037001e00900000004000ba
:101648008000780000c02f0000804000707c880077
:101658001e0090000000400080007800a0f92000e3
:101668000080400000017800707c800080007800d5
:10167800f007200013002000162407001e00900029
:101688000000e800100798009e009000b0052000b8
:10169800808f5000e8ff36000000eb00100798002c
:1016a800200037001e0190001e00780080004000d6
:1016b800a0f920000080400010007800c801de007a
:1016c80002004100e111200080804000002121003b
:1016d80000804000030878001e0090000000e80029
:1016e800100798001e0190001e007800800040003e
:1016f800a0f920000080400090017800020041001d
:10170800e11120008080400000212100008040007d
:10171800030878001e0090000000e80010079800f9
:101728001e0fe8009e009000b0032000808f50003c
:10173800dcff3600b00b2000309d88000000eb0075
:10174800e0988800e00f2000d01088000080fa00a0
:10175800000006000000fa00a00a2000f0988800a7
:1017680000012000009988001008200010998800c6
:10177800600120003099880090ad8000e30f500090
:101788000300320090ad8000e40f500010003a00d2
:10179800604380004800de00709988006043800044
:1017a80080998800704380004800de009099880086
:1017b80070438000a0998800708e80004800de0089
:1017c800b0998800708e8000c09988000c0037009e
:1017d8000000eb00709988000000eb0080998800f9
:1017e8000000eb00909988000000eb00a0998800a9
:1017f8000000eb00b09988000000eb00c099880059
:10180800f08080004800de00d0998800f0808000d9
:10181800e0998800008180004800de00f099880087
:1018280000818000009a8800108180004800de0056
:10183800109a880010818000209a880050828000c9
:101848004800de00309a880050828000409a880064
:1018580090ad80004800de00509a880090ad80006e
:10186800609a8800609a80000000e00009003a0051
:101878000000eb00609a8800817c8000a0aa2a0002
:10188800808f500029003a0040002000609a8800ac
:1018980026003700609a8000e10f500009003a00e6
:1018a80010002000609a8800817c8000a0aa2a008d
:1018b800808f50001d003a0040002000609a880088
:1018c8001a003700609a8000e20f500003003a00c7
:1018d80020002000609a880014003700609a800079
:1018e800e30f500003003a0020002000609a8800af
:1018f8000e003700609a8000e40f500003003a00a1
:1019080030002000609a880008003700609a800044
:10191800e50f500003003a0050002000609a88004c
:10192800020037000000eb00609a880060818000a8
:101938004800de00709a880060818000809a8800e4
:10194800907c80004800de00909a8800907c80009f
:10195800a09a8800508280004800de00b09a880073
:1019680050828000c09a8800b00b2000309d88000b
:101978000000eb00e0988800e00f2000d0108800fd
:101988000080fa00000006000000fa00a00a20000b
:10199800f0988800000120000099880010072000b6
:1019a80010998800a00220003099880090ad80002e
:1019b800e30f50000300320090ad8000e40f5000a8
:1019c80010003a00604380004800de0070998800eb
:1019d8006043800080998800704380004800de00e2
:1019e8009099880070438000a09988008043800007
:1019f8004800de00b099880080438000c0998800c4
:101a08000c0037000000eb00709988000000eb0024
:101a1800809988000000eb00909988000000eb0096
:101a2800a09988000000eb00b09988000000eb0046
:101a3800c0998800f08080004800de00d0998800b6
:101a4800f0808000e0998800412d200091407800c6
:101a580000c8b30000c060000004e00004003a00c1
:101a6800809d80000000a000809d88000400370051
:101a7800809d8000e1ff2f0001006000809d8800ac
:101a8800e0c2bf00614060000004e00004003a00ca
:101a9800809d80000010a000809d88000400370011
:101aa800809d8000d1ff2f0001006000809d88008c
:101ab800e0c2bf00624060000004e00004003a0099
:101ac800809d80000020a000809d880004003700d1
:101ad800809d8000b1ff2f0001006000809d88007c
:101ae800e6c2bf00624060000004e00004003a0063
:101af800809d80000030a000809d88000400370091
:101b0800809d800071ff2f0001006000809d88008b
:101b1800e6c2bf00614060000004e00004003a0033
:101b2800809d80000040a000809d88000400370050
:101b3800809d8000f1fe2f0001006000809d8800dc
:101b4800cfc2bf000042b2000004e00005003a0026
:101b5800809d80000102200001007000809d8800a7
:101b680004003700809d8000f1fd2f000100600017
:101b7800809d8800cfc2bf000044b2000004e0008e
:101b880005003a00809d80000104200001007000db
:101b9800809d880004003700809d8000f1fb2f00a5
:101ba80001006000809d8800c8c2bf0064406000da
:101bb8000004e00005003a00809d80000108200034
:101bc80001007000809d880004003700809d80001f
:101bd800f1f72f0001006000809d8800c8c2bf0097
:101be800684060000004e00005003a00809d800025
:101bf8000110200001007000809d8800040037005b
:101c0800809d8000f1ef2f0001006000809d88001a
:101c1800c8c2bf00704060000004e00005003a0040
:101c2800809d80000120200001007000809d8800b8
:101c380004003700809d8000f1df2f000100600064
:101c4800809d8800a07c80000110200001006000b9
:101c58000000e00005003200809d8000010028009f
:101c680001007000809d880004003700809d80007e
:101c7800f1ff270001006000809d8800e9c2bf00d5
:101c88000044b2000004e00004003200909d80008f
:101c98000000a000909d880004003700909d8000ff
:101ca800e1ff2f0001006000909d8800e9c2bf009d
:101cb800704060000004e00004003200909d800045
:101cc8000010a000909d880004003700909d8000bf
:101cd800d1ff2f0001006000909d8800e9c2bf007d
:101ce8000042b2000004e00004003200909d800031
:101cf8000020a000909d880004003700909d80007f
:101d0800b1ff2f0001006000909d8800e9c2bf006c
:101d180001c8b300014060000004e0000400320084
:101d2800909d80000030a000909d8800040037003e
:101d3800909d800071ff2f0001006000909d880039
:101d4800d0c2bf00624060000004e000040032001e
:101d5800909d80000040a000909d880004003700fe
:101d6800909d8000f1fe2f0001006000909d88008a
:101d7800d0c2bf00644060000004e00005003200eb
:101d8800909d80000102200001007000909d880055
:101d980004003700909d8000f1fd2f0001006000d5
:101da800909d8800e8c2bf0001c8b30001406000f0
:101db8000004e00005003200909d8000010420002e
:101dc80001007000909d880004003700909d8000fd
:101dd800f1fb2f0001006000909d8800e9c2bf0060
:101de800614060000004e00005003200909d800022
:101df8000108200001007000909d88000400370051
:101e0800909d8000f1f72f0001006000909d8800f0
:101e1800e9c2bf00624060000004e0000500320033
:101e2800909d80000110200001007000909d8800a6
:101e380004003700909d8000f1ef2f000100600042
:101e4800909d8800e8c2bf000044b2000004e00092
:101e580005003200909d80000120200001007000e4
:101e6800909d880004003700909d8000f1df2f00ce
:101e780001006000909d8800809d80004800de0081
:101e8800f0998800809d8000009a8800909d8000cd
:101e98004800de00109a8800909d8000209a8800f3
:101ea800b08880004800de00309a8800b088800042
:101eb800409a880090ad80004800de00509a880063
:101ec80090ad8000609a8800609a80000000e00071
:101ed80009003a000000eb00609a8800817c8000cd
:101ee800a0aa2a00808f500029003a004000200054
:101ef800609a880026003700609a8000e10f500041
:101f080009003a0010002000609a8800817c800057
:101f1800a0aa2a00808f50001d003a00400020002f
:101f2800609a88001a003700609a8000e20f50001b
:101f380003003a0020002000609a8800140037004f
:101f4800609a8000e30f500003003a002000200050
:101f5800609a88000e003700609a8000e40f5000f5
:101f680003003a0030002000609a8800080037001b
:101f7800609a8000e50f500003003a0050002000ee
:101f8800609a8800020037000000eb00609a880021
:101f9800608180004800de00709a880060818000bf
:101fa800809a8800907c80004800de00909a880023
:101fb800907c8000a09a8800508280004800de0053
:101fc800b09a880050828000c09a8800b081800052
:101fd8004800de00d09a8800b0818000e09a88002e
:101fe80070002000f09a8800c07d2000009b8800c7
:101ff80010aa80004800de00109b880010aa80000c
:10200800209b880000aa8000e10f500004003a00dd
:10201800709d80000000a000709d880004003700bb
:10202800709d8000e1ff2f0001006000709d880016
:1020380010a78000640060000000e0000400320087
:10204800709d80000010a000709d8800040037007b
:10205800709d8000d1ff2f0001006000709d8800f6
:1020680090ab8000e10f500004003a00709d8000a2
:102078000020a000709d880004003700709d80003b
:10208800b1ff2f0001006000709d88006181800011
:1020980090888000808f500004003900a07c800068
:1020a800700060000000e00004003a00709d8000ad
:1020b8000030a000709d880004003700709d8000eb
:1020c80071ff2f0001006000709d8800709d8000e6
:1020d8004800de00309b8800709d8000409b88008f
:1020e800a17c800000002200008060000000e00069
:1020f80006003a0060b080004800de00509b88006f
:1021080060b08000609b8800050037005081800027
:102118004800de00509b880050818000609b88004a
:10212800408380004800de00709b88004083800068
:10213800809b880020af80004800de00909b8800cc
:1021480020af8000a09b8800b08d80004880de0012
:10215800b09b8800b08d8000c09b88000081800003
:102168004800de00d09b880000818000e09b88004a
:10217800108180004800de00f09b880010818000fc
:10218800009c8800b00b2000309d88000000eb0008
:10219800e0988800e00f2000d01088000080fa0046
:1021a800000006000000fa00a00a2000f09888004d
:1021b800000120000099880050072000109988002d
:1021c800c00320003099880090ad8000e30f5000d4
:1021d8000300320090ad8000e40f500010003a0078
:1021e800604380004800de007099880060438000ea
:1021f80080998800704380004800de00909988002c
:1022080070438000a0998800804380004800de0069
:10221800b099880080438000c09988000c0037007e
:102228000000eb00709988000000eb00809988009e
:102238000000eb00909988000000eb00a09988004e
:102248000000eb00b09988000000eb00c0998800fe
:10225800f08080004800de00d0998800f08080007f
:10226800e0998800412d20009140780000c8b30013
:1022780000c060000004e00004003a00809d800077
:102288000000a000809d880004003700809d800029
:10229800e1ff2f0001006000809d8800e0c2bf00c0
:1022a800614060000004e00004003a00809d800066
:1022b8000010a000809d880004003700809d8000e9
:1022c800d1ff2f0001006000809d8800e0c2bf00a0
:1022d800624060000004e00004003a00809d800035
:1022e8000020a000809d880004003700809d8000a9
:1022f800b1ff2f0001006000809d8800e6c2bf008a
:10230800624060000004e00004003a00809d800004
:102318000030a000809d880004003700809d800068
:1023280071ff2f0001006000809d8800e6c2bf0099
:10233800614060000004e00004003a00809d8000d5
:102348000040a000809d880004003700809d800028
:10235800f1fe2f0001006000809d8800cfc2bf0001
:102368000042b2000004e00005003a00809d8000b1
:102378000102200001007000809d880004003700e1
:10238800809d8000f1fd2f0001006000809d880085
:10239800cfc2bf000044b2000004e00005003a00cc
:1023a800809d80000104200001007000809d88004d
:1023b80004003700809d8000f1fb2f0001006000c1
:1023c800809d8800c8c2bf00644060000004e0002f
:1023d80005003a00809d800001082000010070007f
:1023e800809d880004003700809d8000f1f72f0051
:1023f80001006000809d8800c8c2bf00684060007e
:102408000004e00005003a00809d800001102000d3
:1024180001007000809d880004003700809d8000c6
:10242800f1ef2f0001006000809d8800c8c2bf0046
:10243800704060000004e00005003a00809d8000c4
:102448000120200001007000809d880004003700f2
:10245800809d8000f1df2f0001006000809d8800d2
:10246800a07c800001102000010060000000e00056
:1024780005003200809d80000100280001007000e6
:10248800809d880004003700809d8000f1ff2700b0
:1024980001006000809d8800e9c2bf000044b200ce
:1024a8000004e00004003200909d80000000a000bd
:1024b800909d880004003700909d8000e1ff2f0068
:1024c80001006000909d8800e9c2bf007040600074
:1024d8000004e00004003200909d80000010a0007d
:1024e800909d880004003700909d8000d1ff2f0048
:1024f80001006000909d8800e9c2bf000042b20060
:102508000004e00004003200909d80000020a0003c
:10251800909d880004003700909d8000b1ff2f0037
:1025280001006000909d8800e9c2bf0001c8b300a7
:10253800014060000004e00004003200909d80002b
:102548000030a000909d880004003700909d800016
:1025580071ff2f0001006000909d8800d0c2bf006d
:10256800624060000004e00004003200909d80009a
:102578000040a000909d880004003700909d8000d6
:10258800f1fe2f0001006000909d8800d0c2bf00be
:10259800644060000004e00005003200909d800067
:1025a8000102200001007000909d8800040037009f
:1025b800909d8000f1fd2f0001006000909d880033
:1025c800e8c2bf0001c8b300014060000004e00099
:1025d80005003200909d8000010420000100700079
:1025e800909d880004003700909d8000f1fb2f002b
:1025f80001006000909d8800e9c2bf006140600052
:102608000004e00005003200909d800001082000d1
:1026180001007000909d880004003700909d8000a4
:10262800f1f72f0001006000909d8800e9c2bf000b
:10263800624060000004e00005003200909d8000c8
:102648000110200001007000909d880004003700f0
:10265800909d8000f1ef2f0001006000909d8800a0
:10266800e8c2bf000044b2000004e00005003200e8
:10267800909d80000120200001007000909d88003e
:1026880004003700909d8000f1df2f0001006000fa
:10269800909d8800809d80004800de00f0998800a9
:1026a800809d8000009a8800909d80004800de0090
:1026b800109a8800909d8000209a8800b088800039
:1026c8004800de00309a8800b0888000409a880070
:1026d80090ad80004800de00509a880090ad8000e0
:1026e800609a8800609a80000000e00009003a00c3
:1026f8000000eb00609a8800817c8000a0aa2a0074
:10270800808f500029003a0040002000609a88001d
:1027180026003700609a8000e10f500009003a0057
:1027280010002000609a8800817c8000a0aa2a00fe
:10273800808f50001d003a0040002000609a8800f9
:102748001a003700609a8000e20f500003003a0038
:1027580020002000609a880014003700609a8000ea
:10276800e30f500003003a0020002000609a880020
:102778000e003700609a8000e40f500003003a0012
:1027880030002000609a880008003700609a8000b6
:10279800e50f500003003a0050002000609a8800be
:1027a800020037000000eb00609a8800608180001a
:1027b8004800de00709a880060818000809a880056
:1027c800907c80004800de00909a8800907c800011
:1027d800a09a8800508280004800de00b09a8800e5
:1027e80050828000c09a8800b08180004800de00d6
:1027f800d09a8800b0818000e09a8800700020009c
:10280800f09a8800c07d2000009b880010aa8000f4
:102818004800de00109b880010aa8000209b8800da
:1028280000aa8000e10f500004003a00709d80006b
:102838000000a000709d880004003700709d800093
:10284800e1ff2f0001006000709d880010a7800044
:10285800640060000000e00004003200709d800009
:102868000010a000709d880004003700709d800053
:10287800d1ff2f0001006000709d880090ab8000a0
:10288800e10f500004003a00709d80000020a00075
:10289800709d880004003700709d8000b1ff2f00f4
:1028a80001006000709d8800618180009088800030
:1028b800808f500004003900a07c80007000600008
:1028c8000000e00004003a00709d80000030a00085
:1028d800709d880004003700709d800071ff2f00f4
:1028e80001006000709d8800709d80004800de0037
:1028f800309b8800709d8000409b8800a17c8000f0
:1029080000002200008060000000e00006003a009d
:1029180060b080004800de00509b880060b08000f6
:10292800609b880005003700508180004800de0069
:10293800509b880050818000609b88004083800005
:102948004800de00709b880040838000809b8800e0
:1029580020af80004800de00909b880020af8000f8
:10296800a09b8800a08d80004880de00b09b880076
:10297800a08d8000c09b8800008180004800de0098
:10298800d09b880000818000e09b88001081800037
:102998004800de00f09b880010818000009c8800c1
:1029a800808d80004880de00109c8800808d80002b
:1029b800209c8800108e80004800de00309c880033
:1029c800108e8000409c8800008e80004800de0049
:1029d800509c8800008e8000609c8800408e80009b
:1029e8004800de00709c8800408e8000809c880033
:1029f800b00b2000309d88000000eb00e0988800b4
:102a0800e00f2000d01088000080fa0000000600c7
:102a18000200fa00a00a2000f098880000012000b7
:102a28000099880040082000109988004000200084
:102a380030998800e0012000000f78001e0078001f
:102a4800000040008000780000c02f000080400097
:102a5800707c88001e00780000004000800078002c
:102a6800a0f920000080400000017800707c800000
:102a780080007800f007200013002000151f0700d1
:102a8800f0012000000f78001e00780000004000d0
:102a98008000780000c02f0000804000707c880013
:102aa8001e0078000000400080007800a0f9200097
:102ab8000080400000017800707c80008000780071
:102ac800f007200013002000021f0700b07e8000de
:102ad8004800de0070998800b07e800080998800e8
:102ae800c07e80004800de0090998800c07e80008b
:102af800a0998800b00b2000309d88000000eb00f2
:102b0800e0988800e00f2000d01088000080fa00cc
:102b1800000006000000fa0030032000f0108800d2
:102b28000000eb00b010880017e2a80017a2a80068
:102b380016a2a900612120009140780090cfb3002f
:102b480000c0600016e2b7001602a9000000eb0002
:102b5800c01088001942a80019e2a90018c2bf00d5
:102b6800f043b20018e2b7008720a9008700a90047
:102b7800010a200091407800f0c8b30000c060004e
:102b880001c4b30001407000a0e0b700010a2000b2
:102b98009140780080cfb30000c060000024a000fe
:102ba800a0e0b7008f20a8008f00a8000080fa00de
:102bb80000000600809fbe00821f78003400f800e5
:102bc80000002000a00188000000fa000ec2bf002b
:102bd800624060000004e000010032000e22a900fb
:102be8000e12a8000000eb00c098880070908000ca
:102bf800620060000000e00086003a000ec2bf00dc
:102c0800644060000004e00084003a008090800086
:102c18000000e0000b003a00e0108000909088006f
:102c280091908000a00a2000808f50007b003a001d
:102c380010002000809088000000eb00e0908800e1
:102c48007600370080908000e10f500005003a00c0
:102c58002000200080908800e0108000a09088006c
:102c68006e00370080908000e20f500005003a00a7
:102c78003000200080908800e0108000b09088002c
:102c88006600370080908000e30f500022003a0071
:102c98004000200080908800e0108000d0908800dc
:102ca800d0908000c0908800d0908000fc0f500029
:102cb80003003a0070032000809088005700370016
:102cc800d1908000c0032000808f500003003a009c
:102cd800800320008090880050003700d09080004a
:102ce800e10f500003003a00400020008090880067
:102cf8004a003700d09080000000e00003003a004e
:102d08004000200080908800440037000000eb005d
:102d1800809088004100370080908000e40f5000c8
:102d28000b003a00e0108000d0948800d194800015
:102d3800b00b2000808f500002003a000e32a8002d
:102d48000e12a9000000eb008090880033003700c5
:102d58008190800070032000808f500013003a009b
:102d6800d09080000000e900d0908800e0908000ba
:102d7800e210800000004000f20040000021210025
:102d88000080400002087800e09080000000e80021
:102d9800e0908800d09080000000e0001f003a001a
:102da80040002000809088001c003700819080003f
:102db80080032000808f500013003a00d0908000dc
:102dc8000000e900d0908800e0908000e2108000c8
:102dd80000004000f2004000002121000080400077
:102de80002087800e09080000000e800e090880089
:102df800d09080000000e00008003a004000200069
:102e080080908800050037000000eb008090880063
:102e180002003700e0108000909088008700a90029
:102e28000080fa003400f9004f0178004f00be001e
:102e380000400600809fbe003400f800000020001b
:102e4800a00188000000fa00e09880000000e0007f
:102e580005003a00f0988000d0108800100020008b
:102e6800e098880039003700e0988000e10f5000b2
:102e780005003a0020002000e098880000998000b2
:102e8800d010880031003700e0988000e20f500031
:102e980005003a0030002000e09888001099800072
:102ea800d010880029003700e0988000e30f500018
:102eb80007003a0040002000e09888003099800020
:102ec800d01088000000eb00409988001f003700f0
:102ed800e0988000e40f50001a003a003099800012
:102ee8000000e00006003a0020042000e098880076
:102ef800b00b2000d01088000e52a8001300370035
:102f080040002000e09888004099800000004000c0
:102f1800e111200080804000002121000080400055
:102f280010007800d0108800409980000000e80068
:102f380040998800309980000000e90030998800a5
:102f48000200370020042000e09888008720a900ac
:102f58000080fa003400f9004f00be00004006006f
:102f68000000fa008700a9008f00a9000000eb000c
:102f7800f09088000000eb00009188000000eb0052
:102f88000091880027003700c09080000000e90009
:102f9800c0908800c09080000000e900c0908800c0
:102fa800f190800001804000720140000021210062
:102fb8000000410010007800e09488000100e8005b
:102fc800f0908800f190800001804000720140007c
:102fd800002121000000410010007800f0948800d2
:102fe8000100e800f0908800e09480004800dd00cf
:102ff800e094880002918000e1948000f0948000c1
:1030080080814000020041000109200080804000ca
:103018000021210000804000030878000200e80039
:1030280000918800c0908000e10f5000d6ff3e005c
:10303800a0908000f00f500057003a00b190800037
:1030480010082000808f500002003a000eb2a8003d
:103058006b003700b190800010072000808f50006f
:1030680002003a000f72a80065003700b190800096
:1030780050072000808f500002003a000fb2a800cd
:103088005f003700b190800020082000808f50003a
:1030980002003a000e92a80059003700b190800053
:1030a80020072000808f500002003a000f52a8002d
:1030b80053003700b190800020062000808f500018
:1030c80002003a00b433a8004d003700b1908000e8
:1030d80020052000808f500002003a00b4b3a800f9
:1030e80047003700b190800040082000808f5000d2
:1030f80002003a000ed2a80041003700b1908000cb
:1031080050082000808f500006003a00d0908000c0
:10311800e10f50003a003a000ef2a8000f12a90081
:1031280037003700b190800060082000808f500081
:1031380005003a00d0908000e10f500030003a00be
:103148000f12a8002e003700b190800070082000f0
:10315800808f500005003a00d0908000e10f5000a9
:1031680027003a00e214a80025003700b19080003b
:1031780080082000808f500005003a00d090800021
:10318800e10f50001e003a00e234a8001c0037008e
:10319800000000001a003700a19080000002200003
:1031a800808f500015003a00b19080003008200050
:1031b800808f500001003a000e72a800b190800084
:1031c80030072000808f500001003a000f32a8001d
:1031d800b190800030062000808f500001003a0036
:1031e800b413a800b190800030052000808f5000f3
:1031f80003003a00b493a800010037000000000063
:103208008f00a8000080fa00000006004400fa00c1
:10321800889fbe000000eb00102798000000eb001c
:1032280010279800140037001e209000000040006e
:103238008000780000c02f0000804000707c88006b
:103248001e2090000000400080007800a0f92000b7
:103258000080400000017800707c800080007800c9
:10326800f0072000130020001a1d07001e20900000
:103278000000e800102798009e209000d00320004e
:10328800808f5000e8ff3600d07f8000908788004c
:10329800908780000000e00002003a0050d0200033
:1032a8009087880090878000010020004a09dd008f
:1032b800c600de00810071004a00dd00a08788009a
:1032c800b1878800a07e800080007800000021007f
:1032d80000806000002798008e20900000002100e8
:1032e800808f500002003a00958fa8000100370037
:1032f800958fa900d17c800060042000808f500049
:103308000300360050012000d07c880007003700f9
:10331800d07c8000e90f500003003e0050012000df
:10332800d07c88000100370000000000d17c8000bc
:10333800400620000088b900d07c8800a17c80006d
:1033480000002100008060000000e0000f003a004b
:10335800d17c800000f42100010050000100200011
:10336800208288003182880020828000318280009b
:103378004a09dd00c600de00810071004a00dd0058
:1033880020828800318288000e003700d17c8000be
:10339800a0a0210001005000010020002082880028
:1033a8003182880020828000318280004a09dd0055
:1033b800c600de00810071004a00dd00208288001e
:1033c80031828800e17c800000052000808f500059
:1033d8000200360080022000e07c8800e17c80004a
:1033e800400620000088b9004082880022828000c0
:1033f80033828000a0878000b187800000025100de
:1034080081825900408280006101b8000400be003a
:10341800c7f407005083880022828000338280002e
:10342800a0878000b187800000005100818059008a
:10343800027d200003002000bdf40700608388009f
:10344800017d8000007d2000808f50000300360041
:10345800800c2000007d880001003700000000007b
:10346800007d800020888800f17c8000401f2000bb
:10347800808f500003003600e0152000f07c8800a3
:1034880008003700f17c800030062000808f500053
:1034980003003e00e0152000f07c880001003700a2
:1034a80000000000f07c8000a2002000110009004c
:1034b8000280d800f07c8800208880006104b80071
:1034c800f07c80006102b800880078000400780071
:1034d800000bb80005c0b9000701780000014100e1
:1034e80009a0b9000001410082037800a200200071
:1034f800030020000600be0087f3070070828800e2
:10350800107d8000e30f5000030036000000eb0040
:10351800107d88000100370000000000107d800049
:1035280060828800207d8000708b8800307d80005c
:1035380052002000110009000280d800608b88002a
:10354800407d800090828800517d8000c00320006b
:10355800808f50000200360040012000507d880016
:10356800517d8000400620000088b900a0828800b4
:10357800607d800060888800717d8000c012200016
:10358800808f50000300360020032000707d8800e3
:1035980007003700707d8000e90f500003003e00ef
:1035a80020032000707d8800010037000000000023
:1035b800707d800080888800817d80006004200004
:1035c800808f50000200360030022000807d880085
:1035d800807d800090888800917d800060042000b4
:1035e800808f50000300360080022000907d880004
:1035f80007003700907d8000fd0f500003003e005b
:1036080080022000907d8800010037000000000043
:10361800917d8000400620000088b900010020004c
:10362800b0828800c1828800a17d800060042000eb
:10363800808f500003003600c0032000a07d880062
:1036480007003700a07d8000fd0f500003003e00fa
:10365800c0032000a07d88000100370000000000a2
:10366800a17d8000400620000088b90001002000ec
:10367800d0828800e1828800d2828000e3828000c4
:10368800b0828000c1828000800f5100818f590074
:1036980009003600d0828000e1828000b28280007a
:1036a800c382800002005000838058000083880095
:1036b8001183880008003700d0828000e1828000f2
:1036c800b2828000c38280000200500083805800cc
:1036d80000838800118388000083800011838000a4
:1036e8004a09dd00c600de00810071004a00dd00e5
:1036f800008388001183880004838000158380007c
:10370800a08280006101b8000400be0008f4070030
:10371800f0828800b0828000c18280004a09dd0002
:10372800c600de00810071004a00dd00b08288001a
:10373800c1828800d0828000e18280004a09dd00d1
:10374800c600de00810071004a00dd00d0828800da
:10375800e1828800b07d800030848800c07d8000d0
:1037680040848800d07d800050848800e07d8000ff
:1037780060848800f07d80007084880090ab8000b1
:103788000000e00004003a00f07d8000b088880066
:103798000000eb00a0888800007e800080848800fc
:1037a800107e800010858800207e8000208588009b
:1037b800307e8000b0848800407e8000c08488000d
:1037c800507e8000d0848800607e8000e08488007d
:1037d800707e8000f0848800807e800000858800ec
:1037e800907e800030858800a07e800061006000a7
:1037f800701f98007e189000e10f500002003a00f8
:10380800940fa80001003700940fa900a07e800043
:1038180062006000601f98006e189000e20f500070
:1038280002003a00942fa80001003700942fa90045
:10383800a07e800064006000501f98005e18900011
:10384800e40f500002003a00944fa800010037002e
:10385800944fa900a07e800068006000401f980077
:103868004e189000e80f500002003a00946fa8002c
:1038780001003700946fa900a07e800070006000ee
:10388800301f98003e189000f00f500002003a00d8
:10389800948fa80001003700948fa900a07e8000b3
:1038a800800078000002200000806000201f98003f
:1038b800ae18900000022000808f500002003a00ed
:1038c80094afa8000100370094afa900a07e800043
:1038d800800078000004200000806000101f98001d
:1038e8009e18900000042000808f500002003a00cb
:1038f80094cfa8000100370094cfa900a07e8000d3
:10390800800078000008200000806000001f9800f8
:103918008e18900000082000808f500002003a00a6
:1039280094efa8000100370094efa900a07e800062
:103938008000780000202000008060007017980048
:10394800fe10900000202000808f500002003a00f6
:10395800952fa80001003700952fa900a07c8000b2
:1039680001202000010060000000e0000a003a0089
:10397800a07e80008000780000102000008f60008a
:10398800001020009e0f100002003a00950fa800ba
:1039980001003700950fa900a07e80008000780004
:1039a800004020000080600060179800ee10900032
:1039b80000402000808f500002003a00954fa80078
:1039c80001003700954fa900a07e80008000780094
:1039d800008020000080600050179800de109000e2
:1039e80000802000808f500002003a00956fa800e8
:1039f80001003700956fa900a07c8000010021001c
:103a0800010060000000e00005003a0040062000c8
:103a1800808e880020032000908e880004003700e4
:103a280040052000808e8800a0022000908e88002b
:103a3800a07e8000800078000000220000806000e6
:103a480040179800ce10900000002200808f500090
:103a580002003a0095afa8000100370095afa90011
:103a6800a07e8000800078000000240000806000b4
:103a780030179800be10900000002400808f50007e
:103a880002003a0095cfa8000100370095cfa900a1
:103a9800a07e800080007800000028000080600080
:103aa80020179800ae10900000002800808f50006a
:103ab80002003a0095efa8000100370095efa90031
:103ac800b07e8000d0808800c07e8000e0808800c2
:103ad800d07e80006103b8008600780000002900cd
:103ae8000009b8006130b900030278000002420002
:103af8000000290000b8b9000002420084017800e3
:103b08000200be004085880051858800e07e800064
:103b18006103b80086007800000029000009b80099
:103b28006130b90003027800000242000000290059
:103b380000b8b90000024200840178000200be000b
:103b48006085880071858800f07e80006103b80078
:103b580086007800000029000009b8006130b9002b
:103b680003027800000242000000290000b8b900f2
:103b780000024200840178000200be0080858800af
:103b880091858800007f80006103b8008600780076
:103b9800000029000009b8006130b900030278006c
:103ba800000242000000290000b8b90000024200eb
:103bb800840178000200be00a0858800b1858800d5
:103bc800107f80006103b80086007800000029009b
:103bd8000009b8006130b900030278000002420011
:103be8000000290000b8b9000002420084017800f2
:103bf8000200be00c0858800d1858800207f800033
:103c080001002000e0858800f1858800317f800070
:103c1800400620000088b90000868800417f8000a7
:103c2800400620000088b90010868800517f800077
:103c3800400620000088b90020868800617f800047
:103c4800400620000088b90030868800717f800017
:103c5800400620000088b90040868800d17e800098
:103c6800400620000088b9008000780000f4210098
:103c780001005000010020005086880061868800fd
:103c880050868000618680004a09dd00c600de009b
:103c9800810071004a00dd00508688006186880036
:103ca8006285800073858000408580005185800092
:103cb800800f5100818f59000f0039000086800065
:103cc8000000e0000c0032006285800073858000ef
:103cd8004085800051858000000251008182590092
:103ce800008680006101b8000400be0090f2070061
:103cf80070868800020037000000eb00708688009c
:103d080082858000938580006085800071858000b1
:103d1800800f5100818f59000f00390010868000f4
:103d28000000e0000c00320082858000938580004e
:103d380060858000718580000002510081825900f1
:103d4800108680006101b8000400be0078f2070008
:103d580080868800020037000000eb00808688001b
:103d6800a2858000b38580008085800091858000d1
:103d7800800f5100818f59000f0039002086800084
:103d88000000e0000c003200a2858000b3858000ae
:103d98008085800091858000000251008182590051
:103da800208680006101b8000400be0060f20700b0
:103db80090868800020037000000eb00908688009b
:103dc800c2858000d3858000a0858000b1858000f1
:103dd800800f5100818f59000f0039003086800014
:103de8000000e0000c003200c2858000d38580000e
:103df800a0858000b18580000002510081825900b1
:103e0800308680006101b8000400be0048f2070057
:103e1800a0868800020037000000eb00a08688001a
:103e2800807f800000878800008780000000e00015
:103e380002003a00a000200000878800907f8000e0
:103e480010878800108780000000e00002003a0018
:103e5800c012200010878800a07f8000908b880007
:103e6800908b80000000e00002003a002003200050
:103e7800908b8800b07f8000208788002087800092
:103e88000000e00002003a00401f20002087880060
:103e9800c07f800030878800308780000000e00005
:103ea80002003a00a000200030878800e07f8000f0
:103eb80061006000101798001e109000e10f50007c
:103ec80002003a0097efa8000100370097efa90019
:103ed800e07f800062006000001798000e109000dc
:103ee800e20f500002003a00980fa80001003700c6
:103ef800980fa900f07f800061006000700f9800a3
:103f08007e089000e10f500002003a00960fa800ca
:103f180001003700960fa900f07f80006200600062
:103f2800600f98006e089000e20f500002003a00ff
:103f3800962fa80001003700962fa900f07f800077
:103f480064006000500f98005e089000e40f500075
:103f580002003a00964fa80001003700964fa900ca
:103f6800f07f800068006000400f98004e089000c5
:103f7800e80f500002003a00966fa80001003700d1
:103f8800966fa900f07f800070006000300f9800e5
:103f98003e089000f00f500002003a00968fa800eb
:103fa80001003700968fa900f07f8000800078001c
:103fb8000002200000806000200f9800ae089000ea
:103fc80000022000808f500002003a0096cfa8001f
:103fd8000100370096cfa900f07f800080007800ac
:103fe8000004200000806000100f98009e089000d8
:103ff80000042000808f500002003a0096afa8000d
:104008000100370096afa900f07f8000800078009b
:104018000008200000806000000f98008e089000c3
:1040280000082000808f500002003a0096efa80098
:104038000100370096efa900f07f8000800078002b
:10404800001020000080600070079800fe009000bb
:1040580000102000808f500002003a00970fa8003f
:1040680001003700970fa900f07f800080007800da
:10407800002020000080600060079800ee0090009b
:1040880000202000808f500002003a00972fa800df
:1040980001003700972fa900f07f8000800078008a
:1040a800004020000080600050079800de0090006b
:1040b80000402000808f500002003a00974fa8006f
:1040c80001003700974fa900f07f8000800078003a
:1040d800008020000080600040079800ce0090001b
:1040e80000802000808f500002003a00976fa800df
:1040f80001003700976fa900f07f800080007800ea
:10410800000021000080600030079800be00900089
:1041180000002100808f500002003a00978fa8000d
:1041280001003700978fa900f07f80008000780099
:10413800000022000080600020079800ae00900078
:1041480000002200808f500002003a0097afa800bc
:104158000100370097afa900f07f80008000780049
:104168000000240000806000100798009e00900066
:1041780000002400808f500002003a0097cfa8006a
:104188000100370097cfa900008080004087880091
:10419800408780000000e00002003a00f0002000a4
:1041a80040878800108080005087880050878000f2
:1041b8000000e00002003a00a000200050878800bc
:1041c8002080800060878800608780000000e00011
:1041d80002003a0040062000608788003080800096
:1041e80070878800708780000000e00002003a00b5
:1041f8004006200070878800408080008087880003
:10420800808780000000e00002003a00400620009d
:104218008087880050808000c08788006080800088
:10422800d087880070808000e087880080808000c8
:10423800f08788009080800000888800a080800037
:10424800108888002088800001002000a20020003b
:104258000300200030f00700f083880020888000e9
:104268000100200052002000030020002af007006f
:1042780010848800708280006103b800860078008e
:10428800d0052000000ab8006030b90005017800a8
:1042980000014100d005200000b8b900000141002c
:1042a8008202780042062000030020000400be00bd
:1042b80019f0070030888800708280006103b80018
:1042c8008600780020062000000ab8006030b90097
:1042d80005017800000141002006200000b8b9005f
:1042e80000014100820278004206200003002000fd
:1042f8000400be0008f0070040888800207d800088
:10430800a2002000110009000280d800508888000f
:1043180020888000a2002000110009000280d80037
:104328007088880021888000208880000100b800fb
:10433800f088880001898800018880000005200035
:104348000100b80010898800218988001889800038
:1043580029898000f6888000078980008800780015
:1043680006007800000ab80007c0b9000501780007
:104378000001410009b0b900000141008202780043
:10438800148988002589880011888000000520008c
:104398000100b80030898800418988003889800088
:1043a80049898000f68880000789800088007800a5
:1043b80006007800000ab80007c0b90005017800b7
:1043c8000001410009b0b9000001410082027800f3
:1043d80034898800458988004f04be000080fa00af
:1043e800000006000000fa00d2e2a800de02a800e1
:1043f800de22a800e422a800e402a800d362a800f4
:104408000000eb00801688000000eb0040178800d1
:104418000000eb00b0168800e5c2a900e582a900fb
:10442800e5a2a900e5e2a900cc22a900cc42a90096
:10443800e4c2a900e4e2a900e502a900e522a90076
:10444800d262a900d242a900d222a900e9c2a900d9
:10445800e982a900d042a9000000eb00c0a68800ac
:104468000000eb00d0a688000000eb00e0a6880062
:104478000000eb0090ad88000080fa000000060004
:104488000000fa000000eb00200888000000eb00a4
:104498000008880005a1a9000421a90041102000f6
:1044a80091407800f0ccb30000c0600004e1b70090
:1044b80005e1a80000f42100100888005109200037
:1044c80091407800f0c8b30000c0600001c5b30097
:1044d8000140700095e0b7008460a9008c60a800d6
:1044e80042c0bf007f40600001c6b30001407000b9
:1044f80042e0b7000080fa00000006000000fa0061
:10450800d2c2a800d2a2a800d282a8000000eb0064
:10451800000688000000eb0010068800c1a0a80073
:10452800c1c0a800c1e0a8000000eb002006880078
:104538000000eb0030068800c5a0a900c5c0a9008e
:10454800c5e0a900b109200091407800f0c8b30087
:1045580000c0600001c5b300014070009be0b700d7
:1045680085e0a9008de0a8000080fa0000000600a0
:104578000600fa006000b8001007980021079800ac
:104588000040eb00004f78000e0037001e80fb0053
:1045980000004000e4004000201f2100008040008f
:1045a800100078006101b8001e009000ae00900075
:1045b80000004100818049001007980021079800f9
:1045c8001e4fe80030c0b3009e4f1000efff3600ca
:1045d8001e009000ae0090004e09dd004200de0093
:1045e80000007100c208de000080fa00000006002a
:1045f8000800fa00100798009e009000b0bd240043
:10460800808f5000040036009e009000c03f2500b7
:10461800808f50000900360094d5bf000040e800a4
:1046280094f5b70094d5bf00e24f5000190036004a
:104638000000eb0030079800180037000040eb003e
:1046480094f5b700caff0700000f78009e0090009d
:104658001e00780000805000200798002e0090006f
:104668000000e00003003d002e0090000000ea007a
:10467800200798002e0090009e007800c208de00f7
:10468800810f5000030036000000eb00300798004f
:104698000200370010002000300798003e0090000c
:1046a8000080fa00000006000000fa001fe1a900df
:1046b8000000eb00a0088800a08f8000803eb000ba
:1046c800d00888001fe1a8000080fa00000006005a
:1046d8000000fa00e9a2a8001000200000a7880046
:1046e80010c0b300e8f5b7001082800064006000d5
:1046f8000000e0001d0032000000eb00c008880048
:10470800a17c800000002100008060000000e00023
:1047180003003a0030682000e008880002003700f3
:10472800d0562000e008880086c0a9008ec0a800e6
:1047380021e1a8001000200050af880010c0b3008d
:10474800e8f5b700e9a2a8001000200000a788003b
:1047580087a0a900e11420009140780080cfb30021
:1047680000c060004ee1b7008fa0a9000080fa00e9
:10477800000006000000fa000000eb0070af88009f
:104788000000eb00700a88004ee1a900e114200047
:1047980091407800f0c9b30000c060004ee1b70056
:1047a800e11420009140780080cfb30000c0600081
:1047b8000014a0004ee1b700210a200091407800c3
:1047c80000c7b30000c07000a2e0b70087a0a9002e
:1047d8008fa0a8000080fa00000006000000fa0080
:1047e8000000eb00800888000000eb00300888001b
:1047f80011a1a90010c1a9001021a90001112000d0
:1048080091407800f0ccb30000c060000044a000e4
:1048180010e1b7001061a90011e1a9000080eb00c8
:1048280060088800710920009140780080cfb300ab
:1048380000c060006040b30097e0b70084c0a900e2
:104848008cc0a9000000eb00900888000000eb0075
:104858005008880013a1a90012c1a9001221a900bb
:104868002111200091407800f0ccb30000c0600016
:104878000044a00012e1b70013e1a8000080eb009b
:10488800700888007109200091407800f0c8b300d2
:1048980000c0600001c6b3000140700097e0b70097
:1048a80084e0a9008ce0a9000000eb00f008880073
:1048b8000000eb00a008880000e22400d00888006f
:1048c8001fa1a8001ec1a9001e21a900e1112000f6
:1048d80091407800f0ccb30000c060000044a00014
:1048e8001ee1b7001fe1a9001e61a900e10920002f
:1048f80091407800f0c8b30000c0600001c6b30062
:10490800014070009ee0b70086a0a9008ea0a80014
:104918000000eb00000988000000eb00c0088800d8
:1049280021a1a80020c1a9002021a900011220006e
:1049380091407800f0ccb30000c060000044a000b3
:1049480020e1b70021e1a90090b08000e0088800cc
:10495800f10920009140780080cfb30000c06000ca
:104968006040b3009fe0b70086c0a9008ec0a900d0
:104978000080fa00000006003600f800809fbe00a4
:10498800829fbe00849fbe00869fbe003400f80050
:1049980000002000a00188000000fa004230a800b2
:1049a80087a0a900e11420009140780080cfb300cf
:1049b80000c060000014a0004ee1b7000000eb004a
:1049c800b0ac8800600a800060ad880061ad8000ee
:1049d80090af8000808f50000500390060ad8000e6
:1049e80091af80000100500070ad880005003700cd
:1049f80061ad800090af8000008050000000e900a9
:104a080070ad880071ad8000c0bd2400808f50005b
:104a18001400360071ad8000b03f2500808f500033
:104a280010003e00fed1bf000080fb0072ad800088
:104a380000004000e4004000201f210000804000ea
:104a480002087800fed1bf000080fb000000e800eb
:104a580042002000110009000200d8008000fd007b
:104a6800fef1b700c2fe0700908f880070ad80008d
:104a7800dffe0700fff1b700ffd1bf000004e00030
:104a880003003200908f8000a08f880006ff070087
:104a980060ad800090af880000d2bf000004e00045
:104aa80001003a000aff07000080fa003400f9000c
:104ab8004f03be004f02be004f01be004f00be00b4
:104ac8003600f90000400600809fbe003400f80060
:104ad80000002000a00188000000fa0050af80000c
:104ae800e10f500015003a00d5c2bf0068406000d1
:104af8000004e000110032000000eb0050af880015
:104b080021e1a90086c0a9008ec0a90087a0a9003c
:104b18008fa0a800e11420009140780080cfb30056
:104b280000c060000014a0004ee1b7001fe1a9001a
:104b380086a0a9008ea0a9001000370050af800001
:104b4800e10f50000d003a00d5c2bf006840600078
:104b58000004e00009003a002000200050af88005f
:104b680087a0a9008fa0a900e11420009140780037
:104b780080cfb30000c060004ee1b70050af8000a6
:104b8800e20f500014003a000000eb00c008880053
:104b980040838000e0088800c0ae800090b08800a4
:104ba80086c0a9008ec0a80021e1a800a17c8000d1
:104bb80000102000008060000000e00003003a00c0
:104bc8003000200050af88004c003700b0002000b3
:104bd80050af88004900370050af8000e30f500005
:104be8000c003a004000200050af88000000eb00a5
:104bf800c008880090b08000e008880086c0a9003e
:104c08008ec0a80021e1a800d662a800d642a8005c
:104c18003a00370050af8000e40f500013003a000c
:104c28005000200050af88003000200060af88009e
:104c38000000eb003008880061b0800090b0800070
:104c4800008050006008880084c0a9008cc0a800bb
:104c580011e1a800d662a900d642a900d622a9006f
:104c680086c0a9008ec0a9002400370050af80007c
:104c7800eb0f50000c003a00c000200050af880035
:104c88000000eb00c008880090b08000e0088800b1
:104c980086c0a9008ec0a80021e1a800d662a8009d
:104ca800d642a8001500370050af8000ec0f500026
:104cb80012003a00d000200050af880050012000b8
:104cc80060af88000000eb003008880061b0800009
:104cd80090b08000008050006008880084c0a9005f
:104ce8008cc0a80011e1a800d662a900d642a9008c
:104cf800d622a90086c0a9008ec0a9000080fa00ab
:104d08003400f9004f00be0000400600809fbe003e
:104d18003400f80000002000a00188000000fa001c
:104d280084c0a90060af8000e30f50000c003a0077
:104d38004000200060af88000000eb0030088800c9
:104d480090b080006008880084c0a9008cc0a800ca
:104d580011e1a800d662a800d622a8008f0037006b
:104d680060af8000e40f50000f003a0050002000b0
:104d780060af88000000eb003008880061b0800058
:104d880090b08000008050006008880084c0a900ae
:104d98008cc0a80011e1a800d662a900d642a900db
:104da800d622a9007d00370060af8000e50f5000d3
:104db8000c003a006000200060af88000000eb00a3
:104dc8003008880090b080006008880084c0a9007e
:104dd8008cc0a80011e1a800d642a800d622a800dd
:104de8006e00370060af8000e60f50000f003a00f9
:104df8007000200060af88000000eb0030088800d9
:104e080061b0800090b08000008050006008880089
:104e180084c0a9008cc0a80011e1a800d662a9002e
:104e2800d642a900d622a9005c00370060af8000f6
:104e3800e70f50000c003a008000200060af8800a7
:104e48000000eb003008880090b0800060088800ff
:104e580084c0a9008cc0a80011e1a800d642a8000f
:104e6800d662a8004d00370060af8000e80f500000
:104e78000f003a009000200060af88000000eb00af
:104e88003008880061b0800090b080000080500039
:104e98006008880084c0a9008cc0a80011e1a8009f
:104ea800d662a900d642a900d622a9003b00370045
:104eb80060af8000e90f50000c003a00a00020000d
:104ec80060af88000000eb003008880090b08000d8
:104ed8006008880084c0a9008cc0a80011e1a8005f
:104ee800d622a800d662a8002c00370060af800048
:104ef800ea0f50000f003a00b000200060af8800b1
:104f08000000eb003008880061b0800090b080009d
:104f1800008050006008880084c0a9008cc0a800e8
:104f280011e1a800d662a900d642a900d622a9009c
:104f38001a00370060af8000eb0f50000c003a00f9
:104f4800c000200060af88000000eb003008880037
:104f580090b080006008880084c0a9008cc0a800b8
:104f680011e1a800d622a800d642a8000b003700fd
:104f780060af8000ec0f500008003a00d00020001d
:104f880060af8800d662a900d642a900d622a9003f
:104f980084c0a9008cc0a90011e1a90060af8000fd
:104fa800f50f50000c003a006001200060af880047
:104fb8000000eb003008880090b08000600888008e
:104fc80084c0a9008cc0a80011e1a800d642a8009e
:104fd800d622a8008f00370060af8000f60f50007f
:104fe8000f003a007001200060af88000000eb005d
:104ff8003008880061b0800090b0800000805000c8
:105008006008880084c0a9008cc0a80011e1a8002d
:10501800d662a900d642a900d622a9007d00370091
:1050280060af8000f70f50000c003a0080012000ac
:1050380060af88000000eb003008880090b0800066
:105048006008880084c0a9008cc0a80011e1a800ed
:10505800d662a800d622a8006e00370060af800094
:10506800f80f50000f003a009001200060af880050
:105078000000eb003008880061b0800090b080002c
:10508800008050006008880084c0a9008cc0a80077
:1050980011e1a800d662a900d642a900d622a9002b
:1050a8005c00370060af8000f90f50000c003a0038
:1050b800a001200060af88000000eb0030088800e5
:1050c80090b080006008880084c0a9008cc0a80047
:1050d80011e1a800d642a800d662a8004d0037000a
:1050e80060af8000fa0f50000f003a00b0012000b6
:1050f80060af88000000eb003008880061b08000d5
:1051080090b08000008050006008880084c0a9002a
:105118008cc0a80011e1a800d662a900d642a90057
:10512800d622a9003b00370060af8000fb0f50007b
:105138000c003a00c001200060af88000000eb00be
:105148003008880090b080006008880084c0a900fa
:105158008cc0a80011e1a800d622a800d642a80059
:105168002c00370060af8000fc0f50000f003a00a1
:10517800d001200060af88000000eb0030088800f4
:1051880061b0800090b08000008050006008880006
:1051980084c0a9008cc0a80011e1a800d662a900ab
:1051a800d642a900d622a9001a00370060af8000b5
:1051b800fd0f50000c003a00e001200060af8800ad
:1051c8000000eb003008880090b08000600888007c
:1051d80084c0a9008cc0a80011e1a800d622a800ac
:1051e800d662a8000b00370060af8000fe0f5000a9
:1051f80008003a00f001200060af8800d662a900dc
:10520800d642a900d622a90084c0a9008cc0a90052
:1052180011e1a9000080fa003400f9004f00be0037
:10522800004006003600f800809fbe00829fbe0046
:10523800849fbe00869fbe003400f8000000200056
:10524800a00188000000fa000040eb00fff1b70061
:1052580000d2bf000004e000010032001cfd07007e
:10526800a08f8000813e200080804000d008800010
:10527800808f500006003a00e108800080c12f00ae
:1052880000804000e0088800a08f8000d0088800d7
:105298000000eb00a008880086a0a9008ea0a80046
:1052a8001fe1a8000080fa003400f9004f03be0097
:1052b8004f02be004f01be004f00be003600f9008d
:1052c80000400600809fbe00821f78003400f8006e
:1052d80000002000a00188000000fa0085e0a90075
:1052e800d4c2bf000080fb004600de00e140600041
:1052f800c0ac80006140600080cf50000d003200db
:10530800d4c2bf000080fb004600de0061406000a0
:105318000080fb0061016000c1ac8000e0ff2f004d
:105328000080600002007000c0ac88000000eb0044
:10533800d0ac8800d4c2bf000080fb004500de006e
:10534800e1406000c0ac80000000d1006140600016
:1053580080cf50000e003200d4c2bf000080fb0096
:105368004500de00614060000080fb0061006000d5
:1053780000014000c1ac8000d0ff2f000080600019
:1053880002007000c0ac88000000eb00e0ac8800b0
:10539800d4c2bf000080fb004400de00e140600092
:1053a800c0ac80004200de006140600080cf500049
:1053b8000e003200d4c2bf000080fb004400de00b3
:1053c800614060000080fb00610060004201dd0078
:1053d800c1ac8000b0ff2f000080600002007000a8
:1053e800c0ac88000000eb00f0ac880090ad8000f5
:1053f800e30f50006800320090ad8000e40f5000c9
:1054080065003200f0808000fb0f5000620036001b
:10541800c0ac8000610060000000e00006003a00b7
:1054280070af80000000e00003003a001000200088
:1054380070af880058003700c0ac80006100600081
:105448000000e0000800320070af8000e10f50005b
:1054580005003a002000200070af88005008800046
:1054680050ad88004c003700c0ac8000620060007e
:105478000000e0004800320070af8000e20f5000ea
:1054880045003a000000eb0070af8800500880002b
:1054980040ad880041ad800050ad8000808f500045
:1054a8000500360040ad800051ad8000010050007d
:1054b80030ad88000900370050ad800080007800ca
:1054c8000080eb000100500030ad880031ad800055
:1054d80040ad80000080400030ad880031ad8000d4
:1054e80070322200808f500016003e0000ad800010
:1054f8000000e80000ad88000000eb0010ad880057
:105508000000eb0020ad880000ad8000e60f5000e1
:10551800210036004350a9005000200070af8800d9
:105528000000eb0000ad8800a17c80000020200076
:10553800008060000000e00017003200950fa9000d
:105548001500370010ad80000000e80010ad88009d
:105558000000eb0000ad88000000eb0020ad8800e3
:1055680010ad8000e60f50000b0036004350a80035
:105578005000200070af88000000eb0010ad8800dc
:10558800a17c800000202000008060000000e00076
:1055980001003200950fa8000080fa003400f900dd
:1055a8004f0178004f00be00004006000000fa00de
:1055b80080252000c0ae88000000eb00b0ae880057
:1055c8004250a9004310a90042d0a9004210a900e6
:1055d8004270a9004290a90042b0a9000000eb0067
:1055e800808288000000eb0000af880060828000a5
:1055f800e20f500005003e002082800031828000ca
:10560800208388003183880007003700608280008b
:10561800e30f500004003a00508680006186800045
:1056280020838800318388000000eb00b0b0880038
:105638000000eb00808288006000b800708388005a
:10564800818388000000eb00508288000000eb0096
:10565800208488000000eb00d0838800930fa90005
:10566800932fa900b075a900b015a900b035a900fd
:105678000000eb00d08e88000000eb00e08e880070
:105688000000eb00008f88000000eb00f08e88001f
:105698000000eb00108f88000000eb00208f8800ce
:1056a8000000eb00408f88000000eb00308f88007e
:1056b8000000eb00508f88000000eb00608f88002e
:1056c8000000eb00808f88000000eb00708f8800de
:1056d8000080fa00000006000000fa004250a9000d
:1056e8004310a9000f12a900e982a90087a0a90008
:1056f800e11420009140780080cfb30000c0600022
:105708000014a0004ee1b7008fa0a800d662a9003f
:10571800d642a900d622a90030fc07000000eb0001
:1057280050af88000000eb0060af88000080fa00ee
:10573800000006000000fa0080ad800061006000f3
:105748000000e00028003a00b035a900e0c2bf0020
:10575800614060000004e00003003200d022a9008c
:10576800e9e2a80001003700e9e2a90000af8000e3
:105778000000e80000af880001af8000401f200053
:10578800808f500018003600e9e2a9000000eb0005
:1057980000af8800b015a8004210a900ceff07008e
:1057a800a80207000000eb005082880010a78000c4
:1057b800680060000000e0000b003a00a07c800058
:1057c80001042000010060000000e0000600320033
:1057d800b07c800001002800010060000000e000ab
:1057e80001003200920fa8000080fa0000000600b5
:1057f8000000fa006000b800708388008183880088
:105808000000eb00b0b08800b0b5a800b095a900c2
:10581800e9e2a9004210a900afff0700d022a800c2
:10582800a07c8000640060000000e00002003200fc
:1058380010002000e0a6880020ae80000000e800ec
:1058480020ae880021ae8000c0122000808f50005a
:10585800190036000000eb0020ae8800d022a90015
:105868000000eb00e0a68800b035a80010a7800073
:10587800680060000000e0000b003200a07c80009f
:1058880001042000010060000000e0000600320072
:10589800b07c800001002800010060000000e000ea
:1058a80001003200920fa8000000eb0090ad8800c4
:1058b8000000eb0020af88000080fa00000006001e
:1058c8000000fa0020af80000000e00026003a0047
:1058d80010a78000640060000000e0002200320091
:1058e800c08880000000e0001f003a0090ab8000f4
:1058f800e10f50001c003a00a07c80000100280045
:10590800010060000000e00017003a00618180009b
:1059180090888000808f500004003900a07c8000af
:10592800700060000000e00042013a001000200012
:1059380090ad88001000200020af8800e9c2a800c0
:1059480010002000c0a68800d042a9000000eb008b
:10595800e0a688000000eb00d0a688000000eb005d
:10596800d08988003301370020af8000e10f500054
:1059780059003a0010a78000640060000000e000b1
:1059880007003a000000eb0090ad88000000eb0033
:1059980020af8800e9c2a9000000eb00c0a688007b
:1059a8006181800090888000808f50000b00360055
:1059b800a07c8000700060000000e000070032005a
:1059c8000000eb0090ad88000000eb0020af8800dd
:1059d800e9c2a9000000eb00c0a68800a07c8000f6
:1059e80001002800010060000000e000070032000c
:1059f8000000eb0090ad88000000eb0020af8800ad
:105a0800e9c2a9000000eb00c0a6880010a780002a
:105a1800610060000000e00006013200a07c800008
:105a280001002400010060000000e00001003200d5
:105a3800b095a8002000200090ad88000000eb0081
:105a4800d0ac88000000eb00e0ac88000000eb0060
:105a5800f0ac88002000200020af88000000eb0098
