:020000040000fa
:080000000001040000000000f3
:020000040000fa
:10020000af712100007f2100000188000000000084
:100210000c00070060792500010020001100070094
:10022000000020000000e000020032000000020098
:100230000000000008560200000000000040da0044
:100240000000fe004440a900000020000000e00083
:100250000300320000002000a00188004440a800f4
:100260000000060091018800800078000000eb008b
:1002700015003700e280400032a0b4009101ba00be
:10028000e280400032a0b4009102ba00e280400057
:1002900032a0b4000002eb00472bde00f507b200ed
:1002a000602ce10004003a000059eb008301e900f2
:1002b000fdff3e00040037006128e100010032002c
:1002c0000082eb00040007001101ba000200e00008
:1002d000e8ff3a00000006003159ba008301e90046
:1002e0000c0032002159ba008301e90008003200f5
:1002f0000400e00003003a00e280400032a0b400b5
:10030000f5ff370011d9ba008301e900faff3a007e
:100310008100e800e180400032a0b4000000060047
:10032000839f68000100e00002003d0060001000b3
:10033000e08018000300e00002003d0060011100b1
:10034000e0811900fc0007004f00e00002003b00c4
:1003500060001000e080180000000600889fbe00ca
:100360008a9fbe00010578000100e000040035000e
:1003700008003c000000e0002000320005003700cb
:1003800060001000e080180002003b0001f02c002b
:100390001a0037000004be006011b8006b0920008d
:1003a0000982cf00020039000882cf000441b0006a
:1003b000694252000e00320008003b008281710049
:1003c000610164008904d1000884d3008b05e80032
:1003d0000442e800f9ff3a00050037000804440031
:1003e00089844c008b05e9000442e900fbff3a00d8
:1003f0005a0107000af0a70001f0a0004f05be0057
:100400004f04be0000000600889fbe008a9fbe0009
:100410008c1f78000004be00760107000478a3005a
:1004200026003a006120e1002500320009f8a3000f
:1004300025003a006420e10021003200f507b100f8
:100440000508a3000200320000004000818048003f
:100450006044b800031020000200200000004000ab
:10046000818048000805440089854c000a05410048
:100470008b8549000a0550008b8558000300330026
:100480000a00be0002047400838474008301d1005a
:100490000281d300830f7100f0ff3a008904d1007c
:1004a0000884d3006001490082017800c1adde00fc
:1004b000fb07b000290107006c0137000960a000ac
:1004c0000800be006901370012022000c2b888008f
:1004d000f0ff2f00f1ff2700640137000001be008c
:1004e000440107000470a70003f0a1006509b100f2
:1004f000160032000d0035006828e10006003500c6
:10050000f0ff2f00f1ff27000300e00013003b0085
:100510000100280000000500000040008180480024
:100520008502e900fcff3a0008003700f88f42001e
:1005300002003c008000eb00000005008100d100bb
:100540000080d3008502e800fcff3a000300e000d1
:1005500002003b0060001000e08018000000060070
:10056000889fbe008a9fbe008c1f7800460107004e
:100570003501330003866c006450e1002e00320028
:100580006420e100330032006150e1002f003200ae
:100590006120e1003100320085855500eb07b00095
:1005a000090020000804200005003700080444006a
:1005b00089844c000a0031000603430087834b0006
:1005c0000001530081815b00f8ff33000203be008d
:1005d0000800a0000804440089844c00f6ff39009c
:1005e000c639dd00830173000100320013002000d2
:1005f0008904d1000884d3000998a30005003200c3
:100600000800a7000300a0008904d1000884d300db
:100610008b05e8008904d1000884d3000001eb00b9
:100620000281d200cd00070001f0a1000cf0a7006c
:1006300001f0a0000d0137006420e1000f0132003d
:100640000801be000200be00f7ff37006120e10094
:100650000a0132006000b800f3ff370000002000fc
:1006600001f82700f0ff3700889fbe008a9fbe0078
:100670008c1f780004010700f300330003866c0030
:100680006450e100240032006420e10027003200c1
:100690006150e100220032006120e10021003200bf
:1006a0008b854200eb07b1000134b800003ab80076
:1006b0000804420089844a00013ab8000030b800ba
:1006c0008880400009014a00040033000000400017
:1006d00081804800020149008b05e900c909dd005d
:1006e000830170000100320013002000c814de00f6
:1006f0004814dd004709de001200b200c808de0021
:10070000088470009500070001f0a1000cf0a7001c
:1007100001f0a000d50037006120e100d7003200d1
:100720000801be000200be00f7ff37006150e10083
:10073000fcff3a00d10037006022b800060220001a
:100740000000d0008180d2000482d2008582d200d5
:100750000000a0000202520083825a000300310010
:100760000202420083824a000000a1000603e90061
:10077000f3ff3a000000060003f0a200889fbe00cd
:100780008a9fbe008c1f7800bf000700ae003300b8
:100790006450e1004f0032006420e100520032005a
:1007a00003826c0007003b000905d0000306d0005f
:1007b000820f54000c065d00020039000200320076
:1007c00089017800030678008582550004003d0009
:1007d0000003fd008103fd008502ea008b854200d5
:1007e000840f720002003b0060001000e0801800df
:1007f0006011b8000005eb007a28e1000a0039001a
:1008000006007800c75ddd00f707b200878075003d
:100810002d003700828171000a01780061056000b7
:100820008180d1000080d3008502e900f9ff3b0000
:10083000060440008784480002003b006004140066
:10084000e0841c000988a300070032008a8171003f
:1008500082817100610164008904d1000884d300a1
:100860008b05e800170037000978a30013003a0051
:100870000b00e000130034008b05e900080444007d
:1008800089844c000a4474000978a3000d003a00e2
:100890000b00e000070034008b05e9000804440069
:1008a00089844c0001003a000b0020000978a30065
:1008b000f7ff32000001eb00020037008281710077
:1008c0000a017800250007000cf0a70001f0a00045
:1008d000660037006420e10002003a00838f6c005c
:1008e000660033000801be000200be005f00370052
:1008f0000001be003f0007000470a70003f0a10044
:1009000003f8a30013003a006509b100100032009b
:10091000090035006928e1000200350001002800c7
:100920000000050000004000818048008502e900c9
:10093000fcff3a0000000600f88f42000500350079
:100940008100d1000080d3008502e800fcff3a005e
:10095000000006008000eb00000005008100200080
:10096000618055000b003d000b00200061fe2f0050
:100970000100e1001d00340082817100610164000a
:100980008904d1000884d3000000e800faff3a008f
:10099000710020006100640003007000020060002c
:1009a0000900320061044400e0844c000988a5007d
:1009b000050032008b05e8006808e10002003a00fb
:1009c0008904d1000884d300f20f20000258e1000e
:1009d00005003d00c75ddd00f907b20089807500a4
:1009e00008007800000006000bf827008b00780054
:1009f00000000500c70ade00f107b200f50fb200e3
:100a000008003200e1cf4200020032000170a00075
:100a100024000500810f7000010032000408050069
:100a200044000500810f700002003a001400050028
:100a30008502e9000000400081c04800fcff3b0047
:100a40000170a000240005000200be006450e10017
:100a5000050036006420e100020036000968a300aa
:100a600001003a000800be000160a0004f067800b7
:100a70004f05be004f04be0000000600f0ff2f002f
:100a8000f1ff2700f9ff37000004be00d9ff07007f
:100a90000003be000405be000200be00d5ff070033
:080aa000844f75000000060000
:020000040000fa
:0200000401f009
:04000000f6ff000007
:020000040000fa
:0200000401f009
:04000400ff7f00007a
:020000040000fa
:0200000401f009
:04000c00ffff0000f2
:020000040000fa
:0200000401f009
:04001000ffff0000ee
:020000040000fa
:0200000401f009
:04001400ffff0000ea
:020000040000fa
:100008009258000092580000925800009258000040
:100018009258000092580000925800009258000030
:10002800925800009258000092580000983f000033
:100038009258000092580000cc2600009258000008
:1000480092580000a82d0000a82e00004c51000076
:10005800925800009258000092580000aa29000007
:1000680092580000925800009258000092580000e0
:100078009258000058290000782500009258000086
:10008800de1500001e17000092580000925800006c
:1000980092580000cc2400009258000092580000aa
:1000a80092580000925800009258000092580000a0
:1000b8009258000092580000925800009258000090
:1000c8009258000092580000925800009258000080
:1000d8009258000092580000925800009258000070
:1000e8009258000092580000925800009258000060
:0800f80092580000925800002c
:020000040000fa
:10010800925800009258000092580000925800003f
:10011800925800009258000092580000925800002f
:10012800925800009258000092580000983f000032
:100138009258000092580000cc2600009258000007
:1001480092580000a82d0000a82e00004c51000075
:10015800925800009258000092580000aa29000006
:1001680092580000925800009258000092580000df
:100178009258000058290000782500009258000085
:10018800de1500001e17000092580000925800006b
:1001980092580000cc2400009258000092580000a9
:1001a800925800009258000092580000925800009f
:1001b800925800009258000092580000925800008f
:1001c800925800009258000092580000925800007f
:1001d800925800009258000092580000925800006f
:1001e800925800009258000092580000925800005f
:0801f80092580000925800002b
:020000040000fa
:100aa8000000fa0020998000610060000000e0006a
:100ab8000800320070a180000000e80070a18800e2
:100ac80070a18000ea0f5000020036000000eb0021
:100ad8003099880018c2bf00684060000004e00038
:100ae80008003a0018c2bf00624060000004e0003d
:100af80004003a0018c2bf00644060000004e0002f
:100b080001003200030807000080fa000000060018
:100b18000000fa0010a680000000e80010a6880077
:100b280011a68000401f2000808f5000050036006d
:100b3800f80707000000eb00309988002413a9008b
:100b480025b3a80020998000620060000000e00042
:100b580004003200020907002433a9000000eb005a
:100b680010a6880020998000680060000000e0005e
:100b780004003200a600070061000700a30907006f
:100b88002473a90020998000012020000100600042
:100b98000000e00004003200d800070069000700e8
:100ba8009a0907002533a90050a68000610060005b
:100bb8000000e000040032000b010700720007008b
:100bc80092090700ca14a90050a6800070006000ae
:100bd8000000e00004003200440107007b00070029
:100be8008a090700ca94a900209980007000600053
:100bf8000000e000040032007d0107002493a900f2
:100c08000000eb0010a68800209980000140200019
:100c1800010060000000e00004003200c901070084
:100c28002553a9000000eb0010a6880050a68000fc
:100c3800620060000000e0000400320017020700b4
:100c4800ca34a9000000eb0010a6880050a6800056
:100c580001022000010060000000e00004003200f2
:100c680065020700cab4a9000000eb0010a68800be
:100c78002099800001022000010060000000e000cf
:100c880004003200b302070024b3a9000000eb00ff
:100c980010a68800209980000180200001006000d3
:100ca8000000e00004003200370307002573a900a4
:100cb8000000eb0010a688002099800001002200a7
:100cc800010060000000e000040032003505070064
:100cd80025b3a9000000eb0010a688002099800029
:100ce80001042000010060000000e0000200320062
:100cf8004707070024d3a9000080fa000000060077
:100d08000000fa00a00a2000a0a18800000220002c
:100d1800b0a1880030082000c0a188000000eb00c6
:100d2800e0a18800b00b2000e0a588000000eb00df
:100d380090a18800e00f2000d01088000080fa0001
:100d4800000006000000fa00a00a2000a0a1880008
:100d580000022000b0a1880030072000c0a1880050
:100d68000000eb00e0a18800b00b2000e0a588009f
:100d78000000eb0090a18800e00f2000d010880050
:100d88000080fa00000006000000fa00a00a200017
:100d9800a0a1880000022000b0a188003006200031
:100da800c0a188000000eb00e0a18800b00b200083
:100db800e0a588000000eb0090a18800e00f20006b
:100dc800d01088000080fa00000006000000fa0039
:100dd800a00a2000a0a1880000022000b0a188007d
:100de80030052000c0a188000000eb00e0a18800c9
:100df800b00b2000e0a588000000eb0090a188005f
:100e0800e00f2000d01088000080fa0000000600e3
:100e18000600fa000000eb0020079800900280000e
:100e280010079800ff3ffc00210420009140780043
:100e380000ceb30000c0700042e0b7001e00900072
:100e4800900288008d60a9000000eb002007980040
:100e58001a0037002e009000000040008000780043
:100e680000c02f0000804000707c8800707c8000eb
:100e780080007800f007200012002000df2707001c
:100e8800707c800000017800f007200000027800e4
:100e98002e0090000000400080007800603b210098
:100ea800008040001300200084007800f727070026
:100eb8002e0090000000e800200798002e00900007
:100ec800ed0f5000e3ff360090028000000f78001d
:100ed800ff3ffc0042c0bf007f40600001c6b30076
:100ee8000140700042e0b7001e00780090028800c0
:100ef8008d60a8000080fa00000006000600fa00d5
:100f08000000eb002007980090028000100798006e
:100f1800ff3ffc00210420009140780000ceb30080
:100f280000c0700042e0b7001e00900090028800e8
:100f38008d60a9000000eb00200798001a00370018
:100f48002e009000000040008000780000c02f00b4
:100f580000804000707c8800707c800080007800f1
:100f6800f007200012002000a4270700707c8000f2
:100f780000017800f0072000000278002e009000a1
:100f88000000400080007800603b210000804000a5
:100f98001300200084007800bc2707002e00900072
:100fa8000000e800200798002e009000fd0f500078
:100fb800e3ff360090028000000f7800ff3ffc003e
:100fc80042c0bf007f40600001c6b300014070000e
:100fd80042e0b7001e007800900288008d60a800eb
:100fe8000080fa00000006000800fa000000eb008c
:100ff800300798000000eb0020079800900280005e
:1010080010079800ff3ffc00210420009140780061
:1010180000ceb30000c0700042e0b7001e00900090
:10102800900288008d60a900000220003007980017
:101038001d0037003e00900000004000800078004e
:1010480000c02f0000804000707c8800707c800009
:1010580080007800f00720001200200067270700b2
:10106800707c800000017800f00720000002780002
:101078002e0090000000400080007800603b2100b6
:101088000080400013002000840078007f270700bc
:101098002e0090000000e800200798003e00900015
:1010a8000000e80030079800be009000d003200040
:1010b800808f5000dfff360090028000000f78001c
:1010c800ff3ffc0042c0bf007f40600001c6b30084
:1010d8000140700042e0b7001e00780090028800ce
:1010e8008d60a8000080fa00000006000800fa00e1
:1010f8000000eb00300798000000eb002007980084
:101108009002800010079800ff3ffc002104200097
:101118009140780000ceb30000c0700042e0b700f4
:101128001e009000900288008d60a900e003200056
:10113800300798001d0037003e0090000000400076
:101148008000780000c02f0000804000707c88007c
:10115800707c800080007800f007200012002000da
:1011680026270700707c800000017800f007200027
:10117800000278002e0090000000400080007800f7
:10118800603b2100008040001300200084007800ac
:101198003e2707002e0090000000e8002007980076
:1011a8003e0090000000e80030079800be00900064
:1011b800b0052000808f5000dfff360090028000cd
:1011c800000f7800ff3ffc0042c0bf007f40600076
:1011d80001c6b3000140700042e0b7001e0078006d
:1011e800900288008d60a8000080fa0000000600c8
:1011f8000400fa000000eb00100798000000eb0064
:10120800000f7800a00a2000a0a18800000120009b
:10121800b0a1880020082000c0a18800c0012000db
:10122800e0a188000000eb001007980014003700c8
:101238001e009000000040008000780000c02f00d1
:1012480000804000707c88001e0090000000400074
:1012580080007800a0f9200000804000000178009c
:10126800707c800080007800f007200013002000c8
:10127800d52607001e0090000000e800100798001f
:101288001e009000ef0f5000e9ff36000000eb0051
:1012980010079800200037001e0190001e007800fb
:1012a80080004000a0f92000008040001000780075
:1012b800c801de0002004100e111200080804000ea
:1012c8006032210000804000030878001e00900072
:1012d8000000e800100798001e0190001e0078002a
:1012e80080004000a0f920000080400090017800b4
:1012f80002004100e111200080804000603221009e
:1013080000804000030878001e0090000000e800fc
:10131800100798001e0fe8001e009000ff0f5000f5
:10132800ddff3600b00b2000e0a588000000eb00d0
:1013380090a18800e00f2000d01088000080fa00fb
:10134800000006000400fa000000eb0010079800f7
:101358000000eb00000f7800a00a2000a0a1880080
:1013680000012000b0a1880020072000c0a188004b
:10137800c0032000e0a188000000eb0010079800df
:10138800140037001e009000000040008000780024
:1013980000c02f0000804000707c88001e00900074
:1013a8000000400080007800a0f920000080400084
:1013b80000017800707c800080007800f007200031
:1013c80013002000802607001e0090000000e8009f
:1013d800100798001e009000ff0f5000e9ff36002c
:1013e8000000eb0010079800200037001e01900055
:1013f8001e00780080004000a0f920000080400016
:1014080010007800c801de0002004100e111200050
:10141800808040006032210000804000030878008e
:101428001e0090000000e800100798001e019000c0
:101438001e00780080004000a0f9200000804000d5
:101448009001780002004100e111200080804000f6
:101458006032210000804000030878001e009000e0
:101468000000e800100798001e0fe8009e0090009a
:10147800f0032000808f5000dcff3600b00b200006
:10148800e0a588000000eb0090a18800e00f200094
:10149800d01088000080fa00000006000400fa005e
:1014a8000000eb001007980000022000000f7800f1
:1014b800a00a2000a0a1880000012000b0a1880097
:1014c80020062000c0a18800c0032000e0a18800f9
:1014d8000002200010079800140037001e0090003a
:1014e800000040008000780000c02f00008040000d
:1014f800707c88001e00900000004000800078008a
:10150800a0f920000080400000017800707c800075
:1015180080007800f0072000130020002a2607002a
:101528001e0090000000e800100798009e00900040
:10153800d0032000808f5000e8ff36000000eb0049
:1015480010079800200037001e0190001e00780048
:1015580080004000a0f920000080400010007800c2
:10156800c801de0002004100e11120008080400037
:101578006032210000804000030878001e009000bf
:101588000000e800100798001e0190001e00780077
:1015980080004000a0f92000008040009001780001
:1015a80002004100e11120008080400060322100eb
:1015b80000804000030878001e0090000000e8004a
:1015c800100798001e0fe8009e009000b00320004e
:1015d800808f5000dcff3600b00b2000e0a58800ab
:1015e8000000eb0090a18800e00f2000d0108800d8
:1015f8000080fa00000006000400fa000000eb007a
:101608001007980000022000000f7800a00a2000b0
:10161800a0a1880000012000b0a1880020052000ba
:10162800c0a18800c0032000e0a18800e0032000da
:1016380010079800140037001e00900000004000ba
:101648008000780000c02f0000804000707c880077
:101658001e0090000000400080007800a0f92000e3
:101668000080400000017800707c800080007800d5
:10167800f007200013002000d32507001e0090006b
:101688000000e800100798009e009000b0052000b8
:10169800808f5000e8ff36000000eb00100798002c
:1016a800200037001e0190001e00780080004000d6
:1016b800a0f920000080400010007800c801de007a
:1016c80002004100e11120008080400060322100ca
:1016d80000804000030878001e0090000000e80029
:1016e800100798001e0190001e007800800040003e
:1016f800a0f920000080400090017800020041001d
:10170800e11120008080400060322100008040000c
:10171800030878001e0090000000e80010079800f9
:101728001e0fe8009e009000b0032000808f50003c
:10173800dcff3600b00b2000e0a588000000eb00bd
:1017480090a18800e00f2000d01088000080fa00e7
:10175800000006000000fa00a00a2000a0a18800ee
:1017680000012000b0a1880010082000c0a1880056
:1017780060012000e0a1880090b58000e30f5000d0
:101788000300320090b58000e40f500010003a00ca
:10179800604380004800de0020a28800604380008b
:1017a80030a28800704380004800de0040a2880014
:1017b8007043800050a28800d08e80004800de0070
:1017c80060a28800d08e800070a288000c003700cc
:1017d8000000eb0020a288000000eb0030a2880087
:1017e8000000eb0040a288000000eb0050a2880037
:1017f8000000eb0060a288000000eb0070a28800e7
:10180800f08080004800de0080a28800f080800020
:1018180090a28800008180004800de00a0a2880015
:1018280000818000b0a28800108180004800de009e
:10183800c0a2880010818000d0a288005082800059
:101848004800de00e0a2880050828000f0a28800f4
:1018580090b580004800de0000a3880090b58000a5
:1018680010a3880010a380000000e00009003a00df
:101878000000eb0010a38800817c8000a0aa2a0049
:10188800808f500029003a004000200010a38800f3
:101898002600370010a38000e10f500009003a002d
:1018a8001000200010a38800817c8000a0aa2a00d4
:1018b800808f50001d003a004000200010a38800cf
:1018c8001a00370010a38000e20f500003003a000e
:1018d8002000200010a388001400370010a3800007
:1018e800e30f500003003a002000200010a38800f6
:1018f8000e00370010a38000e40f500003003a00e8
:101908003000200010a388000800370010a38000d2
:10191800e50f500003003a005000200010a3880093
:10192800020037000000eb0010a3880060818000ef
:101938004800de0020a388006081800030a3880072
:10194800907c80004800de0040a38800907c8000e6
:1019580050a38800508280004800de0060a3880001
:101968005082800070a38800b00b2000e0a588009a
:101978000000eb0090a18800e00f2000d010880044
:101988000080fa00000006000000fa00a00a20000b
:10199800a0a1880000012000b0a188001007200045
:1019a800c0a18800a0022000e0a1880090b58000b6
:1019b800e30f50000300320090b58000e40f5000a0
:1019c80010003a00604380004800de0020a2880032
:1019d8006043800030a28800704380004800de0029
:1019e80040a288007043800050a288008043800095
:1019f8004800de0060a288008043800070a2880052
:101a08000c0037000000eb0020a288000000eb006b
:101a180030a288000000eb0040a288000000eb0024
:101a280050a288000000eb0060a288000000eb00d4
:101a380070a28800f08080004800de0080a2880044
:101a4800f080800090a28800412d2000914078000d
:101a580000c8b30000c060000004e00004003a00c1
:101a680030a680000000a00030a6880004003700df
:101a780030a68000e1ff2f000100600030a688003a
:101a8800e0c2bf00614060000004e00004003a00ca
:101a980030a680000010a00030a68800040037009f
:101aa80030a68000d1ff2f000100600030a688001a
:101ab800e0c2bf00624060000004e00004003a0099
:101ac80030a680000020a00030a68800040037005f
:101ad80030a68000b1ff2f000100600030a688000a
:101ae800e6c2bf00624060000004e00004003a0063
:101af80030a680000030a00030a68800040037001f
:101b080030a6800071ff2f000100600030a6880019
:101b1800e6c2bf00614060000004e00004003a0033
:101b280030a680000040a00030a6880004003700de
:101b380030a68000f1fe2f000100600030a688006a
:101b4800cfc2bf000042b2000004e00005003a0026
:101b580030a68000010220000100700030a6880035
:101b68000400370030a68000f1fd2f00010060005e
:101b780030a68800cfc2bf000044b2000004e000d5
:101b880005003a0030a68000010420000100700022
:101b980030a688000400370030a68000f1fb2f0033
:101ba8000100600030a68800c8c2bf006440600021
:101bb8000004e00005003a0030a68000010820007b
:101bc8000100700030a688000400370030a68000ad
:101bd800f1f72f000100600030a68800c8c2bf00de
:101be800684060000004e00005003a0030a680006c
:101bf800011020000100700030a6880004003700a2
:101c080030a68000f1ef2f000100600030a68800a8
:101c1800c8c2bf00704060000004e00005003a0040
:101c280030a68000012020000100700030a6880046
:101c38000400370030a68000f1df2f0001006000ab
:101c480030a68800a07c8000011020000100600000
:101c58000000e0000500320030a6800001002800e6
:101c68000100700030a688000400370030a680000c
:101c7800f1ff27000100600030a68800e9c2bf001c
:101c88000044b2000004e0000400320040a68000d6
:101c98000000a00040a688000400370040a680008d
:101ca800e1ff2f000100600040a68800e9c2bf00e4
:101cb800704060000004e0000400320040a680008c
:101cc8000010a00040a688000400370040a680004d
:101cd800d1ff2f000100600040a68800e9c2bf00c4
:101ce8000042b2000004e0000400320040a6800078
:101cf8000020a00040a688000400370040a680000d
:101d0800b1ff2f000100600040a68800e9c2bf00b3
:101d180001c8b300014060000004e0000400320084
:101d280040a680000030a00040a6880004003700cc
:101d380040a6800071ff2f000100600040a68800c7
:101d4800d0c2bf00624060000004e000040032001e
:101d580040a680000040a00040a68800040037008c
:101d680040a68000f1fe2f000100600040a6880018
:101d7800d0c2bf00644060000004e00005003200eb
:101d880040a68000010220000100700040a68800e3
:101d98000400370040a68000f1fd2f00010060001c
:101da80040a68800e8c2bf0001c8b3000140600037
:101db8000004e0000500320040a680000104200075
:101dc8000100700040a688000400370040a680008b
:101dd800f1fb2f000100600040a68800e9c2bf00a7
:101de800614060000004e0000500320040a6800069
:101df800010820000100700040a688000400370098
:101e080040a68000f1f72f000100600040a688007e
:101e1800e9c2bf00624060000004e0000500320033
:101e280040a68000011020000100700040a6880034
:101e38000400370040a68000f1ef2f000100600089
:101e480040a68800e8c2bf000044b2000004e000d9
:101e58000500320040a6800001202000010070002b
:101e680040a688000400370040a68000f1df2f005c
:101e78000100600040a6880030a680004800de000f
:101e8800a0a2880030a68000b0a2880040a68000ea
:101e98004800de00c0a2880040a68000d0a28800ca
:101ea800108980004800de00e0a2880010898000c8
:101eb800f0a2880090b580004800de0000a38800ea
:101ec80090b5800010a3880010a380000000e000f7
:101ed80009003a000000eb0010a38800817c800014
:101ee800a0aa2a00808f500029003a004000200054
:101ef80010a388002600370010a38000e10f5000cf
:101f080009003a001000200010a38800817c80009e
:101f1800a0aa2a00808f50001d003a00400020002f
:101f280010a388001a00370010a38000e20f5000a9
:101f380003003a002000200010a388001400370096
:101f480010a38000e30f500003003a002000200097
:101f580010a388000e00370010a38000e40f500083
:101f680003003a003000200010a388000800370062
:101f780010a38000e50f500003003a005000200035
:101f880010a38800020037000000eb0010a38800af
:101f9800608180004800de0020a388006081800006
:101fa80030a38800907c80004800de0040a38800b1
:101fb800907c800050a38800508280004800de009a
:101fc80060a388005082800070a38800b0818000e0
:101fd8004800de0080a38800b081800090a38800bc
:101fe80070002000a0a38800c07d2000b0a3880056
:101ff800f0b180004800de00c0a38800f0b1800086
:10200800d0a38800e0b18000e10f500004003a003e
:1020180020a680000000a00020a688000400370049
:1020280020a68000e1ff2f000100600020a68800a4
:10203800f0ae8000640060000000e00004003200a0
:1020480020a680000010a00020a688000400370009
:1020580020a68000d1ff2f000100600020a6880084
:1020680080b38000e10f500004003a0020a68000f1
:102078000020a00020a688000400370020a68000c9
:10208800b1ff2f000100600020a688006181800058
:10209800f0888000808f500004003900a07c800008
:1020a800700060000000e00004003a0020a68000f4
:1020b8000030a00020a688000400370020a6800079
:1020c80071ff2f000100600020a6880020a6800074
:1020d8004800de00e0a3880020a68000f0a3880066
:1020e800a17c800000002200008060000000e00069
:1020f80006003a0060b880004800de0000a48800ae
:1021080060b8800010a48800050037005081800066
:102118004800de0000a488005081800010a48800d8
:10212800608380004800de0020a48800608380006f
:1021380030a4880020b780004800de0040a4880052
:1021480020b7800050a48800108e80004880de00f0
:1021580060a48800108e800070a488000081800030
:102168004800de0080a488000081800090a48800d8
:10217800108180004800de00a0a488001081800043
:10218800b0a48800b00b2000e0a588000000eb0098
:1021980090a18800e00f2000d01088000080fa008d
:1021a800000006000000fa00a00a2000a0a1880094
:1021b80000012000b0a1880050072000c0a18800bd
:1021c800c0032000e0a1880090b58000e30f500014
:1021d8000300320090b58000e40f500010003a0070
:1021e800604380004800de0020a288006043800031
:1021f80030a28800704380004800de0040a28800ba
:102208007043800050a28800804380004800de00b0
:1022180060a288008043800070a288000c0037000c
:102228000000eb0020a288000000eb0030a288002c
:102238000000eb0040a288000000eb0050a28800dc
:102248000000eb0060a288000000eb0070a288008c
:10225800f08080004800de0080a28800f0808000c6
:1022680090a28800412d20009140780000c8b3005a
:1022780000c060000004e00004003a0030a68000be
:102288000000a00030a688000400370030a68000b7
:10229800e1ff2f000100600030a68800e0c2bf0007
:1022a800614060000004e00004003a0030a68000ad
:1022b8000010a00030a688000400370030a6800077
:1022c800d1ff2f000100600030a68800e0c2bf00e7
:1022d800624060000004e00004003a0030a680007c
:1022e8000020a00030a688000400370030a6800037
:1022f800b1ff2f000100600030a68800e6c2bf00d1
:10230800624060000004e00004003a0030a680004b
:102318000030a00030a688000400370030a68000f6
:1023280071ff2f000100600030a68800e6c2bf00e0
:10233800614060000004e00004003a0030a680001c
:102348000040a00030a688000400370030a68000b6
:10235800f1fe2f000100600030a68800cfc2bf0048
:102368000042b2000004e00005003a0030a68000f8
:10237800010220000100700030a688000400370028
:1023880030a68000f1fd2f000100600030a6880013
:10239800cfc2bf000044b2000004e00005003a00cc
:1023a80030a68000010420000100700030a68800db
:1023b8000400370030a68000f1fb2f000100600008
:1023c80030a68800c8c2bf00644060000004e00076
:1023d80005003a0030a680000108200001007000c6
:1023e80030a688000400370030a68000f1f72f00df
:1023f8000100600030a68800c8c2bf0068406000c5
:102408000004e00005003a0030a68000011020001a
:102418000100700030a688000400370030a6800054
:10242800f1ef2f000100600030a68800c8c2bf008d
:10243800704060000004e00005003a0030a680000b
:10244800012020000100700030a688000400370039
:1024580030a68000f1df2f000100600030a6880060
:10246800a07c800001102000010060000000e00056
:102478000500320030a6800001002800010070002d
:1024880030a688000400370030a68000f1ff27003e
:102498000100600030a68800e9c2bf000044b20015
:1024a8000004e0000400320040a680000000a00004
:1024b80040a688000400370040a68000e1ff2f00f6
:1024c8000100600040a68800e9c2bf0070406000bb
:1024d8000004e0000400320040a680000010a000c4
:1024e80040a688000400370040a68000d1ff2f00d6
:1024f8000100600040a68800e9c2bf000042b200a7
:102508000004e0000400320040a680000020a00083
:1025180040a688000400370040a68000b1ff2f00c5
:102528000100600040a68800e9c2bf0001c8b300ee
:10253800014060000004e0000400320040a6800072
:102548000030a00040a688000400370040a68000a4
:1025580071ff2f000100600040a68800d0c2bf00b4
:10256800624060000004e0000400320040a68000e1
:102578000040a00040a688000400370040a6800064
:10258800f1fe2f000100600040a68800d0c2bf0005
:10259800644060000004e0000500320040a68000ae
:1025a800010220000100700040a6880004003700e6
:1025b80040a68000f1fd2f000100600040a68800c1
:1025c800e8c2bf0001c8b300014060000004e00099
:1025d8000500320040a680000104200001007000c0
:1025e80040a688000400370040a68000f1fb2f00b9
:1025f8000100600040a68800e9c2bf006140600099
:102608000004e0000500320040a680000108200018
:102618000100700040a688000400370040a6800032
:10262800f1f72f000100600040a68800e9c2bf0052
:10263800624060000004e0000500320040a680000f
:10264800011020000100700040a688000400370037
:1026580040a68000f1ef2f000100600040a688002e
:10266800e8c2bf000044b2000004e00005003200e8
:1026780040a68000012020000100700040a68800cc
:102688000400370040a68000f1df2f000100600041
:1026980040a6880030a680004800de00a0a288007e
:1026a80030a68000b0a2880040a680004800de0066
:1026b800c0a2880040a68000d0a2880010898000af
:1026c8004800de00e0a2880010898000f0a288009f
:1026d80090b580004800de0000a3880090b5800017
:1026e80010a3880010a380000000e00009003a0051
:1026f8000000eb0010a38800817c8000a0aa2a00bb
:10270800808f500029003a004000200010a3880064
:102718002600370010a38000e10f500009003a009e
:102728001000200010a38800817c8000a0aa2a0045
:10273800808f50001d003a004000200010a3880040
:102748001a00370010a38000e20f500003003a007f
:102758002000200010a388001400370010a3800078
:10276800e30f500003003a002000200010a3880067
:102778000e00370010a38000e40f500003003a0059
:102788003000200010a388000800370010a3800044
:10279800e50f500003003a005000200010a3880005
:1027a800020037000000eb0010a388006081800061
:1027b8004800de0020a388006081800030a38800e4
:1027c800907c80004800de0040a38800907c800058
:1027d80050a38800508280004800de0060a3880073
:1027e8005082800070a38800b08180004800de001d
:1027f80080a38800b081800090a38800700020002a
:10280800a0a38800c07d2000b0a38800f0b180009c
:102818004800de00c0a38800f0b18000d0a3880083
:10282800e0b18000e10f500004003a0020a68000cb
:102838000000a00020a688000400370020a6800021
:10284800e1ff2f000100600020a68800f0ae8000a4
:10285800640060000000e0000400320020a6800050
:102868000010a00020a688000400370020a68000e1
:10287800d1ff2f000100600020a6880080b38000ef
:10288800e10f500004003a0020a680000020a000bc
:1028980020a688000400370020a68000b1ff2f0082
:1028a8000100600020a6880061818000f088800017
:1028b800808f500004003900a07c80007000600008
:1028c8000000e00004003a0020a680000030a000cc
:1028d80020a688000400370020a6800071ff2f0082
:1028e8000100600020a6880020a680004800de00c5
:1028f800e0a3880020a68000f0a38800a17c8000c7
:1029080000002200008060000000e00006003a009d
:1029180060b880004800de0000a4880060b880002d
:1029280010a4880005003700508180004800de00b0
:1029380000a488005081800010a488006083800073
:102948004800de0020a488006083800030a488004e
:1029580020b780004800de0040a4880020b780002f
:1029680050a48800008e80004880de0060a48800a3
:10297800008e800070a48800008180004800de007e
:1029880080a488000081800090a4880010818000c5
:102998004800de00a0a4880010818000b0a4880050
:1029a800e08d80004880de00c0a48800e08d8000b3
:1029b800d0a48800708e80004800de00e0a4880063
:1029c800708e8000f0a48800608e80004800de00d1
:1029d80000a58800608e800010a58800a08e800069
:1029e8004800de0020a58800a08e800030a5880061
:1029f800b00b2000e0a588000000eb0090a1880043
:102a0800e00f2000d01088000080fa0000000600c7
:102a18000200fa00a00a2000a0a1880000012000fe
:102a2800b0a1880040082000c0a188004000200014
:102a3800e0a18800e0012000000f78001e00780067
:102a4800000040008000780000c02f000080400097
:102a5800707c88001e00780000004000800078002c
:102a6800a0f920000080400000017800707c800000
:102a780080007800f007200013002000d220070013
:102a8800f0012000000f78001e00780000004000d0
:102a98008000780000c02f0000804000707c880013
:102aa8001e0078000000400080007800a0f9200097
:102ab8000080400000017800707c80008000780071
:102ac800f007200013002000bf200700b07e800020
:102ad8004800de0020a28800b07e800030a2880076
:102ae800c07e80004800de0040a28800c07e8000d2
:102af80050a28800b00b2000e0a588000000eb0081
:102b080090a18800e00f2000d01088000080fa0013
:102b1800000006000000fa0030032000f0108800d2
:102b28000000eb00b010880017e2a80017a2a80068
:102b380016a2a900612120009140780090cfb3002f
:102b480000c0600016e2b7001602a9000000eb0002
:102b5800c01088001942a80019e2a90018c2bf00d5
:102b6800f043b20018e2b7008720a9008700a90047
:102b7800010a200091407800f0c8b30000c060004e
:102b880001c4b30001407000a0e0b700010a2000b2
:102b98009140780080cfb30000c060000024a000fe
:102ba800a0e0b7008f20a8008f00a8000080fa00de
:102bb80000000600809fbe00821f78003400f800e5
:102bc80000002000a00188000000fa0018c2bf0021
:102bd800624060000004e000010032001822a900f1
:102be8002413a8000000eb0070a188002099800041
:102bf800620060000000e00086003a000ec2bf00dc
:102c0800644060000004e00084003a0030998000cd
:102c18000000e0000b003a00e010800040998800b6
:102c280041998000a00a2000808f50007b003a0064
:102c380010002000309988000000eb00909988006f
:102c48007600370030998000e10f500005003a0007
:102c58002000200030998800e010800050998800fa
:102c68006e00370030998000e20f500005003a00ee
:102c78003000200030998800e010800060998800ba
:102c88006600370030998000e30f500022003a00b8
:102c98004000200030998800e0108000809988006a
:102ca800809980007099880080998000fc0f5000fe
:102cb80003003a007003200030998800570037005d
:102cc80081998000c0032000808f500003003a00e3
:102cd80080032000309988005000370080998000d8
:102ce800e10f500003003a004000200030998800ae
:102cf8004a003700809980000000e00003003a0095
:102d08004000200030998800440037000000eb00a4
:102d1800309988004100370030998000e40f500056
:102d28000b003a00e0108000809d8800819d8000a3
:102d3800b00b2000808f500002003a002433a80016
:102d48002413a9000000eb003099880033003700f5
:102d58003199800070032000808f500013003a00e2
:102d6800809980000000e90080998800909980008f
:102d7800e210800000004000f200400060322100b4
:102d88000080400002087800909980000000e80068
:102d980090998800809980000000e0001f003a00a8
:102da80040002000309988001c00370031998000cd
:102db80080032000808f500013003a008099800023
:102dc8000000e9008099880090998000e210800056
:102dd80000004000f2004000603221000080400006
:102de80002087800909980000000e8009099880017
:102df800809980000000e00008003a0040002000b0
:102e080030998800050037000000eb0030998800f1
:102e180002003700e0108000409988008700a90070
:102e28000080fa003400f9004f0178004f00be001e
:102e380000400600809fbe003400f800000020001b
:102e4800a00188000000fa0090a180000000e000c6
:102e580005003a00a0a18000d010880010002000d2
:102e680090a188003900370090a18000e10f500040
:102e780005003a002000200090a18800b0a1800041
:102e8800d01088003100370090a18000e20f500078
:102e980005003a003000200090a18800c0a1800001
:102ea800d01088002900370090a18000e30f50005f
:102eb80007003a004000200090a18800e0a18000af
:102ec800d01088000000eb00f0a188001f00370038
:102ed80090a18000e40f50001a003a00e0a18000a1
:102ee8000000e00006003a002004200090a18800bd
:102ef800b00b2000d01088002453a800130037001e
:102f08004000200090a18800f0a18000000040004f
:102f1800e1112000808040006032210000804000e4
:102f280010007800d0108800f0a180000000e800b0
:102f3800f0a18800e0a180000000e900e0a188007d
:102f4800020037002004200090a188008720a900f3
:102f58000080fa003400f9004f00be00004006006f
:102f68000000fa008700a9008f00a9000000eb000c
:102f7800a09988000000eb00b09988000000eb00e1
:102f8800b099880027003700709980000000e90098
:102f980070998800709980000000e9007099880095
:102fa800a199800001804000720140006032210038
:102fb8000000410010007800909d88000100e800a2
:102fc800a0998800a199800001804000720140000a
:102fd800603221000000410010007800a09d8800a8
:102fe8000100e800a0998800909d80004800dd005d
:102ff800909d8800b2998000919d8000a09d8000de
:1030080080814000020041000109200080804000ca
:103018006032210000804000030878000200e800c8
:10302800b099880070998000e10f5000d6ff3e00eb
:1030380050998000f00f500057003a0061998000c5
:1030480010082000808f500002003a0024b3a80026
:103058006b0037006199800010072000808f5000b6
:1030680002003a002573a8006500370061998000c6
:1030780050072000808f500002003a0025b3a800b6
:103088005f0037006199800020082000808f500081
:1030980002003a002493a800590037006199800083
:1030a80020072000808f500002003a002553a80016
:1030b800530037006199800020062000808f50005f
:1030c80002003a00ca34a8004d0037006199800018
:1030d80020052000808f500002003a00cab4a800e2
:1030e800470037006199800040082000808f500019
:1030f80002003a0024d3a8004100370061998000fb
:1031080050082000808f500006003a008099800007
:10311800e10f50003a003a0024f3a8002513a90053
:10312800370037006199800060082000808f5000c8
:1031380005003a0080998000e10f500030003a0005
:103148002513a8002e003700619980007008200020
:10315800808f500005003a0080998000e10f5000f0
:1031680027003a00de15a800250037006199800085
:1031780080082000808f500005003a008099800068
:10318800e10f50001e003a00de35a8001c00370091
:10319800000000001a00370051998000000220004a
:1031a800808f500015003a00619980003008200097
:1031b800808f500001003a002473a80061998000b4
:1031c80030072000808f500001003a002533a80006
:1031d8006199800030062000808f500001003a007d
:1031e800ca14a8006199800030052000808f500023
:1031f80003003a00ca94a80001003700000000004c
:103208008f00a8000080fa00000006004400fa00c1
:10321800889fbe000000eb00102798000000eb001c
:1032280010279800140037001e209000000040006e
:103238008000780000c02f0000804000707c88006b
:103248001e2090000000400080007800a0f92000b7
:103258000080400000017800707c800080007800c9
:10326800f007200013002000d71e07001e20900042
:103278000000e800102798009e209000d00320004e
:10328800808f5000e8ff3600d07f8000f0878800ec
:10329800f08780000000e00002003a0050d02000d3
:1032a800f0878800f0878000010020004a09dd00cf
:1032b800c600de00810071004a00dd000088880039
:1032c80011888800a07e800080007800000021001e
:1032d80000806000002798008e20900000002100e8
:1032e800808f500002003a00958fa8000100370037
:1032f800958fa900d17c800060042000808f500049
:103308000300360050012000d07c880007003700f9
:10331800d07c8000e90f500003003e0050012000df
:10332800d07c88000100370000000000d17c8000bc
:10333800400620000088b900d07c8800a17c80006d
:1033480000002100008060000000e0000f003a004b
:10335800d17c800000f42100010050000100200011
:10336800208288003182880020828000318280009b
:103378004a09dd00c600de00810071004a00dd0058
:1033880020828800318288000e003700d17c8000be
:10339800a0a0210001005000010020002082880028
:1033a8003182880020828000318280004a09dd0055
:1033b800c600de00810071004a00dd00208288001e
:1033c80031828800e17c800080072000808f5000d7
:1033d8000200360080022000e07c8800e17c80004a
:1033e800400620000088b9004082880022828000c0
:1033f800338280000088800011888000000051001e
:103408008180590002fa200003002000c8f4070058
:1034180070838800228280003382800000888000c8
:10342800118880000000510081805900027d200031
:1034380003002000bef4070080838800017d80001f
:10344800007d2000808f500003003600800c200093
:10345800007d88000100370000000000007d80002a
:1034680080888800f17c8000401f2000808f5000f9
:1034780003003600e0152000f07c880008003700c3
:10348800f17c800030062000808f500003003e0051
:10349800e0152000f07c88000100370000000000e3
:1034a800f07c8000a2002000110009000280d800f2
:1034b800f07c8800808880006104b800f07c80007f
:1034c8006102b8008800780004007800000bb8009a
:1034d80005c0b900070178000001410009a0b90042
:1034e8000001410082037800a200200003002000b0
:1034f8000600be0088f3070070828800107d8000f7
:10350800e30f5000030036000000eb00107d880038
:103518000100370000000000107d800060828800f4
:10352800207d8000d08b8800307d800052002000f4
:10353800110009000280d800c08b8800407d8000ff
:1035480090828800517d8000c0032000808f500049
:103558000200360040012000507d8800517d800027
:10356800400620000088b900a0828800607d8000a5
:10357800c0888800717d8000c0122000808f5000b4
:103588000300360020032000707d88000700370004
:10359800707d8000e90f500003003e0020032000ea
:1035a800707d88000100370000000000707d8000f9
:1035b800e0888800817d800060042000808f5000b2
:1035c8000200360030022000807d8800807d800067
:1035d800f0888800917d800060042000808f500072
:1035e8000300360080022000907d88000700370025
:1035f800907d8000fd0f500003003e0080022000f7
:10360800907d88000100370000000000917d800057
:10361800400620000088b90001002000b082880020
:10362800c1828800a17d800060042000808f500046
:1036380003003600c0032000a07d88000700370083
:10364800a07d8000fd0f500003003e00c003200055
:10365800a07d88000100370000000000a17d8000e7
:10366800400620000088b90001002000d0828800b0
:10367800e1828800d2828000e3828000b0828000ec
:10368800c1828000800f5100818f590009003600e7
:10369800d0828000e1828000b2828000c3828000f4
:1036a800020050008380580000838800118388003e
:1036b80008003700d0828000e1828000b28280005a
:1036c800c382800002005000838058000083880075
:1036d8001183880000838000118380004a09dd007f
:1036e800c600de00810071004a00dd00008388000a
:1036f800118388000483800015838000a0828000e5
:103708006101b8000400be0009f40700f0828800d7
:10371800b0828000c18280004a09dd00c600de0058
:10372800810071004a00dd00b0828800c1828800f3
:10373800d0828000e18280004a09dd00c600de00f8
:10374800810071004a00dd00d0828800e182880093
:10375800b07d800060848800c07d8000708488000f
:10376800d07d800080848800e07d8000908488007f
:10377800f07d8000a084880080b380000000e00015
:1037880004003a00f07d8000108988000000eb00fa
:1037980000898800007e8000b0848800107e800048
:1037a80040858800207e800050858800307e80001b
:1037b800e0848800407e8000f0848800507e80008d
:1037c80000858800607e800010858800707e8000fb
:1037d80020858800807e800030858800907e80006b
:1037e80060858800a07e800061006000701f9800de
:1037f8007e189000e10f500002003a00940fa800d4
:1038080001003700940fa900a07e800062006000cc
:10381800601f98006e189000e20f500002003a00f6
:10382800942fa80001003700942fa900a07e8000e3
:1038380064006000501f98005e189000e40f50006c
:1038480002003a00944fa80001003700944fa900e5
:10385800a07e800068006000401f98004e1890000d
:10386800e80f500002003a00946fa80001003700ea
:10387800946fa900a07e800070006000301f98003f
:103888003e189000f00f500002003a00948fa800f4
:1038980001003700948fa900a07e80008000780086
:1038a8000002200000806000201f9800ae189000e1
:1038b80000022000808f500002003a0094afa80058
:1038c8000100370094afa900a07e80008000780036
:1038d8000004200000806000101f98009e189000cf
:1038e80000042000808f500002003a0094cfa80006
:1038f8000100370094cfa900a07e800080007800e6
:103908000008200000806000001f98008e189000ba
:1039180000082000808f500002003a0094efa800b1
:103928000100370094efa900a07e80008000780095
:10393800002020000080600070179800fe109000a2
:1039480000202000808f500002003a00952fa80028
:1039580001003700952fa900a07c800001202000dd
:10396800010060000000e0000a003a00a07e80002c
:103978008000780000102000008f600000102000f8
:103988009e0f100002003a00950fa80001003700b2
:10399800950fa900a07e80008000780000402000dc
:1039a8000080600060179800ee1090000040200032
:1039b800808f500002003a00954fa80001003700a0
:1039c800954fa900a07e800080007800008020002c
:1039d8000080600050179800de10900000802000e2
:1039e800808f500002003a00956fa8000100370050
:1039f800956fa900a07c80000100210001006000f3
:103a08000000e00005003a0040062000e08e880033
:103a180020032000f08e88000400370040052000b5
:103a2800e08e8800a0022000f08e8800a07e800032
:103a38008000780000002200008060004017980095
:103a4800ce10900000002200808f500002003a0043
:103a580095afa8000100370095afa900a07e8000af
:103a68008000780000002400008060003017980073
:103a7800be10900000002400808f500002003a0021
:103a880095cfa8000100370095cfa900a07e80003f
:103a9800800078000000280000806000201798004f
:103aa800ae10900000002800808f500002003a00fd
:103ab80095efa8000100370095efa900b07e8000bf
:103ac800d0808800c07e8000e0808800d07e8000a2
:103ad8006103b80086007800000029000009b800da
:103ae8006130b9000302780000024200000029009a
:103af80000b8b90000024200840178000200be004c
:103b08007085880081858800e07e80006103b800a8
:103b180086007800000029000009b8006130b9006b
:103b280003027800000242000000290000b8b90032
:103b380000024200840178000200be0090858800df
:103b4800a1858800f07e80006103b80086007800b7
:103b5800000029000009b8006130b90003027800ac
:103b6800000242000000290000b8b900000242002b
:103b7800840178000200be00b0858800c1858800f5
:103b8800007f80006103b8008600780000002900eb
:103b98000009b8006130b900030278000002420051
:103ba8000000290000b8b900000242008401780032
:103bb8000200be00d0858800e1858800107f800063
:103bc8006103b80086007800000029000009b800e9
:103bd8006130b900030278000002420000002900a9
:103be80000b8b90000024200840178000200be005b
:103bf800f085880001868800207f80000100200071
:103c08001086880021868800317f800040062000c9
:103c18000088b90030868800407f8000d0878800ff
:103c2800507f8000e0878800607f80009087880050
:103c3800717f8000400620000088b90070868800e7
:103c4800d17e8000400620000088b90080007800fe
:103c580000f4210001005000010020008086880047
:103c68009186880080868000918680004a09dd0060
:103c7800c600de00810071004a00dd0080868800f1
:103c88009186880092858000a385800070858000d9
:103c980081858000800f5100818f59000f00390005
:103ca800308680000000e0000c0032009285800021
:103cb800a385800070858000818580000002510006
:103cc80081825900308680006101b8000400be007e
:103cd80097f20700a0868800020037000000eb007a
:103ce800a0868800b2858000c3858000908580000a
:103cf800a1858000800f5100818f59000f00390085
:103d0800408680000000e0000c003200b285800090
:103d1800c385800090858000a18580000002510045
:103d280081825900408680006101b8000400be000d
:103d38007ff20700b0868800020037000000eb0021
:103d4800b0868800d2858000e3858000b085800039
:103d5800c1858000800f5100818f59000f00390004
:103d6800508680000000e0000c003200d285800000
:103d7800e3858000b0858000c18580000002510085
:103d880081825900508680006101b8000400be009d
:103d980067f20700c0868800020037000000eb00c9
:103da800c0868800f285800003868000d085800068
:103db800e1858000800f5100818f59000f00390084
:103dc800608680000000e0000c003200f285800070
:103dd80003868000d0858000e185800000025100c4
:103de80081825900608680006101b8000400be002d
:103df8004ff20700d0868800020037000000eb0071
:103e0800d0868800807f80003087880030878000d7
:103e18000000e00002003a00a0002000308788007f
:103e2800907f800040878800408780000000e00085
:103e380002003a00c012200040878800a07f80005e
:103e4800f08b8800f08b80000000e00002003a0050
:103e580020032000f08b8800b07f80005087880006
:103e6800508780000000e00002003a00401f200058
:103e780050878800c07f8000608788006087800046
:103e88000000e00002003a00a000200060878800df
:103e9800e07f800061006000101798001e109000fd
:103ea800e10f500002003a0097efa8000100370028
:103eb80097efa900e07f800062006000001798007b
:103ec8000e109000e20f500002003a00980fa80070
:103ed80001003700980fa900e07f800064006000af
:103ee800700f98007e089000e40f500002003a001e
:103ef800982fa80001003700982fa900e07f8000c4
:103f080068006000700f98007e089000e80f50006d
:103f180002003a00984fa80001003700984fa90006
:103f2800f07f800061006000700f98007e089000ac
:103f3800e10f500002003a00960fa8000100370078
:103f4800960fa900f07f800062006000600f980063
:103f58006e089000e20f500002003a00962fa80069
:103f680001003700962fa900f07f800064006000f0
:103f7800500f98005e089000e40f500002003a00cd
:103f8800964fa80001003700964fa900f07f8000e7
:103f980068006000400f98004e089000e80f50003d
:103fa80002003a00966fa80001003700966fa9003a
:103fb800f07f800070006000300f98003e0890008d
:103fc800f00f500002003a00968fa8000100370059
:103fd800968fa900f07f8000800078000002200002
:103fe80000806000200f9800ae08900000022000ba
:103ff800808f500002003a0096cfa80001003700d9
:1040080096cfa900f07f800080007800000420008f
:1040180000806000100f98009e08900000042000a7
:10402800808f500002003a0096afa80001003700c8
:1040380096afa900f07f800080007800000820007b
:1040480000806000000f98008e0890000008200093
:10405800808f500002003a0096efa8000100370058
:1040680096efa900f07f8000800078000010200003
:104078000080600070079800fe009000001020008b
:10408800808f500002003a00970fa8000100370007
:10409800970fa900f07f80008000780000202000a2
:1040a8000080600060079800ee009000002020006b
:1040b800808f500002003a00972fa80001003700b7
:1040c800972fa900f07f8000800078000040200032
:1040d8000080600050079800de009000004020003b
:1040e800808f500002003a00974fa8000100370067
:1040f800974fa900f07f80008000780000802000a2
:104108000080600040079800ce00900000802000ea
:10411800808f500002003a00976fa8000100370016
:10412800976fa900f07f80008000780000002100d0
:104138000080600030079800be0090000000210059
:10414800808f500002003a00978fa80001003700c6
:10415800978fa900f07f800080007800000022007f
:104168000080600020079800ae0090000000220048
:10417800808f500002003a0097afa8000100370076
:1041880097afa900f07f800080007800000024002d
:1041980000806000100798009e0090000000240036
:1041a800808f500002003a0097cfa8000100370026
:1041b80097cfa900008080006a00b9007087880046
:1041c800708780000000e00002003a0060092000cb
:1041d8007087880010808000808788008087800032
:1041e8000000e00002003a00a0002000808788005c
:1041f80020808000a0878800a08780000000e00061
:1042080002003a0040062000a08788003080800025
:10421800b0878800b08780000000e00002003a0004
:1042280040062000b087880040808000c087880052
:10423800c08780000000e00002003a00400620002d
:10424800c0878800508080002088880060808000b7
:1042580030888800708080004088880080808000d6
:10426800508888009080800060888800a080800046
:10427800708888008088800001002000a20020004b
:104288000300200024f00700208488008088800034
:104298000100200052002000030020001ef007004b
:1042a80040848800708280006103b800860078002e
:1042b800d0052000000ab8006030b9000501780078
:1042c80000014100d005200000b8b90000014100fc
:1042d8008202780042062000030020000400be008d
:1042e8000df0070090888800708280006103b80094
:1042f8008600780020062000000ab8006030b90067
:1043080005017800000141002006200000b8b9002e
:1043180000014100820278004206200003002000cc
:104328000400be00fcef0700a0888800207d800004
:10433800a2002000110009000280d800b08888007f
:1043480080888000a2002000110009000280d800a7
:10435800d088880081888000808880000100b800ab
:1043680050898800618988006188800000052000e4
:104378000100b800708988008189880078898000e8
:1043880089898000568980006789800088007800c4
:1043980006007800000ab80007c0b90005017800d7
:1043a8000001410009b0b900000141008202780013
:1043b800748988008589880071888000000520003c
:1043c8000100b80090898800a18988009889800038
:1043d800a989800056898000678980008800780054
:1043e80006007800000ab80007c0b9000501780087
:1043f8000001410009b0b9000001410082027800c3
:1044080094898800a58988004f04be000080fa00be
:10441800000006000000fa00d2e2a800de02a800b0
:10442800de22a800e422a800e402a800d362a800c3
:104438000000eb00801688000000eb0040178800a1
:104448000000eb00b0168800e5c2a900e582a900cb
:10445800e5a2a900e5e2a900cc22a900cc42a90066
:10446800e4c2a900e4e2a900e502a900e522a90046
:10447800d262a900d242a900d222a900e9c2a900a9
:10448800e982a900d042a9000000eb00a0ae880094
:104498000000eb00b0ae88000000eb00c0ae880062
:1044a8000000eb0090b588000080fa0000000600cc
:1044b8000000fa000000eb00200888000000eb0074
:1044c8000008880005a1a9000421a90041102000c6
:1044d80091407800f0ccb30000c0600004e1b70060
:1044e80005e1a80000f42100100888005109200007
:1044f80091407800f0c8b30000c0600001c5b30067
:104508000140700095e0b7008460a9008c60a800a5
:1045180042c0bf007f40600001c6b3000140700088
:1045280042e0b7000080fa00000006000000fa0030
:10453800d2c2a800d2a2a800d282a8000000eb0034
:10454800000688000000eb0010068800c1a0a80043
:10455800c1c0a800c1e0a8000000eb002006880048
:104568000000eb0030068800c5a0a900c5c0a9005e
:10457800c5e0a900b109200091407800f0c8b30057
:1045880000c0600001c5b300014070009be0b700a7
:1045980085e0a9008de0a8000080fa000000060070
:1045a8000600fa006000b80010079800210798007c
:1045b8000040eb00004f78000e0037001e80fb0023
:1045c80000004000e4004000e01f2100008040009f
:1045d800100078006101b8001e009000ae00900045
:1045e80000004100818049001007980021079800c9
:1045f8001e4fe80030c0b3009e4f1000efff36009a
:104608001e009000ae0090004e09dd004200de0062
:1046180000007100c208de000080fa0000000600f9
:104628000800fa00100798009e009000b0bd240012
:10463800808f5000040036009e009000c03f250087
:10464800808f50000900360092d6bf000040e80075
:1046580092f6b70092d6bf00e24f5000190036001c
:104668000000eb0030079800180037000040eb000e
:1046780092f6b700caff0700000f78009e0090006e
:104688001e00780000805000200798002e0090003f
:104698000000e00003003d002e0090000000ea004a
:1046a800200798002e0090009e007800c208de00c7
:1046b800810f5000030036000000eb00300798001f
:1046c8000200370010002000300798003e009000dc
:1046d8000080fa00000006000000fa001fe1a900af
:1046e8000000eb00a008880000908000803eb00029
:1046f800d00888001fe1a8000080fa00000006002a
:104708000000fa0010828000640060000000e000f1
:104718001c0032000000eb00c0088800a17c80006b
:1047280000002100008060000000e00003003a0063
:1047380030682000e008880002003700d0562000ca
:10474800e008880086c0a9008ec0a80021e1a80062
:104758001000200050b7880010c0b300e8f6b7007a
:1047680010002000e0ae880087a0a900e114200016
:104778009140780080cfb30000c060004ee1b700e0
:104788008fa0a9000080fa00000006000000fa00cf
:104798000000eb0070b788000000eb00700a88008a
:1047a8004ee1a900e114200091407800f0c9b3005f
:1047b80000c060004ee1b700e1142000914078008d
:1047c80080cfb30000c060003040b3004ee1b700b6
:1047d800210a20009140780000c7b30000c0700093
:1047e800a2e0b70087a0a9008fa0a8000080fa0067
:1047f800000006000000fa000000eb0080088800b6
:104808000000eb003008880011a1a90010c1a90020
:104818001021a9000111200091407800f0ccb300cc
:1048280000c060000044a00010e1b7001061a900ba
:1048380011e1a9000080eb006008880071092000e0
:104848009140780080cfb30000c060006040b300a2
:1048580097e0b70084c0a9008cc0a9000000eb0055
:10486800900888000000eb005008880013a1a900f8
:1048780012c1a9001221a90021112000914078003d
:10488800f0ccb30000c060000044a00012e1b70003
:1048980013e1a8000080eb0070088800710920006f
:1048a80091407800f0c8b30000c0600001c6b300b2
:1048b8000140700097e0b70084e0a9008ce0a900ef
:1048c8000000eb00f00888000000eb00a00888005a
:1048d80000e22400d00888001fa1a8001ec1a9007a
:1048e8001e21a900e111200091407800f0ccb3000e
:1048f80000c060000044a0001ee1b7001fe1a9004d
:104908001e61a900e109200091407800f0c8b300b9
:1049180000c0600001c6b300014070009ee0b7000f
:1049280086a0a9008ea0a8000000eb00000988005e
:104938000000eb00c008880021a1a80020c1a90040
:104948002021a9000112200091407800f0ccb3008a
:1049580000c060000044a00020e1b70021e1a900e8
:1049680090b88000e0088800f109200091407800a4
:1049780080cfb30000c060006040b3009fe0b70084
:1049880086c0a9008ec0a9000080fa0000000600b9
:104998003600f800809fbe00829fbe00849fbe0044
:1049a800869fbe003400f80000002000a0018800a7
:1049b8000000fa004230a80087a0a900e1142000f6
:1049c8009140780080cfb30000c060003040b30051
:1049d8004ee1b7000000eb00a0b48800600a800038
:1049e80060b5880061b5800090b78000808f500066
:1049f8000500390060b5800091b7800001005000c3
:104a080070b588000500370061b5800090b7800058
:104a1800008050000000e90070b5880071b5800082
:104a2800c0bd2400808f50001400360071b580008e
:104a3800b03f2500808f500010003e000ad2bf0012
:104a48000080fb0072b5800000004000e4004000d8
:104a5800e01f210000804000020878000ad2bf0051
:104a68000080fb000000e80042002000110009005f
:104a78000200d8008000fd000af2b700c8fe070057
:104a8800f08f880070b58000e5fe07000bf2b700d4
:104a98000bd2bf000004e00005003200f08f800058
:104aa800009088000cff070010c0b3009ef6b70006
:104ab80060b5800090b788000bd2bf000004e0000a
:104ac800010032000eff07000080fa003400f900f0
:104ad8004f03be004f02be004f01be004f00be0094
:104ae8003600f90000400600809fbe003400f80040
:104af80000002000a00188000000fa0050b78000e4
:104b0800e10f500015003a00d5c2bf0068406000b0
:104b18000004e00011003a000bd2bf000004e000de
:104b28000e0032000000eb0050b7880021e1a90018
:104b380086c0a9008ec0a90087a0a9008fa0a800e0
:104b4800e11420009140780080cfb30000c06000dd
:104b58003040b3004ee1b7002000370050b7800066
:104b6800e10f500011003a00d5c2bf006840600054
:104b78000004e0000d0032000bd2bf000004e0008a
:104b88000a0032002000200050b7880087a0a90042
:104b98008fa0a900e11420009140780080cfb300d5
:104ba80000c060004ee1b7000c00370050b780002d
:104bb800e10f500009003a00d5c2bf00684060000c
:104bc8000004e00005003a000bd2bf000004e0003a
:104bd80002003a002000200050b7880050b780003b
:104be800e20f50001d003a000000eb00c0088800ea
:104bf80060838000e00888009fd6bf00e14f500026
:104c080006003a000040eb009ff6b700e10880007c
:104c180080c12f0000804000e0088800c0b68000f6
:104c280090b8880086c0a9008ec0a80021e1a8001d
:104c3800a17c800000102000008060000000e000df
:104c480003003a003000200050b788004c003700bd
:104c5800b000200050b788004900370050b78000e6
:104c6800e30f50000c003a004000200050b78800c5
:104c78000000eb00c008880090b88000e0088800b9
:104c880086c0a9008ec0a80021e1a800d662a800ad
:104c9800d642a8003a00370050b78000e40f500011
:104ca80013003a005000200050b788003000200060
:104cb80060b788000000eb003008880061b8800009
:104cc80090b88000008050006008880084c0a90067
:104cd8008cc0a80011e1a800d662a900d642a9009c
:104ce800d622a90086c0a9008ec0a90024003700da
:104cf80050b78000eb0f50000c003a00c0002000b5
:104d080050b788000000eb00c008880090b8800009
:104d1800e008880086c0a9008ec0a80021e1a8008c
:104d2800d662a800d642a8001500370050b7800008
:104d3800ec0f500012003a00d000200050b7880055
:104d48005001200060b788000000eb0030088800a0
:104d580061b8800090b8800000805000600888002a
:104d680084c0a9008cc0a80011e1a800d662a900df
:104d7800d642a900d622a90086c0a9008ec0a900e3
:104d88000080fa003400f9004f00be000040060021
:104d9800809fbe003400f80000002000a0018800b9
:104da8000000fa0084c0a90060b78000e30f50003b
:104db8000c003a004000200060b788000000eb00bb
:104dc8003008880090b880006008880084c0a90076
:104dd8008cc0a80011e1a800d662a800d622a800bd
:104de8008f00370060b78000e40f50000f003a00d2
:104df8005000200060b788000000eb0030088800f1
:104e080061b8800090b88000008050006008880079
:104e180084c0a9008cc0a80011e1a800d662a9002e
:104e2800d642a900d622a9007d00370060b78000cd
:104e3800e50f50000c003a006000200060b78800c1
:104e48000000eb003008880090b8800060088800f7
:104e580084c0a9008cc0a80011e1a800d642a8000f
:104e6800d622a8006e00370060b78000e60f500019
:104e78000f003a007000200060b788000000eb00c7
:104e88003008880061b8800090b880000080500029
:104e98006008880084c0a9008cc0a80011e1a8009f
:104ea800d662a900d642a900d622a9005c00370024
:104eb80060b78000e70f50000c003a008000200027
:104ec80060b788000000eb003008880090b88000c8
:104ed8006008880084c0a9008cc0a80011e1a8005f
:104ee800d642a800d662a8004d00370060b78000ff
:104ef800e80f50000f003a009000200060b78800cb
:104f08000000eb003008880061b8800090b880008d
:104f1800008050006008880084c0a9008cc0a800e8
:104f280011e1a800d662a900d642a900d622a9009c
:104f38003b00370060b78000e90f50000c003a00d2
:104f4800a000200060b788000000eb00300888004f
:104f580090b880006008880084c0a9008cc0a800b0
:104f680011e1a800d622a800d662a8002c003700bc
:104f780060b78000ea0f50000f003a00b000200030
:104f880060b788000000eb003008880061b8800036
:104f980090b88000008050006008880084c0a90094
:104fa8008cc0a80011e1a800d662a900d642a900c9
:104fb800d622a9001a00370060b78000eb0f500016
:104fc8000c003a00c000200060b788000000eb0029
:104fd8003008880090b880006008880084c0a90064
:104fe8008cc0a80011e1a800d622a800d642a800cb
:104ff8000b00370060b78000ec0f500008003a0043
:10500800d000200060b78800d662a900d642a90067
:10501800d622a90084c0a9008cc0a90011e1a9006a
:1050280060b78000f50f50000c003a0060012000c6
:1050380060b788000000eb003008880090b8800056
:105048006008880084c0a9008cc0a80011e1a800ed
:10505800d642a800d622a8008f00370060b780008b
:10506800f60f50000f003a007001200060b788006a
:105078000000eb003008880061b8800090b880001c
:10508800008050006008880084c0a9008cc0a80077
:1050980011e1a800d662a900d642a900d622a9002b
:1050a8007d00370060b78000f70f50000c003a0011
:1050b8008001200060b788000000eb0030088800fd
:1050c80090b880006008880084c0a9008cc0a8003f
:1050d80011e1a800d662a800d622a8006e00370009
:1050e80060b78000f80f50000f003a0090012000d0
:1050f80060b788000000eb003008880061b88000c5
:1051080090b88000008050006008880084c0a90022
:105118008cc0a80011e1a800d662a900d642a90057
:10512800d622a9005c00370060b78000f90f500054
:105138000c003a00a001200060b788000000eb00d6
:105148003008880090b880006008880084c0a900f2
:105158008cc0a80011e1a800d642a800d662a80019
:105168004d00370060b78000fa0f50000f003a007a
:10517800b001200060b788000000eb00300888000c
:1051880061b8800090b880000080500060088800f6
:1051980084c0a9008cc0a80011e1a800d662a900ab
:1051a800d642a900d622a9003b00370060b780008c
:1051b800fb0f50000c003a00c001200060b78800c7
:1051c8000000eb003008880090b880006008880074
:1051d80084c0a9008cc0a80011e1a800d622a800ac
:1051e800d642a8002c00370060b78000fc0f5000a2
:1051f8000f003a00d001200060b788000000eb00e3
:105208003008880061b8800090b8800000805000a5
:105218006008880084c0a9008cc0a80011e1a8001b
:10522800d662a900d642a900d622a9001a003700e2
:1052380060b78000fd0f50000c003a00e00120002c
:1052480060b788000000eb003008880090b8800044
:105258006008880084c0a9008cc0a80011e1a800db
:10526800d622a800d662a8000b00370060b78000dd
:10527800fe0f500008003a00f001200060b78800d7
:10528800d662a900d642a900d622a90084c0a900e6
:105298008cc0a90011e1a9000080fa003400f900cf
:1052a8004f00be00004006003600f800809fbe0098
:1052b800829fbe00849fbe00869fbe003400f80017
:1052c80000002000a00188000000fa000090800083
:1052d800d00888000040eb000bf2b7000bd2bf00eb
:1052e8000004e00001003a0005fd07009ed6bf005b
:1052f8000004e000080032000040eb009ef6b70012
:1053080010c0b3009ff6b7000190800080c12f0045
:1053180000804000d00888000000eb00a00888004a
:1053280086a0a9008ea0a8001fe1a8000080fa00ae
:105338003400f9004f03be004f02be004f01be000b
:105348004f00be003600f90000400600809fbe00f6
:10535800821f78003400f80000002000a0018800b7
:105368000000fa0085e0a900d4c2bf000080fb005d
:105378004600de00e1406000b0b48000614060009b
:1053880080cf50000d003200d4c2bf000080fb0067
:105398004600de00614060000080fb0061016000a3
:1053a800b1b48000e0ff2f000080600002007000b0
:1053b800b0b488000000eb00c0b48800d4c2bf00bd
:1053c8000080fb004500de00e1406000b0b48000d2
:1053d8000000d1006140600080cf50000e00320014
:1053e800d4c2bf000080fb004500de0061406000c1
:1053f8000080fb006100600000014000b1b4800043
:10540800d0ff2f000080600002007000b0b4880058
:105418000000eb00d0b48800d4c2bf000080fb00bd
:105428004400de00e1406000b0b480004200de00cd
:105438006140600080cf50000e003200d4c2bf002f
:105448000080fb004400de00614060000080fb003b
:10545800610060004201dd00b1b48000b0ff2f00a0
:105468000080600002007000b0b488000000eb000b
:10547800e0b4880090b58000e30f50006800320067
:1054880090b58000e40f500065003200f080800085
:10549800fb0f500062003600b0b48000610060006d
:1054a8000000e00006003a0070b780000000e0004d
:1054b80003003a001000200070b788005800370039
:1054c800b0b48000610060000000e0000800320015
:1054d80070b78000e10f500005003a00200020005e
:1054e80070b788005008800050b588004c0037001d
:1054f800b0b48000620060000000e00048003200a4
:1055080070b78000e20f500045003a000000eb0041
:1055180070b788005008800040b5880041b5800009
:1055280050b58000808f50000500360040b58000df
:1055380051b580000100500030b5880009003700df
:1055480050b58000800078000080eb00010050001a
:1055580030b5880031b5800040b58000008040003b
:1055680030b5880031b5800070322200808f50003d
:1055780016003e0000b580000000e80000b5880075
:105588000000eb0010b588000000eb0020b5880093
:1055980000b58000e60f5000210036004350a900f6
:1055a8005000200070b788000000eb0000b58800ac
:1055b800a17c800000202000008060000000e00046
:1055c80017003200950fa9001500370010b58000ac
:1055d8000000e80010b588000000eb0000b5880066
:1055e8000000eb0020b5880010b58000e60f5000e1
:1055f8000b0036004350a8005000200070b7880008
:105608000000eb0010b58800a17c8000002020007d
:10561800008060000000e00001003200950fa80043
:105628000080fa003400f9004f0178004f00be00f6
:10563800004006001000fa0015d3bf000004e00087
:105648002701320012d2bf008080fb002085800035
:10565800808f50001e013a0092d2bf00e34f5000e5
:105668001b01360092d2bf0000c0e90080407800dc
:1056780020212100580307002007980092d2bf007c
:105688000080fb008080e90020212100008040008c
:10569800104078000080fb004801dd0092d2bf0076
:1056a8000080fb008000e9002021210000804000ec
:1056b800104078000080fb0000007100100798007f
:1056c800ae0090001e009000808f500000013a004c
:1056d80013d2bf000080fb00600798006e009000a6
:1056e800e60f500052003200ee009000f08f50009c
:1056f800ad0032006e009000e30f50000100320050
:10570800f300370014d2bf000080fb00c800dd00a2
:1057180015d2bf000080fb00008070005007980081
:1057280016d2bf000080fb00c800dd0017d2bf0002
:105738000080fb000080700040079800de009000a9
:105748004e0090008080400000082000808f5000ac
:10575800df003e002085800093f2b70030c0b30020
:1057680094f2b7004e0090000000400095f2b70098
:105778000000eb0030079800240037003e0090003e
:1057880000004000e3014000de0090003e00900071
:105798000080400080004000c04c21000080400094
:1057a800100078004800de00004178000108200061
:1057b8008380400020212100008040001240980092
:1057c8003e00900000004000e4014000de00900030
:1057d8003e0090000080400080004000c04c210046
:1057e8000080400010007800004178000108200087
:1057f8008380400020212100008040001240980052
:105808003e0090000000e80030079800be009000bd
:105818004e009000808f5000d8ff39004e00900055
:10582800000040006340400002010700a800370064
:1058380014d2bf000080fb00c800dd0015d2bf00f5
:105848000080fb00008070005007980016d2bf004f
:105858000080fb00c800dd0017d2bf000080fb00fd
:10586800008f7000de009000f0072000808f50004d
:1058780097003e005e00900080004000c04c210070
:10588800008040001e087800de0090007107980034
:1058980060062000fe009000808f5000200032003b
:1058a80060062000fe009000808f500009003e0036
:1058b80040062000fe009000808f50000e0032004d
:1058c80050062000fe009000808f50000f0032002c
:1058d8001f00370070062000fe009000808f5000e7
:1058e8001600320080062000fe009000808f5000d5
:1058f8001500320016003700a00a20009e0f100085
:1059080013003a00de15a80011003700b00b200084
:105918009e0f10000e003a00de35a8000c0037007c
:10592800c00c20009e0f100009003a000000eb0098
:10593800907c8800deb5a800050037001e007800be
:10594800b083880002003700400020006082880091
:105958000000eb00300798000d0037003e01900072
:10596800be00900020212100008040009041780076
:105978000108200082804000202121000080400092
:10598800134098003e0090000000e800300798009f
:105998003e009000e50f5000f0ff360060c0b300f5
:1059a800a40007004a00370014d2bf000080fb00a3
:1059b800c800dd0015d2bf000080fb000080700029
:1059c8005007980016d2bf000080fb00c800dd0019
:1059d80017d2bf000080fb000080700040079800cd
:1059e800de0090004e0090008080400000082000fb
:1059f800808f500036003e000000eb003007980012
:105a08001a003700de0090003e00900080814000c0
:105a18003e00900000004000e700400020212100e7
:105a280000804000104078000080fb004801dd0045
:105a38003e00900000004000e800400020212100c6
:105a480000804000104078000080fb0000017100d9
:105a580083804100c04c210000804000020878008b
