:020000040000fa
:080000000001040000000000f3
:020000040000fa
:10020000af6c2100007f2100000188000000000089
:100210000c000700208925000100200011000700c4
:10022000000020000000e000020032000000020098
:1002300000000000f8560200000000000040da0054
:100240000000fe004440a900000020000000e00083
:100250000300320000002000a00188004440a800f4
:100260000000060091018800800078000000eb008b
:1002700015003700e280400032a0b4009101ba00be
:10028000e280400032a0b4009102ba00e280400057
:1002900032a0b4000002eb00472bde00f507b200ed
:1002a000602ce10004003a000059eb008301e900f2
:1002b000fdff3e00040037006128e100010032002c
:1002c0000082eb00040007001101ba000200e00008
:1002d000e8ff3a00000006003159ba008301e90046
:1002e0000c0032002159ba008301e90008003200f5
:1002f0000400e00003003a00e280400032a0b400b5
:10030000f5ff370011d9ba008301e900faff3a007e
:100310008100e800e180400032a0b4000000060047
:10032000839f68000100e00002003d0060001000b3
:10033000e08018000300e00002003d0060011100b1
:10034000e0811900fc0007004f00e00002003b00c4
:1003500060001000e080180000000600889fbe00ca
:100360008a9fbe00010578000100e000040035000e
:1003700008003c000000e0002000320005003700cb
:1003800060001000e080180002003b0001f02c002b
:100390001a0037000004be006011b8006b0920008d
:1003a0000982cf00020039000882cf000441b0006a
:1003b000694252000e00320008003b008281710049
:1003c000610164008904d1000884d3008b05e80032
:1003d0000442e800f9ff3a00050037000804440031
:1003e00089844c008b05e9000442e900fbff3a00d8
:1003f0005a0107000af0a70001f0a0004f05be0057
:100400004f04be0000000600889fbe008a9fbe0009
:100410008c1f78000004be00760107000478a3005a
:1004200026003a006120e1002500320009f8a3000f
:1004300025003a006420e10021003200f507b100f8
:100440000508a3000200320000004000818048003f
:100450006044b800031020000200200000004000ab
:10046000818048000805440089854c000a05410048
:100470008b8549000a0550008b8558000300330026
:100480000a00be0002047400838474008301d1005a
:100490000281d300830f7100f0ff3a008904d1007c
:1004a0000884d3006001490082017800c1adde00fc
:1004b000fb07b000290107006c0137000960a000ac
:1004c0000800be00690137001202200042b6880011
:1004d000f0ff2f00f1ff2700640137000001be008c
:1004e000440107000470a70003f0a1006509b100f2
:1004f000160032000d0035006828e10006003500c6
:10050000f0ff2f00f1ff27000300e00013003b0085
:100510000100280000000500000040008180480024
:100520008502e900fcff3a0008003700f88f42001e
:1005300002003c008000eb00000005008100d100bb
:100540000080d3008502e800fcff3a000300e000d1
:1005500002003b0060001000e08018000000060070
:10056000889fbe008a9fbe008c1f7800460107004e
:100570003501330003866c006450e1002e00320028
:100580006420e100330032006150e1002f003200ae
:100590006120e1003100320085855500eb07b00095
:1005a000090020000804200005003700080444006a
:1005b00089844c000a0031000603430087834b0006
:1005c0000001530081815b00f8ff33000203be008d
:1005d0000800a0000804440089844c00f6ff39009c
:1005e000c639dd00830173000100320013002000d2
:1005f0008904d1000884d3000998a30005003200c3
:100600000800a7000300a0008904d1000884d300db
:100610008b05e8008904d1000884d3000001eb00b9
:100620000281d200cd00070001f0a1000cf0a7006c
:1006300001f0a0000d0137006420e1000f0132003d
:100640000801be000200be00f7ff37006120e10094
:100650000a0132006000b800f3ff370000002000fc
:1006600001f82700f0ff3700889fbe008a9fbe0078
:100670008c1f780004010700f300330003866c0030
:100680006450e100240032006420e10027003200c1
:100690006150e100220032006120e10021003200bf
:1006a0008b854200eb07b1000134b800003ab80076
:1006b0000804420089844a00013ab8000030b800ba
:1006c0008880400009014a00040033000000400017
:1006d00081804800020149008b05e900c909dd005d
:1006e000830170000100320013002000c814de00f6
:1006f0004814dd004709de001200b200c808de0021
:10070000088470009500070001f0a1000cf0a7001c
:1007100001f0a000d50037006120e100d7003200d1
:100720000801be000200be00f7ff37006150e10083
:10073000fcff3a00d10037006022b800060220001a
:100740000000d0008180d2000482d2008582d200d5
:100750000000a0000202520083825a000300310010
:100760000202420083824a000000a1000603e90061
:10077000f3ff3a000000060003f0a200889fbe00cd
:100780008a9fbe008c1f7800bf000700ae003300b8
:100790006450e1004f0032006420e100520032005a
:1007a00003826c0007003b000905d0000306d0005f
:1007b000820f54000c065d00020039000200320076
:1007c00089017800030678008582550004003d0009
:1007d0000003fd008103fd008502ea008b854200d5
:1007e000840f720002003b0060001000e0801800df
:1007f0006011b8000005eb007a28e1000a0039001a
:1008000006007800c75ddd00f707b200878075003d
:100810002d003700828171000a01780061056000b7
:100820008180d1000080d3008502e900f9ff3b0000
:10083000060440008784480002003b006004140066
:10084000e0841c000988a300070032008a8171003f
:1008500082817100610164008904d1000884d300a1
:100860008b05e800170037000978a30013003a0051
:100870000b00e000130034008b05e900080444007d
:1008800089844c000a4474000978a3000d003a00e2
:100890000b00e000070034008b05e9000804440069
:1008a00089844c0001003a000b0020000978a30065
:1008b000f7ff32000001eb00020037008281710077
:1008c0000a017800250007000cf0a70001f0a00045
:1008d000660037006420e10002003a00838f6c005c
:1008e000660033000801be000200be005f00370052
:1008f0000001be003f0007000470a70003f0a10044
:1009000003f8a30013003a006509b100100032009b
:10091000090035006928e1000200350001002800c7
:100920000000050000004000818048008502e900c9
:10093000fcff3a0000000600f88f42000500350079
:100940008100d1000080d3008502e800fcff3a005e
:10095000000006008000eb00000005008100200080
:10096000618055000b003d000b00200061fe2f0050
:100970000100e1001d00340082817100610164000a
:100980008904d1000884d3000000e800faff3a008f
:10099000710020006100640003007000020060002c
:1009a0000900320061044400e0844c000988a5007d
:1009b000050032008b05e8006808e10002003a00fb
:1009c0008904d1000884d300f20f20000258e1000e
:1009d00005003d00c75ddd00f907b20089807500a4
:1009e00008007800000006000bf827008b00780054
:1009f00000000500c70ade00f107b200f50fb200e3
:100a000008003200e1cf4200020032000170a00075
:100a100024000500810f7000010032000408050069
:100a200044000500810f700002003a001400050028
:100a30008502e9000000400081c04800fcff3b0047
:100a40000170a000240005000200be006450e10017
:100a5000050036006420e100020036000968a300aa
:100a600001003a000800be000160a0004f067800b7
:100a70004f05be004f04be0000000600f0ff2f002f
:100a8000f1ff2700f9ff37000004be00d9ff07007f
:100a90000003be000405be000200be00d5ff070033
:080aa000844f75000000060000
:020000040000fa
:0200000401f009
:04000000f6ff000007
:020000040000fa
:0200000401f009
:04000400ff7f00007a
:020000040000fa
:0200000401f009
:04000c00ffff0000f2
:020000040000fa
:0200000401f009
:04001000ffff0000ee
:020000040000fa
:0200000401f009
:04001400ffff0000ea
:020000040000fa
:100008009059000090590000905900009059000044
:100018009059000090590000905900009059000034
:100028009059000090590000905900008840000045
:100038009059000090590000be2600009059000019
:1000480090590000fc2d0000122f00003c520000c7
:100058009059000090590000905900009c29000018
:1000680090590000905900009059000090590000e4
:10007800905900004a2900006a25000090590000a4
:10008800de1500001e17000090590000905900006e
:1000980090590000be2400009059000090590000bb
:1000a80090590000905900009059000090590000a4
:1000b8009059000090590000905900009059000094
:1000c8009059000090590000905900009059000084
:1000d8009059000090590000905900009059000074
:1000e8009059000090590000905900009059000064
:0800f80090590000905900002e
:020000040000fa
:100108009059000090590000905900009059000043
:100118009059000090590000905900009059000033
:100128009059000090590000905900008840000044
:100138009059000090590000be2600009059000018
:1001480090590000fc2d0000122f00003c520000c6
:100158009059000090590000905900009c29000017
:1001680090590000905900009059000090590000e3
:10017800905900004a2900006a25000090590000a3
:10018800de1500001e17000090590000905900006d
:1001980090590000be2400009059000090590000ba
:1001a80090590000905900009059000090590000a3
:1001b8009059000090590000905900009059000093
:1001c8009059000090590000905900009059000083
:1001d8009059000090590000905900009059000073
:1001e8009059000090590000905900009059000063
:0801f80090590000905900002d
:020000040000fa
:100aa8000000fa00a0968000610060000000e000ed
:100ab80008003200f09e80000000e800f09e8800e8
:100ac800f09e8000ea0f5000020036000000eb00a4
:100ad800b096880018c2bf00684060000004e000bb
:100ae80008003a0018c2bf00624060000004e0003d
:100af80004003a0018c2bf00644060000004e0002f
:100b080001003200030807000080fa000000060018
:100b18000000fa0090a380000000e80090a388007d
:100b280091a38000401f2000808f500005003600f0
:100b3800f80707000000eb00b0968800d412a9005f
:100b4800d5b2a800a0968000620060000000e00016
:100b58000400320002090700d432a9000000eb00ab
:100b680090a38800a0968000680060000000e00064
:100b780004003200a600070061000700a30907006f
:100b8800d472a900a0968000012020000100600016
:100b98000000e00004003200d800070069000700e8
:100ba8009a090700d532a900d0a38000610060002f
:100bb8000000e000040032000b010700720007008b
:100bc800920907007a14a900d0a380007000600081
:100bd8000000e00004003200440107007b00070029
:100be8008a0907007a94a900a09680007000600026
:100bf8000000e000040032007d010700d492a90043
:100c08000000eb0090a38800a0968000014020001f
:100c1800010060000000e00004003200c901070084
:100c2800d552a9000000eb0090a38800d0a3800053
:100c3800620060000000e0000400320017020700b4
:100c48007a34a9000000eb0090a38800d0a38000ac
:100c580001022000010060000000e00004003200f2
:100c6800650207007ab4a9000000eb0090a3880091
:100c7800a096800001022000010060000000e00052
:100c880004003200b3020700d4b2a9000000eb0050
:100c980090a38800a09680000180200001006000d9
:100ca8000000e0000400320037030700d572a900f5
:100cb8000000eb0090a38800a096800001002200ad
:100cc800010060000000e000040032003505070064
:100cd800d5b2a9000000eb0090a38800a096800080
:100ce80001042000010060000000e0000200320062
:100cf80047070700d4d2a9000080fa0000000600c8
:100d08000000fa00a00a2000209f880000022000ae
:100d1800309f880030082000409f88000000eb00ca
:100d2800609f8800b00b200060a388000000eb00e3
:100d3800109f8800e00f2000d01088000080fa0083
:100d4800000006000000fa00a00a2000209f88008a
:100d580000022000309f880030072000409f880054
:100d68000000eb00609f8800b00b200060a38800a3
:100d78000000eb00109f8800e00f2000d0108800d2
:100d88000080fa00000006000000fa00a00a200017
:100d9800209f880000022000309f88003006200035
:100da800409f88000000eb00609f8800b00b200087
:100db80060a388000000eb00109f8800e00f20006f
:100dc800d01088000080fa00000006000000fa0039
:100dd800a00a2000209f880000022000309f880081
:100de80030052000409f88000000eb00609f8800cd
:100df800b00b200060a388000000eb00109f880063
:100e0800e00f2000d01088000080fa0000000600e3
:100e18000600fa000000eb0020079800900280000e
:100e280010079800ff3ffc00210420009140780043
:100e380000ceb30000c0700042e0b7001e00900072
:100e4800900288008d60a9000000eb002007980040
:100e58001a0037002e009000000040008000780043
:100e680000c02f0000804000f0798800f0798000f1
:100e780080007800f0072000120020005d2807009d
:100e8800f079800000017800f00720000002780067
:100e98002e0090000000400080007800603621009d
:100ea80000804000130020008400780075280700a7
:100eb8002e0090000000e800200798002e00900007
:100ec800ed0f5000e3ff360090028000000f78001d
:100ed800ff3ffc0042c0bf007f40600001c6b30076
:100ee8000140700042e0b7001e00780090028800c0
:100ef8008d60a8000080fa00000006000600fa00d5
:100f08000000eb002007980090028000100798006e
:100f1800ff3ffc00210420009140780000ceb30080
:100f280000c0700042e0b7001e00900090028800e8
:100f38008d60a9000000eb00200798001a00370018
:100f48002e009000000040008000780000c02f00b4
:100f580000804000f0798800f079800080007800f7
:100f6800f00720001200200022280700f0798000f6
:100f780000017800f0072000000278002e009000a1
:100f880000004000800078006036210000804000aa
:100f980013002000840078003a2807002e009000f3
:100fa8000000e800200798002e009000fd0f500078
:100fb800e3ff360090028000000f7800ff3ffc003e
:100fc80042c0bf007f40600001c6b300014070000e
:100fd80042e0b7001e007800900288008d60a800eb
:100fe8000080fa00000006000800fa000000eb008c
:100ff800300798000000eb0020079800900280005e
:1010080010079800ff3ffc00210420009140780061
:1010180000ceb30000c0700042e0b7001e00900090
:10102800900288008d60a900000220003007980017
:101038001d0037003e00900000004000800078004e
:1010480000c02f0000804000f0798800f07980000f
:1010580080007800f007200012002000e527070034
:10106800f079800000017800f00720000002780085
:101078002e009000000040008000780060362100bb
:10108800008040001300200084007800fd2707003e
:101098002e0090000000e800200798003e00900015
:1010a8000000e80030079800be009000d003200040
:1010b800808f5000dfff360090028000000f78001c
:1010c800ff3ffc0042c0bf007f40600001c6b30084
:1010d8000140700042e0b7001e00780090028800ce
:1010e8008d60a8000080fa00000006000800fa00e1
:1010f8000000eb00300798000000eb002007980084
:101108009002800010079800ff3ffc002104200097
:101118009140780000ceb30000c0700042e0b700f4
:101128001e009000900288008d60a900e003200056
:10113800300798001d0037003e0090000000400076
:101148008000780000c02f0000804000f0798800ff
:10115800f079800080007800f0072000120020005d
:10116800a4270700f079800000017800f00720002c
:10117800000278002e0090000000400080007800f7
:1011880060362100008040001300200084007800b1
:10119800bc2707002e0090000000e80020079800f8
:1011a8003e0090000000e80030079800be00900064
:1011b800b0052000808f5000dfff360090028000cd
:1011c800000f7800ff3ffc0042c0bf007f40600076
:1011d80001c6b3000140700042e0b7001e0078006d
:1011e800900288008d60a8000080fa0000000600c8
:1011f8000400fa000000eb00100798000000eb0064
:10120800000f7800a00a2000209f8800000120001d
:10121800309f880020082000409f8800c0012000df
:10122800609f88000000eb0010079800140037004a
:101238001e009000000040008000780000c02f00d1
:1012480000804000f07988001e00900000004000f7
:1012580080007800a0f420000080400000017800a1
:10126800f079800080007800f0072000130020004b
:10127800532707001e0090000000e80010079800a0
:101288001e009000ef0f5000e9ff36000000eb0051
:1012980010079800200037001e0190001e007800fb
:1012a80080004000a0f4200000804000100078007a
:1012b800c801de0002004100e111200080804000ea
:1012c800602d210000804000030878001e00900077
:1012d8000000e800100798001e0190001e0078002a
:1012e80080004000a0f420000080400090017800b9
:1012f80002004100e111200080804000602d2100a3
:1013080000804000030878001e0090000000e800fc
:10131800100798001e0fe8001e009000ff0f5000f5
:10132800ddff3600b00b200060a388000000eb0052
:10133800109f8800e00f2000d01088000080fa007d
:10134800000006000400fa000000eb0010079800f7
:101358000000eb00000f7800a00a2000209f880002
:1013680000012000309f880020072000409f88004f
:10137800c0032000609f88000000eb001007980061
:10138800140037001e009000000040008000780024
:1013980000c02f0000804000f07988001e009000f7
:1013a8000000400080007800a0f420000080400089
:1013b80000017800f079800080007800f0072000b4
:1013c80013002000fe2607001e0090000000e80021
:1013d800100798001e009000ff0f5000e9ff36002c
:1013e8000000eb0010079800200037001e01900055
:1013f8001e00780080004000a0f42000008040001b
:1014080010007800c801de0002004100e111200050
:1014180080804000602d2100008040000308780093
:101428001e0090000000e800100798001e019000c0
:101438001e00780080004000a0f4200000804000da
:101448009001780002004100e111200080804000f6
:10145800602d210000804000030878001e009000e5
:101468000000e800100798001e0fe8009e0090009a
:10147800f0032000808f5000dcff3600b00b200006
:1014880060a388000000eb00109f8800e00f200098
:10149800d01088000080fa00000006000400fa005e
:1014a8000000eb001007980000022000000f7800f1
:1014b800a00a2000209f880000012000309f88009b
:1014c80020062000409f8800c0032000609f8800fd
:1014d8000002200010079800140037001e0090003a
:1014e800000040008000780000c02f00008040000d
:1014f800f07988001e00900000004000800078000d
:10150800a0f420000080400000017800f0798000fd
:1015180080007800f007200013002000a8260700ac
:101528001e0090000000e800100798009e00900040
:10153800d0032000808f5000e8ff36000000eb0049
:1015480010079800200037001e0190001e00780048
:1015580080004000a0f420000080400010007800c7
:10156800c801de0002004100e11120008080400037
:10157800602d210000804000030878001e009000c4
:101588000000e800100798001e0190001e00780077
:1015980080004000a0f42000008040009001780006
:1015a80002004100e111200080804000602d2100f0
:1015b80000804000030878001e0090000000e8004a
:1015c800100798001e0fe8009e009000b00320004e
:1015d800808f5000dcff3600b00b200060a388002d
:1015e8000000eb00109f8800e00f2000d01088005a
:1015f8000080fa00000006000400fa000000eb007a
:101608001007980000022000000f7800a00a2000b0
:10161800209f880000012000309f880020052000be
:10162800409f8800c0032000609f8800e0032000de
:1016380010079800140037001e00900000004000ba
:101648008000780000c02f0000804000f0798800fa
:101658001e0090000000400080007800a0f42000e8
:101668000080400000017800f07980008000780058
:10167800f007200013002000512607001e009000ec
:101688000000e800100798009e009000b0052000b8
:10169800808f5000e8ff36000000eb00100798002c
:1016a800200037001e0190001e00780080004000d6
:1016b800a0f420000080400010007800c801de007f
:1016c80002004100e111200080804000602d2100cf
:1016d80000804000030878001e0090000000e80029
:1016e800100798001e0190001e007800800040003e
:1016f800a0f4200000804000900178000200410022
:10170800e111200080804000602d21000080400011
:10171800030878001e0090000000e80010079800f9
:101728001e0fe8009e009000b0032000808f50003c
:10173800dcff3600b00b200060a388000000eb003f
:10174800109f8800e00f2000d01088000080fa0069
:10175800000006000000fa00a00a2000209f880070
:1017680000012000309f880010082000409f88005a
:1017780060012000609f880000b38000e30f5000e4
:101788000300320000b38000e40f500010003a005c
:10179800e04080004800de00a09f8800e040800014
:1017a800b09f8800f04080004800de00c09f88009d
:1017b800f0408000d09f8800508c80004800de00f8
:1017c800e09f8800508c8000f09f88000c00370054
:1017d8000000eb00a09f88000000eb00b09f88008d
:1017e8000000eb00c09f88000000eb00d09f88003d
:1017f8000000eb00e09f88000000eb00f09f8800ed
:10180800707e80004800de0000a08800707e8000a6
:1018180010a08800807e80004800de0020a088009c
:10182800807e800030a08800907e80004800de0026
:1018380040a08800907e800050a08800d07f800063
:101848004800de0060a08800d07f800070a088007b
:1018580000b380004800de0080a0880000b380004c
:1018680090a0880090a080000000e00009003a00e5
:101878000000eb0090a08800017a8000a0aa2a004e
:10188800808f500029003a004000200090a0880076
:101898002600370090a08000e10f500009003a00b0
:1018a8001000200090a08800017a8000a0aa2a00d9
:1018b800808f50001d003a004000200090a0880052
:1018c8001a00370090a08000e20f500003003a0091
:1018d8002000200090a088001400370090a080000d
:1018e800e30f500003003a002000200090a0880079
:1018f8000e00370090a08000e40f500003003a006b
:101908003000200090a088000800370090a08000d8
:10191800e50f500003003a005000200090a0880016
:10192800020037000000eb0090a08800e07e8000f5
:101938004800de00a0a08800e07e8000b0a08800fb
:10194800107a80004800de00c0a08800107a80006d
:10195800d0a08800d07f80004800de00e0a088008a
:10196800d07f8000f0a08800b00b200060a3880022
:101978000000eb00109f8800e00f2000d0108800c6
:101988000080fa00000006000000fa00a00a20000b
:10199800209f880000012000309f88001007200049
:1019a800409f8800a0022000609f880000b380004c
:1019b800e30f50000300320000b38000e40f500032
:1019c80010003a00e04080004800de00a09f880038
:1019d800e0408000b09f8800f04080004800de00b2
:1019e800c09f8800f0408000d09f880000418000a0
:1019f8004800de00e09f880000418000f09f8800da
:101a08000c0037000000eb00a09f88000000eb00ee
:101a1800b09f88000000eb00c09f88000000eb002a
:101a2800d09f88000000eb00e09f88000000eb00da
:101a3800f09f8800707e80004800de0000a08800cb
:101a4800707e800010a08800412d20009140780011
:101a580000c8b30000c060000004e00004003a00c1
:101a6800b0a380000000a000b0a3880004003700e5
:101a7800b0a38000e1ff2f0001006000b0a3880040
:101a8800e0c2bf00614060000004e00004003a00ca
:101a9800b0a380000010a000b0a3880004003700a5
:101aa800b0a38000d1ff2f0001006000b0a3880020
:101ab800e0c2bf00624060000004e00004003a0099
:101ac800b0a380000020a000b0a388000400370065
:101ad800b0a38000b1ff2f0001006000b0a3880010
:101ae800e6c2bf00624060000004e00004003a0063
:101af800b0a380000030a000b0a388000400370025
:101b0800b0a3800071ff2f0001006000b0a388001f
:101b1800e6c2bf00614060000004e00004003a0033
:101b2800b0a380000040a000b0a3880004003700e4
:101b3800b0a38000f1fe2f0001006000b0a3880070
:101b4800cfc2bf000042b2000004e00005003a0026
:101b5800b0a380000102200001007000b0a388003b
:101b680004003700b0a38000f1fd2f0001006000e1
:101b7800b0a38800cfc2bf000044b2000004e00058
:101b880005003a00b0a380000104200001007000a5
:101b9800b0a3880004003700b0a38000f1fb2f0039
:101ba80001006000b0a38800c8c2bf0064406000a4
:101bb8000004e00005003a00b0a3800001082000fe
:101bc80001007000b0a3880004003700b0a38000b3
:101bd800f1f72f0001006000b0a38800c8c2bf0061
:101be800684060000004e00005003a00b0a38000ef
:101bf8000110200001007000b0a388000400370025
:101c0800b0a38000f1ef2f0001006000b0a38800ae
:101c1800c8c2bf00704060000004e00005003a0040
:101c2800b0a380000120200001007000b0a388004c
:101c380004003700b0a38000f1df2f00010060002e
:101c4800b0a38800207a8000011020000100600005
:101c58000000e00005003200b0a380000100280069
:101c680001007000b0a3880004003700b0a3800012
:101c7800f1ff270001006000b0a38800e9c2bf009f
:101c88000044b2000004e00004003200c0a3800059
:101c98000000a000c0a3880004003700c0a3800093
:101ca800e1ff2f0001006000c0a38800e9c2bf0067
:101cb800704060000004e00004003200c0a380000f
:101cc8000010a000c0a3880004003700c0a3800053
:101cd800d1ff2f0001006000c0a38800e9c2bf0047
:101ce8000042b2000004e00004003200c0a38000fb
:101cf8000020a000c0a3880004003700c0a3800013
:101d0800b1ff2f0001006000c0a38800e9c2bf0036
:101d180001c8b300014060000004e0000400320084
:101d2800c0a380000030a000c0a3880004003700d2
:101d3800c0a3800071ff2f0001006000c0a38800cd
:101d4800d0c2bf00624060000004e000040032001e
:101d5800c0a380000040a000c0a388000400370092
:101d6800c0a38000f1fe2f0001006000c0a388001e
:101d7800d0c2bf00644060000004e00005003200eb
:101d8800c0a380000102200001007000c0a38800e9
:101d980004003700c0a38000f1fd2f00010060009f
:101da800c0a38800e8c2bf0001c8b30001406000ba
:101db8000004e00005003200c0a3800001042000f8
:101dc80001007000c0a3880004003700c0a3800091
:101dd800f1fb2f0001006000c0a38800e9c2bf002a
:101de800614060000004e00005003200c0a38000ec
:101df8000108200001007000c0a38800040037001b
:101e0800c0a38000f1f72f0001006000c0a3880084
:101e1800e9c2bf00624060000004e0000500320033
:101e2800c0a380000110200001007000c0a388003a
:101e380004003700c0a38000f1ef2f00010060000c
:101e4800c0a38800e8c2bf000044b2000004e0005c
:101e580005003200c0a380000120200001007000ae
:101e6800c0a3880004003700c0a38000f1df2f0062
:101e780001006000c0a38800b0a380004800de0015
:101e880020a08800b0a3800030a08800c0a38000f4
:101e98004800de0040a08800c0a3800050a0880051
:101ea800908680004800de0060a088009086800050
:101eb80070a0880000b380004800de0080a0880081
:101ec80000b3800090a0880090a080000000e0008f
:101ed80009003a000000eb0090a08800017a800019
:101ee800a0aa2a00808f500029003a004000200054
:101ef80090a088002600370090a08000e10f5000d5
:101f080009003a001000200090a08800017a8000a3
:101f1800a0aa2a00808f50001d003a00400020002f
:101f280090a088001a00370090a08000e20f5000af
:101f380003003a002000200090a088001400370019
:101f480090a08000e30f500003003a00200020001a
:101f580090a088000e00370090a08000e40f500089
:101f680003003a003000200090a0880008003700e5
:101f780090a08000e50f500003003a0050002000b8
:101f880090a08800020037000000eb0090a08800b5
:101f9800e07e80004800de00a0a08800e07e80008f
:101fa800b0a08800107a80004800de00c0a0880039
:101fb800107a8000d0a08800d07f80004800de0022
:101fc800e0a08800d07f8000f0a08800307f8000eb
:101fd8004800de0000a18800307f800010a1880042
:101fe8007000200020a18800c07d200030a188005a
:101ff80070af80004800de0040a1880070af80000c
:1020080050a1880060af8000e10f500004003a0042
:10201800a0a380000000a000a0a38800040037004f
:10202800a0a38000e1ff2f0001006000a0a38800aa
:1020380070ac8000640060000000e0000400320022
:10204800a0a380000010a000a0a38800040037000f
:10205800a0a38000d1ff2f0001006000a0a388008a
:10206800f0b08000e10f500004003a00a0a3800007
:102078000020a000a0a3880004003700a0a38000cf
:10208800b1ff2f0001006000a0a38800e17e80005e
:1020980070868000808f500004003900207a80000c
:1020a800700060000000e00004003a00a0a3800077
:1020b8000030a000a0a3880004003700a0a380007f
:1020c80071ff2f0001006000a0a38800a0a380007a
:1020d8004800de0060a18800a0a3800070a18800ed
:1020e800217a800000002200008060000000e000eb
:1020f80006003a00e0b580004800de0080a18800b4
:10210800e0b5800090a1880005003700d07e8000ef
:102118004800de0080a18800d07e800090a1880061
:10212800e08080004800de00a0a18800e0808000f8
:10213800b0a18800a0b480004800de00c0a18800db
:10214800a0b48000d0a18800908b80004880de0079
:10215800e0a18800908b8000f0a18800807e80003c
:102168004800de0000a28800807e800010a288005f
:10217800907e80004800de0020a28800907e8000cb
:1021880030a28800b00b200060a388000000eb009c
:10219800109f8800e00f2000d01088000080fa000f
:1021a800000006000000fa00a00a2000209f880016
:1021b80000012000309f880050072000409f8800c1
:1021c800c0032000609f880000b38000e30f500028
:1021d8000300320000b38000e40f500010003a0002
:1021e800e04080004800de00a09f8800e0408000ba
:1021f800b09f8800f04080004800de00c09f880043
:10220800f0408000d09f8800004180004800de0038
:10221800e09f880000418000f09f88000c00370094
:102228000000eb00a09f88000000eb00b09f880032
:102238000000eb00c09f88000000eb00d09f8800e2
:102248000000eb00e09f88000000eb00f09f880092
:10225800707e80004800de0000a08800707e80004c
:1022680010a08800412d20009140780000c8b300dc
:1022780000c060000004e00004003a00b0a3800041
:102288000000a000b0a3880004003700b0a38000bd
:10229800e1ff2f0001006000b0a38800e0c2bf008a
:1022a800614060000004e00004003a00b0a3800030
:1022b8000010a000b0a3880004003700b0a380007d
:1022c800d1ff2f0001006000b0a38800e0c2bf006a
:1022d800624060000004e00004003a00b0a38000ff
:1022e8000020a000b0a3880004003700b0a380003d
:1022f800b1ff2f0001006000b0a38800e6c2bf0054
:10230800624060000004e00004003a00b0a38000ce
:102318000030a000b0a3880004003700b0a38000fc
:1023280071ff2f0001006000b0a38800e6c2bf0063
:10233800614060000004e00004003a00b0a380009f
:102348000040a000b0a3880004003700b0a38000bc
:10235800f1fe2f0001006000b0a38800cfc2bf00cb
:102368000042b2000004e00005003a00b0a380007b
:102378000102200001007000b0a3880004003700ab
:10238800b0a38000f1fd2f0001006000b0a3880019
:10239800cfc2bf000044b2000004e00005003a00cc
:1023a800b0a380000104200001007000b0a38800e1
:1023b80004003700b0a38000f1fb2f00010060008b
:1023c800b0a38800c8c2bf00644060000004e000f9
:1023d80005003a00b0a38000010820000100700049
:1023e800b0a3880004003700b0a38000f1f72f00e5
:1023f80001006000b0a38800c8c2bf006840600048
:102408000004e00005003a00b0a38000011020009d
:1024180001007000b0a3880004003700b0a380005a
:10242800f1ef2f0001006000b0a38800c8c2bf0010
:10243800704060000004e00005003a00b0a380008e
:102448000120200001007000b0a3880004003700bc
:10245800b0a38000f1df2f0001006000b0a3880066
:10246800207a800001102000010060000000e000d8
:1024780005003200b0a380000100280001007000b0
:10248800b0a3880004003700b0a38000f1ff270044
:1024980001006000b0a38800e9c2bf000044b20098
:1024a8000004e00004003200c0a380000000a00087
:1024b800c0a3880004003700c0a38000e1ff2f00fc
:1024c80001006000c0a38800e9c2bf00704060003e
:1024d8000004e00004003200c0a380000010a00047
:1024e800c0a3880004003700c0a38000d1ff2f00dc
:1024f80001006000c0a38800e9c2bf000042b2002a
:102508000004e00004003200c0a380000020a00006
:10251800c0a3880004003700c0a38000b1ff2f00cb
:1025280001006000c0a38800e9c2bf0001c8b30071
:10253800014060000004e00004003200c0a38000f5
:102548000030a000c0a3880004003700c0a38000aa
:1025580071ff2f0001006000c0a38800d0c2bf0037
:10256800624060000004e00004003200c0a3800064
:102578000040a000c0a3880004003700c0a380006a
:10258800f1fe2f0001006000c0a38800d0c2bf0088
:10259800644060000004e00005003200c0a3800031
:1025a8000102200001007000c0a388000400370069
:1025b800c0a38000f1fd2f0001006000c0a38800c7
:1025c800e8c2bf0001c8b300014060000004e00099
:1025d80005003200c0a38000010420000100700043
:1025e800c0a3880004003700c0a38000f1fb2f00bf
:1025f80001006000c0a38800e9c2bf00614060001c
:102608000004e00005003200c0a38000010820009b
:1026180001007000c0a3880004003700c0a3800038
:10262800f1f72f0001006000c0a38800e9c2bf00d5
:10263800624060000004e00005003200c0a3800092
:102648000110200001007000c0a3880004003700ba
:10265800c0a38000f1ef2f0001006000c0a3880034
:10266800e8c2bf000044b2000004e00005003200e8
:10267800c0a380000120200001007000c0a38800d2
:1026880004003700c0a38000f1df2f0001006000c4
:10269800c0a38800b0a380004800de0020a0880006
:1026a800b0a3800030a08800c0a380004800de00ee
:1026b80040a08800c0a3800050a0880090868000b9
:1026c8004800de0060a088009086800070a0880026
:1026d80000b380004800de0080a0880000b38000be
:1026e80090a0880090a080000000e00009003a0057
:1026f8000000eb0090a08800017a8000a0aa2a00c0
:10270800808f500029003a004000200090a08800e7
:102718002600370090a08000e10f500009003a0021
:102728001000200090a08800017a8000a0aa2a004a
:10273800808f50001d003a004000200090a08800c3
:102748001a00370090a08000e20f500003003a0002
:102758002000200090a088001400370090a080007e
:10276800e30f500003003a002000200090a08800ea
:102778000e00370090a08000e40f500003003a00dc
:102788003000200090a088000800370090a080004a
:10279800e50f500003003a005000200090a0880088
:1027a800020037000000eb0090a08800e07e800067
:1027b8004800de00a0a08800e07e8000b0a088006d
:1027c800107a80004800de00c0a08800107a8000df
:1027d800d0a08800d07f80004800de00e0a08800fc
:1027e800d07f8000f0a08800307f80004800de00a5
:1027f80000a18800307f800010a1880070002000b0
:1028080020a18800c07d200030a1880070af800022
:102818004800de0040a1880070af800050a1880009
:1028280060af8000e10f500004003a00a0a38000d0
:102838000000a000a0a3880004003700a0a3800027
:10284800e1ff2f0001006000a0a3880070ac8000a9
:10285800640060000000e00004003200a0a38000d3
:102868000010a000a0a3880004003700a0a38000e7
:10287800d1ff2f0001006000a0a38800f0b0800005
:10288800e10f500004003a00a0a380000020a0003f
:10289800a0a3880004003700a0a38000b1ff2f0088
:1028a80001006000a0a38800e17e8000708680009f
:1028b800808f500004003900207a8000700060008a
:1028c8000000e00004003a00a0a380000030a0004f
:1028d800a0a3880004003700a0a3800071ff2f0088
:1028e80001006000a0a38800a0a380004800de00cb
:1028f80060a18800a0a3800070a18800217a8000d0
:1029080000002200008060000000e00006003a009d
:10291800e0b580004800de0080a18800e0b58000b6
:1029280090a1880005003700d07e80004800de00b6
:1029380080a18800d07e800090a18800e08080007f
:102948004800de00a0a18800e0808000b0a18800d7
:10295800a0b480004800de00c0a18800a0b48000b8
:10296800d0a18800808b80004880de00e0a188002c
:10297800808b8000f0a18800807e80004800de0007
:1029880000a28800807e800010a28800907e8000cf
:102998004800de0020a28800907e800030a28800d7
:1029a800608b80004880de0040a28800608b800039
:1029b80050a28800f08b80004800de0060a28800ea
:1029c800f08b800070a28800e08b80004800de0059
:1029d80080a28800e08b800090a28800208c800074
:1029e8004800de00a0a28800208c8000b0a28800e9
:1029f800b00b200060a388000000eb00109f880047
:102a0800e00f2000d01088000080fa0000000600c7
:102a18000200fa00a00a2000209f88000001200080
:102a2800309f880040082000409f88004000200018
:102a3800609f8800e0012000000f78001e007800e9
:102a4800000040008000780000c02f000080400097
:102a5800f07988001e0078000000400080007800af
:102a6800a0f420000080400000017800f079800088
:102a780080007800f0072000130020005021070094
:102a8800f0012000000f78001e00780000004000d0
:102a98008000780000c02f0000804000f079880096
:102aa8001e0078000000400080007800a0f420009c
:102ab8000080400000017800f079800080007800f4
:102ac800f0072000130020003d210700307c800023
:102ad8004800de00a09f8800307c8000b09f8800fe
:102ae800407c80004800de00c09f8800407c800059
:102af800d09f8800b00b200060a388000000eb0086
:102b0800109f8800e00f2000d01088000080fa0095
:102b1800000006000000fa0030032000f0108800d2
:102b28000000eb00b010880017e2a80017a2a80068
:102b380016a2a900612120009140780090cfb3002f
:102b480000c0600016e2b7001602a9000000eb0002
:102b5800c01088001942a80019e2a90018c2bf00d5
:102b6800f043b20018e2b7008720a9008700a90047
:102b7800010a200091407800f0c8b30000c060004e
:102b880001c4b30001407000a0e0b700010a2000b2
:102b98009140780080cfb30000c060000024a000fe
:102ba800a0e0b7008f20a8008f00a8000080fa00de
:102bb80000000600809fbe00821f78003400f800e5
:102bc80000002000a00188000000fa0018c2bf0021
:102bd800624060000004e000010032001822a900f1
:102be800d412a8000000eb00f09e8800a096800098
:102bf800620060000000e00086003a0018c2bf00d2
:102c0800644060000004e00084003a00b096800050
:102c18000000e0000b003a00e0108000c096880039
:102c2800c1968000a00a2000808f50007b003a00e7
:102c380010002000b09688000000eb001097880074
:102c480076003700b0968000e10f500005003a008a
:102c580020002000b0968800e0108000d096880000
:102c68006e003700b0968000e20f500005003a0071
:102c780030002000b0968800e0108000e0968800c0
:102c880066003700b0968000e30f500022003a003b
:102c980040002000b0968800e0108000009788006f
:102ca80000978000f096880000978000fc0f500085
:102cb80003003a0070032000b096880057003700e0
:102cc80001978000c0032000808f500003003a0065
:102cd80080032000b09688005000370000978000dd
:102ce800e10f500003003a0040002000b096880031
:102cf8004a003700009780000000e00003003a0017
:102d080040002000b0968800440037000000eb0027
:102d1800b096880041003700b0968000e40f50005c
:102d28000b003a00e0108000009b8800019b8000a7
:102d3800b00b2000808f500002003a00d432a80067
:102d4800d412a9000000eb00b096880033003700c9
:102d5800b196800070032000808f500013003a0065
:102d6800009780000000e900009788001097800015
:102d7800e210800000004000f2004000602d2100b9
:102d88000080400002087800109780000000e800ea
:102d980010978800009780000000e0001f003a00ac
:102da80040002000b09688001c003700b1968000d3
:102db80080032000808f500013003a0000978000a5
:102dc8000000e9000097880010978000e21080005a
:102dd80000004000f2004000602d2100008040000b
:102de80002087800109780000000e800109788001b
:102df800009780000000e00008003a004000200032
:102e0800b0968800050037000000eb00b0968800f7
:102e180002003700e0108000c09688008700a900f3
:102e28000080fa003400f9004f0178004f00be001e
:102e380000400600809fbe003400f800000020001b
:102e4800a00188000000fa00109f80000000e00048
:102e580005003a00209f8000d01088001000200054
:102e6800109f880039003700109f8000e10f500044
:102e780005003a0020002000109f8800309f800045
:102e8800d010880031003700109f8000e20f5000fa
:102e980005003a0030002000109f8800409f800005
:102ea800d010880029003700109f8000e30f5000e1
:102eb80007003a0040002000109f8800609f8000b3
:102ec800d01088000000eb00709f88001f003700ba
:102ed800109f8000e40f50001a003a00609f8000a5
:102ee8000000e00006003a0020042000109f88003f
:102ef800b00b2000d0108800d452a800130037006f
:102f080040002000109f8800709f80000000400053
:102f1800e111200080804000602d210000804000e9
:102f280010007800d0108800709f80000000e80032
:102f3800709f8800609f80000000e900609f880003
:102f48000200370020042000109f88008720a90075
:102f58000080fa003400f9004f00be00004006006f
:102f68000000fa008700a9008f00a9000000eb000c
:102f7800209788000000eb00309788000000eb00e5
:102f88003097880027003700f09680000000e9009d
:102f9800f0968800f09680000000e900f09688001e
:102fa800219780000180400072014000602d2100bf
:102fb8000000410010007800109b88000100e80024
:102fc800209788002197800001804000720140000e
:102fd800602d21000000410010007800209b88002f
:102fe8000100e80020978800109b80004800dd0061
:102ff800109b880032978000119b8000209b8000e6
:1030080080814000020041000109200080804000ca
:10301800602d210000804000030878000200e800cd
:1030280030978800f0968000e10f5000d6ff3e00f0
:10303800d0968000f00f500057003a00e1968000cb
:1030480010082000808f500002003a00d4b2a80077
:103058006b003700e196800010072000808f500039
:1030680002003a00d572a80065003700e19680009a
:1030780050072000808f500002003a00d5b2a80007
:103088005f003700e196800020082000808f500004
:1030980002003a00d492a80059003700e196800057
:1030a80020072000808f500002003a00d552a80067
:1030b80053003700e196800020062000808f5000e2
:1030c80002003a007a34a8004d003700e1968000eb
:1030d80020052000808f500002003a007ab4a80032
:1030e80047003700e196800040082000808f50009c
:1030f80002003a00d4d2a80041003700e1968000cf
:1031080050082000808f500006003a000097800089
:10311800e10f50003a003a00d4f2a800d512a900f5
:1031280037003700e196800060082000808f50004b
:1031380005003a0000978000e10f500030003a0087
:10314800d512a8002e003700e196800070082000f4
:10315800808f500005003a0000978000e10f500072
:1031680027003a008e15a80025003700e196800058
:1031780080082000808f500005003a0000978000ea
:10318800e10f50001e003a008e35a8001c003700e1
:10319800000000001a003700d196800000022000cd
:1031a800808f500015003a00e1968000300820001a
:1031b800808f500001003a00d472a800e196800088
:1031c80030072000808f500001003a00d532a80057
:1031d800e196800030062000808f500001003a0000
:1031e8007a14a800e196800030052000808f5000f6
:1031f80003003a007a94a80001003700000000009c
:103208008f00a8000080fa00000006004400fa00c1
:10321800889fbe000000eb00102798000000eb001c
:1032280010279800140037001e209000000040006e
:103238008000780000c02f0000804000f0798800ee
:103248001e2090000000400080007800a0f42000bc
:103258000080400000017800f0798000800078004c
:10326800f007200013002000551f07001e209000c3
:103278000000e800102798009e209000d00320004e
:10328800808f5000e8ff3600507d800070858800f0
:10329800708580000000e00002003a0050d0200055
:1032a8007085880070858000010020004a09dd00d3
:1032b800c600de00810071004a00dd0080858800bc
:1032c80091858800207c8000800078000000210023
:1032d80000806000002798008e20900000002100e8
:1032e800808f500002003a00458fa8000100370087
:1032f800458fa900517a800060042000808f50001b
:103308000300360050012000507a8800070037007b
:10331800507a8000e90f500003003e005001200061
:10332800507a88000100370000000000517a8000c0
:10333800400620000088b900507a8800217a800071
:1033480000002100008060000000e0000f003a004b
:10335800517a800000f42100010050000100200093
:10336800a07f8800b17f8800a07f8000b17f8000a7
:103378004a09dd00c600de00810071004a00dd0058
:10338800a07f8800b17f88000e003700517a800046
:10339800a0a021000100500001002000a07f8800ab
:1033a800b17f8800a07f8000b17f80004a09dd00de
:1033b800c600de00810071004a00dd00a07f8800a1
:1033c800b17f8800617a800080072000808f5000dc
:1033d8000200360080022000607a8800617a80004e
:1033e800400620000088b900c07f8800a27f8000c6
:1033f800b37f8000808580009185800000005100a7
:103408008180590002fa200003002000c8f4070058
:10341800f0808800a27f8000b37f800080858000d4
:10342800918580000000510081805900027d2000b4
:1034380003002000bef4070000818800817a800024
:10344800007d2000808f500003003600800c200093
:10345800807a88000100370000000000807a800030
:1034680000868800717a8000401f2000808f5000fd
:1034780003003600e0152000707a88000800370045
:10348800717a800030062000808f500003003e00d3
:10349800e0152000707a8800010037000000000065
:1034a800707a8000a2002000110009000280d80074
:1034b800707a8800008680006104b800707a800005
:1034c8006102b8008800780004007800000bb8009a
:1034d80005c0b900070178000001410009a0b90042
:1034e8000001410082037800a200200003002000b0
:1034f8000600be0088f30700f07f8800907a8000fd
:10350800e07f8800a07a800050898800b07a800027
:1035180052002000110009000280d800408988006c
:10352800c07a800010808800d17a8000c003200013
:10353800808f50000200360040012000d07a8800b9
:10354800d17a8000400620000088b90020808800d9
:10355800e07a800040868800f17a8000c01220005e
:10356800808f50000300360020032000f07a880086
:1035780007003700f07a8000e90f500003003e0092
:1035880020032000f07a88000100370000000000c6
:10359800f07a800060868800017b8000600420004b
:1035a800808f50000200360030022000007b880027
:1035b800007b800070868800117b800060042000fa
:1035c800808f50000300360080022000107b8800a6
:1035d80007003700107b8000fd0f500003003e00fd
:1035e80080022000107b88000100370000000000e6
:1035f800117b8000400620000088b90001002000ef
:103608003080880041808800217b80006004200091
:10361800808f500003003600c0032000207b880004
:1036280007003700207b8000fd0f500003003e009c
:10363800c0032000207b8800010037000000000044
:10364800217b8000400620000088b900010020008e
:1036580050808800618088005280800063808000ec
:103668003080800041808000800f5100818f590098
:103678000900360050808000618080003280800020
:1036880043808000020050008380580080808800ba
:103698009180880008003700508080006180800099
:1036a80032808000438080000200500083805800f0
:1036b80080808800918088008080800091808000d0
:1036c8004a09dd00c600de00810071004a00dd0005
:1036d80080808800918088008480800095808000a8
:1036e800208080006101b8000400be0010f40700cb
:1036f8007080880030808000418080004a09dd00a9
:10370800c600de00810071004a00dd0030808800bc
:103718004180880050808000618080004a09dd0077
:10372800c600de00810071004a00dd00508088007c
:1037380061808800307b8000e0818800407b8000c9
:10374800f0818800507b800000828800607b8000c8
:1037580010828800707b800020828800f0b0800092
:103768000000e00004003a00707b8000908688002a
:103778000000eb0080868800807b80003082880013
:10378800907b8000c0828800a07b8000d082880067
:10379800b07b800060828800c07b800070828800d7
:1037a800d07b800080828800e07b80009082880047
:1037b800f07b8000a0828800007c8000b0828800b6
:1037c800107c8000e0828800207c8000610060001e
:1037d800701f98007e189000e10f500002003a0018
:1037e800440fa80001003700440fa900207c800086
:1037f80062006000601f98006e189000e20f500091
:1038080002003a00442fa80001003700442fa90005
:10381800207c800064006000501f98005e189000b3
:10382800e40f500002003a00444fa800010037009e
:10383800444fa900207c800068006000401f980069
:103848004e189000e80f500002003a00446fa8009c
:1038580001003700446fa900207c800070006000e0
:10386800301f98003e189000f00f500002003a00f8
:10387800448fa80001003700448fa900207c8000f5
:10388800800078000002200000806000201f98005f
:10389800ae18900000022000808f500002003a000d
:1038a80044afa8000100370044afa900207c800085
:1038b800800078000004200000806000101f98003d
:1038c8009e18900000042000808f500002003a00eb
:1038d80044cfa8000100370044cfa900207c800015
:1038e800800078000008200000806000001f980019
:1038f8008e18900000082000808f500002003a00c7
:1039080044efa8000100370044efa900207c8000a4
:103918008000780000202000008060007017980068
:10392800fe10900000202000808f500002003a0016
:10393800452fa80001003700452fa900207a8000f4
:1039480001202000010060000000e0000a003a00a9
:10395800207c80008000780000102000008f60002c
:10396800001020009e0f100002003a00450fa8002a
:1039780001003700450fa900207c800080007800f6
:10398800004020000080600060179800ee10900052
:1039980000402000808f500002003a00454fa800e8
:1039a80001003700454fa900207c80008000780086
:1039b800008020000080600050179800de10900002
:1039c80000802000808f500002003a00456fa80058
:1039d80001003700456fa900207a8000010021000e
:1039e800010060000000e00005003a0040062000e9
:1039f800608c880020032000708c88000400370049
:103a080040052000608c8800a0022000708c88008f
:103a1800207c800080007800000022000080600088
:103a280040179800ce10900000002200808f5000b0
:103a380002003a0045afa8000100370045afa900d1
:103a4800207c800080007800000024000080600056
:103a580030179800be10900000002400808f50009e
:103a680002003a0045cfa8000100370045cfa90061
:103a7800207c800080007800000028000080600022
:103a880020179800ae10900000002800808f50008a
:103a980002003a0045efa8000100370045efa900f1
:103aa800307c8000507e8800407c8000607e8800ea
:103ab800507c80006103b80086007800000029006f
:103ac8000009b8006130b900030278000002420022
:103ad8000000290000b8b900000242008401780003
:103ae8000200be00f082880001838800607c8000ac
:103af8006103b80086007800000029000009b800ba
:103b08006130b90003027800000242000000290079
:103b180000b8b90000024200840178000200be002b
:103b28001083880021838800707c80006103b800be
:103b380086007800000029000009b8006130b9004b
:103b480003027800000242000000290000b8b90012
:103b580000024200840178000200be003083880021
:103b680041838800807c80006103b800860078006b
:103b7800000029000009b8006130b900030278008c
:103b8800000242000000290000b8b900000242000b
:103b9800840178000200be00508388006183880099
:103ba800907c80006103b80086007800000029003e
:103bb8000009b8006130b900030278000002420031
:103bc8000000290000b8b900000242008401780012
:103bd8000200be007083880081838800a07c80007a
:103be8000100200090838800a1838800b17c8000b8
:103bf800400620000088b900b0838800c07c80009f
:103c080050858800d07c800060858800e07c80003a
:103c180010858800f17c8000400620000088b900eb
:103c2800f0838800517c8000400620000088b9009d
:103c38008000780000f421000100500001002000fd
:103c4800008488001184880000848000118480002a
:103c58004a09dd00c600de00810071004a00dd006f
:103c680000848800118488001283800023838000e8
:103c7800f082800001838000800f5100818f5900fd
:103c88000f003900b08380000000e0000c00320013
:103c98001283800023838000f082800001838000eb
:103ca8000002510081825900b08380006101b80090
:103cb8000400be009ef2070020848800020037003e
:103cc8000000eb002084880032838000438380005a
:103cd8001083800021838000800f5100818f59005c
:103ce8000f003900c08380000000e0000c003200a3
:103cf800328380004383800010838000218380000a
:103d08000002510081825900c08380006101b8001f
:103d18000400be0086f207003084880002003700e5
:103d28000000eb00308488005283800063838000a9
:103d38003083800041838000800f5100818f5900bb
:103d48000f003900d08380000000e0000c00320032
:103d58005283800063838000308380004183800029
:103d68000002510081825900d08380006101b800af
:103d78000400be006ef2070040848800020037008d
:103d88000000eb00408488007283800083838000f9
:103d98005083800061838000800f5100818f59001b
:103da8000f003900e08380000000e0000c003200c2
:103db8007283800083838000508380006183800049
:103dc8000002510081825900e08380006101b8003f
:103dd8000400be0056f20700508488000200370035
:103de8000000eb0050848800007d8000b0848800cb
:103df800b08480000000e00002003a00a00020002b
:103e0800b0848800107d8000c0848800c084800051
:103e18000000e00002003a00c0122000c0848800c0
:103e2800207d800070898800708980000000e00093
:103e380002003a002003200070898800307d80004d
:103e4800d0848800d08480000000e00002003a009e
:103e5800401f2000d0848800407d8000e0848800d6
:103e6800e08480000000e00002003a00a00020008a
:103e7800e0848800607d8000610060001017980071
:103e88001e109000e10f500002003a0047efa80012
:103e98000100370047efa900607d800062006000e4
:103ea800001798000e109000e20f500002003a0030
:103eb800480fa80001003700480fa900607d800066
:103ec80064006000700f98007e089000e40f5000b6
:103ed80002003a00482fa80001003700482fa90027
:103ee800607d800068006000700f98007e08900078
:103ef800e80f500002003a00484fa80001003700c0
:103f0800484fa900707d800061006000700f980024
:103f18007e089000e10f500002003a00460fa8000a
:103f280001003700460fa900707d80006200600024
:103f3800600f98006e089000e20f500002003a00ef
:103f4800462fa80001003700462fa900707d800089
:103f580064006000500f98005e089000e40f500065
:103f680002003a00464fa80001003700464fa9005a
:103f7800707d800068006000400f98004e08900037
:103f8800e80f500002003a00466fa8000100370011
:103f9800466fa900707d800070006000300f9800a7
:103fa8003e089000f00f500002003a00468fa8002b
:103fb80001003700468fa900707d800080007800de
:103fc8000002200000806000200f9800ae089000da
:103fd80000022000808f500002003a0046cfa8005f
:103fe8000100370046cfa900707d8000800078006e
:103ff8000004200000806000100f98009e089000c8
:1040080000042000808f500002003a0046afa8004c
:104018000100370046afa900707d8000800078005d
:104028000008200000806000000f98008e089000b3
:1040380000082000808f500002003a0046efa800d8
:104048000100370046efa900707d800080007800ed
:10405800001020000080600070079800fe009000ab
:1040680000102000808f500002003a00470fa8007f
:1040780001003700470fa900707d8000800078009c
:10408800002020000080600060079800ee0090008b
:1040980000202000808f500002003a00472fa8001f
:1040a80001003700472fa900707d8000800078004c
:1040b800004020000080600050079800de0090005b
:1040c80000402000808f500002003a00474fa800af
:1040d80001003700474fa900707d800080007800fc
:1040e800008020000080600040079800ce0090000b
:1040f80000802000808f500002003a00476fa8001f
:1041080001003700476fa900707d800080007800ab
:10411800000021000080600030079800be00900079
:1041280000002100808f500002003a00478fa8004d
:1041380001003700478fa900707d8000800078005b
:10414800000022000080600020079800ae00900068
:1041580000002200808f500002003a0047afa800fc
:104168000100370047afa900707d8000800078000b
:104178000000240000806000100798009e00900056
:1041880000002400808f500002003a0047cfa800aa
:104198000100370047cfa900807d80006a00b90080
:1041a800f0848800f08480000000e00002003a00fb
:1041b80060092000f0848800907d800000858800d8
:1041c800008580000000e00002003a00a000200006
:1041d80000858800a07d80002085880020858000db
:1041e8000000e00002003a00400620002085880018
:1041f800b07d800030858800308580000000e000b8
:1042080002003a004006200030858800c07d80000a
:1042180040858800408580000000e00002003a00e8
:104228004006200040858800d07d8000a085880059
:10423800e07d8000b0858800f07d8000c085880022
:10424800007e8000d0858800107e8000e085880090
:10425800207e8000f0858800008680000100200014
:10426800a2002000030020002bf00700a081880096
:10427800008680000100200052002000030020007a
:1042880025f00700c0818800f07f80006103b80036
:1042980086007800d0052000000ab8006030b90018
:1042a8000501780000014100d005200000b8b900e0
:1042b800000141008202780042062000030020002d
:1042c8000400be0014f0070010868800f07f80000c
:1042d8006103b8008600780020062000000ab800b4
:1042e8006030b90005017800000141002006200077
:1042f80000b8b9000001410082027800420620009f
:10430800030020000400be0003f007002086880098
:10431800a07a8000a2002000110009000280d800c5
:104328003086880000868000a20020001100090065
:104338000280d800508688000186800000868000b0
:104348000100b800d0868800e1868800e1858000f9
:10435800000520000100b800f08688000187880069
:10436800f886800009878000d6868000e78680006e
:104378008800780006007800000ab80007c0b90075
:10438800050178000001410009b0b90000014100b1
:1043980082027800f486880005878800f18580000d
:1043a800000520000100b8001087880021878800d8
:1043b8001887800029878000d6868000e7868000dd
:1043c8008800780006007800000ab80007c0b90025
:1043d800050178000001410009b0b9000001410061
:1043e8008202780014878800258788004f04be0061
:1043f8000080fa00000006000000fa00d2e2a800df
:10440800de02a800de22a800e422a800e402a80038
:10441800d362a8000000eb00801688000000eb00c3
:10442800401788000000eb00b0168800e5c2a9001c
:10443800e582a900e5a2a900e5e2a900cc22a9002d
:10444800cc42a900e4c2a900e4e2a900e502a9005f
:10445800e522a900d262a900d242a900d222a9006d
:10446800e9c2a900e982a900d042a9000000eb0036
:1044780020ac88000000eb0030ac88000000eb00a6
:1044880040ac88000000eb0000b388000080fa0010
:10449800000006000000fa000000eb002008880079
:1044a8000000eb000008880005a1a9000421a9006c
:1044b8004110200091407800f0ccb30000c06000ab
:1044c80004e1b70005e1a80000f421001008880005
:1044d8005109200091407800f0c8b30000c0600086
:1044e80001c5b3000140700095e0b7008460a900e1
:1044f8008c60a80042c0bf007f40600001c6b300c6
:104508000140700042e0b7000080fa000000060099
:104518000000fa00d2c2a800d2a2a800d282a80045
:104528000000eb00000688000000eb001006880081
:10453800c1a0a800c1c0a800c1e0a8000000eb000d
:10454800200688000000eb0030068800c5a0a900fe
:10455800c5c0a900c5e0a900b109200091407800b4
:10456800f0c8b30000c0600001c5b300014070008e
:104578009be0b70085e0a9008de0a8000080fa0064
:10458800000006000600fa006000b8001007980056
:10459800210798000040eb00004f78000e0037001c
:1045a8001e80fb0000004000e4004000e01a2100eb
:1045b80000804000100078006101b8001e009000e3
:1045c800ae0090000000410081804900100798006b
:1045d800210798001e4fe80030c0b3009e4f10001e
:1045e800efff36001e009000ae0090004e09dd007f
:1045f8004200de0000007100c208de000080fa0000
:10460800000006000800fa00100798009e009000bd
:10461800b0bd2400808f5000040036009e0090003a
:10462800c03f2500808f50000900360040d6bf00eb
:104638000040e80040f6b70040d6bf00e24f500007
:10464800190036000000eb0030079800180037000a
:104658000040eb0040f6b700caff0700000f7800e3
:104668009e0090001e0078000080500020079800ef
:104678002e0090000000e00003003d002e00900096
:104688000000ea00200798002e0090009e007800a5
:10469800c208de00810f5000030036000000eb0066
:1046a80030079800020037001000200030079800fb
:1046b8003e0090000080fa00000006000000fa00aa
:1046c8001fe1a9000000eb00a0088800808d800091
:1046d800803eb000d00888001fe1a8000080fa00e2
:1046e800000006000000fa00907f8000640060006f
:1046f8000000e0001c0032000000eb00c008880049
:10470800217a800000002100008060000000e000a5
:1047180003003a0030682000e008880002003700f3
:10472800d0562000e008880086c0a9008ec0a800e6
:1047380021e1a80010002000d0b4880010c0b30008
:1047480098f6b7001000200060ac880087a0a90088
:10475800e11420009140780080cfb30000c06000d1
:104768004ee1b7008fa0a9000080fa000000060003
:104778000000fa000000eb00f0b488000000eb0035
:10478800700a88004ee1a900e114200091407800e9
:10479800f0c9b30000c060004ee1b700e11420008a
:1047a8009140780080cfb30000c060003040b30073
:1047b8004ee1b700210a20009140780000c7b300fd
:1047c80000c07000a2e0b70087a0a9008fa0a800d1
:1047d8000080fa00000006000000fa000000eb006c
:1047e800800888000000eb003008880011a1a900ab
:1047f80010c1a9001021a9000111200091407800e2
:10480800f0ccb30000c060000044a00010e1b70085
:104818001061a90011e1a9000080eb006008880080
:10482800710920009140780080cfb30000c060007b
:104838006040b30097e0b70084c0a9008cc0a9000d
:104848000000eb00900888000000eb00500888008a
:1048580013a1a90012c1a9001221a9002111200049
:1048680091407800f0ccb30000c060000044a00084
:1048780012e1b70013e1a8000080eb00700888007f
:104888007109200091407800f0c8b30000c06000b2
:1048980001c6b3000140700097e0b70084e0a900aa
:1048a8008ce0a9000000eb00f00888000000eb0095
:1048b800a008880000e22400d00888001fa1a800f2
:1048c8001ec1a9001e21a900e11120009140780015
:1048d800f0ccb30000c060000044a0001ee1b700a7
:1048e8001fe1a9001e61a900e1092000914078009c
:1048f800f0c8b30000c0600001c6b30001407000fa
:104908009ee0b70086a0a9008ea0a8000000eb00da
:10491800000988000000eb00c008880021a1a80059
:1049280020c1a9002021a90001122000914078008f
:10493800f0ccb30000c060000044a00020e1b70044
:1049480021e1a90010b68000e0088800f1092000e4
:104958009140780080cfb30000c060006040b30091
:104968009fe0b70086c0a9008ec0a9000080fa00a9
:10497800000006003600f800809fbe00829fbe003f
:10498800849fbe00869fbe003400f800000020000f
:10499800a00188000000fa00f22fa80087a0a90053
:1049a800e11420009140780080cfb30000c060007f
:1049b8003040b3004ee1b7000000eb0010b28800b1
:1049c800600a8000d0b28800d1b2800010b58000a3
:1049d800808f500005003900d0b2800011b58000ea
:1049e80001005000e0b2880005003700d1b2800015
:1049f80010b58000008050000000e900e0b2880097
:104a0800e1b28000c0bd2400808f50001400360041
:104a1800e1b28000b03f2500808f500010003e00ba
:104a2800bad1bf000080fb00e2b280000000400065
:104a3800e4004000e01a21000080400002087800ed
:104a4800bad1bf000080fb000000e800420020004f
:104a5800110009000200d8008000fd00baf1b7007b
:104a6800c8fe0700708d8800e0b28000e5fe0700f0
:104a7800bbf1b700bbd1bf000004e0000500320065
:104a8800708d8000808d88000cff070010c0b30077
:104a98004cf6b700d0b2800010b58800bbd1bf007b
:104aa8000004e000010032000eff07000080fa0059
:104ab8003400f9004f03be004f02be004f01be0094
:104ac8004f00be003600f90000400600809fbe007f
:104ad8003400f80000002000a00188000000fa005f
:104ae800d0b48000e10f500015003a00d5c2bf00d5
:104af800684060000004e00011003a00bbd1bf002c
:104b08000004e0000e0032000000eb00d0b4880082
:104b180021e1a90086c0a9008ec0a90087a0a9002c
:104b28008fa0a800e11420009140780080cfb30046
:104b380000c060003040b3004ee1b70020003700ed
:104b4800d0b48000e10f500011003a00d5c2bf0078
:104b5800684060000004e0000d003200bbd1bf00d7
:104b68000004e0000a00320020002000d0b48800d1
:104b780087a0a9008fa0a900e11420009140780027
:104b880080cfb30000c060004ee1b7000c003700d2
:104b9800d0b48000e10f500009003a00d5c2bf0030
:104ba800684060000004e00005003a00bbd1bf0087
:104bb8000004e00002003a0020002000d0b4880081
:104bc800d0b48000e20f50001d003a000000eb0056
:104bd800c0088800e0808000e00888004dd6bf004b
:104be800e14f500006003a000040eb004df6b700d8
:104bf800e108800080c12f0000804000e0088800a4
:104c080030b4800010b6880086c0a9008ec0a80005
:104c180021e1a800217a80000010200000806000b7
:104c28000000e00003003a0030002000d0b4880003
:104c38004c003700b0002000d0b48800490037008d
:104c4800d0b48000e30f50000c003a004000200070
:104c5800d0b488000000eb00c008880010b68000bf
:104c6800e008880086c0a9008ec0a80021e1a8003d
:104c7800d662a800d642a8003a003700d0b4800017
:104c8800e40f500013003a0050002000d0b4880010
:104c980030002000e0b488000000eb0030088800f5
:104ca800e1b5800010b680000080500060088800e0
:104cb80084c0a9008cc0a80011e1a800d662a90090
:104cc800d642a900d622a90086c0a9008ec0a90094
:104cd80024003700d0b48000eb0f50000c003a00dd
:104ce800c0002000d0b488000000eb00c008880095
:104cf80010b68000e008880086c0a9008ec0a80011
:104d080021e1a800d662a800d642a8001500370005
:104d1800d0b48000ec0f500012003a00d000200000
:104d2800d0b4880050012000e0b488000000eb00f7
:104d380030088800e1b5800010b68000008050007f
:104d48006008880084c0a9008cc0a80011e1a800f0
:104d5800d662a900d642a900d622a90086c0a90019
:104d68008ec0a9000080fa003400f9004f00be0090
:104d780000400600809fbe003400f80000002000bc
:104d8800a00188000000fa0084c0a900e0b48000f7
:104d9800e30f50000c003a0040002000e0b4880007
:104da8000000eb003008880010b68000600888001a
:104db80084c0a9008cc0a80011e1a800d662a80090
:104dc800d622a8008f003700e0b48000e40f50001e
:104dd8000f003a0050002000e0b488000000eb000b
:104de80030088800e1b5800010b6800000805000cf
:104df8006008880084c0a9008cc0a80011e1a80040
:104e0800d662a900d642a900d622a9007d003700a3
:104e1800e0b48000e50f50000c003a00600020006c
:104e2800e0b488000000eb003008880010b680006d
:104e38006008880084c0a9008cc0a80011e1a800ff
:104e4800d642a800d622a8006e003700e0b4800041
:104e5800e60f50000f003a0070002000e0b4880010
:104e68000000eb0030088800e1b5800010b6800033
:104e7800008050006008880084c0a9008cc0a80089
:104e880011e1a800d662a900d642a900d622a9003d
:104e98005c003700e0b48000e70f50000c003a00d7
:104ea80080002000e0b488000000eb003008880093
:104eb80010b680006008880084c0a9008cc0a800d3
:104ec80011e1a800d642a800d662a8004d0037001c
:104ed800e0b48000e80f50000f003a009000200076
:104ee800e0b488000000eb0030088800e1b58000dd
:104ef80010b68000008050006008880084c0a900b7
:104f08008cc0a80011e1a800d662a900d642a90069
:104f1800d622a9003b003700e0b48000e90f50001a
:104f28000c003a00a0002000e0b488000000eb006c
:104f38003008880010b680006008880084c0a90086
:104f48008cc0a80011e1a800d622a800d662a8004b
:104f58002c003700e0b48000ea0f50000f003a0040
:104f6800b0002000e0b488000000eb0030088800a2
:104f7800e1b5800010b6800000805000600888000d
:104f880084c0a9008cc0a80011e1a800d662a900bd
:104f9800d642a900d622a9001a003700e0b4800042
:104fa800eb0f50000c003a00c0002000e0b488006d
:104fb8000000eb003008880010b680006008880008
:104fc80084c0a9008cc0a80011e1a800d622a800be
:104fd800d642a8000b003700e0b48000ec0f500068
:104fe80008003a00d0002000e0b48800d662a9008a
:104ff800d642a900d622a90084c0a9008cc0a90065
:1050080011e1a900e0b48000f50f50000c003a004f
:1050180060012000e0b488000000eb003008880040
:1050280010b680006008880084c0a9008cc0a80061
:1050380011e1a800d642a800d622a8008f003700a8
:10504800e0b48000f60f50000f003a007001200015
:10505800e0b488000000eb0030088800e1b580006b
:1050680010b68000008050006008880084c0a90045
:105078008cc0a80011e1a800d662a900d642a900f8
:10508800d622a9007d003700e0b48000f70f500059
:105098000c003a0080012000e0b488000000eb001a
:1050a8003008880010b680006008880084c0a90015
:1050b8008cc0a80011e1a800d662a800d622a800da
:1050c8006e003700e0b48000f80f50000f003a007f
:1050d80090012000e0b488000000eb003008880050
:1050e800e1b5800010b6800000805000600888009c
:1050f80084c0a9008cc0a80011e1a800d662a9004c
:10510800d642a900d622a9005c003700e0b480008e
:10511800f90f50000c003a00a0012000e0b488000c
:105128000000eb003008880010b680006008880096
:1051380084c0a9008cc0a80011e1a800d642a8002c
:10514800d662a8004d003700e0b48000fa0f500086
:105158000f003a00b0012000e0b488000000eb0026
:1051680030088800e1b5800010b68000008050004b
:105178006008880084c0a9008cc0a80011e1a800bc
:10518800d662a900d642a900d622a9003b00370062
:10519800e0b48000fb0f50000c003a00c001200072
:1051a800e0b488000000eb003008880010b68000ea
:1051b8006008880084c0a9008cc0a80011e1a8007c
:1051c800d622a800d642a8002c003700e0b4800000
:1051d800fc0f50000f003a00d0012000e0b4880016
:1051e8000000eb0030088800e1b5800010b68000b0
:1051f800008050006008880084c0a9008cc0a80006
:1052080011e1a800d662a900d642a900d622a900b9
:105218001a003700e0b48000fd0f50000c003a007f
:10522800e0012000e0b488000000eb0030088800ae
:1052380010b680006008880084c0a9008cc0a8004f
:1052480011e1a800d622a800d662a8000b003700fa
:10525800e0b48000fe0f500008003a00f001200082
:10526800e0b48800d662a900d642a900d622a900d7
:1052780084c0a9008cc0a90011e1a9000080fa002f
:105288003400f9004f00be00004006003600f80068
:10529800809fbe00829fbe00849fbe00869fbe0086
:1052a8003400f80000002000a00188000000fa0087
:1052b800808d8000d00888000040eb00bbf1b7006b
:1052c800bbd1bf000004e00001003a0005fd070063
:1052d8004cd6bf000004e000080032000040eb009c
:1052e8004cf6b70010c0b3004df6b700818d8000b2
:1052f80080c12f0000804000d00888000000eb002b
:10530800a008880086a0a9008ea0a8001fe1a80018
:105318000080fa003400f9004f03be004f02be00bf
:105328004f01be004f00be003600f90000400600e5
:10533800809fbe00821f78003400f8000000200023
:10534800a00188000000fa0085e0a900d4c2bf00cf
:105358000080fb004600de00e140600020b28000d3
:105368006140600080cf50000d003200d4c2bf0001
:105378000080fb004600de00614060000080fb000a
:105388006101600021b28000e0ff2f000080600012
:105398000200700020b288000000eb0030b28800e4
:1053a800d4c2bf000080fb004500de00e140600081
:1053b80020b280000000d1006140600080cf500022
:1053c8000e003200d4c2bf000080fb004500de00a2
:1053d800614060000080fb00610060000001400047
:1053e80021b28000d0ff2f00008060000200700012
:1053f80020b288000000eb0040b28800d4c2bf0091
:105408000080fb004400de00e140600020b2800024
:105418004200de006140600080cf50000e00320084
:10542800d4c2bf000080fb004400de006140600081
:105438000080fb00610060004201dd0021b28000b5
:10544800b0ff2f00008060000200700020b28800ca
:105458000000eb0050b2880000b38000e30f50005a
:105468006800320000b38000e40f5000650032008d
:10547800707e8000fb0f50006200360020b2800072
:10548800610060000000e00006003a00f0b480000f
:105498000000e00003003a0010002000f0b488008b
:1054a8005800370020b28000610060000000e00072
:1054b80008003200f0b48000e10f500005003a0007
:1054c80020002000f0b4880050088000c0b2880096
:1054d8004c00370020b28000620060000000e0004d
:1054e80048003200f0b48000e20f500045003a0056
:1054f8000000eb00f0b4880050088000b0b28800cb
:10550800b1b28000c0b28000808f50000500360024
:10551800b0b28000c1b2800001005000a0b2880083
:1055280009003700c0b28000800078000080eb00de
:1055380001005000a0b28800a1b28000b0b2800083
:1055480000804000a0b28800a1b280007032220022
:10555800808f500016003e0070b280000000e80006
:1055680070b288000000eb0080b288000000eb00f9
:1055780090b2880070b28000e60f5000210036001b
:10558800f34fa90050002000f0b488000000eb00a1
:1055980070b28800217a800000202000008060001e
:1055a8000000e00017003200450fa9001500370081
:1055b80080b280000000e80080b288000000eb00a4
:1055c80070b288000000eb0090b2880080b28000c2
:1055d800e60f50000b003600f34fa80050002000e3
:1055e800f0b488000000eb0080b28800217a8000c7
:1055f80000202000008060000000e0000100320070
:10560800450fa8000080fa003400f9004f01780027
:105618004f00be00004006001200fa00c5d2bf00cd
:105628000004e00058013200c2d1bf008080fb00b6
:10563800a0828000808f50004f013a0042d2bf0004
:10564800e34f50004c01360042d2bf0000c0e900d1
:1056580080407800201c2100940307003007980040
:1056680042d2bf000080fb008080e900201c21009e
:1056780000804000104078000080fb004801dd00f9
:1056880042d2bf000080fb008000e900201c2100fe
:1056980000804000104078000080fb00000071008e
:1056a80020079800be0090002e009000808f5000c8
:1056b80031013a00c3d1bf000080fb007007980099
:1056c8007e009000e60f500060003200fe0090005f
:1056d800f08f5000c30032007e019000e30f5100ac
:1056e800010032002401370042d2bf00e84f5000c9
:1056f80021013a00c4d1bf000080fb00c800dd00d2
:10570800c5d1bf000080fb000080700060079800d2
:10571800c6d1bf000080fb00c800dd00c7d1bf00b4
:105728000080fb0000807000500798005e00900029
:105738000000e00010013200de009000d0032000dd
:10574800808f50000c013e00ee009000f007200012
:10575800808f500008013e00010820006e00900074
:10576800808050005e009000808f50000201390058
:10577800a082800043f2b70030c0b30044f2b70003
:105788005e0090000000400045f2b7000000eb000a
:1057980040079800240037004e00900000004000a9
:1057a800e3014000ee0090004e00900000804000b1
:1057b80080004000c04721000080400010007800b1
:1057c8004800de0000417800010820008380400086
:1057d800201c210000804000124098004e009000dc
:1057e80000004000e4014000ee0090004e009000f0
:1057f8000080400080004000c04721000080400039
:1058080010007800004178000108200083804000e3
:10581800201c210000804000124098004e0090009b
:105828000000e80040079800ce0090005e0090005d
:10583800808f5000d8ff39005e00900000004000c3
:105848006340400025010700cb00370042d2bf006b
:10585800e84f5000c8003a00c4d1bf000080fb00e8
:10586800c800dd00c5d1bf000080fb0000807000cb
:1058780060079800c6d1bf000080fb00c800dd00ab
:10588800c7d1bf000080fb0000807000100798009f
:10589800ee009000f0072000808f5000b6003e0018
:1058a8006e00900080004000c0472100008040004a
:1058b8009e009000010878006e019000020f980089
:1058c800600620008e089000808f50002200320071
:1058d800600620000e099000800f510009003e006c
:1058e800400620008e089000808f50000e00320085
:1058f800500620000e099000800f51001000320061
:1059080022003700700620008e089000808f50001b
:1059180019003200800620000e099000800f510007
:1059280018003200190037009e009000a00a2000dd
:10593800808f500015003a008e15a800130037001c
:105948009e009000b00b2000808f50000f003a009e
:105958008e35a8000d0037009e009000c00c200076
:10596800808f500009003a000000eb00107a880090
:105978008eb5a800050037001e0090003081880011
:105988000200370040002000e07f88000000eb00a4
:10599800400798000d0037004e019000ce0090009f
:1059a800201c210000804000904178000108200060
:1059b80082804000201c2100008040001340980095
:1059c8004e0090000000e800400798004e0090004c
:1059d800e50f5000f0ff360060c0b300bf000700bd
:1059e8006500370042d2bf00e84f50006200360021
:1059f800c4d1bf000080fb00c800dd00c5d1bf00d6
:105a08000080fb000080700060079800c6d1bf00ce
:105a18000080fb00c800dd00c7d1bf000080fb008c
:105a28000080700050079800c8d1bf000080fb00bc
:105a3800000f78005e0090000000e0004e00320089
:105a4800de009000b0032000808f50004a003e0026
:105a58005e009000000040009e0f500046003a0093
